:04000000D6EF16F031
:08000800046ED8CF05F0E0CF33
:1000100006F00001E9CF0CF0EACF07F0E1CF08F0DD
:10002000E2CF09F0D9CF0AF0DACF0BF0F3CF12F01C
:10003000F4CF13F0FACF14F0F5CF15F0F6CF16F099
:10004000F7CF17F000C00EF001C00FF002C010F0A3
:1000500003C011F09DA230EF00F09EB26AEF00F0F5
:100060009DA636EF00F09EB645EF07F00EC000F0FB
:100070000FC001F010C002F011C003F00CC0E9FF86
:1000800007C0EAFF078E08C0E1FF09C0E2FF0AC00F
:10009000D9FF0BC0DAFF12C0F3FF13C0F4FF14C086
:1000A000FAFF15C0F5FF16C0F6FF17C0F7FF0450A2
:1000B00006C0E0FF05C0D8FF1000F76ACA0FF66E51
:1000C000000EF7220900F5501200392D4665622D09
:1000D00032320000CF859E9236EF00F001012F51A1
:1000E000100808E22F511E0805E3010E326F0E0EB4
:1000F0002F5F0CD02F51110808E22F516B0805E338
:10010000010E326F0E0E2F5F01D0326B2F51030A9A
:1001100000013BE0070A51E0010A67E0030AD8B496
:100120007CD0440AD8B491D0010AD8B4A6D0070A2A
:10013000D8B4BBD0010AD8B4D0D0030AD8B4E5D023
:10014000010AD8B4FAD00F0AD8B40FD1010AD8B432
:1001500024D1030AD8B439D1010AD8B44ED1070A40
:10016000D8B463D1010AD8B478D1030AD8B48DD1F8
:10017000010AD8B4A2D11F0AD8B4B7D1010AD8B4A1
:10018000CCD1D60AD8B4E1D103D201013251190D34
:10019000F350346B336F010E3325016E000E3421A2
:1001A000036E0150DA0FE96E000E0320EA6E31C1D2
:1001B000ECFFED5230C1EFFF000101013251190D8A
:1001C000F350346B336F030E3325016E000E342170
:1001D000036E0150DA0FE96E000E0320EA6E31C1A2
:1001E000ECFFED5230C1EFFF000101013251190D5A
:1001F000F350346B336F050E3325016E000E34213E
:10020000036E0150DA0FE96E000E0320EA6E31C171
:10021000ECFFED5230C1EFFF000101013251190D29
:10022000F350346B336F070E3325016E000E34210B
:10023000036E0150DA0FE96E000E0320EA6E31C141
:10024000ECFFED5230C1EFFF000101013251240DEE
:10025000F350346B336F040E3325016E000E3421DE
:10026000036E01501B0FE96E000E0320EA6E31C1D0
:10027000ECFFED5230C1EFFF000101013251240DBE
:10028000F350346B336F060E3325016E000E3421AC
:10029000036E01501B0FE96E000E0320EA6E31C1A0
:1002A000ECFFED5230C1EFFF000101013251240D8E
:1002B000F350346B336F080E3325016E000E34217A
:1002C000036E01501B0FE96E000E0320EA6E31C170
:1002D000ECFFED5230C1EFFF000101013251240D5E
:1002E000F350346B336F0A0E3325016E000E342148
:1002F000036E01501B0FE96E000E0320EA6E31C140
:10030000ECFFED5230C1EFFF000101013251240D2D
:10031000F350346B336F0C0E3325016E000E342115
:10032000036E01501B0FE96E000E0320EA6E31C10F
:10033000ECFFED5230C1EFFF000101013251240DFD
:10034000F350346B336F0E0E3325016E000E3421E3
:10035000036E01501B0FE96E000E0320EA6E31C1DF
:10036000ECFFED5230C1EFFF000101013251240DCD
:10037000F350346B336F100E3325016E000E3421B1
:10038000036E01501B0FE96E000E0320EA6E31C1AF
:10039000ECFFED5230C1EFFF000101013251240D9D
:1003A000F350346B336F120E3325016E000E34217F
:1003B000036E01501B0FE96E000E0320EA6E31C17F
:1003C000ECFFED5230C1EFFF000101013251240D6D
:1003D000F350346B336F140E3325016E000E34214D
:1003E000036E01501B0FE96E000E0320EA6E31C14F
:1003F000ECFFED5230C1EFFF000101013251240D3D
:10040000F350346B336F160E3325016E000E34211A
:10041000036E01501B0FE96E000E0320EA6E31C11E
:10042000ECFFED5230C1EFFF000101013251240D0C
:10043000F350346B336F180E3325016E000E3421E8
:10044000036E01501B0FE96E000E0320EA6E31C1EE
:10045000ECFFED5230C1EFFF000101013251240DDC
:10046000F350346B336F1A0E3325016E000E3421B6
:10047000036E01501B0FE96E000E0320EA6E31C1BE
:10048000ECFFED5230C1EFFF000101013251240DAC
:10049000F350346B336F1C0E3325016E000E342184
:1004A000036E01501B0FE96E000E0320EA6E31C18E
:1004B000ECFFED5230C1EFFF000101013251240D7C
:1004C000F350346B336F1E0E3325016E000E342152
:1004D000036E01501B0FE96E000E0320EA6E31C15E
:1004E000ECFFED5230C1EFFF000101013251240D4C
:1004F000F350346B336F200E3325016E000E342120
:10050000036E01501B0FE96E000E0320EA6E31C12D
:10051000ECFFED5230C1EFFF000101013251240D1B
:10052000F350346B336F220E3325016E000E3421ED
:10053000036E01501B0FE96E000E0320EA6E31C1FD
:10054000ECFFED5230C1EFFF00010101302D06D06C
:10055000315304E10001CF871BD001013051020863
:1005600006E1315304E10001CF8912D0010130517D
:100570000A0808E13151070805E1010E0001CA6FC0
:1005800007D00101303D03D0313D01D0FF00000113
:100590008AEF07F001012F51200DF350036A630F1A
:1005A000016E000E032201C033F103C034F1316B40
:1005B000306B326B32510F0815E3036A32C102F01F
:1005C000D8900236033602503325E96E34510320A9
:1005D000EA6EECCF03F0ED52EF5030270350312399
:1005E000322BE8D7080E3025356F000E3121366FDB
:1005F0003631036E3531026E03320232033202327B
:10060000033202320F0E031602C001F003C002F0E3
:100610000001120001012D51100808E22D511E08A1
:1006200005E3010E2E6F0E0E2D5F0CD02D5111081B
:1006300008E22D516B0805E3010E2E6F0E0E2D5FA3
:1006400001D02E6B2D51000A0001D8B497D0010AB9
:10065000D8B49AD0030AD8B49ED0010AD8B4A2D094
:10066000070AD8B4BAD0010AD8B4D2D0030AD8B491
:10067000EAD0010AD8B402D10F0AD8B41AD1010ABB
:10068000D8B432D1030AD8B44AD1010AD8B462D15D
:10069000070AD8B47AD1010AD8B492D1030AD8B4DF
:1006A000AAD1010AD8B4C2D11F0AD8B4BFD10F0A47
:1006B000D8B4C0D13F0AD8B4C2D1010AD8B4C4D189
:1006C000030AD8B4C6D1620AD8B4C7D1010AD8B4D3
:1006D000D9D1030AD8B4F1D1010AD8B409D2070A92
:1006E000D8B421D2010AD8B439D2030AD8B451D22D
:1006F000010AD8B469D20F0AD8B481D2010AD8B499
:1007000099D2030AD8B4B1D2010AD8B4C9D2070A1F
:10071000D8B4E1D2010AD8B4F9D2030AD8B411D3BB
:10072000010AD8B429D31F0AD8B441D3010AD8B4D6
:1007300059D3030AD8B471D3010AD8B46ED3070AC7
:10074000D8B46BD3010AD8B468D3D50AD8B469D366
:10075000010AD8B46BD3030AD8B46DD3010AD8B454
:100760006FD3070AD8B471D3010AD8B472D3030A7D
:10077000D8B473D3010AD8B474D377D301012F6BE3
:10078000000108DF025074D3DAC003F0F3C001F0B7
:10079000DAC002F06DD3010E01012F6F0001FADE05
:1007A000025066D301012E51190DF350306B2F6F9B
:1007B000010E2F25016E000E3021036E0150DA0F5D
:1007C000E96E000E0320EA6EECCF03F0ED52EFCF9E
:1007D00001F003C002F000014BD301012E51190DAD
:1007E000F350306B2F6F030E2F25016E000E30215A
:1007F000036E0150DA0FE96E000E0320EA6EECCFB3
:1008000003F0ED52EFCF01F003C002F0000130D34E
:1008100001012E51190DF350306B2F6F050E2F254E
:10082000016E000E3021036E0150DA0FE96E000EEA
:100830000320EA6EECCF03F0ED52EFCF01F003C0DE
:1008400002F0000115D301012E51190DF350306B48
:100850002F6F070E2F25016E000E3021036E015001
:10086000DA0FE96E000E0320EA6EECCF03F0ED52D2
:10087000EFCF01F003C002F00001FAD201012E51C6
:10088000190DF350306B2F6F090E2F25016E000EDE
:100890003021036E0150DA0FE96E000E0320EA6E7C
:1008A000ECCF03F0ED52EFCF01F003C002F00001F6
:1008B000DFD201012E51190DF350306B2F6F0B0E4B
:1008C0002F25016E000E3021036E0150DA0FE96E04
:1008D000000E0320EA6EECCF03F0ED52EFCF01F0F3
:1008E00003C002F00001C4D201012E51190DF350D2
:1008F000306B2F6F0D0E2F25016E000E3021036E11
:100900000150DA0FE96E000E0320EA6EECCF03F01F
:10091000ED52EFCF01F003C002F00001A9D20101B6
:100920002E51190DF350306B2F6F0F0E2F25016EC6
:10093000000E3021036E0150DA0FE96E000E032025
:10094000EA6EECCF03F0ED52EFCF01F003C002F0FE
:1009500000018ED201012E51190DF350306B2F6F13
:10096000110E2F25016E000E3021036E0150DA0F9B
:10097000E96E000E0320EA6EECCF03F0ED52EFCFEC
:1009800001F003C002F0000173D201012E51190DD4
:10099000F350306B2F6F130E2F25016E000E302198
:1009A000036E0150DA0FE96E000E0320EA6EECCF01
:1009B00003F0ED52EFCF01F003C002F0000158D276
:1009C00001012E51190DF350306B2F6F150E2F258D
:1009D000016E000E3021036E0150DA0FE96E000E39
:1009E0000320EA6EECCF03F0ED52EFCF01F003C02D
:1009F00002F000013DD201012E51190DF350306B70
:100A00002F6F170E2F25016E000E3021036E01503F
:100A1000DA0FE96E000E0320EA6EECCF03F0ED5220
:100A2000EFCF01F003C002F0000122D2FF0E016EF1
:100A3000026E1ED2C4C001F0C5C002F019D2C8C0F7
:100A400001F0C9C002F014D2C6C001F0C7C002F064
:100A50000FD2CEC001F0026A0BD201012E51240D3B
:100A6000F350306B2F6F1B0E2F25E96E000E3021D7
:100A7000EA6EECCF03F0ED52EFCF01F003C002F0CD
:100A80000001F6D101012E51240DF350306B2F6F70
:100A9000020E2F25016E000E3021036E01501B0F38
:100AA000E96E000E0320EA6EECCF03F0ED52EFCFBB
:100AB00001F003C002F00001DBD101012E51240D31
:100AC000F350306B2F6F040E2F25016E000E302176
:100AD000036E01501B0FE96E000E0320EA6EECCF8F
:100AE00003F0ED52EFCF01F003C002F00001C0D1DE
:100AF00001012E51240DF350306B2F6F060E2F2560
:100B0000016E000E3021036E01501B0FE96E000EC6
:100B10000320EA6EECCF03F0ED52EFCF01F003C0FB
:100B200002F00001A5D101012E51240DF350306BCC
:100B30002F6F080E2F25016E000E3021036E01501D
:100B40001B0FE96E000E0320EA6EECCF03F0ED52AE
:100B5000EFCF01F003C002F000018AD101012E5154
:100B6000240DF350306B2F6F0A0E2F25016E000EEF
:100B70003021036E01501B0FE96E000E0320EA6E58
:100B8000ECCF03F0ED52EFCF01F003C002F0000113
:100B90006FD101012E51240DF350306B2F6F0C0ECD
:100BA0002F25016E000E3021036E01501B0FE96EE0
:100BB000000E0320EA6EECCF03F0ED52EFCF01F010
:100BC00003C002F0000154D101012E51240DF35055
:100BD000306B2F6F0E0E2F25016E000E3021036E2D
:100BE00001501B0FE96E000E0320EA6EECCF03F0FC
:100BF000ED52EFCF01F003C002F0000139D1010145
:100C00002E51240DF350306B2F6F100E2F25016ED7
:100C1000000E3021036E01501B0FE96E000E032001
:100C2000EA6EECCF03F0ED52EFCF01F003C002F01B
:100C300000011ED101012E51240DF350306B2F6F96
:100C4000120E2F25016E000E3021036E01501B0F76
:100C5000E96E000E0320EA6EECCF03F0ED52EFCF09
:100C600001F003C002F0000103D101012E51240D57
:100C7000F350306B2F6F140E2F25016E000E3021B4
:100C8000036E01501B0FE96E000E0320EA6EECCFDD
:100C900003F0ED52EFCF01F003C002F00001E8D005
:100CA00001012E51240DF350306B2F6F160E2F259E
:100CB000016E000E3021036E01501B0FE96E000E15
:100CC0000320EA6EECCF03F0ED52EFCF01F003C04A
:100CD00002F00001CDD001012E51240DF350306BF4
:100CE0002F6F180E2F25016E000E3021036E01505C
:100CF0001B0FE96E000E0320EA6EECCF03F0ED52FD
:100D0000EFCF01F003C002F00001B2D001012E517B
:100D1000240DF350306B2F6F1A0E2F25016E000E2D
:100D20003021036E01501B0FE96E000E0320EA6EA6
:100D3000ECCF03F0ED52EFCF01F003C002F0000161
:100D400097D001012E51240DF350306B2F6F140EEC
:100D50002F25016E000E3021036E01501B0FE96E2E
:100D6000000E0320EA6EECCF03F0ED52EFCF01F05E
:100D700003C002F000017CD001012E51240DF3507C
:100D8000306B2F6F160E2F25016E000E3021036E73
:100D900001501B0FE96E000E0320EA6EECCF03F04A
:100DA000ED52EFCF01F003C002F0000161D001016C
:100DB0002E51240DF350306B2F6F180E2F25016E1E
:100DC000000E3021036E01501B0FE96E000E032050
:100DD000EA6EECCF03F0ED52EFCF01F003C002F06A
:100DE000000146D001012E51240DF350306B2F6FBE
:100DF0001A0E2F25016E000E3021036E01501B0FBD
:100E0000E96E000E0320EA6EECCF03F0ED52EFCF57
:100E100001F003C002F000012BD0FF0E016E026E44
:100E200027D0440E016E000E026E22D0320E016EEB
:100E3000000E026E1DD04C0E016E000E026E18D018
:100E4000300E016E000E026E13D0CBC001F0026AAC
:100E50000FD0CCC001F0026A0BD0CDC001F0026A05
:100E600007D0CAC001F0026A03D0FF0E016E026E05
:100E700097EF07F0C9502DC1C9FFC6889E96C7B02D
:100E8000FED7016AC5AC012A1200C7BA06D001011B
:100E90000C6BC7A401D00C8F00010CC12AF1010119
:100EA0000C517F0804E00C3D01D001D00C2B2A51DD
:100EB000800831E32A51800803E1C9CF2BF106D025
:100EC000C69CC7A0FED7C950C6882B6F2A2D04D058
:100ED000D8902B35106F1FD02A5101081CE22A51DF
:100EE000800819E02A51020803E12BC10FF113D049
:100EF0002A51030810E1D89010312C6F0FC12EF148
:100F00002BC12DF12F6F0FC131F12BC130F1000139
:100F10006EEF00F001012A517F081CE210B112D0DF
:100F2000D89010312C6F2D6F00010AEF03F002C032
:100F30000EF101C00DF10EC12CF10EC12DF19ADFA1
:100F400007D001010DC12CF10DC12DF1000192DF7F
:100F50000101102B9E96000136EF00F02320202087
:100F60002020202076696E206164633D256C750D1C
:100F70000A002320202020202074656D70206164E9
:100F8000633D256C750D0A002320202063685B30CB
:100F90005D2E73746174653D30782532580D0A00FA
:100FA0002320202063685B315D2E73746174653D7E
:100FB00030782532580D0A00232064637377635F0D
:100FC0006D6F64756C655F6C61746368696E675F93
:100FD000636F6E746163746F722025730D0A232032
:100FE0000000392D4665622D3232000057445420EE
:100FF00054494D454F5554004D434C522046524F95
:101000004D20534C454550004D434C522046524FC5
:101010004D2052554E004E4F524D414C20504F578F
:1010200045522055500042524F574E4F5554205272
:1010300045535441525400005744542046524F4D9A
:1010400020534C4545500000524553455420494ECD
:10105000535452554354494F4E00554E4B4E4F57E3
:101060004E210000010EEA6E280EE96EEF500EE0F0
:10107000050E016E006A002EFED7012EFBD72E0E44
:10108000006E002EFED700D0EF2EF2D71200240EF5
:10109000016EC250C30B0110C26E010E0101286F18
:1010A0000001E0DFC282C2B2FED7C4CF27F1C3CFB6
:1010B00026F101012751020808E2FF0A03E1265147
:1010C000BF0803E2000E016E18D02751010808E2A4
:1010D000FF0A03E126516A0803E2020E016E0DD0F9
:1010E0002751000808E2FF0A03E12651BF0803E286
:1010F000010E016E02D0030E016E0001D9EF09F05E
:10110000700ED36E9B9C9B9EC050C00B0509C06E99
:10111000C08EC280140E7E6EC190C192C194C196E1
:10112000020E7F6ED1803F0E926E700E936E810E16
:10113000946E300E776EF19E786A01011B6B1B5125
:1011400001082AE31B51190DF350276B266F050E7A
:101150002625016E000E2721036E0150DA0FE96E7D
:10116000000E0320EA6EEC68ED52EF681B51190D7A
:10117000F350276B266F010E2625016E000E2721E6
:10118000036E0150DA0FE96E000E0320EA6EEC6880
:10119000ED52EF681B2BD3D7010EEA6E1C0EE96EE1
:1011A000000E00015DEC00F00A000900F550EE6E43
:1011B0000009FBE101011B6B1D512D080FE0036AC3
:1011C0001B511C0FE96E010E0320EA6E300EEF5C1E
:1011D0000A0DF3CFCDF0000101011B2B036A1B5157
:1011E0001C0FE96E010E0320EA6E300EEF5C000169
:1011F000CD27020E01011B27036A1B511C0FE96E4C
:10120000010E0320EA6EEF504A0825E1010E1B256E
:10121000036A1C0FE96E010E0320EA6EEF504108CD
:1012200005E1010E0001CC6F14D00101020E1B2557
:10123000036A1C0FE96E010E0320EA6EEF504E08A0
:1012400005E1060E0001CC6F04D00101070E00017C
:10125000CC6F8CD00101036A1B511C0FE96E010E8B
:101260000320EA6EEF50410815E1010E1B25036AC9
:101270001C0FE96E010E0320EA6EEF50500805E1E5
:10128000040E0001CC6F04D00101080E0001CC6FE8
:101290006DD00101036A1B511C0FE96E010E032082
:1012A000EA6EEF504D0815E1020E1B25036A1C0F74
:1012B000E96E010E0320EA6EEF50520805E1030EBD
:1012C0000001CC6F04D00101050E0001CC6F4ED09F
:1012D0000101036A1B511C0FE96E010E0320EA6E27
:1012E000EF50460805E1020E0001CC6F3FD001012E
:1012F000036A1B511C0FE96E010E0320EA6EEF50CA
:10130000530805E1090E0001CC6F30D00101036ADA
:101310001B511C0FE96E010E0320EA6EEF504F08BF
:1013200005E10A0E0001CC6F21D00101036A1B51B7
:101330001C0FE96E010E0320EA6EEF504E0805E126
:101340000B0E0001CC6F12D00101036A1B511C0F60
:10135000E96E010E0320EA6EEF50440805E10C0E21
:101360000001CC6F03D001010001CC69040E010122
:101370001B25036A1C0FE96E010E0320EA6E300E76
:10138000EF5C0A0DF3CFCBF00001050E01011B2528
:10139000036A1C0FE96E010E0320EA6E300EEF5C4B
:1013A0000001CB27000E0609CA6EF90ECB6E9D8296
:1013B0006ED6D89001343E0F0101C86E00011DEFBA
:1013C00017F0036A01011E51D60FE96E000E0320CB
:1013D000EA6EEF5001E11CD0036A1E51D80FE96E8E
:1013E000000E0320EA6EC80EEF6E1E5305E19496C0
:1013F0008B8694988B9804D0949A8B8A949C8B9C1F
:10140000036A1E51D60FE96E000E0320EA6EEF6AE2
:10141000000112000101246B23C126F12251D8B42E
:1014200023072207256F255302E1265330E021C10F
:1014300003F02051E96E03C0EAFF1F51036E1E51F5
:101440001E2BD8B41F2B276F03C028F1F2CF29F130
:10145000F29E27C1A9FFA69CA69EA680A85029BFE0
:10146000F28EEF6E21C103F02051E96E03C0EAFF56
:10147000EFCF25F124C128F125C129F128512919DF
:10148000016E01C024F1202BD8B4212BC5D724C173
:1014900001F0000141EF0CF00101266B25C128F19C
:1014A0002451D8B425072407276F275302E1285376
:1014B0003CE023C103F02251E96E03C0EAFFEFCF05
:1014C00027F126C128F127C129F128512919016ED8
:1014D00001C026F12151036E2051202BD8B4212BBD
:1014E000276F03C028F12351036E2251222BD8B459
:1014F000232BE96E03C0EAFFEFCF29F1F250006E13
:10150000F29E27C1A9FF29C1A8FFA69CA69EA6847A
:101510000F01550EA76EAA0EA76EA682A6B2FED721
:10152000A6940050F2120101B9D726C101F00001C2
:10153000A8EF0AF001011B0E1E6F216B020E206F37
:10154000236B1EC122F1256B480E246F0001A4D726
:1015500001C01DF1F250006EF29EA96A1DC1A8FFE4
:10156000A69CA69EA6840F01550EA76EAA0EA76E76
:10157000A682A6B2FED7A6940050F2120001120075
:10158000010ECE6FD069D16901011C6B1C5101089D
:10159000D8A056D11C51240DF3501E6B1D6F040EA4
:1015A0001D25016E000E1E21036E01501B0FE96EFA
:1015B000000E0320EA6E020EEC6EED525E0EEF6E30
:1015C0001C51240DF3501E6B1D6F060E1D25016E60
:1015D000000E1E21036E01501B0FE96E000E03204A
:1015E000EA6EEC6AED52140EEF6E1C51240DF350AE
:1015F0001E6B1D6F080E1D25016E000E1E21036E51
:1016000001501B0FE96E000E0320EA6E020EEC6E15
:10161000ED52680EEF6E1C51240DF3501E6B1D6FC2
:101620000A0E1D25016E000E1E21036E01501B0FB8
:10163000E96E000E0320EA6EEC6AED520A0EEF6EC0
:101640001C51240DF3501E6B1D6F0C0E1D25016ED9
:10165000000E1E21036E01501B0FE96E000E0320C9
:10166000EA6E020EEC6EED52BC0EEF6E1C51240DB4
:10167000F3501E6B1D6F0E0E1D25016E000E1E21F8
:10168000036E01501B0FE96E000E0320EA6EEC683A
:10169000ED52EF681C51240DF3501E6B1D6F100EA0
:1016A0001D25016E000E1E21036E01501B0FE96EF9
:1016B000000E0320EA6E020EEC6EED528A0EEF6E03
:1016C0001C51240DF3501E6B1D6F120E1D25016E53
:1016D000000E1E21036E01501B0FE96E000E032049
:1016E000EA6EEC6AED523C0EEF6E1C51240DF35085
:1016F0001E6B1D6F140E1D25016E000E1E21036E44
:1017000001501B0FE96E000E0320EA6E030EEC6E13
:10171000ED52120EEF6E1C51240DF3501E6B1D6F17
:10172000160E1D25016E000E1E21036E01501B0FAB
:10173000E96E000E0320EA6EEC68ED52EF681C5172
:10174000240DF3501E6B1D6F180E1D25016E000E2B
:101750001E21036E01501B0FE96E000E0320EA6E7E
:10176000020EEC6EED52AB0EEF6E1C51240DF350D9
:101770001E6B1D6F1A0E1D25016E000E1E21036EBD
:1017800001501B0FE96E000E0320EA6EEC6AED5269
:10179000040EEF6E1C51240DF3501E6B1D6F1C0EBA
:1017A0001D25016E000E1E21036E01501B0FE96EF8
:1017B000000E0320EA6E010EEC6EED52950EEF6EF8
:1017C0001C51240DF3501E6B1D6F1E0E1D25016E46
:1017D000000E1E21036E01501B0FE96E000E032048
:1017E000EA6EEC68ED52EF681C51240DF3501E6B4D
:1017F0001D6F200E1D25016E000E1E21036E01506F
:101800001B0FE96E000E0320EA6E020EEC6EED5225
:10181000EF6A1C51240DF3501E6B1D6F220E1D2507
:10182000016E000E1E21036E01501B0FE96E000EAB
:101830000320EA6EEC6AED52040EEF6E1C2BA6D666
:10184000020E206E5A0E1F6E020E246E730E236E51
:10185000020E446E660E436E020E486E800E476E98
:10186000000168DE120001011B0E1C6F1F6B020ECF
:101870001E6F216B1CC120F1236B480E226F0001EB
:10188000C9D501C01BF1F2CF1CF1F29EA96AA69C3A
:10189000A69EA680A85001011CBFF28E1B5D03E02E
:1018A00000016EDE010100012DEF17F00900F6CFF7
:1018B0001EF1F7CF1FF1F5509EA8FED7AD6E1EC1E9
:1018C000F6FF1FC1F7FF01011D2F01D002D000015B
:1018D000EDD7000112000900F5520DE0F6CF1BF123
:1018E000F7CF1CF1F5509EA8FED7AD6E1BC1F6FFD9
:1018F0001CC1F7FFF0D71200C32BC3510F0801E240
:10190000C36B100E016EC250C30B0110C26ED89093
:10191000C335036A630FE96E000E0320EA6EC282CC
:10192000C2B2FED7C3CFEFFFC4CFECFF080E016EEB
:10193000C250C30B0110C26E010E0101286F0001DD
:1019400032EC08F0D890C335036A830FE96E000EBD
:101950000320EA6EC282C2B2FED7C3CFEFFFC4CF6C
:10196000ECFF240E016EC250C30B0110C26E010EBB
:101970000101286F000132EC08F0D890C335036AEA
:10198000A30FE96E000E0320EA6EC282C2B2FED738
:10199000C3CFEFFFC4CFECFF120001011C5303E1E2
:1019A00094928B8202D094948B84000112000101E6
:1019B0001C5303E194928B9202D094948B94000177
:1019C000120001011C5303E1928A80AA05D01C2D4C
:1019D00012D0928880B80FD01C51190DF350206B93
:1019E0001F6FDA0E1F25016E000E202101C0E9FFD6
:1019F000EA6EEF800ED01C51190DF350206B1F6F53
:101A0000DA0E1F25016E000E202101C0E9FFEA6EEB
:101A1000EF901C51190DF350206B1F6F010E1F2505
:101A2000016E000E2021036E0150DA0FE96E000EE8
:101A30000320EA6EECCF03F0ED52EF50FF0803E114
:101A4000033C01D0CBD01C51190DF350206B1F6FFC
:101A5000010E1F25016E000E2021036E0150DA0FCA
:101A6000E96E000E0320EA6EECCF20F1ED52EFCFCD
:101A70001FF11F5302E1205317E01C51190DF350C1
:101A8000206B1F6F010E1F25016E000E2021036EBB
:101A90000150DA0FE96E000E0320EA6EFF0EEF260A
:101AA00002E2EE52ED069AD01C51190DF350206B54
:101AB0001F6FDA0E1F25E96E000E2021EA6EEFCFB0
:101AC00021F121B33AD01C51190DF350206B1F6F37
:101AD000DA0E1F25016E000E202101C0E9FFEA6E1B
:101AE000EF821C51190DF350206B1F6F030E1F2541
:101AF000016E000E2021036E0150DA0F016E000E00
:101B0000032203C020F11C51240DF350226B216FDE
:101B10001B0E2125E96E000E2221EA6EECCF03F0A8
:101B2000ED52EFCF23F120C1EAFF01C0E9FF03C06E
:101B3000ECFFED5223C1EFFF51D01C51190DF350B2
:101B4000206B1F6F030E1F25016E000E2021036EF8
:101B50000150DA0FE96E000E0320EA6EECCF03F0BD
:101B6000ED52EF5025E1035223E11C51190DF350C2
:101B7000206B1F6FDA0E1F25016E000E202101C0A1
:101B8000E9FFEA6EEF921C51190DF350206B1F6FA5
:101B9000010E1F25016E000E2021036E0150DA0F89
:101BA000E96E000E0320EA6EEC68ED52EF6816D085
:101BB0001C51190DF350206B1F6F030E1F25016E72
:101BC000000E2021036E0150DA0FE96E000E032093
:101BD000EA6EFF0EEF2602E2EE52ED061C51190DE1
:101BE000F350206B1F6F050E1F25016E000E202184
:101BF000036E0150DA0FE96E000E0320EA6EECCF9F
:101C000003F0ED52EF50FF0803E1033C01D0D3D0C5
:101C10001C51190DF350206B1F6F050E1F25016E0F
:101C2000000E2021036E0150DA0FE96E000E032032
:101C3000EA6EECCF20F1ED52EFCF1FF11F5302E11E
:101C4000205317E01C51190DF350206B1F6F050E28
:101C50001F25016E000E2021036E0150DA0FE96E80
:101C6000000E0320EA6EFF0EEF2602E2EE52ED06B2
:101C7000A2D01C51190DF350206B1F6FDA0E1F25D7
:101C8000E96E000E2021EA6EEFCF21F121B542D09E
:101C90001C51190DF350206B1F6FDA0E1F25016EBA
:101CA000000E202101C0E9FFEA6EEF841C51190DDE
:101CB000F350206B1F6F070E1F25016E000E2021B1
:101CC000036E0150DA0F016E000E032201C01FF1F6
:101CD00003C020F11C51240DF350226B216F020E22
:101CE0002125016E000E2221036E01501B0FE96EAB
:101CF000000E0320EA6EECCF03F0ED52EFCF21F19E
:101D000020C1EAFF1FC1E9FF03C0ECFFED5221C172
:101D1000EFFF51D01C51190DF350206B1F6F070EB0
:101D20001F25016E000E2021036E0150DA0FE96EAF
:101D3000000E0320EA6EECCF03F0ED52EF5025E1E8
:101D4000035223E11C51190DF350206B1F6FDA0E63
:101D50001F25016E000E202101C0E9FFEA6EEF94FD
:101D60001C51190DF350206B1F6F050E1F25016EBE
:101D7000000E2021036E0150DA0FE96E000E0320E1
:101D8000EA6EEC68ED52EF6816D01C51190DF35055
:101D9000206B1F6F070E1F25016E000E2021036EA2
:101DA0000150DA0FE96E000E0320EA6EFF0EEF26F7
:101DB00002E2EE52ED061C51240DF350206B1F6F12
:101DC000060E1F25016E000E2021036E01501B0F11
:101DD000E96E000E0320EA6EECCF03F0ED52EF50F7
:101DE000FF0803E1033C01D02FD1196AF2BE198E1E
:101DF000F29E2F6B0001CAEC02F019BEF28E02C0F7
:101E00001EF101C01DF101011C51240DF350206B86
:101E10001F6F080E1F25016E000E2021036E01505A
:101E20001B0FE96E000E0320EA6EECCF03F0ED52BB
:101E3000EFCF01F003501E5D44E303E11D51015C4F
:101E400040E21C51190DF350206B1F6F0B0E1F2524
:101E5000016E000E2021036E0150DA0FE96E000EB4
:101E60000320EA6EECCF20F1ED52EFCF1FF11F53AC
:101E700002E1205317E01C51190DF350206B1F6F26
:101E80000B0E1F25016E000E2021036E0150DA0F8C
:101E9000E96E000E0320EA6EFF0EEF2602E2EE521C
:101EA000ED060ED01C51190DF350206B1F6FDA0E8A
:101EB0001F25016E000E202101C0E9FFEA6EEF969A
:101EC00033D01C51190DF350206B1F6F0B0E1F25C3
:101ED000016E000E2021036E0150DA0F016E000E1C
:101EE000032201C01FF103C020F11C51240DF35047
:101EF000226B216F0A0E2125016E000E2221036E36
:101F000001501B0FE96E000E0320EA6EECCF03F0C8
:101F1000ED52EFCF21F120C1EAFF1FC1E9FF03C05D
:101F2000ECFFED5221C1EFFF1C51240DF350206B4B
:101F30001F6F040E1F25016E000E2021036E01503D
:101F40001B0FE96E000E0320EA6EECCF03F0ED529A
:101F5000EFCF01F01E51035C44E303E101501D5D2E
:101F600040E21C51190DF350206B1F6F090E1F2505
:101F7000016E000E2021036E0150DA0FE96E000E93
:101F80000320EA6EECCF20F1ED52EFCF1FF11F538B
:101F900002E1205317E01C51190DF350206B1F6F05
:101FA000090E1F25016E000E2021036E0150DA0F6D
:101FB000E96E000E0320EA6EFF0EEF2602E2EE52FB
:101FC000ED060ED01C51190DF350206B1F6FDA0E69
:101FD0001F25016E000E202101C0E9FFEA6EEF8689
:101FE00033D01C51190DF350206B1F6F090E1F25A4
:101FF000016E000E2021036E0150DA0F016E000EFB
:10200000032201C01FF103C020F11C51240DF35025
:10201000226B216F060E2125016E000E2221036E18
:1020200001501B0FE96E000E0320EA6EECCF03F0A7
:10203000ED52EFCF21F120C1EAFF1FC1E9FF03C03C
:10204000ECFFED5221C1EFFF1C51240DF350206B2A
:102050001F6F0E0E1F25016E000E2021036E015012
:102060001B0FE96E000E0320EA6EECCF03F0ED5279
:10207000EF50FF0803E1033C01D02FD1196AF2BEF3
:10208000198EF29E2F6B0001CAEC02F019BEF28E7F
:1020900002C01EF101C01DF101011C51240DF350BD
:1020A000206B1F6F100E1F25016E000E2021036E86
:1020B00001501B0FE96E000E0320EA6EECCF03F017
:1020C000ED52EFCF01F01E51035C44E303E10150F8
:1020D0001D5D40E21C51190DF350206B1F6F0F0E58
:1020E0001F25016E000E2021036E0150DA0FE96EEC
:1020F000000E0320EA6EECCF20F1ED52EFCF1FF17E
:102100001F5302E1205317E01C51190DF350206BAF
:102110001F6F0F0E1F25016E000E2021036E015050
:10212000DA0FE96E000E0320EA6EFF0EEF2602E2E0
:10213000EE52ED060ED01C51190DF350206B1F6F9F
:10214000DA0E1F25016E000E202101C0E9FFEA6EA4
:10215000EF9833D01C51190DF350206B1F6F0F0EE9
:102160001F25016E000E2021036E0150DA0F016E53
:10217000000E032201C01FF103C020F11C51240DE9
:10218000F350226B216F120E2125016E000E2221C9
:10219000036E01501B0FE96E000E0320EA6EECCFB8
:1021A00003F0ED52EFCF21F120C1EAFF1FC1E9FF9B
:1021B00003C0ECFFED5221C1EFFF1C51240DF35081
:1021C000206B1F6F0C0E1F25016E000E2021036E69
:1021D00001501B0FE96E000E0320EA6EECCF03F0F6
:1021E000ED52EFCF01F003501E5D44E303E11D51BA
:1021F000015C40E21C51190DF350206B1F6F0D0E56
:102200001F25016E000E2021036E0150DA0FE96ECA
:10221000000E0320EA6EECCF20F1ED52EFCF1FF15C
:102220001F5302E1205317E01C51190DF350206B8E
:102230001F6F0D0E1F25016E000E2021036E015031
:10224000DA0FE96E000E0320EA6EFF0EEF2602E2BF
:10225000EE52ED060ED01C51190DF350206B1F6F7E
:10226000DA0E1F25016E000E202101C0E9FFEA6E83
:10227000EF8833D01C51190DF350206B1F6F0D0EDA
:102280001F25016E000E2021036E0150DA0F016E32
:10229000000E032201C01FF103C020F11C51240DC8
:1022A000F350226B216F0E0E2125016E000E2221AC
:1022B000036E01501B0FE96E000E0320EA6EECCF97
:1022C00003F0ED52EFCF21F120C1EAFF1FC1E9FF7A
:1022D00003C0ECFFED5221C1EFFF1C51240DF35060
:1022E000206B1F6F160E1F25016E000E2021036E3E
:1022F00001501B0FE96E000E0320EA6EECCF03F0D5
:10230000ED52EF50FF0803E1033C01D030D1196AD0
:10231000F2BE198EF29E010E2F6F0001CAEC02F080
:1023200019BEF28E02C01EF101C01DF101011C5147
:10233000240DF350206B1F6F180E1F25016E000E29
:102340002021036E01501B0FE96E000E0320EA6E80
:10235000ECCF03F0ED52EFCF01F01E51035C44E3EC
:1023600003E101501D5D40E21C51190DF350206B3B
:102370001F6F130E1F25016E000E2021036E0150EA
:10238000DA0FE96E000E0320EA6EECCF20F1ED5279
:10239000EFCF1FF11F5302E1205317E01C51190D1D
:1023A000F350206B1F6F130E1F25016E000E2021AE
:1023B000036E0150DA0FE96E000E0320EA6EFF0E85
:1023C000EF2602E2EE52ED060ED01C51190DF3502D
:1023D000206B1F6FDA0E1F25016E000E202101C039
:1023E000E9FFEA6EEF9A33D01C51190DF350206BC0
:1023F0001F6F130E1F25016E000E2021036E01506A
:10240000DA0F016E000E032201C01FF103C020F19C
:102410001C51240DF350226B216F1A0E2125016EE1
:10242000000E2221036E01501B0FE96E000E0320E7
:10243000EA6EECCF03F0ED52EFCF21F120C1EAFFBD
:102440001FC1E9FF03C0ECFFED5221C1EFFF1C519A
:10245000240DF350206B1F6F140E1F25016E000E0C
:102460002021036E01501B0FE96E000E0320EA6E5F
:10247000ECCF03F0ED52EFCF01F003501E5D44E3CB
:1024800003E11D51015C40E21C51190DF350206B1A
:102490001F6F110E1F25016E000E2021036E0150CB
:1024A000DA0FE96E000E0320EA6EECCF20F1ED5258
:1024B000EFCF1FF11F5302E1205317E01C51190DFC
:1024C000F350206B1F6F110E1F25016E000E20218F
:1024D000036E0150DA0FE96E000E0320EA6EFF0E64
:1024E000EF2602E2EE52ED060ED01C51190DF3500C
:1024F000206B1F6FDA0E1F25016E000E202101C018
:10250000E9FFEA6EEF8A33D01C51190DF350206BAE
:102510001F6F110E1F25016E000E2021036E01504A
:10252000DA0F016E000E032201C01FF103C020F17B
:102530001C51240DF350226B216F160E2125016EC4
:10254000000E2221036E01501B0FE96E000E0320C6
:10255000EA6EECCF03F0ED52EFCF21F120C1EAFF9C
:102560001FC1E9FF03C0ECFFED5221C1EFFF1C5179
:10257000240DF350206B1F6F1E0E1F25016E000EE1
:102580002021036E01501B0FE96E000E0320EA6E3E
:10259000ECCF03F0ED52EF50FF0803E1033C01D014
:1025A00030D1196AF2BE198EF29E010E2F6F000112
:1025B000CAEC02F019BEF28E02C01EF101C01DF17C
:1025C00001011C51240DF350206B1F6F200E1F259D
:1025D000016E000E2021036E01501B0FE96E000EEC
:1025E0000320EA6EECCF03F0ED52EFCF01F0035081
:1025F0001E5D44E303E11D51015C40E21C51190DD5
:10260000F350206B1F6F170E1F25016E000E202147
:10261000036E0150DA0FE96E000E0320EA6EECCF74
:1026200020F1ED52EFCF1FF11F5302E1205317E0CD
:102630001C51190DF350206B1F6F170E1F25016ED3
:10264000000E2021036E0150DA0FE96E000E032008
:10265000EA6EFF0EEF2602E2EE52ED060ED01C519E
:10266000190DF350206B1F6FDA0E1F25016E000E3F
:10267000202101C0E9FFEA6EEF9C33D01C51190DF7
:10268000F350206B1F6F170E1F25016E000E2021C7
:10269000036E0150DA0F016E000E032201C01FF11C
:1026A00003C020F11C51240DF350226B216F220E28
:1026B0002125016E000E2221036E01501B0FE96ED1
:1026C000000E0320EA6EECCF03F0ED52EFCF21F1C4
:1026D00020C1EAFF1FC1E9FF03C0ECFFED5221C199
:1026E000EFFF1C51240DF350206B1F6F1C0E1F2594
:1026F000016E000E2021036E01501B0FE96E000ECB
:102700000320EA6EECCF03F0ED52EFCF01F01E5143
:10271000035C44E303E101501D5D40E21C51190DCF
:10272000F350206B1F6F150E1F25016E000E202128
:10273000036E0150DA0FE96E000E0320EA6EECCF53
:1027400020F1ED52EFCF1FF11F5302E1205317E0AC
:102750001C51190DF350206B1F6F150E1F25016EB4
:10276000000E2021036E0150DA0FE96E000E0320E7
:10277000EA6EFF0EEF2602E2EE52ED060ED01C517D
:10278000190DF350206B1F6FDA0E1F25016E000E1E
:10279000202101C0E9FFEA6EEF8C33D01C51190DE6
:1027A000F350206B1F6F150E1F25016E000E2021A8
:1027B000036E0150DA0F016E000E032201C01FF1FB
:1027C00003C020F11C51240DF350226B216F1E0E0B
:1027D0002125016E000E2221036E01501B0FE96EB0
:1027E000000E0320EA6EECCF03F0ED52EFCF21F1A3
:1027F00020C1EAFF1FC1E9FF03C0ECFFED5221C178
:10280000EFFF00011200036A01011E51D60FE96EAD
:10281000000E0320EA6EEF50010801E11DD0036AAB
:102820001E51D80FE96E000E0320EA6EC80EEF6E3F
:102830001E5305E194968B9694988B8804D0949AB5
:102840008B9A949C8B8C036A1E51D60FE96E000EF6
:102850000320EA6E010EEF6E000160EF14F0010E2E
:1028600001011D6F1D6F1C51190DF3501F6B1E6F61
:10287000DA0E1E25E96E000E1F21EA6EEF50030BE3
:1028800003E0010E1D6F0FD01C51190DF3501F6B8B
:102890001E6FDA0E1E25E96E000E1F21EA6EEF5044
:1028A0007C0B01E01D6B1D5307E11CC11EF10001F3
:1028B000E1EC09F005D001011CC11EF10001A3D714
:1028C000120001011C6B1C5101086AE31151070839
:1028D00033E31C51190DF3501E6B1D6FDA0E1D25CD
:1028E000E96E000E1E21EA6EEFCF00F01151016E6D
:1028F00004E0D8900032012EFCD700A014D0036A67
:102900001C51D00FE96E000E0320EA6E010E112556
:10291000EF6E036A1C51D20FE96E000E0320EA6EBF
:10292000FE0EEF6E08D0036A1C51D00FE96E000E48
:102930000320EA6EEF6A32D01151080809E1036AF8
:102940001C51D00FE96E000E0320EA6EEF6826D00E
:10295000115109081BE1036A1C51D60FE96E000EE4
:102960000320EA6EEF5209E0036A1C51D00FE96EB2
:10297000000E0320EA6EEF6808D0036A1C51D00FE6
:10298000E96E000E0320EA6EEF6A08D0036A1C515C
:10299000D00FE96E000E0320EA6EEF6A1C2B93D76E
:1029A00011510A0802E1116B01D0112B0001AEEFA9
:1029B00015F0CF9501011B6B1B510108D8A07FD0EA
:1029C000036A1B51D00FE96E000E0320EA6EEF5030
:1029D000FF0807E11BC11CF10001CDEC0CF06CD02D
:1029E0000101036A1B51D00FE96E000E0320EA6E4D
:1029F000EF5007E11BC11CF10001D7EC0CF05CD0DB
:102A00000101036A1B51D20FE96E000E0320EA6E2A
:102A1000EF5220E01BC11CF10001CDEC0CF0036A69
:102A200001011B51D20FE96E000E0320EA6EEF0682
:102A3000036A1B51D20FE96E000E0320EA6EEF50BD
:102A400009E1036A1B51D40FE96E000E0320EA6E00
:102A5000C80EEF6E036A1B51D40FE96E000E0320FF
:102A6000EA6EEF5228E01BC11CF10001D7EC0CF01C
:102A7000036A01011B51D40FE96E000E0320EA6EB8
:102A8000EF06036A1B51D40FE96E000E0320EA6EB5
:102A9000EF5011E1036A1B51D20FE96E000E0320C3
:102AA000EA6EFE0EEF6E036A1B51D00FE96E000E48
:102AB0000320EA6EEF06000101011B2B7DD7000108
:102AC000C83D03D0C93D01D003D0C82BD8B4C92B11
:102AD000D85305E194968B9694988B9801D0D8079B
:102AE000D95305E1949A8B9A949C8B9C01D0D90779
:102AF0000101162BD8B4172B1651E80830E11751F5
:102B000003082DE1176B166B1C6B0001E1EC0CF058
:102B1000010E01011C6F0001E1EC0CF001011C6BC6
:102B200000019DDE010E01011C6F000198DE010114
:102B3000122B12513C080BE1126B0001C63D03D071
:102B4000C73D01D003D0C62BD8B4C72B0101132B2E
:102B50001351040804E1136B0001B3D60101000115
:102B6000CFA305D0CF930101156B146B00010101B8
:102B7000142BD8B4152B1451140807E1155305E193
:102B8000156B146B0001CF8101010001C5EF17F037
:102B90009EAAFED7ABCF1AF0AECF01F01AA202D098
:102BA000AB98AB88C8EF17F0EACF25F1E9CF24F155
:102BB00001011E39F009206F2027E20F216F320F2B
:102BC000236F1E510F0B212721272327E90F226F87
:102BD000222722271D390F0B2227232722372337AD
:102BE000231F23371D510F0B23272037070E1F6F7D
:102BF0000A0E22072327FDE321072227FDE32007F2
:102C00002127FDE31F072027FDE3010EEA6E1F0EBB
:102C1000E96E070E2415249DE926000EEA22E950EC
:102C2000230803E1EA2C01D0248DEF50006E08E167
:102C300024BD06D024B90CD024B702D0200E03D076
:102C400024872499300E002600509EA8FED7AD6E32
:102C5000EE5024ADE4D70001120001011CBF10D0DA
:102C60000F0E006E1B3900160A0E005C03E2300ED8
:102C7000002602D01C51002600509EA8FED7AD6E43
:102C80000F0E1B170A0E1B5D02E2300E02D01C9FB6
:102C90001C511B271B519EA8FED7AD6E00011200D0
:102CA0000400196AF2BE198EF29E01012F6B000119
:102CB000CAEC02F019BEF28E02C01CF101C01BF179
:102CC0005C0EF66E0F0EF76E100E01011D6F000107
:102CD00056EC0CF0100EE96E1CC11EF11BC11DF16B
:102CE00063DF0D0E9EA8FED7AD6E0A0E9EA8FED71E
:102CF000AD6E196AF2BE198EF29E010E01012F6FA0
:102D00000001CAEC02F019BEF28E02C01CF101C033
:102D10001BF1720EF66E0F0EF76E100E01011D6F95
:102D2000000156EC0CF0100EE96E1CC11EF11BC127
:102D30001DF13ADF0D0E9EA8FED7AD6E0A0E9EA8BD
:102D4000FED7AD6E880EF66E0F0EF76E120E0101F5
:102D50001D6F000156EC0CF0DAC01BF1370E0101BB
:102D60001C6F00017ADF0D0E9EA8FED7AD6E0A0E15
:102D70009EA8FED7AD6EA00EF66E0F0EF76E120E69
:102D800001011D6F000156EC0CF0F3C01BF1370E72
:102D900001011C6F000161DF0D0E9EA8FED7AD6E14
:102DA0000A0E9EA8FED7AD6ECDEF17F0F86AD09E42
:102DB000078E938C9388C86A360EC66EC580C58E02
:102DC0001A6AB886440EAF6E000EB06EA60EAC6ED8
:102DD000900EAB6E0101196B186B000E7E6EC190E8
:102DE000C192C194C1967F6E6C6A6B6A6D6A03D0A2
:102DF000FD401B000000000EF86E2D0EF76EF00E69
:102E0000F66E0900F550006E000A13E00900F55057
:102E1000016EE8BE05D03F0BEA6E0900F5CFE9FF71
:102E200001BC090001AC0900F5CFEEFF004EE9D767
:102E3000F9D7F86A000180EF08F0010ED66FD76F5E
:102E400001011E6B0001E1EC09F0010E01011E6F92
:102E50000001E1EC09F033EF0CF001011A6B1A519B
:102E6000040813E3040094928B82C80E286F0001BB
:102E700032EC08F094928B92C80E0101286F000189
:102E800032EC08F001011A2BEAD7B80EF66E0F0EDD
:102E9000F76E220E1D6F000156EC0CF0E20EF66E7E
:102EA0000F0EF76E6BEC0CF0DC0EF66E0F0EF76E7D
:102EB000040E01011D6F000156EC0CF0070E005CC2
:102EC00012E00B0E005C16E00F0E005C1AE00C0E18
:102ED000005C1EE00E0E005C22E0030E005C26E0AB
:102EE00000522BE031D0EC0EF66E0F0EF76E6BEC4D
:102EF0000CF030D0F80EF66E0F0EF76E6BEC0CF097
:102F000029D0080EF66E100EF76E6BEC0CF022D086
:102F1000160EF66E100EF76E6BEC0CF01BD0260E34
:102F2000F66E100EF76E6BEC0CF014D0380EF66ED9
:102F3000100EF76E6BEC0CF00DD0480EF66E100E06
:102F4000F76E6BEC0CF006D05A0EF66E100EF76EA4
:102F50006BEC0CF00D0E9EA8FED7AD6E0A0E9EA86F
:102F6000FED7AD6EC00EF21201011A6B1A511D0888
:102F700006E300017CEC0CF001011A2BF7D79D86CB
:102F800004000001CFA501D014D59EAA02D000D61E
:102F9000CF8BCFAB02D0CF9B83D6CFA103D0CF9125
:102FA0007CEC0CF0CFA703D0CF979AEC0AF0CFA916
:0E2FB00003D0CF99C0EC0AF00101E2D7030074
:0200000400F00A
:0400000000004000BC
:020000040030CA
:0E0000000008070F0000810003C003E003406A
:00000001FF
;PIC18F14K22
;CRC=97E6  CREATED="09-Feb-22 11:42"
