:10000000C2EF0AF0D3EF01F0046ED8CF05F0E0CFD5
:1000100006F00001E9CF0CF0EACF07F0E1CF08F0DD
:10002000E2CF09F0D9CF0AF0DACF0BF0F3CF12F01C
:10003000F4CF13F0FACF14F0F5CF15F0F6CF16F099
:10004000F7CF17F000C00EF001C00FF002C010F0A3
:1000500003C011F09DA230EF00F09EB26AEF00F0F5
:100060009DA636EF00F09EB68FEF01F00EC000F0B7
:100070000FC001F010C002F011C003F00CC0E9FF86
:1000800007C0EAFF078E08C0E1FF09C0E2FF0AC00F
:10009000D9FF0BC0DAFF12C0F3FF13C0F4FF14C086
:1000A000FAFF15C0F5FF16C0F6FF17C0F7FF0450A2
:1000B00006C0E0FF05C0D8FF1000F76ACA0FF66E51
:1000C000000EF7220900F5501200352D4665622D0D
:1000D00032320000D0859E9236EF00F00101395196
:1000E000200DF350036A640F3D6F000E03203E6F36
:1000F0003B6B3A6B3C6B3C510F0815E3036A3CC108
:1001000002F0D8900236033602503D25E96E3E518A
:100110000320EA6EECCF03F0ED52EF503A27035084
:100120003B233C2BE8D7080E3A253F6F000E3B21BE
:10013000406F4031036E3F31026E033202320332B0
:100140000232033202320F0E031602C001F003C066
:1001500002F000011200640ED16F01013851000A53
:1001600000013FE0010A43E0030A48E0010A4DE0D4
:10017000070A5BE0010AD8B468D0160AD8B46AD07E
:10018000140AD8B46CD0120AD8B46ED01C0AD8B4F1
:1001900070D01E0AD8B472D01C0AD8B474D0120A17
:1001A000D8B476D0140AD8B478D0160AD8B47AD095
:1001B000140AD8B47CD0120AD8B47ED00C0AD8B4B1
:1001C00081D00E0AD8B482D03D0AD8B483D0010AB7
:1001D000D8B485D0070AD8B487D0010AD8B489D05A
:1001E0008CD00101396B000179DF02508BD0D5C072
:1001F00003F0ECC001F0D5C002F084D0010E010183
:10020000396F00016BDF02507DD0D890C435036A8E
:10021000640FE96E000E0320EA6EECCF03F0ED529E
:10022000EFCF01F003C002F06DD0D890C435036A5F
:10023000840FE96E000E0320EA6EECCF03F0ED525E
:10024000EFCF01F003C002F05DD0D6C001F0D7C0FF
:1002500002F058D0EDC001F0EEC002F053D0DAC089
:1002600001F0DBC002F04ED0F1C001F0F2C002F0AC
:1002700049D0DEC001F0DFC002F044D0F5C001F08B
:10028000F6C002F03FD0E1C001F0E2C002F03AD087
:10029000F8C001F0F9C002F035D0E4C001F0E5C0CB
:1002A00002F030D0FBC001F0FCC002F02BD0E8C05F
:1002B00001F0E9C002F026D0FFC001F000C102F059
:1002C000000120D0FF0E016E026E1CD0FF0E016EE9
:1002D000026E18D0C5C001F0C6C002F013D0C9C06C
:1002E00001F0CAC002F00ED0C7C001F0C8C002F0D1
:1002F00009D0CFC001F0026A05D0010138C101F078
:10030000026A0001DFEF01F0C95038C1C9FFC68899
:100310009E96C7B0FED7016AC5AC012A1200C7BAC3
:1003200006D00101036BC7A401D0038F000103C1F4
:1003300035F1010103517F0804E0033D01D001D0F4
:10034000032B3551800830E33551800803E1C9CFD4
:1003500036F106D0C69CC7A0FED7C950C688366FF6
:10036000352D04D0D8903635076F1ED03551010891
:100370001BE23551800818E03551020803E136C10F
:1003800006F112D0355103080FE1D8900731376FCD
:1003900006C139F136C138F13A6F06C13CF136C1B8
:1003A0003BF100012FD6010135517F081BE207B157
:1003B00011D0D8900731376F386F0001CCD602C00A
:1003C00005F101C004F105C137F105C138F19CDF29
:1003D00007D0010104C137F104C138F1000194DFF5
:1003E0000101072B9E96000136EF00F02320646385
:1003F0007377635F6D6F64756C655F6C6174636860
:10040000696E675F636F6E746163746F72202573CA
:100410000D0A23200000352D4665622D3232000082
:100420005744542054494D454F5554004D434C5268
:100430002046524F4D20534C454550004D434C52A1
:100440002046524F4D2052554E004E4F524D414C7A
:1004500020504F5745522055500042524F574E4F53
:10046000555420524553544152540000574454208F
:1004700046524F4D20534C45455000005245534580
:100480005420494E535452554354494F4E00554EF3
:100490004B4E4F574E2100002320726561645F640C
:1004A00069705F73776974636828293D25750D0A43
:1004B0000000232020202076696E206164633D25A2
:1004C0006C750D0A00002320202074656D7020617A
:1004D00064633D256C750D0A00002320646970205B
:1004E0007377206164633D256C750D0A000023203D
:1004F0006368616E6E656C5B25755D0D0A00232077
:1005000020202020202020202020202020202020EB
:100510002020202020202073746174653D307825D0
:100520003032780D0A002320202020202020202097
:100530002020636F6D6D616E645F6F6E5F736563C6
:100540006F6E64733D256C750D0A0000232020201A
:10055000202020636F6D6D616E645F6F6E5F686FEA
:100560006C645F7365636F6E64733D256C750D0A13
:1005700000002320202020202020202020636F6DD9
:100580006D616E645F6F66665F7365636F6E6473E3
:100590003D256C750D0A0000232020202020636F6C
:1005A0006D6D616E645F6F66665F686F6C645F73CC
:1005B00065636F6E64733D256C750D0A0000232022
:1005C0006C76645F646973636F6E6E6563745F6499
:1005D000656C61795F7365636F6E64733D256C75DF
:1005E0000D0A00002320206C76645F7265636F6ED5
:1005F0006E6563745F64656C61795F7365636F6E6C
:1006000064733D25750D0A0023206876645F646974
:1006100073636F6E6E6563745F64656C61795F733D
:1006200065636F6E64733D256C750D0A00002320B1
:10063000206876645F7265636F6E6E6563745F6475
:10064000656C61795F7365636F6E64733D25750DCD
:100650000A00010EEA6E340EE96EEF500EE0050E50
:10066000016E006A002EFED7012EFBD72E0E006E03
:10067000002EFED700D0EF2EF2D71200240E016E0E
:10068000C250C30B0110C26E010E0101346F000194
:10069000E0DFC282C2B2FED7C4CF33F1C3CF32F1A2
:1006A00001013351020808E2FF0A03E13251BF0899
:1006B00003E2000E016E18D03351010808E2FF0A70
:1006C00003E132516A0803E2020E016E0DD033518C
:1006D000000808E2FF0A03E13251BF0803E2010EFD
:1006E000016E02D0030E016E00011200700ED36E77
:1006F0009B9C9B9EC050C00B0509C06EC08EC280E3
:10070000140E7E6EC190C192C194C196020E7F6E8E
:10071000D1803F0E926E700E936E810E946E300EED
:10072000776EF19E786ADB69DA69F269F169D769F7
:10073000D669EE69ED69010EEA6E120EE96E000EE1
:10074000BCDC0A000900F550EE6E0009FBE1300E3A
:100750000101125D0A0DF3CFCEF00001300E010150
:10076000135D0001CE27010115514A0815E116510C
:10077000410805E1010E0001CD6F0CD001011751B8
:100780004E0805E1060E0001CD6F04D00101070EF1
:100790000001CD6F4BD00101155141080DE11651FB
:1007A000500805E1040E0001CD6F04D00101080ED0
:1007B0000001CD6F3BD0010115514D080DE11751DE
:1007C000520805E1030E0001CD6F04D00101050EB2
:1007D0000001CD6F2BD001011551460805E1020E35
:1007E0000001CD6F23D001011551530805E1090E19
:1007F0000001CD6F1BD0010115514F0805E10A0E14
:100800000001CD6F13D0010115514E0805E10B0E0B
:100810000001CD6F0BD001011551440805E10C0E0C
:100820000001CD6F03D001010001CD69300E01013F
:10083000195D0A0DF3CFCCF00001300E01011A5DF5
:100840000001CC27000E0609CA6EF90ECB6E9D8200
:1008500015DFD89001343E0F0101C86E000109EF89
:100860000BF001011B6B1AC11DF11951D8B41A0705
:1008700019071C6F1C5302E11D5330E018C103F02F
:100880001751E96E03C0EAFF1651036E1551152B7F
:10089000D8B4162B1E6F03C01FF1F2CF20F1F29EC9
:1008A0001EC1A9FFA69CA69EA680A85020BFF28EBE
:1008B000EF6E18C103F01751E96E03C0EAFFEFCFE6
:1008C0001CF11BC11FF11CC120F11F512019016E29
:1008D00001C01BF1172BD8B4182BC5D71BC101F0D1
:1008E00000019DEF05F001011D6B1CC11FF11B51A3
:1008F000D8B41C071B071E6F1E5302E11F533CE0B8
:100900001AC103F01951E96E03C0EAFFEFCF1EF1DF
:100910001DC11FF11EC120F11F512019016E01C020
:100920001DF11851036E1751172BD8B4182B1E6FD9
:1009300003C01FF11A51036E1951192BD8B41A2B89
:10094000E96E03C0EAFFEFCF20F1F250006EF29E95
:100950001EC1A9FF20C1A8FFA69CA69EA6840F01C8
:10096000550EA76EAA0EA76EA682A6B2FED7A694B3
:100970000050F2120101B9D71DC101F00001CFEF03
:1009800004F001011B0E156F186B020E176F1A6B26
:1009900015C119F11C6B490E1B6F0001A4D701C0D2
:1009A00014F1F250006EF29EA96A14C1A8FFA69C31
:1009B000A69EA6840F01550EA76EAA0EA76EA6824C
:1009C000A6B2FED7A6940050F21200011200010E4A
:1009D000CF6F960ED16FD26F1C6A140E1B6E1E6AFB
:1009E000050E1D6E1F6E216A020E206E0101136B33
:1009F00013510108D8A090D01351200DF350036A71
:100A0000240FE96E000E0320EA6E010EEC6EED522B
:100A10002F0EEF6E1351200DF350036A090F146F60
:100A2000000E0320156F020E1425016E000E152115
:100A3000036E01501B0FE96E000E0320EA6EEC6A94
:100A4000ED52280EEF6E1351200DF350036A090F7B
:100A5000146F000E0320156F040E1425016E000E96
:100A60001521036E01501B0FE96E000E0320EA6E84
:100A7000010EEC6EED52340EEF6E1351200DF3505B
:100A8000036A090F146F000E0320156F080E14255A
:100A9000016E000E1521036E01501B0FE96E000E52
:100AA0000320EA6E010EEC6EED529A0EEF6E1351BA
:100AB000200DF350036A090F146F000E0320156F09
:100AC0000A0E1425016E000E1521036E01501B0F36
:100AD000E96E000E0320EA6EEC6AED520F0EEF6E27
:100AE0001351200DF350036A090F146F000E0320F9
:100AF000156F0C0E1425016E000E1521036E0150AA
:100B00001B0FE96E000E0320EA6E010EEC6EED5233
:100B1000810EEF6E132B6CD7000133DF1200010141
:100B20001B0E136F166B020E156F186B13C117F1A6
:100B30001A6B490E196F000194D601C012F1F2CF61
:100B400013F1F29EA96AA69CA69EA680A850010158
:100B500013BFF28E125D03E0000139DF01010001D5
:100B60000BEF0BF00900F6CF16F1F7CF17F1F550A8
:100B70009EA8FED7AD6E16C1F6FF17C1F7FF0101A3
:100B8000152F01D002D00001EDD70001120009009D
:100B9000F5520DE0F6CF12F1F7CF13F1F5509EA804
:100BA000FED7AD6E12C1F6FF13C1F7FFF0D71200EA
:100BB000C42BC4510F0801E2C46B100E016EC25069
:100BC000C30B0110C26ED890C435036A640FE96E7E
:100BD000000E0320EA6EC282C2B2FED7C3CFEFFF7F
:100BE000C4CFECFF080E016EC250C30B0110C26EE1
:100BF000010E0101346F00012CDDD890C435036A69
:100C0000840FE96E000E0320EA6EC282C2B2FED7E4
:100C1000C3CFEFFFC4CFECFF240E016EC250C30B55
:100C20000110C26E010E0101346F000112DDD89077
:100C3000C435036AA40FE96E000E0320EA6EC28277
:100C4000C2B2FED7C3CFEFFFC4CFECFF1200010149
:100C50001251170DF350166B156F050E1525016E09
:100C6000000E1621036E0150D50FE96E000E032011
:100C7000EA6EECCF03F0ED52EF50FF0803E1033CC6
:100C800001D0B6D01251170DF350166B156F050E2B
:100C90001525016E000E1621036E0150D50FE96E69
:100CA000000E0320EA6EECCF16F1ED52EFCF15F1F6
:100CB000155302E1165317E01251170DF350166B3E
:100CC000156F050E1525016E000E1621036E0150DD
:100CD000D50FE96E000E0320EA6EFF0EEF2602E24A
:100CE000EE52ED0685D01251170DF350166B156FAD
:100CF000D50E1525E96E000E1621EA6EEFCF17F11D
:100D000017B525D01251170DF350166B156FD50E70
:100D10001525016E000E162101C0E9FFEA6EEF8471
:100D20001251170DF350166B156F070E1525016E36
:100D3000000E1621036E0150D50FE96E000E032040
:100D4000EA6E21C0ECFFED5220C0EFFF51D01251EE
:100D5000170DF350166B156F070E1525016E000E5B
:100D60001621036E0150D50FE96E000E0320EA6EC6
:100D7000ECCF03F0ED52EF5025E1035223E1125185
:100D8000170DF350166B156FD50E1525016E000E5D
:100D9000162101C0E9FFEA6EEF941251170DF350CE
:100DA000166B156F050E1525016E000E1621036ECC
:100DB0000150D50FE96E000E0320EA6EEC68ED528B
:100DC000EF6816D01251170DF350166B156F070E02
:100DD0001525016E000E1621036E0150D50FE96E28
:100DE000000E0320EA6EFF0EEF2602E2EE52ED0641
:100DF0001251200DF350036A090F156F000E0320E6
:100E0000166F020E1525016E000E1621036E01509D
:100E10001B0FE96E000E0320EA6EECCF03F0ED52DB
:100E2000EF50FF0803E1033C01D004D1196AF2BE80
:100E3000198EF29E396B00016EEC00F019BEF28E35
:100E400002C014F101C013F101011251200DF35041
:100E5000036A090F156F000E0320166F040E152587
:100E6000016E000E1621036E01501B0FE96E000E7D
:100E70000320EA6EECCF03F0ED52EFCF01F0035008
:100E8000145D39E303E11351015C35E21251170D92
:100E9000F350166B156F0B0E1525016E000E162103
:100EA000036E0150D50FE96E000E0320EA6EEF527B
:100EB00013E01251170DF350166B156F0B0E15251D
:100EC000016E000E1621036E0150D50FE96E000E63
:100ED0000320EA6EEF060ED01251170DF350166B79
:100EE000156FD50E1525016E000E162101C0E9FF04
:100EF000EA6EEF9613D01251170DF350166B156F63
:100F00000B0E1525016E000E1621036E0150D50F34
:100F1000E96E000E0320EA6E1FC0EFFF1251200D94
:100F2000F350036A240FE96E000E0320EA6EECCF43
:100F300003F0ED52EFCF01F01451035C44E303E101
:100F40000150135D40E21251170DF350166B156FEF
:100F5000090E1525016E000E1621036E0150D50FE6
:100F6000E96E000E0320EA6EECCF16F1ED52EFCFE2
:100F700015F1155302E1165317E01251170DF350F6
:100F8000166B156F090E1525016E000E1621036EE6
:100F90000150D50FE96E000E0320EA6EFF0EEF261A
:100FA00002E2EE52ED060ED01251170DF350166B01
:100FB000156FD50E1525016E000E162101C0E9FF33
:100FC000EA6EEF8637D01251170DF350166B156F7E
:100FD000090E1525016E000E1621036E0150D50F66
:100FE000016E000E032201C015F103C016F112516B
:100FF000200DF350036A090F176F000E0320186FBE
:10100000020E1725016E000E1821036E01501B0FF2
:10101000E96E000E0320EA6EECCF03F0ED52EFCF45
:1010200017F116C1EAFF15C1E9FF03C0ECFFED524D
:1010300017C1EFFF1251200DF350036A090F156F0E
:10104000000E0320166F0A0E1525016E000E1621E4
:10105000036E01501B0FE96E000E0320EA6EECCF09
:1010600003F0ED52EF50FF0803E1033C01D010D133
:10107000196AF2BE198EF29E396B00016EEC00F017
:1010800019BEF28E02C014F101C013F10101125118
:10109000200DF350036A090F156F000E0320166F21
:1010A0000C0E1525016E000E1621036E01501B0F4C
:1010B000E96E000E0320EA6EECCF03F0ED52EFCFA5
:1010C00001F01451035C39E303E10150135D35E293
:1010D0001251170DF350166B156F0E0E1525016E7C
:1010E000000E1621036E0150D50FE96E000E03208D
:1010F000EA6EEF5213E01251170DF350166B156F95
:101100000E0E1525016E000E1621036E0150D50F2F
:10111000E96E000E0320EA6EEF060ED01251170D95
:10112000F350166B156FD50E1525016E000E1621A6
:1011300001C0E9FFEA6EEF9813D01251170DF3507A
:10114000166B156F0E0E1525016E000E1621036E1F
:101150000150D50FE96E000E0320EA6E1FC0EFFFAD
:101160001251200DF350036A090F156F000E032072
:10117000166F080E1525016E000E1621036E015024
:101180001B0FE96E000E0320EA6EECCF03F0ED5268
:10119000EFCF01F00350145D44E303E11351015C10
:1011A00040E21251170DF350166B156F0C0E1525FA
:1011B000016E000E1621036E0150D50FE96E000E70
:1011C0000320EA6EECCF16F1ED52EFCF15F1155377
:1011D00002E1165317E01251170DF350166B156FFD
:1011E0000C0E1525016E000E1621036E0150D50F51
:1011F000E96E000E0320EA6EFF0EEF2602E2EE52C9
:10120000ED060ED01251170DF350166B156FD50E5B
:101210001525016E000E162101C0E9FFEA6EEF8868
:1012200037D01251170DF350166B156F0C0E152594
:10123000016E000E1621036E0150D50F016E000ED7
:10124000032201C015F103C016F11251200DF35015
:10125000036A090F176F000E0320186F0A0E172577
:10126000016E000E1821036E01501B0FE96E000E77
:101270000320EA6EECCF03F0ED52EFCF17F116C169
:10128000EAFF15C1E9FF03C0ECFFED5217C1EFFF04
:10129000000112008AEF09F0D095D15303E1949236
:1012A0008B9203D094928B82D107D25303E1949412
:1012B0008B9403D094948B84D207C93D03D0CA3D4C
:1012C00001D003D0C92BD8B4CA2BD35305E19496CF
:1012D0008B9694988B9801D0D307D45305E1949AB8
:1012E0008B9A949C8B9C01D0D40701010B2BD8B412
:1012F0000C2B0B51E8081EE10C5103081BE10C6B91
:101300000B6B126B0001A3DC010E0101126F0001D7
:101310009EDCC0D70101082B08513C080BE1086B8B
:101320000001C73D03D0C83D01D003D0C72BD8B4BE
:10133000C82B01010001D0A305D0D09301010A6B95
:10134000096B00010101092BD8B40A2B1B50095D60
:1013500008E11C500A5D05E10A6B096B0001D081B0
:1013600001010001B7EF0BF09EAAFED7ABCF1AF038
:10137000AECF01F01AA202D0AB98AB88BAEF0BF057
:1013800001011651016A155D03E215C100F00CD090
:10139000006A080E176F153700361651005CD8B07A
:1013A000006E0136172FF7D700011200015013C14C
:1013B00015F1640E0101166F0001E2DF00C013F1A8
:1013C0000150300E08E1010114A30ED014B70CD067
:1013D00014B9200E04D00101149714991481012628
:1013E00001509EA8FED7AD6E13C115F10A0E166FFF
:1013F0000001C6DF00C013F10150300E08E1010109
:1014000014B70BD014A109D014B9200E0001012685
:1014100001509EA8FED7AD6E0101300E1327135167
:101420009EA8FED7AD6E00011200EACF1CF1E9CFF5
:101430001BF101011539F009176F1727E20F186F1B
:10144000320F1A6F15510F0B182718271A27E90F9B
:10145000196F1927192714390F0B19271A2719374C
:101460001A371A1F1A3714510F0B1A271737070E7E
:10147000166F0A0E19071A27FDE318071927FDE34F
:1014800017071827FDE316071727FDE3010EEA6E7D
:10149000160EE96E070E1B151B9DE926000EEA22AB
:1014A000E9501A0803E1EA2C01D01B8DEF50006EC1
:1014B00008E11BBD06D01BB90CD01BB702D0200E13
:1014C00003D01B871B99300E002600509EA8FED724
:1014D000AD6EEE501BADE4D700011200010116BF46
:1014E00010D00F0E006E153900160A0E005C03E2D4
:1014F000300E002602D01651002600509EA8FED7BE
:10150000AD6E0F0E15170A0E155D02E2300E02D0F9
:10151000169F1651152715519EA8FED7AD6E0001D6
:1015200090EF0CF0D0AB01D007D0C80ED36F9496DB
:101530008B8694988B98D08B20EF0EF0D0BB01D087
:1015400007D0C80ED36F94968B9694988B88D09BB7
:1015500025EF0EF0D0AD01D007D0C80ED46F949A0D
:101560008B8A949C8B9CD08D36EF0EF0D0BD01D031
:1015700007D0C80ED46F949A8B9A949C8B8CD09D74
:101580003BEF0EF0F86AD09E078E938C9388C86A62
:10159000360EC66EC580C58E1A6AB886A00EAF6EAE
:1015A000010EB06EA60EAC6E900EAB6E01010E6B0E
:1015B0000D6B000E7E6EC190C192C194C1967F6E7C
:1015C0006C6A6B6A6D6A03D0F2401B000000000E6B
:1015D000F86E150EF76EC80EF66E0900F550006E27
:1015E000000A13E00900F550016EE8BE05D03F0B7C
:1015F000EA6E0900F5CFE9FF01BC090001AC090062
:10160000F5CFEEFF004EE9D7F9D7F86A000176EF83
:1016100003F08FEF05F01E5203E11D50640803E252
:101620001E6A640E1D6E01010F6B1E5203E11D50F8
:101630000F5D13E2040094928B82C80E346F000198
:1016400029EC03F094928B92C80E0101346F0001D3
:1016500029EC03F001010F2BE8D7EC0EF66E030E18
:10166000F76E220E156F0001B2EC05F0160EF66E45
:10167000040EF76EC7EC05F0100EF66E040EF76E52
:10168000040E0101156F0001B2EC05F0070E005CBD
:1016900012E00B0E005C16E00F0E005C1AE00C0E60
:1016A000005C1EE00E0E005C22E0030E005C26E0F3
:1016B00000522BE031D0200EF66E040EF76EC7EC10
:1016C00005F030D02C0EF66E040EF76EC7EC05F068
:1016D00029D03C0EF66E040EF76EC7EC05F022D052
:1016E0004A0EF66E040EF76EC7EC05F01BD05A0ECC
:1016F000F66E040EF76EC7EC05F014D06C0EF66EA5
:10170000040EF76EC7EC05F00DD07C0EF66E040EDD
:10171000F76EC7EC05F006D08E0EF66E040EF76E6F
:10172000C7EC05F00D0E9EA8FED7AD6E0A0E9EA862
:10173000FED7AD6EF40ED16FC00EF21201010F6B29
:101740000F511D0806E30001D8EC05F001010F2B35
:10175000F7D7928A106B80AA102B9288116B80A801
:10176000112B9D8604000001D0A501D095D59EAA1D
:1017700056D2FAD53EEC03F001C012F1980EF66E87
:10178000040EF76E140E0101156F0001B2EC05F0A6
:1017900012C113F11B0E0101146F000107DE0D0EC3
:1017A0009EA8FED7AD6E0A0E9EA8FED7AD6E196A32
:1017B000F2BE198EF29E0101396B00016EEC00F051
:1017C00019BEF28E02C013F101C012F1B20EF66E14
:1017D000040EF76E0D0E0101156F0001B2EC05F05D
:1017E000100EE96E13C115F112C114F11EDE0D0EBB
:1017F0009EA8FED7AD6E0A0E9EA8FED7AD6E196AE2
:10180000F2BE198EF29E010E0101396F00016EECDD
:1018100000F019BEF28E02C013F101C012F1C60E23
:10182000F66E040EF76E0D0E0101156F0001B2EC9D
:1018300005F0100EE96E13C115F112C114F1F5DDBA
:101840000D0E9EA8FED7AD6E0A0E9EA8FED7AD6EF9
:10185000196AF2BE198EF29E020E0101396F000163
:101860006EEC00F019BEF28E02C013F101C012F14D
:10187000DA0EF66E040EF76E0D0E0101156F000103
:10188000B2EC05F0100EE96E13C115F112C114F19E
:10189000CCDD0D0E9EA8FED7AD6E0A0E9EA8FED71B
:1018A000AD6E01010F6B0F510108D8A0B7D1040034
:1018B000EE0EF66E040EF76E0A0E156F0001B2EC16
:1018C00005F00FC113F11B0E0101146F00016EDD55
:1018D000FA0EF66E040EF76E030E0101156F00018D
:1018E000B2EC05F001010F51170DF350136B126F9D
:1018F000D50E1225E96E000E1321EA6EEFCF14F11A
:10190000FE0EF66E040EF76E210E156F0001B2EC9E
:1019100005F014C115F1570E0101166F0001DED557
:101920000D0E9EA8FED7AD6E0A0E9EA8FED7AD6E18
:1019300001010F51170DF350136B126F010E122599
:10194000016E000E1321036E0150D50FE96E000EDB
:101950000320EA6EECCF13F1ED52EFCF12F1260E19
:10196000F66E050EF76E1F0E156F0001B2EC05F056
:10197000100EE96E13C115F112C114F156DD0D0EF2
:101980009EA8FED7AD6E0A0E9EA8FED7AD6E0101D1
:101990000F51170DF350136B126F030E1225016ECA
:1019A000000E1321036E0150D50FE96E000E0320C7
:1019B000EA6EECCF13F1ED52EFCF12F14C0EF66E52
:1019C000050EF76E1F0E156F0001B2EC05F0100E3C
:1019D000E96E13C115F112C114F127DD0D0E9EA899
:1019E000FED7AD6E0A0E9EA8FED7AD6E01010F5157
:1019F000170DF350136B126F050E1225016E000EBA
:101A00001321036E0150D50FE96E000E0320EA6E1C
:101A1000ECCF13F1ED52EFCF12F1720EF66E050E10
:101A2000F76E1F0E156F0001B2EC05F0100EE96E97
:101A300013C115F112C114F1F8DC0D0E9EA8FED7EA
:101A4000AD6E0A0E9EA8FED7AD6E01010F51170DA7
:101A5000F350136B126F070E1225016E000E132147
:101A6000036E0150D50FE96E000E0320EA6EECCF35
:101A700013F1ED52EFCF12F1980EF66E050EF76EE0
:101A80001F0E156F0001B2EC05F0100EE96E13C1C8
:101A900015F112C114F1C9DC0D0E9EA8FED7AD6E72
:101AA0000A0E9EA8FED7AD6E01010F51170DF3501F
:101AB000136B126F090E1225016E000E1321036EB7
:101AC0000150D50FE96E000E0320EA6EECCF13F142
:101AD000ED52EFCF12F1BE0EF66E050EF76E1F0E31
:101AE000156F0001B2EC05F0100EE96E13C115F18F
:101AF00012C114F19ADC0D0E9EA8FED7AD6E0A0E2F
:101B00009EA8FED7AD6E01010F51170DF350136B58
:101B1000126F0B0E1225016E000E1321036E015081
:101B2000D50FE96E000E0320EA6EEFCF12F1E40E3E
:101B3000F66E050EF76E1F0E156F0001B2EC05F084
:101B400012C113F11B0E0101146F00012FDC0D0EE9
:101B50009EA8FED7AD6E0A0E9EA8FED7AD6E0101FF
:101B60000F51170DF350136B126F0C0E1225016EEF
:101B7000000E1321036E0150D50FE96E000E0320F5
:101B8000EA6EECCF13F1ED52EFCF12F1080EF66EC4
:101B9000060EF76E1F0E156F0001B2EC05F0100E69
:101BA000E96E13C115F112C114F13FDC0D0E9EA8B0
:101BB000FED7AD6E0A0E9EA8FED7AD6E01010F5185
:101BC000170DF350136B126F0E0E1225016E000EDF
:101BD0001321036E0150D50FE96E000E0320EA6E4B
:101BE000EFCF12F12E0EF66E060EF76E1F0E156F6A
:101BF0000001B2EC05F012C113F11B0E0101146FCC
:101C00000001D6EC09F00D0E9EA8FED7AD6E0A0EAF
:101C10009EA8FED7AD6E01010F2B45D60001928A1A
:101C2000000E80BA010E0101105D10E0928A106B67
:101C300080BA102B105306E0F40E0001D16F72D45D
:101C400004D001010001D16B79D401019288000E0A
:101C500080B8010E115D10E09288116B80B8112BD5
:101C6000115306E0F40E0001D26F74D404D00101C8
:101C70000001D26B7BD401010001D0A103D0D0912F
:101C8000D8EC05F0D0A703D0D097C1EC04F0D0A9D0
:0E1C900003D0D099E7EC04F0010164D5FFD732
:0200000400F00A
:0400000000004000BC
:020000040030CA
:0E0000000028190E0000090003C003E00340B1
:00000001FF
;PIC18F14K22
;CRC=55B6  CREATED="05-Feb-22 11:24"
