:1000000075EF10F027EF05F0046ED8CF05F0E0CFC4
:1000100006F00001E9CF0CF0EACF07F0E1CF08F0DD
:10002000E2CF09F0D9CF0AF0DACF0BF0F3CF12F01C
:10003000F4CF13F0FACF14F0F5CF15F0F6CF16F099
:10004000F7CF17F000C00EF001C00FF002C010F0A3
:1000500003C011F09DA230EF00F09EB26AEF00F0F5
:100060009DA636EF00F09EB6E2EF04F00EC000F061
:100070000FC001F010C002F011C003F00CC0E9FF86
:1000800007C0EAFF078E08C0E1FF09C0E2FF0AC00F
:10009000D9FF0BC0DAFF12C0F3FF13C0F4FF14C086
:1000A000FAFF15C0F5FF16C0F6FF17C0F7FF0450A2
:1000B00006C0E0FF05C0D8FF1000F76ACA0FF66E51
:1000C000000EF7220900F5501200352D4665622D0D
:1000D00032320000CF859E9236EF00F00101395197
:1000E000200DF350036A630F3D6F000E03203E6F37
:1000F0003B6B3A6B3C6B3C510F0815E3036A3CC108
:1001000002F0D8900236033602503D25E96E3E518A
:100110000320EA6EECCF03F0ED52EF503A27035084
:100120003B233C2BE8D7080E3A253F6F000E3B21BE
:10013000406F4031036E3F31026E033202320332B0
:100140000232033202320F0E031602C001F003C066
:1001500002F00001120001013751100808E2375186
:100160001E0805E3010E386F0E0E375F0CD03751B5
:10017000110808E237516B0805E3010E386F0E0EC7
:10018000375F01D0386B640E0001D06F0101375129
:10019000000A0001D8B497D0010AD8B49AD0030A53
:1001A000D8B49ED0010AD8B4A2D0070AD8B4BAD025
:1001B000010AD8B4D2D0030AD8B4EAD0010AD8B41C
:1001C00002D10F0AD8B41AD1010AD8B42ED1030A29
:1001D000D8B446D1010AD8B45AD1070AD8B472D1DA
:1001E000010AD8B48AD1030AD8B4A2D1010AD8B47A
:1001F000BAD11F0AD8B4B7D10F0AD8B4B8D13F0AC0
:10020000D8B4BAD1010AD8B4BCD1030AD8B4BED18B
:10021000620AD8B4BFD1010AD8B4D1D1030AD8B484
:10022000E9D1010AD8B401D2070AD8B419D2010A17
:10023000D8B431D2030AD8B449D2010AD8B461D2B1
:100240000F0AD8B479D2010AD8B491D2030AD8B42B
:10025000A9D2010AD8B4C1D2070AD8B4D9D2010AA6
:10026000D8B4F1D2030AD8B409D3010AD8B421D33F
:100270001F0AD8B439D3010AD8B451D3030AD8B469
:1002800069D3010AD8B466D3070AD8B463D3010A84
:10029000D8B460D3D50AD8B461D3010AD8B463D333
:1002A000030AD8B465D3010AD8B467D3070AD8B40F
:1002B00069D3010AD8B46AD3030AD8B46BD3010A4C
:1002C000D8B46CD36FD30101396B000107DF025042
:1002D0006CD3D4C003F0EBC001F0D4C002F065D3FE
:1002E000010E0101396F0001F9DE02505ED30101F8
:1002F0003851170DF3503A6B396F010E3925016EE5
:10030000000E3A21036E0150D40FE96E000E032057
:10031000EA6EECCF03F0ED52EFCF01F003C002F034
:10032000000143D301013851170DF3503A6B396F77
:10033000030E3925016E000E3A21036E0150D40FD1
:10034000E96E000E0320EA6EECCF03F0ED52EFCF22
:1003500001F003C002F0000128D301013851170D4C
:10036000F3503A6B396F050E3925016E000E3A21B4
:10037000036E0150D40FE96E000E0320EA6EECCF3D
:1003800003F0ED52EFCF01F003C002F000010DD3F6
:1003900001013851170DF3503A6B396F070E3925AB
:1003A000016E000E3A21036E0150D40FE96E000E6B
:1003B0000320EA6EECCF03F0ED52EFCF01F003C063
:1003C00002F00001F2D201013851170DF3503A6BDF
:1003D000396F090E3925016E000E3A21036E015066
:1003E000D40FE96E000E0320EA6EECCF03F0ED525D
:1003F000EFCF01F003C002F00001D7D20101385164
:10040000170DF3503A6B396F0B0E3925016E000E44
:100410003A21036E0150D40FE96E000E0320EA6EFC
:10042000EF50016E026A0001C0D201013851170D70
:10043000F3503A6B396F0C0E3925016E000E3A21DC
:10044000036E0150D40FE96E000E0320EA6EECCF6C
:1004500003F0ED52EFCF01F003C002F00001A5D28E
:1004600001013851170DF3503A6B396F0E0E3925D3
:10047000016E000E3A21036E0150D40FE96E000E9A
:100480000320EA6EEF50016E026A00018ED2010174
:100490003851170DF3503A6B396F0F0E3925016E35
:1004A000000E3A21036E0150D40FE96E000E0320B6
:1004B000EA6EECCF03F0ED52EFCF01F003C002F093
:1004C000000173D201013851170DF3503A6B396FA7
:1004D000110E3925016E000E3A21036E0150D40F22
:1004E000E96E000E0320EA6EECCF03F0ED52EFCF81
:1004F00001F003C002F0000158D201013851170D7C
:10050000F3503A6B396F130E3925016E000E3A2104
:10051000036E0150D40FE96E000E0320EA6EECCF9B
:1005200003F0ED52EFCF01F003C002F000013DD225
:1005300001013851170DF3503A6B396F150E3925FB
:10054000016E000E3A21036E0150D40FE96E000EC9
:100550000320EA6EECCF03F0ED52EFCF01F003C0C1
:1005600002F0000122D2FF0E016E026E1ED2C4C044
:1005700001F0C5C002F019D2C8C001F0C9C002F034
:1005800014D2C6C001F0C7C002F00FD2CEC001F035
:10059000026A0BD201013851240DF3503A6B396FC6
:1005A0001B0E3925E96E000E3A21EA6EECCF03F0FE
:1005B000ED52EFCF01F003C002F00001F6D10101CE
:1005C0003851240DF3503A6B396F020E3925016E04
:1005D000000E3A21036E01501B0FE96E000E03203E
:1005E000EA6EECCF03F0ED52EFCF01F003C002F062
:1005F0000001DBD101013851240DF3503A6B396F02
:10060000040E3925016E000E3A21036E01501B0FB6
:10061000E96E000E0320EA6EECCF03F0ED52EFCF4F
:1006200001F003C002F00001C0D101013851240DD6
:10063000F3503A6B396F060E3925016E000E3A21E0
:10064000036E01501B0FE96E000E0320EA6EECCF23
:1006500003F0ED52EFCF01F003C002F00001A5D18D
:1006600001013851240DF3503A6B396F080E3925CA
:10067000016E000E3A21036E01501B0FE96E000E51
:100680000320EA6EECCF03F0ED52EFCF01F003C090
:1006900002F000018AD101013851240DF3503A6B68
:1006A000396F0A0E3925016E000E3A21036E015092
:1006B0001B0FE96E000E0320EA6EECCF03F0ED5243
:1006C000EFCF01F003C002F000016FD101013851FA
:1006D000240DF3503A6B396F0C0E3925016E000E64
:1006E0003A21036E01501B0FE96E000E0320EA6EE3
:1006F000ECCF03F0ED52EFCF01F003C002F00001A8
:1007000054D101013851240DF3503A6B396F0E0E5C
:100710003925016E000E3A21036E01501B0FE96E60
:10072000000E0320EA6EECCF03F0ED52EFCF01F0A4
:1007300003C002F0000139D101013851240DF350FA
:100740003A6B396F100E3925016E000E3A21036E97
:1007500001501B0FE96E000E0320EA6EECCF03F090
:10076000ED52EFCF01F003C002F000011ED10101F4
:100770003851240DF3503A6B396F120E3925016E42
:10078000000E3A21036E01501B0FE96E000E03208C
:10079000EA6EECCF03F0ED52EFCF01F003C002F0B0
:1007A000000103D101013851240DF3503A6B396F28
:1007B000140E3925016E000E3A21036E01501B0FF5
:1007C000E96E000E0320EA6EECCF03F0ED52EFCF9E
:1007D00001F003C002F00001E8D001013851240DFE
:1007E000F3503A6B396F160E3925016E000E3A211F
:1007F000036E01501B0FE96E000E0320EA6EECCF72
:1008000003F0ED52EFCF01F003C002F00001CDD0B4
:1008100001013851240DF3503A6B396F180E392508
:10082000016E000E3A21036E01501B0FE96E000E9F
:100830000320EA6EECCF03F0ED52EFCF01F003C0DE
:1008400002F00001B2D001013851240DF3503A6B8F
:10085000396F1A0E3925016E000E3A21036E0150D0
:100860001B0FE96E000E0320EA6EECCF03F0ED5291
:10087000EFCF01F003C002F0000197D00101385121
:10088000240DF3503A6B396F140E3925016E000EAA
:100890003A21036E01501B0FE96E000E0320EA6E31
:1008A000ECCF03F0ED52EFCF01F003C002F00001F6
:1008B0007CD001013851240DF3503A6B396F160E7C
:1008C0003925016E000E3A21036E01501B0FE96EAF
:1008D000000E0320EA6EECCF03F0ED52EFCF01F0F3
:1008E00003C002F0000161D001013851240DF35022
:1008F0003A6B396F180E3925016E000E3A21036EDE
:1009000001501B0FE96E000E0320EA6EECCF03F0DE
:10091000ED52EFCF01F003C002F0000146D001011B
:100920003851240DF3503A6B396F1A0E3925016E88
:10093000000E3A21036E01501B0FE96E000E0320DA
:10094000EA6EECCF03F0ED52EFCF01F003C002F0FE
:1009500000012BD0FF0E016E026E27D0440E016EF7
:10096000000E026E22D0320E016E000E026E1DD0FD
:100970004C0E016E000E026E18D0300E016E000E8D
:10098000026E13D0CBC001F0026A0FD0CCC001F0D0
:10099000026A0BD0CDC001F0026A07D0CAC001F0D4
:1009A000026A03D0FF0E016E026E34EF05F0C950EB
:1009B00037C1C9FFC6889E96C7B0FED7016AC5ACCD
:1009C000012A1200C7BA06D00101026BC7A401D0E8
:1009D000028F000102C134F1010102517F0804E0DD
:1009E000023D01D001D0022B3451800831E3345153
:1009F000800803E1C9CF35F106D0C69CC7A0FED759
:100A0000C950C688356F342D04D0D8903535066F5F
:100A10001FD0345101081CE23451800819E03451D0
:100A2000020803E135C105F113D03451030810E188
:100A3000D8900631366F05C138F135C137F1396FBD
:100A400005C13BF135C13AF1000102EF00F00101AF
:100A500034517F081CE206B112D0D8900631366FAF
:100A6000376F0001ABEF00F002C004F101C003F1E9
:100A700004C136F104C137F19ADF07D0010103C187
:100A800036F103C137F1000192DF0101062B9E967A
:100A9000000136EF00F0232064637377635F6D6FAE
:100AA00064756C655F6C61746368696E675F636FC2
:100AB0006E746163746F722025730D0A2320000029
:100AC000352D4665622D323200005744542054497A
:100AD0004D454F5554004D434C522046524F4D20EA
:100AE000534C454550004D434C522046524F4D20EB
:100AF00052554E004E4F524D414C20504F5745528B
:100B00002055500042524F574E4F55542052455396
:100B10005441525400005744542046524F4D2053E4
:100B20004C4545500000524553455420494E5354BE
:100B300052554354494F4E00554E4B4E4F574E2140
:100B400000002320726561645F6469705F73776978
:100B500074636828293D25750D0A00002320202094
:100B60002076696E206164633D256C750D0A000076
:100B70002320202074656D70206164633D256C75B1
:100B80000D0A00002320646970207377206164637C
:100B90003D256C750D0A000023206368616E6E654B
:100BA0006C5B25755D0D0A0023202020202020206D
:100BB0002020202020202020202020202020202035
:100BC0002073746174653D3078253032780D0A00E9
:100BD000232020202020202020202020636F6D6DE6
:100BE000616E645F6F6E5F7365636F6E64733D25E6
:100BF0006C750D0A000023202020202020636F6DDB
:100C00006D616E645F6F6E5F686F6C645F73656368
:100C10006F6E64733D256C750D0A00002320202043
:100C200020202020202020636F6D6D616E645F6F37
:100C300066665F7365636F6E64733D256C750D0A40
:100C40000000232020202020636F6D6D616E645FA3
:100C50006F66665F686F6C645F7365636F6E647305
:100C60003D256C750D0A000023206C76645F646975
:100C700073636F6E6E6563745F64656C61795F73D7
:100C800065636F6E64733D256C750D0A000023204B
:100C9000206C76645F7265636F6E6E6563745F640B
:100CA000656C61795F7365636F6E64733D25750D67
:100CB0000A0023206876645F646973636F6E6E65F3
:100CC00063745F64656C61795F7365636F6E647391
:100CD0003D256C750D0A00002320206876645F7244
:100CE00065636F6E6E6563745F64656C61795F7375
:100CF00065636F6E64733D25750D0A00010EEA6E23
:100D0000330EE96EEF500EE0050E016E006A002E04
:100D1000FED7012EFBD72E0E006E002EFED700D080
:100D2000EF2EF2D71200240E016EC250C30B011039
:100D3000C26E010E0101336F0001E0DFC282C2B258
:100D4000FED7C4CF32F1C3CF31F1010132510208D5
:100D500008E2FF0A03E13151BF0803E2000E016E11
:100D600018D03251010808E2FF0A03E131516A0844
:100D700003E2020E016E0DD03251000808E2FF0AB4
:100D800003E13151BF0803E2010E016E02D0030EF0
:100D9000016E00011200700ED36E9B9C9B9EC05092
:100DA000C00B0509C06EC08EC280140E7E6EC1904D
:100DB000C192C194C196020E7F6ED1803F0E926E99
:100DC000700E936E810E946E300E776EF19E786A7F
:100DD000DA69D969F169F069D669D569ED69EC69B3
:100DE000010EEA6E110EE96E000E5DEC00F00A00D5
:100DF0000900F550EE6E0009FBE1300E0101115DB6
:100E00000A0DF3CFCDF00001300E0101125D00019B
:100E1000CD27010114514A0815E11551410805E19A
:100E2000010E0001CC6F0CD0010116514E0805E1F6
:100E3000060E0001CC6F04D00101070E0001CC6F3B
:100E40004BD00101145141080DE11551500805E145
:100E5000040E0001CC6F04D00101080E0001CC6F1C
:100E60003BD0010114514D080DE11651520805E126
:100E7000030E0001CC6F04D00101050E0001CC6F00
:100E80002BD001011451460805E1020E0001CC6F80
:100E900023D001011451530805E1090E0001CC6F64
:100EA0001BD0010114514F0805E10A0E0001CC6F5F
:100EB00013D0010114514E0805E10B0E0001CC6F57
:100EC0000BD001011451440805E10C0E0001CC6F58
:100ED00003D001010001CC69300E0101185D0A0D3B
:100EE000F3CFCBF00001300E0101195D0001CB27DB
:100EF000000E0609CA6EF90ECB6E9D8214DFD890E3
:100F000001343E0F0101C86E0001BCEF10F0010179
:100F10001A6B19C11CF11851D8B4190718071B6FA7
:100F20001B5302E11C5330E017C103F01651E96E68
:100F300003C0EAFF1551036E1451142BD8B4152BBE
:100F40001D6F03C01EF1F2CF1FF1F29E1DC1A9FF5C
:100F5000A69CA69EA680A8501FBFF28EEF6E17C15A
:100F600003F01651E96E03C0EAFFEFCF1BF11AC17F
:100F70001EF11BC11FF11E511F19016E01C01AF194
:100F8000162BD8B4172BC5D71AC101F00001DDEF1D
:100F900008F001011C6B1BC11EF11A51D8B41B07CC
:100FA0001A071D6F1D5302E11E533CE019C103F0E7
:100FB0001851E96E03C0EAFFEFCF1DF11CC11EF10D
:100FC0001DC11FF11E511F19016E01C01CF11751E7
:100FD000036E1651162BD8B4172B1D6F03C01EF1CC
:100FE0001951036E1851182BD8B4192BE96E03C090
:100FF000EAFFEFCF1FF1F250006EF29E1DC1A9FF74
:101000001FC1A8FFA69CA69EA6840F01550EA76E21
:10101000AA0EA76EA682A6B2FED7A6940050F21220
:101020000101B9D71CC101F0000125EF08F0010151
:101030001B0E146F176B020E166F196B14C118F18B
:101040001B6B480E1A6F0001A4D701C013F1F250B8
:10105000006EF29EA96A13C1A8FFA69CA69EA68454
:101060000F01550EA76EAA0EA76EA682A6B2FED7D6
:10107000A6940050F21200011200010ECE6F960EDF
:10108000D06FD16F0101126B12510108D8A084D02A
:101090001251240DF350146B136F040E1325016EBF
:1010A000000E1421036E01501B0FE96E000E032089
:1010B000EA6E010EEC6EED522F0EEF6E1251240D02
:1010C000F350146B136F060E1325016E000E1421DE
:1010D000036E01501B0FE96E000E0320EA6EEC6AEE
:1010E000ED52280EEF6E1251240DF350146B136F56
:1010F000080E1325016E000E1421036E01501B0F04
:10110000E96E000E0320EA6E010EEC6EED52340E15
:10111000EF6E1251240DF350146B136F0C0E132548
:10112000016E000E1421036E01501B0FE96E000EBC
:101130000320EA6E010EEC6EED529A0EEF6E125124
:10114000240DF350146B136F0E0E1325016E000E59
:101150001421036E01501B0FE96E000E0320EA6E8E
:10116000EC6AED520F0EEF6E1251240DF350146B1A
:10117000136F100E1325016E000E1421036E015023
:101180001B0FE96E000E0320EA6E010EEC6EED52AD
:10119000810EEF6E122B78D7000149DF120001019A
:1011A0001B0E126F156B020E146F176B12C116F126
:1011B000196B480E186F0001AAD601C011F1F2CFC9
:1011C00012F1F29EA96AA69CA69EA680A8500101D3
:1011D00012BFF28E115D03E000014FDF010100013B
:1011E000BEEF10F00900F6CF15F1F7CF16F1F5506C
:1011F0009EA8FED7AD6E15C1F6FF16C1F7FF01011F
:10120000142F01D002D00001EDD700011200090017
:10121000F5520DE0F6CF11F1F7CF12F1F5509EA87F
:10122000FED7AD6E11C1F6FF12C1F7FFF0D7120065
:10123000C32BC3510F0801E2C36B100E016EC250E5
:10124000C30B0110C26ED890C335036A630FE96EF9
:10125000000E0320EA6EC282C2B2FED7C3CFEFFFF8
:10126000C4CFECFF080E016EC250C30B0110C26E5A
:10127000010E0101336F000141DDD890C335036ACF
:10128000830FE96E000E0320EA6EC282C2B2FED75F
:10129000C3CFEFFFC4CFECFF240E016EC250C30BCF
:1012A0000110C26E010E0101336F000127DDD890DD
:1012B000C335036AA30FE96E000E0320EA6EC282F3
:1012C000C2B2FED7C3CFEFFFC4CFECFF12000101C3
:1012D0001151170DF350156B146F010E1425016E8B
:1012E000000E1521036E0150D40FE96E000E03208D
:1012F000EA6EECCF03F0ED52EF50FF0803E1033C40
:1013000001D0CBD01151170DF350156B146F010E96
:101310001425016E000E1521036E0150D40FE96EE5
:10132000000E0320EA6EECCF15F1ED52EFCF14F171
:10133000145302E1155317E01151170DF350156BBB
:10134000146F010E1425016E000E1521036E01505D
:10135000D40FE96E000E0320EA6EFF0EEF2602E2C4
:10136000EE52ED069AD01151170DF350156B146F14
:10137000D40E1425E96E000E1521EA6EEFCF16F19A
:1013800016B33AD01151170DF350156B146FD40EDC
:101390001425016E000E152101C0E9FFEA6EEF82EF
:1013A0001151170DF350156B146F030E1425016EB8
:1013B000000E1521036E0150D40F016E000E0322A2
:1013C00003C015F11151240DF350176B166F1B0E4E
:1013D0001625E96E000E1721EA6EECCF03F0ED52F0
:1013E000EFCF18F115C1EAFF01C0E9FF03C0ECFF20
:1013F000ED5218C1EFFF51D01151170DF350156B7D
:10140000146F030E1425016E000E1521036E01509A
:10141000D40FE96E000E0320EA6EECCF03F0ED521C
:10142000EF5025E1035223E11151170DF350156BD5
:10143000146FD40E1425016E000E152101C0E9FFB2
:10144000EA6EEF921151170DF350156B146F010EE8
:101450001425016E000E1521036E0150D40FE96EA4
:10146000000E0320EA6EEC68ED52EF6816D01151C1
:10147000170DF350156B146F030E1425016E000E3B
:101480001521036E0150D40FE96E000E0320EA6EA1
:10149000FF0EEF2602E2EE52ED061151170DF3504A
:1014A000156B146F050E1425016E000E1521036EC9
:1014B0000150D40FE96E000E0320EA6EECCF03F06A
:1014C000ED52EF50FF0803E1033C01D0D3D011519E
:1014D000170DF350156B146F050E1425016E000ED9
:1014E0001521036E0150D40FE96E000E0320EA6E41
:1014F000ECCF15F1ED52EFCF14F1145302E1155377
:1015000017E01151170DF350156B146F050E1425CC
:10151000016E000E1521036E0150D40FE96E000E0E
:101520000320EA6EFF0EEF2602E2EE52ED06A2D095
:101530001151170DF350156B146FD40E1425E96E6D
:10154000000E1521EA6EEFCF16F116B542D01151FB
:10155000170DF350156B146FD40E1425016E000E89
:10156000152101C0E9FFEA6EEF841151170DF35008
:10157000156B146F070E1425016E000E1521036EF6
:101580000150D40F016E000E032201C014F103C0FC
:1015900015F11151240DF350176B166F020E16251D
:1015A000016E000E1721036E01501B0FE96E000E35
:1015B0000320EA6EECCF03F0ED52EFCF16F115C128
:1015C000EAFF14C1E9FF03C0ECFFED5216C1EFFFC3
:1015D00051D01151170DF350156B146F070E1425D0
:1015E000016E000E1521036E0150D40FE96E000E3E
:1015F0000320EA6EECCF03F0ED52EF5025E10352E9
:1016000023E11151170DF350156B146FD40E1425EF
:10161000016E000E152101C0E9FFEA6EEF94115131
:10162000170DF350156B146F050E1425016E000E87
:101630001521036E0150D40FE96E000E0320EA6EEF
:10164000EC68ED52EF6816D01151170DF350156B81
:10165000146F070E1425016E000E1521036E015044
:10166000D40FE96E000E0320EA6EFF0EEF2602E2B1
:10167000EE52ED061151240DF350156B146F060E4A
:101680001425016E000E1521036E01501B0FE96E2B
:10169000000E0320EA6EECCF03F0ED52EF50FF088E
:1016A00003E1033C01D021D1196AF2BE198EF29EEA
:1016B000396B00016EEC00F019BEF28E02C013F11E
:1016C00001C012F101011151240DF350156B146F7B
:1016D000080E1425016E000E1521036E01501B0F1C
:1016E000E96E000E0320EA6EECCF03F0ED52EFCF6F
:1016F00001F00350135D39E303E11251015C35E25F
:101700001151170DF350156B146F0B0E1425016E4C
:10171000000E1521036E0150D40FE96E000E032058
:10172000EA6EEF5213E01151170DF350156B146F61
:101730000B0E1425016E000E1521036E0150D40FFF
:10174000E96E000E0320EA6EEF060ED01151170D60
:10175000F350156B146FD40E1425016E000E152175
:1017600001C0E9FFEA6EEF9630D01151170DF3502A
:10177000156B146F0B0E1425016E000E1521036EF0
:101780000150D40F016E000E032201C014F103C0FA
:1017900015F11151240DF350176B166F0A0E162513
:1017A000016E000E1721036E01501B0FE96E000E33
:1017B0000320EA6EECCF03F0ED52EFCF16F115C126
:1017C000EAFF14C1E9FF16C1EFFF1151240DF350D8
:1017D000156B146F040E1425016E000E1521036E97
:1017E00001501B0FE96E000E0320EA6EECCF03F0F0
:1017F000ED52EFCF01F01351035C44E303E10150DC
:10180000125D40E21151170DF350156B146F090E64
:101810001425016E000E1521036E0150D40FE96EE0
:10182000000E0320EA6EECCF15F1ED52EFCF14F16C
:10183000145302E1155317E01151170DF350156BB6
:10184000146F090E1425016E000E1521036E015050
:10185000D40FE96E000E0320EA6EFF0EEF2602E2BF
:10186000EE52ED060ED01151170DF350156B146F9B
:10187000D40E1425016E000E152101C0E9FFEA6E99
:10188000EF8633D01151170DF350156B146F090EFD
:101890001425016E000E1521036E0150D40F016E48
:1018A000000E032201C014F103C015F11151240DE3
:1018B000F350176B166F060E1625016E000E1721DA
:1018C000036E01501B0FE96E000E0320EA6EECCF91
:1018D00003F0ED52EFCF16F115C1EAFF14C1E9FF95
:1018E00003C0ECFFED5216C1EFFF1151240DF35070
:1018F000156B146F0E0E1425016E000E1521036E6C
:1019000001501B0FE96E000E0320EA6EECCF03F0CE
:10191000ED52EF50FF0803E1033C01D021D1196AD9
:10192000F2BE198EF29E396B00016EEC00F019BE0A
:10193000F28E02C013F101C012F101011151240D08
:10194000F350156B146F100E1425016E000E152147
:10195000036E01501B0FE96E000E0320EA6EECCF00
:1019600003F0ED52EFCF01F01351035C39E303E1D3
:101970000150125D35E21151170DF350156B146FC4
:101980000E0E1425016E000E1521036E0150D40FAA
:10199000E96E000E0320EA6EEF5213E01151170DAD
:1019A000F350156B146F0E0E1425016E000E1521E9
:1019B000036E0150D40FE96E000E0320EA6EEF06AD
:1019C0000ED01151170DF350156B146FD40E142552
:1019D000016E000E152101C0E9FFEA6EEF9830D0CC
:1019E0001151170DF350156B146F0E0E1425016E67
:1019F000000E1521036E0150D40F016E000E03225C
:101A000001C014F103C015F11151240DF350176BEF
:101A1000166F120E1625016E000E1721036E01506F
:101A20001B0FE96E000E0320EA6EECCF03F0ED52BF
:101A3000EFCF16F115C1EAFF14C1E9FF16C1EFFFA0
:101A40001151240DF350156B146F0C0E1425016EFB
:101A5000000E1521036E01501B0FE96E000E0320CE
:101A6000EA6EECCF03F0ED52EFCF01F00350135DBF
:101A700044E303E11251015C40E21151170DF350B0
:101A8000156B146F0C0E1425016E000E1521036EDC
:101A90000150D40FE96E000E0320EA6EECCF15F171
:101AA000ED52EFCF14F1145302E1155317E0115129
:101AB000170DF350156B146F0C0E1425016E000EEC
:101AC0001521036E0150D40FE96E000E0320EA6E5B
:101AD000FF0EEF2602E2EE52ED060ED01151170D69
:101AE000F350156B146FD40E1425016E000E1521E2
:101AF00001C0E9FFEA6EEF8833D01151170DF350A2
:101B0000156B146F0C0E1425016E000E1521036E5B
:101B10000150D40F016E000E032201C014F103C066
:101B200015F11151240DF350176B166F0E0E16257B
:101B3000016E000E1721036E01501B0FE96E000E9F
:101B40000320EA6EECCF03F0ED52EFCF16F115C192
:101B5000EAFF14C1E9FF03C0ECFFED5216C1EFFF2D
:101B60001151240DF350156B146F160E1425016ED0
:101B7000000E1521036E01501B0FE96E000E0320AD
:101B8000EA6EECCF03F0ED52EF50FF0803E1033CA7
:101B900001D030D1196AF2BE198EF29E010E396F52
:101BA00000016EEC00F019BEF28E02C013F101C00C
:101BB00012F101011151240DF350156B146F180E21
:101BC0001425016E000E1521036E01501B0FE96EE6
:101BD000000E0320EA6EECCF03F0ED52EFCF01F0E0
:101BE0001351035C44E303E10150125D40E21151E3
:101BF000170DF350156B146F110E1425016E000EA6
:101C00001521036E0150D40FE96E000E0320EA6E19
:101C1000ECCF15F1ED52EFCF14F1145302E115534F
:101C200017E01151170DF350156B146F110E142599
:101C3000016E000E1521036E0150D40FE96E000EE7
:101C40000320EA6EFF0EEF2602E2EE52ED060ED002
:101C50001151170DF350156B146FD40E1425016E2E
:101C6000000E152101C0E9FFEA6EEF9A33D0115141
:101C7000170DF350156B146F110E1425016E000E25
:101C80001521036E0150D40F016E000E032201C016
:101C900014F103C015F11151240DF350176B166F99
:101CA0001A0E1625016E000E1721036E01501B0F30
:101CB000E96E000E0320EA6EECCF03F0ED52EFCF99
:101CC00016F115C1EAFF14C1E9FF03C0ECFFED52A4
:101CD00016C1EFFF1151240DF350156B146F140E44
:101CE0001425016E000E1521036E01501B0FE96EC5
:101CF000000E0320EA6EECCF03F0ED52EFCF01F0BF
:101D00000350135D44E303E11251015C40E21151C1
:101D1000170DF350156B146F0F0E1425016E000E86
:101D20001521036E0150D40FE96E000E0320EA6EF8
:101D3000ECCF15F1ED52EFCF14F1145302E115532E
:101D400017E01151170DF350156B146F0F0E14257A
:101D5000016E000E1521036E0150D40FE96E000EC6
:101D60000320EA6EFF0EEF2602E2EE52ED060ED0E1
:101D70001151170DF350156B146FD40E1425016E0D
:101D8000000E152101C0E9FFEA6EEF8A33D0115130
:101D9000170DF350156B146F0F0E1425016E000E06
:101DA0001521036E0150D40F016E000E032201C0F5
:101DB00014F103C015F11151240DF350176B166F78
:101DC000160E1625016E000E1721036E01501B0F13
:101DD000E96E000E0320EA6EECCF03F0ED52EFCF78
:101DE00016F115C1EAFF14C1E9FF03C0ECFFED5283
:101DF00016C1EFFF000112003EEF0FF0CF95D05358
:101E000003E194928B9203D094928B82D007D153AA
:101E100003E194948B9403D094948B84D107C83DB0
:101E200003D0C93D01D003D0C82BD8B4C92BD2539D
:101E300005E194968B9694988B9801D0D207D35352
:101E400005E1949A8B9A949C8B9C01D0D307010155
:101E50000A2BD8B40B2B0A51E80820E10B510308D8
:101E60001DE10B6B0A6B116B000167EC09F0010EB1
:101E70000101116F000167EC09F0BED70101072BCA
:101E800007513C080BE1076B0001C63D03D0C73D7D
:101E900001D003D0C62BD8B4C72B01010001CFA3BA
:101EA00005D0CF930101096B086B00010101082BDC
:101EB000D8B4092B0851140807E1095305E1096B4F
:101EC000086B0001CF810101000160EF11F09EAAB3
:101ED000FED7ABCF1AF0AECF01F01AA202D0AB986A
:101EE000AB8863EF11F001011551016A145D03E243
:101EF00014C100F00CD0006A080E166F14370036BB
:101F00001551005CD8B0006E0136162FF7D70001CE
:101F10001200015012C114F1640E0101156F00018D
:101F2000E2DF00C012F10150300E08E1010113A3FD
:101F30000ED013B70CD013B9200E04D001011397A3
:101F400013991381012601509EA8FED7AD6E12C1D0
:101F500014F10A0E156F0001C6DF00C012F1015026
:101F6000300E08E1010113B70BD013A109D013B94A
:101F7000200E0001012601509EA8FED7AD6E010182
:101F8000300E122712519EA8FED7AD6E000112002E
:101F9000EACF1BF1E9CF1AF101011439F009166FEC
:101FA0001627E20F176F320F196F14510F0B1727F7
:101FB00017271927E90F186F1827182713390F0B40
:101FC0001827192718371937191F193713510F0BED
:101FD00019271637070E156F0A0E18071927FDE384
:101FE00017071827FDE316071727FDE31507162720
:101FF000FDE3010EEA6E150EE96E070E1A151A9D25
:10200000E926000EEA22E950190803E1EA2C01D082
:102010001A8DEF50006E08E11ABD06D01AB90CD027
:102020001AB702D0200E03D01A871A99300E002654
:1020300000509EA8FED7AD6EEE501AADE4D7000159
:102040001200010115BF10D00F0E006E14390016DA
:102050000A0E005C03E2300E002602D01551002665
:1020600000509EA8FED7AD6E0F0E14170A0E145D19
:1020700002E2300E02D0159F1551142714519EA86C
:10208000FED7AD6E000139EF12F0CFAB01D007D013
:10209000C80ED26F94968B8694988B98CF8BC9EF8D
:1020A00013F0CFBB01D007D0C80ED26F94968B9699
:1020B00094988B88CF9BCEEF13F0CFAD01D007D093
:1020C000C80ED36F949A8B8A949C8B9CCF8DDFEF34
:1020D00013F0CFBD01D007D0C80ED36F949A8B9A5E
:1020E000949C8B8CCF9DE4EF13F0F86AD09E078E02
:1020F000938C9388C86A360EC66EC580C58E1A6AE0
:10210000B886A00EAF6E010EB06EA60EAC6E900E2D
:10211000AB6E01010D6B0C6B000E7E6EC190C19217
:10212000C194C1967F6E6C6A6B6A6D6A03D0F14090
:102130001B000000000EF86E210EF76E2E0EF66EDC
:102140000900F550006E000A13E00900F550016E19
:10215000E8BE05D03F0BEA6E0900F5CFE9FF01BCF0
:10216000090001AC0900F5CFEEFF004EE9D7F9D721
:10217000F86A0001CBEF06F0CFEF08F001010E6B1B
:102180000E51040813E3040094928B82C80E336F3F
:1021900000017EEC06F094928B92C80E0101336F21
:1021A00000017EEC06F001010E2BEAD7960EF66ECA
:1021B0000A0EF76E220E146F0001F2EC08F0C00E4A
:1021C000F66E0A0EF76E07EC09F0BA0EF66E0A0EFE
:1021D000F76E040E0101146F0001F2EC08F0070E17
:1021E000005C12E00B0E005C16E00F0E005C1AE0C3
:1021F0000C0E005C1EE00E0E005C22E0030E005C84
:1022000026E000522BE031D0CA0EF66E0A0EF76EB1
:1022100007EC09F030D0D60EF66E0A0EF76E07EC1A
:1022200009F029D0E60EF66E0A0EF76E07EC09F0FB
:1022300022D0F40EF66E0A0EF76E07EC09F01BD0F2
:10224000040EF66E0B0EF76E07EC09F014D0160EA6
:10225000F66E0B0EF76E07EC09F00DD0260EF66E3B
:102260000B0EF76E07EC09F006D0380EF66E0B0E6B
:10227000F76E07EC09F00D0E9EA8FED7AD6E0A0EA4
:102280009EA8FED7AD6EF40ED06FC00EF212010103
:102290000E6B0E511D0806E3000118EC09F0010158
:1022A0000E2BF7D7928A0F6B80AA0F2B9288106B98
:1022B00080A8102B9D8604000001CFA501D09ED5DB
:1022C0009EAA56D204D693EC06F001C011F1420E3C
:1022D000F66E0B0EF76E140E0101146F0001F2EC96
:1022E00008F011C112F11B0E0101136F000111DE84
:1022F0000D0E9EA8FED7AD6E0A0E9EA8FED7AD6E3F
:10230000196AF2BE198EF29E0101396B00016EEC62
:1023100000F019BEF28E02C012F101C011F15C0E84
:10232000F66E0B0EF76E0D0E0101146F0001F2EC4C
:1023300008F0100EE96E12C114F111C113F128DE7C
:102340000D0E9EA8FED7AD6E0A0E9EA8FED7AD6EEE
:10235000196AF2BE198EF29E010E0101396F000159
:102360006EEC00F019BEF28E02C012F101C011F144
:10237000700EF66E0B0EF76E0D0E0101146F00015C
:10238000F2EC08F0100EE96E12C114F111C113F154
:10239000FFDD0D0E9EA8FED7AD6E0A0E9EA8FED7DD
:1023A000AD6E196AF2BE198EF29E020E0101396FEE
:1023B00000016EEC00F019BEF28E02C012F101C0F5
:1023C00011F1840EF66E0B0EF76E0D0E0101146FF7
:1023D0000001F2EC08F0100EE96E12C114F111C107
:1023E00013F1D6DD0D0E9EA8FED7AD6E0A0E9EA887
:1023F000FED7AD6E01010E6B0E510108D8A0B7D10A
:102400000400980EF66E0B0EF76E0A0E146F0001A4
:10241000F2EC08F00EC112F11B0E0101136F000166
:1024200078DDA40EF66E0B0EF76E030E0101146F2D
:102430000001F2EC08F001010E51170DF350126B80
:10244000116FD40E1125E96E000E1221EA6EEFCF46
:1024500013F1A80EF66E0B0EF76E210E146F00012D
:10246000F2EC08F013C114F1570E0101156F0001D1
:10247000E8D50D0E9EA8FED7AD6E0A0E9EA8FED71B
:10248000AD6E01010E51170DF350126B116F010E5D
:102490001125016E000E1221036E0150D40FE96E5A
:1024A000000E0320EA6EECCF12F1ED52EFCF11F1E6
:1024B000D00EF66E0B0EF76E1F0E146F0001F2ECCD
:1024C00008F0100EE96E12C114F111C113F160DDB4
:1024D0000D0E9EA8FED7AD6E0A0E9EA8FED7AD6E5D
:1024E00001010E51170DF350126B116F030E1125E0
:1024F000016E000E1221036E0150D40FE96E000E22
:102500000320EA6EECCF12F1ED52EFCF11F1F60E8F
:10251000F66E0B0EF76E1F0E146F0001F2EC08F052
:10252000100EE96E12C114F111C113F131DD0D0E5F
:102530009EA8FED7AD6E0A0E9EA8FED7AD6E010115
:102540000E51170DF350126B116F050E1125016E10
:10255000000E1221036E0150D40FE96E000E03200D
:10256000EA6EECCF12F1ED52EFCF11F11C0EF66EC8
:102570000C0EF76E1F0E146F0001F2EC08F0100E37
:10258000E96E12C114F111C113F102DD0D0E9EA806
:10259000FED7AD6E0A0E9EA8FED7AD6E01010E519C
:1025A000170DF350126B116F070E1125016E000EFF
:1025B0001221036E0150D40FE96E000E0320EA6E63
:1025C000ECCF12F1ED52EFCF11F1420EF66E0C0E80
:1025D000F76E1F0E146F0001F2EC08F0100EE96E9A
:1025E00012C114F111C113F1D3DC0D0E9EA8FED758
:1025F000AD6E0A0E9EA8FED7AD6E01010E51170DED
:10260000F350126B116F090E1125016E000E12218D
:10261000036E0150D40FE96E000E0320EA6EECCF7A
:1026200012F1ED52EFCF11F1680EF66E0C0EF76E4F
:102630001F0E146F0001F2EC08F0100EE96E12C1CB
:1026400014F111C113F1A4DC0D0E9EA8FED7AD6EDE
:102650000A0E9EA8FED7AD6E01010E51170DF35064
:10266000126B116F0B0E1125016E000E1221036EFD
:102670000150D40FE96E000E0320EA6EEFCF11F186
:102680008E0EF66E0C0EF76E1F0E146F0001F2EC3C
:1026900008F011C112F11B0E0101136F000139DCAA
:1026A0000D0E9EA8FED7AD6E0A0E9EA8FED7AD6E8B
:1026B00001010E51170DF350126B116F0C0E112505
:1026C000016E000E1221036E0150D40FE96E000E50
:1026D0000320EA6EECCF12F1ED52EFCF11F1B20E02
:1026E000F66E0C0EF76E1F0E146F0001F2EC08F080
:1026F000100EE96E12C114F111C113F149DC0D0E77
:102700009EA8FED7AD6E0A0E9EA8FED7AD6E010143
:102710000E51170DF350126B116F0E0E1125016E35
:10272000000E1221036E0150D40FE96E000E03203B
:10273000EA6EEFCF11F1D80EF66E0C0EF76E1F0E8B
:10274000146F0001F2EC08F011C112F11B0E01012F
:10275000136F000189EC0FF00D0E9EA8FED7AD6E31
:102760000A0E9EA8FED7AD6E01010E2B45D60001C4
:10277000928A000E80BA010E01010F5D10E0928A6C
:102780000F6B80BA0F2B0F5306E0F40E0001D06FD1
:102790007CD404D001010001D06B83D40101928864
:1027A000000E80B8010E105D10E09288106B80B8AA
:1027B000102B105306E0F40E0001D16F7ED404D02C
:1027C00001010001D16B85D401010001CFA103D02B
:1027D000CF9118EC09F0CFA703D0CF9717EC08F0F2
:1027E000CFA903D0CF993DEC08F0010164D5FFD704
:0200000400F00A
:0400000000004000BC
:020000040030CA
:0E0000000028190E0000090003C003E00340B1
:00000001FF
;PIC18F14K22
;CRC=4351  CREATED="05-Feb-22 15:12"
