:04000000D4EF06F043
:08000800046ED8CF05F0E0CF33
:1000100006F00001E9CF0CF0EACF07F0E1CF08F0DD
:10002000E2CF09F0D9CF0AF0DACF0BF0F3CF12F01C
:10003000F4CF13F0FACF14F0F5CF15F0F6CF16F099
:10004000F7CF17F000C00EF001C00FF002C010F0A3
:1000500003C011F09DA230EF00F09EB26AEF00F0F5
:100060009DA636EF00F09EB69DEF02F00EC000F0A8
:100070000FC001F010C002F011C003F00CC0E9FF86
:1000800007C0EAFF078E08C0E1FF09C0E2FF0AC00F
:10009000D9FF0BC0DAFF12C0F3FF13C0F4FF14C086
:1000A000FAFF15C0F5FF16C0F6FF17C0F7FF0450A2
:1000B00006C0E0FF05C0D8FF1000F76ACA0FF66E51
:1000C000000EF7220900F550120031382D4E6F76E0
:1000D0002D32310086859E9236EF00F0D151050A0F
:1000E00032E00F0A32E0060A33E02C0A36E0010A59
:1000F00043E0080A48E0030AD8B461D0010AD8B442
:1001000063D0070AD8B465D0010AD8B467D0030A0F
:10011000D8B469D0010AD8B46BD01F0AD8B46DD056
:10012000010AD8B46FD0030AD8B471D0010AD8B488
:1001300073D0070AD8B475D0010AD8B477D0030AAF
:10014000D8B479D07CD0846B7AD0916B906B77D017
:10015000D3C089F0D2C088F072D07F530CE0D35363
:1001600003E1D251400807E2D35305E1D2515A08C6
:1001700002E3D2C01BF063D07F5304E0D3C01DF074
:10018000D2C01CF05CD0D22D04D0D35302E18687BC
:1001900015D0D251020804E1D35302E186890ED072
:1001A000D2510A0806E1D351070803E1010E7F6F1F
:1001B00005D0D23D03D0D33D01D0FF0040D0D3C005
:1001C0001FF0D2C01EF03BD0D3C021F0D2C020F02F
:1001D00036D0D3C023F0D2C022F031D0D3C025F026
:1001E000D2C024F02CD0D3C027F0D2C026F027D024
:1001F000D3C029F0D2C028F022D0D3C02BF0D2C077
:100200002AF01DD0D3C02DF0D2C02CF018D0D3C00E
:100210002FF0D2C02EF013D0D3C031F0D2C030F0C6
:100220000ED0D3C033F0D2C032F009D0D3C035F0F5
:10023000D2C034F004D0D3C037F0D2C036F0D3EF00
:1002400002F0D151200DF350036A380F016E000EF9
:10025000032201C0D5F003C0D6F0D36BD26BD46BB0
:10026000D4510F0815E3036AD4C002F0D8900236C7
:1002700003360250D525E96ED6510320EA6EECCF45
:1002800003F0ED52EF50D2270350D323D42BE8D7FD
:10029000080ED225D76F000ED321D86FD831036E48
:1002A000D731026E0332023203320232033202329B
:1002B0000F0E031602C001F003C002F01200640E1C
:1002C000876FD051D8B467D0010AD8B474D0030A6C
:1002D000D8B475D0010AD8B482D0050AD8B484D075
:1002E000010AD8B48BD00F0AD8B48DD0010AD8B483
:1002F0008FD0030AD8B491D0010AD8B493D0070A9A
:10030000D8B494D0020AD8B496D02E0AD8B497D0D4
:10031000010AD8B498D0030AD8B49AD0010AD8B444
:100320009CD0070AD8B49ED0010AD8B4A0D0030A42
:10033000D8B4A2D0010AD8B4A3D00F0AD8B4A4D09C
:10034000010AD8B4A5D0030AD8B4A6D0010AD8B4FB
:10035000A8D0070AD8B4AAD0010AD8B4ACD0030AEE
:10036000D8B4AED0010AD8B4B0D01F0AD8B4B2D035
:10037000010AD8B4B4D0030AD8B4B6D0010AD8B4AC
:10038000B8D0070AD8B4BAD0010AD8B4BCD0030A8E
:10039000D8B4BED0C2D0D8907835036A380FE96E91
:1003A000000E0320EA6EECCF03F0ED52EFCF01F028
:1003B00003C002F0B5D0D16B44DF0250B1D0D89069
:1003C0007835036A580FE96E000E0320EA6EECCF11
:1003D00003F0ED52EFCF01F003C002F0A1D0010E07
:1003E000D16F2FDF02509CD07AC003F07951792B66
:1003F000D8B47A2B016E03C002F092D07DC001F018
:100400007EC002F08DD07BC001F07CC002F088D0AD
:100410008CC001F08DC002F083D090C001F091C07B
:1004200002F07ED085C001F0026A7AD088C001F067
:1004300089C002F075D083C001F0026A71D01BC080
:1004400001F0026A6DD01CC001F01DC002F068D03E
:10045000500E016E000E026E63D05A0E016E000E39
:10046000026E5ED0500E016E000E026E59D0030E69
:10047000016E000E026E54D080C001F0026A50D0AE
:1004800081C001F0026A4CD082C001F0026A48D0FB
:100490007FC001F0026A44D01EC001F01FC002F00C
:1004A0003FD020C001F021C002F03AD022C001F0BC
:1004B00023C002F035D024C001F025C002F030D0B6
:1004C00026C001F027C002F02BD028C001F029C0BF
:1004D00002F026D02AC001F02BC002F021D02CC09F
:1004E00001F02DC002F01CD02EC001F02FC002F090
:1004F00017D030C001F031C002F012D032C001F08C
:1005000033C002F00DD034C001F035C002F008D085
:1005100036C001F037C002F003D0D0C001F0026A4B
:10052000DDEF02F0C950D0C0C9FFC6889E96C7B0A3
:10053000FED7016AC5AC012A1200C7BA03D0A06B6E
:10054000C7B4A08FA051A02BCE6FCE5180082BE353
:10055000CE51800803E1C9CFCDF006D0C69CC7A01C
:10056000FED7C950C688CD6FCE2D03D0CDC09CF02C
:100570001AD0CE51010817E2CE51800814E0CE51B6
:10058000020803E1CDC09FF00ED0CE5103080BE16D
:100590009FC0D0F0CDC0CFF09CC0D1F09FC0D3F0B1
:1005A000CDC0D2F09BD5CE517F0817E29CB10FD0C1
:1005B000D8909C31CF6FD06F82D602C09EF001C020
:1005C0009DF09EC0CFF09EC0D0F0ACDF05D09DC0A6
:1005D000CFF09DC0D0F0A6DF9C2B8D6B8C6B9E96D0
:1005E00036EF00F0232064637377635F6D6F64758B
:1005F0006C655F6C61746368696E675F636F6E746E
:100600006163746F720D0A002320726561645F6418
:1006100069705F73776974636828293D25750D0AD1
:100620000000700ED36E9B9C9B9EC050C00B0509B2
:10063000C06EC08EC280140E7E6EC190C192C194F5
:10064000C196020E7F6E3F0E926E700E936E810EFB
:10065000946E300E776EF19E786A89698869EA6ACD
:10066000AB0EE96E000E29DD0A000900F550EE6EB2
:100670000009FBE1300EAB5D0A0DF3CF82F0300EC6
:10068000AC5D8227AE514A080FE1AF51410803E14A
:10069000010E816F08D0B0514E0803E1060E816F44
:1006A00002D0070E816F37D0AE51410809E1AF513A
:1006B000500803E1040E816F02D0080E816F2BD029
:1006C000AE514D0809E1B051520803E1030E816FAC
:1006D00002D0050E816F1FD0AE51460803E1020E15
:1006E000816F19D0AE51530803E1090E816F13D009
:1006F000AE514F0803E10A0E816F0DD0AE514E0886
:1007000003E10B0E816F07D0AE51440803E10C0EDC
:10071000816F01D08169300EB25D0A0DF3CF80F098
:10072000300EB35D8027000E0609CA6EF90ECB6E3F
:100730009D8221EF07F0B46BB3C0B6F0B251D8B4CC
:10074000B307B207B56FB55302E1B65330E0B1C09D
:1007500003F0B051E96E03C0EAFFAF51036EAE5132
:10076000AE2BD8B4AF2BB76F03C0B8F0F2CFB9F04F
:10077000F29EB7C0A9FFA69CA69EA680A850B9BFAE
:10078000F28EEF6EB1C003F0B051E96E03C0EAFF24
:10079000EFCFB5F0B4C0B7F0B5C0B8F0B751B819E5
:1007A000016E01C0B4F0B02BD8B4B12BC5D7B4C022
:1007B00001F086EF04F0B56BB4C0B7F0B351D8B414
:1007C000B407B307B66FB65302E1B7533CE0B2C00B
:1007D00003F0B151E96E03C0EAFFEFCFB6F0B5C048
:1007E000B7F0B6C0B8F0B751B819016E01C0B5F096
:1007F000B051036EAF51AF2BD8B4B02BB66F03C05E
:10080000B7F0B251036EB151B12BD8B4B22BE96E2F
:1008100003C0EAFFEFCFB8F0F250006EF29EB6C010
:10082000A9FFB8C0A8FFA69CA69EA6840F01550EDE
:10083000A76EAA0EA76EA682A6B2FED7A6940050F7
:10084000F2120001B9D7B5C001F033EF04F01B0E6E
:10085000AD6FB06B020EAF6FB26BADC0B1F0B46BE9
:100860001D0EB36FA8D701C0ACF0F250006EF29E1F
:10087000A96AACC0A8FFA69CA69EA6840F01550E2F
:10088000A76EAA0EA76EA682A6B2FED7A6940050A7
:10089000F21200011200010E856F960E876F500E46
:1008A0001B6E260E1D6E910E1C6E1F6A140E1E6EA0
:1008B000216A050E206E236A020E226E25682468C6
:1008C000276A266E296828682B6A2A6E2D6ABE0E52
:1008D0002C6E2F682E68316AC80E306E030E336E90
:1008E000E80E326E35683468030E376E840E366E4D
:1008F000AEDF12001B0EAC6FAF6B020EAE6FB16BB2
:10090000ACC0B0F0B36B1D0EB26F15D701C0ABF029
:10091000F2CFACF0F29EA96AA69CA69EA680A85033
:10092000ACBFF28EAB5D01E0B6DF22EF07F0EA6A02
:10093000AD0EE96EEF500EE0050E016E006A002E5E
:10094000FED7012EFBD72E0E006E002EFED700D054
:10095000EF2EF2D71200240E016EC250C30B01100D
:10096000C26E010EAD6FE3DFC282C2B2FED7C4CF4A
:10097000ACF0C3CFABF0AC51020808E2FF0A03E1D0
:10098000AB51C00803E2000E016E18D0AC51010853
:1009900008E2FF0A03E1AB51C00803E2020E016E58
:1009A0000DD0AC51000808E2FF0A03E1AB51C008CA
:1009B00003E2010E016E02D0030E016E1200090067
:1009C000F5520DE0F6CFABF0F7CFACF0F5509EA8A6
:1009D000FED7AD6EABC0F6FFACC0F7FFF0D74BEF64
:1009E00007F0782B78510F0801E2786B100E016E3A
:1009F000C250C30B0110C26ED8907835036A380F0D
:100A0000E96E000E0320EA6EC282C2B2FED7C3CFE7
:100A1000EFFFC4CFECFF080E016EC250C30B0110F4
:100A2000C26E010EAD6F83DFD8907835036A580F20
:100A3000E96E000E0320EA6EC282C2B2FED7C3CFB7
:100A4000EFFFC4CFECFF12008695875303E1949229
:100A50008B9203D094928B8287077D3D03D07E3D9D
:100A600001D003D07D2BD8B47E2B9A5305E1949608
:100A70008B9694988B9801D09A079B5305E1949A92
:100A80008B9A949C8B9C01D09B07A42BD8B4A52B4C
:100A9000A451E808D8A4EDD0A5510308D8A4E9D002
:100AA000A56BA46B883D03D0893D01D01DD0885330
:100AB00002E1895305E08851D8B48907880714D02A
:100AC00083B106D0838123C08BF022C08AF00CD082
:100AD0008A5306E18B5304E183918969886904D0C4
:100AE0008A51D8B48B078A078C3D03D08D3D01D045
:100AF00003D08C2BD8B48D2B903D03D0913D01D0E9
:100B000003D0902BD8B4912B25508D5D19E303E1D0
:100B10008C51245C15E283B306D0838327C08FF009
:100B200026C08EF00CD08E5306E18F5304E18393E0
:100B30008D6B8C6B04D08E51D8B48F078E0701D08B
:100B400083932950915D19E303E19051285C15E2EC
:100B500083B506D083852BC093F02AC092F00CD0C9
:100B6000925306E1935304E18395916B906B04D00B
:100B70009251D8B49307920701D083952E3C03D0AD
:100B80002F3C01D032D0196AF2BE198EF29ED16B81
:100B900021EC01F019BEF28E02C0ACF001C0ABF046
:100BA0003150AC5D0AE303E1AB51305C06E2965391
:100BB00002E0960701D0839702D0050E966FAC51E4
:100BC0002D5C0FE303E12C50AB5D0BE2945302E18B
:100BD000955305E09451D8B49507940701D08387C5
:100BE00004D02FC095F02EC094F0343C03D0353C97
:100BF00001D032D0196AF2BE198EF29ED16B21EC6F
:100C000001F019BEF28E02C0ACF001C0ABF0AC51E5
:100C1000375C0AE303E13650AB5D06E2995302E02C
:100C2000990701D0839902D0050E996F3350AC5DBE
:100C30000FE303E1AB51325C0BE2975302E19853AF
:100C400005E09751D8B49807970701D0838904D05D
:100C500035C098F034C097F0A12BA1513C0809E1B0
:100C6000A16B7B3D03D07C3D01D003D07B2BD8B45E
:100C70007C2B86A303D08693A36BA26BA22BD8B444
:100C8000A32B1E50A25D06E11F50A35D03E1A36BE1
:100C9000A26B868163EF07F09EAAFED7ABCF1AF056
:100CA000AECF01F01AA202D0AB98AB8866EF07F086
:100CB0000900F6CFADF0F7CFAEF0F5509EA8FED705
:100CC000AD6EADC0F6FFAEC0F7FFAC2FF1D770EF41
:100CD00007F0AF51016AAE5D03E2AEC000F00CD088
:100CE000006A080EB06FAE370036AF51005CD8B066
:100CF000006E0136B02FF7D712000150ACC0AEF035
:100D0000640EAF6FE6DF00C0ACF00150300E07E1BB
:100D1000ADA30DD0ADB70BD0ADB9200E03D0AD97BC
:100D2000AD99AD81012601509EA8FED7AD6EACC035
:100D3000AEF00A0EAF6FCDDF00C0ACF00150300E48
:100D400006E1ADB709D0ADA107D0ADB9200E01269F
:100D500001509EA8FED7AD6E300EAC27AC519EA8B8
:100D6000FED7AD6E75EF07F0C80E9A6F94968B861E
:100D700094988B988CEF07F0C80E9A6F94968B9688
:100D800094988B888FEF07F0C80E9B6F949A8B8A8C
:100D9000949C8B9C9EEF07F0C80E9B6F949A8B9A45
:100DA000949C8B8CA1EF07F0F86AD09E078E938CF1
:100DB0009388340EC86E360EC66EC580C58E1A6A0C
:100DC000B886A00EAF6E010EB06EA60EAC6E900E81
:100DD000AB6E030EA06FA76BA66B000E7E6EC1906C
:100DE000C192C194C1967F6E6C6A6B6A6D6A08D0BD
:100DF00081401B0003009D0000000540A100000091
:100E0000000EF86E0D0EF76EF00EF66E0900F5503E
:100E1000006E000A13E00900F550016EE8BE05D02F
:100E20003F0BEA6E0900F5CFE9FF01BC090001ACF8
:100E30000900F5CFEEFF004EE9D7F9D7F86A11EFB8
:100E400003F058D5215203E12050640803E2216ADF
:100E5000640E206E80DD020E0124A96FA86BA951DB
:100E6000A85D0DE2040094928B82C80EAD6F5FDD29
:100E700094928B92C80EAD6F5ADDA82BF0D7040E5A
:100E8000AB6FFA0EAD6F53DDAB2FFBD7E40EF66EF2
:100E9000050EF76E94D5F40E876FC00EF212A86B94
:100EA000A8511D0803E39DDDA82BFAD7928AA96BF0
:100EB00080AAA92B9288AA6B80A8AA2B9D860400E1
:100EC00086A501D0C1D59EAA18D0E6D644DD01C0C2
:100ED000ABF0080EF66E060EF76E140EAC6FE8D689
:100EE000ABC0ACF01B0EAD6F08D70D0E9EA8FED7A1
:100EF000AD6E0A0E9EA8FED7AD6E928A000E80BA25
:100F0000010EA95D0CE0928AA96B80BAA92BA953A6
:100F100004E0F40E876F28D702D0876B2DD7928814
:100F2000000E80B8010EAA5D0CE09288AA6B80B812
:100F3000AA2BAA5304E0F40E876F26D702D0876B42
:100F40002BD786A102D086914CDD86A702D086974A
:0E0F50007EDC86A902D086999EDCB1D7FFD741
:0200000400F00A
:0400000000004000BC
:020000040030CA
:0E000000002819180000090003C003E00340A7
:00000001FF
;PIC18F14K22
;CRC=C9D9  CREATED="18-Nov-21 16:03"
