:0400000006EF1BF0FC
:08000800046ED8CF05F0E0CF33
:1000100006F00001E9CF0CF0EACF07F0E1CF08F0DD
:10002000E2CF09F0D9CF0AF0DACF0BF0F3CF12F01C
:10003000F4CF13F0FACF14F0F5CF15F0F6CF16F099
:10004000F7CF17F000C00EF001C00FF002C010F0A3
:1000500003C011F09DA230EF00F09EB26AEF00F0F5
:100060009DA636EF00F09EB649EF07F00EC000F0F7
:100070000FC001F010C002F011C003F00CC0E9FF86
:1000800007C0EAFF078E08C0E1FF09C0E2FF0AC00F
:10009000D9FF0BC0DAFF12C0F3FF13C0F4FF14C086
:1000A000FAFF15C0F5FF16C0F6FF17C0F7FF0450A2
:1000B00006C0E0FF05C0D8FF1000F76ACA0FF66E51
:1000C000000EF7220900F5501200352D4665622D0D
:1000D00032320000CF859E9236EF00F001013D5193
:1000E000100808E23D511E0805E3010E406F0E0E98
:1000F0003D5F0CD03D51110808E23D516B0805E30E
:10010000010E406F0E0E3D5F01D0406B3D51030A62
:1001100000013BE0070A51E0010A67E0030AD8B496
:100120007CD0440AD8B491D0010AD8B4A6D0070A2A
:10013000D8B4BBD0010AD8B4D0D0030AD8B4E5D023
:10014000010AD8B4FAD00F0AD8B40FD1010AD8B432
:1001500024D1030AD8B439D1010AD8B44ED1070A40
:10016000D8B463D1010AD8B478D1030AD8B48DD1F8
:10017000010AD8B4A2D11F0AD8B4B7D1010AD8B4A1
:10018000CCD1D60AD8B4E1D103D201014051190D26
:10019000F350426B416F010E4125016E000E42216A
:1001A000036E0150D40FE96E000E0320EA6E3FC1CA
:1001B000ECFFED523EC1EFFF000101014051190D6E
:1001C000F350426B416F030E4125016E000E422138
:1001D000036E0150D40FE96E000E0320EA6E3FC19A
:1001E000ECFFED523EC1EFFF000101014051190D3E
:1001F000F350426B416F050E4125016E000E422106
:10020000036E0150D40FE96E000E0320EA6E3FC169
:10021000ECFFED523EC1EFFF000101014051190D0D
:10022000F350426B416F070E4125016E000E4221D3
:10023000036E0150D40FE96E000E0320EA6E3FC139
:10024000ECFFED523EC1EFFF000101014051240DD2
:10025000F350426B416F040E4125016E000E4221A6
:10026000036E01501B0FE96E000E0320EA6E3FC1C2
:10027000ECFFED523EC1EFFF000101014051240DA2
:10028000F350426B416F060E4125016E000E422174
:10029000036E01501B0FE96E000E0320EA6E3FC192
:1002A000ECFFED523EC1EFFF000101014051240D72
:1002B000F350426B416F080E4125016E000E422142
:1002C000036E01501B0FE96E000E0320EA6E3FC162
:1002D000ECFFED523EC1EFFF000101014051240D42
:1002E000F350426B416F0A0E4125016E000E422110
:1002F000036E01501B0FE96E000E0320EA6E3FC132
:10030000ECFFED523EC1EFFF000101014051240D11
:10031000F350426B416F0C0E4125016E000E4221DD
:10032000036E01501B0FE96E000E0320EA6E3FC101
:10033000ECFFED523EC1EFFF000101014051240DE1
:10034000F350426B416F0E0E4125016E000E4221AB
:10035000036E01501B0FE96E000E0320EA6E3FC1D1
:10036000ECFFED523EC1EFFF000101014051240DB1
:10037000F350426B416F100E4125016E000E422179
:10038000036E01501B0FE96E000E0320EA6E3FC1A1
:10039000ECFFED523EC1EFFF000101014051240D81
:1003A000F350426B416F120E4125016E000E422147
:1003B000036E01501B0FE96E000E0320EA6E3FC171
:1003C000ECFFED523EC1EFFF000101014051240D51
:1003D000F350426B416F140E4125016E000E422115
:1003E000036E01501B0FE96E000E0320EA6E3FC141
:1003F000ECFFED523EC1EFFF000101014051240D21
:10040000F350426B416F160E4125016E000E4221E2
:10041000036E01501B0FE96E000E0320EA6E3FC110
:10042000ECFFED523EC1EFFF000101014051240DF0
:10043000F350426B416F180E4125016E000E4221B0
:10044000036E01501B0FE96E000E0320EA6E3FC1E0
:10045000ECFFED523EC1EFFF000101014051240DC0
:10046000F350426B416F1A0E4125016E000E42217E
:10047000036E01501B0FE96E000E0320EA6E3FC1B0
:10048000ECFFED523EC1EFFF000101014051240D90
:10049000F350426B416F1C0E4125016E000E42214C
:1004A000036E01501B0FE96E000E0320EA6E3FC180
:1004B000ECFFED523EC1EFFF000101014051240D60
:1004C000F350426B416F1E0E4125016E000E42211A
:1004D000036E01501B0FE96E000E0320EA6E3FC150
:1004E000ECFFED523EC1EFFF000101014051240D30
:1004F000F350426B416F200E4125016E000E4221E8
:10050000036E01501B0FE96E000E0320EA6E3FC11F
:10051000ECFFED523EC1EFFF000101014051240DFF
:10052000F350426B416F220E4125016E000E4221B5
:10053000036E01501B0FE96E000E0320EA6E3FC1EF
:10054000ECFFED523EC1EFFF000101013E2D06D050
:100550003F5304E10001CF871BD001013E51020847
:1005600006E13F5304E10001CF8912D001013E5161
:100570000A0808E13F51070805E1010E0001CA6FB2
:1005800007D001013E3D03D03F3D01D0FF000001F7
:100590008EEF07F001013D51200DF350036A630F08
:1005A000016E000E032201C041F103C042F13F6B16
:1005B0003E6B406B40510F0815E3036A40C102F0E7
:1005C000D8900236033602504125E96E425103208D
:1005D000EA6EECCF03F0ED52EF503E2703503F237D
:1005E000402BE8D7080E3E25436F000E3F21446F95
:1005F0004431036E4331026E03320232033202325F
:10060000033202320F0E031602C001F003C002F0E3
:100610000001120001013B51100808E23B511E0885
:1006200005E3010E3C6F0E0E3B5F0CD03B511108F1
:1006300008E23B516B0805E3010E3C6F0E0E3B5F79
:1006400001D03C6B640E0001D06F01013B51000AE8
:100650000001D8B497D0010AD8B49AD0030AD8B40C
:100660009ED0010AD8B4A2D0070AD8B4BAD0010AE1
:10067000D8B4D2D0030AD8B4EAD0010AD8B402D18F
:100680000F0AD8B41AD1010AD8B432D1030AD8B4A7
:100690004AD1010AD8B462D1070AD8B47AD1010A82
:1006A000D8B492D1030AD8B4AAD1010AD8B4C2D11D
:1006B0001F0AD8B4BFD10F0AD8B4C0D13F0AD8B4EA
:1006C000C2D1010AD8B4C4D1030AD8B4C6D1620ACF
:1006D000D8B4C7D1010AD8B4D9D1030AD8B4F1D15A
:1006E000010AD8B409D2070AD8B421D2010AD8B471
:1006F00039D2030AD8B451D2010AD8B469D20F0A48
:10070000D8B481D2010AD8B499D2030AD8B4B1D2EC
:10071000010AD8B4C9D2070AD8B4E1D2010AD8B4C0
:10072000F9D2030AD8B411D3010AD8B429D31F0AC5
:10073000D8B441D3010AD8B459D3030AD8B471D379
:10074000010AD8B46ED3070AD8B46BD3010AD8B45F
:1007500068D3D50AD8B469D3010AD8B46BD3030AD5
:10076000D8B46DD3010AD8B46FD3070AD8B471D303
:10077000010AD8B472D3030AD8B473D3010AD8B427
:1007800074D377D301013D6B000104DF025074D3B1
:10079000D4C003F0EDC001F0D4C002F06DD3010E5F
:1007A00001013D6F0001F6DE025066D301013C51AC
:1007B000190DF3503E6B3D6F010E3D25016E000E8D
:1007C0003E21036E0150D40FE96E000E0320EA6E45
:1007D000ECCF03F0ED52EFCF01F003C002F00001C7
:1007E0004BD301013C51190DF3503E6B3D6F030E8D
:1007F0003D25016E000E3E21036E0150D40FE96EBF
:10080000000E0320EA6EECCF03F0ED52EFCF01F0C3
:1008100003C002F0000130D301013C51190DF35027
:100820003E6B3D6F050E3D25016E000E3E21036EB1
:100830000150D40FE96E000E0320EA6EECCF03F0F6
:10084000ED52EFCF01F003C002F0000115D301011A
:100850003C51190DF3503E6B3D6F070E3D25016E67
:10086000000E3E21036E0150D40FE96E000E0320EE
:10087000EA6EECCF03F0ED52EFCF01F003C002F0CF
:100880000001FAD201013C51190DF3503E6B3D6F4E
:10089000090E3D25016E000E3E21036E0150D40F5E
:1008A000E96E000E0320EA6EECCF03F0ED52EFCFBD
:1008B00001F003C002F00001DFD201013C51190D2B
:1008C000F3503E6B3D6F0B0E3D25016E000E3E2139
:1008D000036E0150D40FE96E000E0320EA6EECCFD8
:1008E00003F0ED52EFCF01F003C002F00001C4D2DB
:1008F00001013C51190DF3503E6B3D6F0D0E3D252E
:10090000016E000E3E21036E0150D40FE96E000E01
:100910000320EA6EECCF03F0ED52EFCF01F003C0FD
:1009200002F00001A9D201013C51190DF3503E6BB8
:100930003D6F0F0E3D25016E000E3E21036E0150EE
:10094000D40FE96E000E0320EA6EECCF03F0ED52F7
:10095000EFCF01F003C002F000018ED201013C5143
:10096000190DF3503E6B3D6F110E3D25016E000ECB
:100970003E21036E0150D40FE96E000E0320EA6E93
:10098000ECCF03F0ED52EFCF01F003C002F0000115
:1009900073D201013C51190DF3503E6B3D6F130EA4
:1009A0003D25016E000E3E21036E0150D40FE96E0D
:1009B000000E0320EA6EECCF03F0ED52EFCF01F012
:1009C00003C002F0000158D201013C51190DF3504F
:1009D0003E6B3D6F150E3D25016E000E3E21036EF0
:1009E0000150D40FE96E000E0320EA6EECCF03F045
:1009F000ED52EFCF01F003C002F000013DD2010142
:100A00003C51190DF3503E6B3D6F170E3D25016EA5
:100A1000000E3E21036E0150D40FE96E000E03203C
:100A2000EA6EECCF03F0ED52EFCF01F003C002F01D
:100A3000000122D2FF0E016E026E1ED2C4C001F070
:100A4000C5C002F019D2C8C001F0C9C002F014D26A
:100A5000C6C001F0C7C002F00FD2CEC001F0026ADA
:100A60000BD201013C51240DF3503E6B3D6F1B0E28
:100A70003D25E96E000E3E21EA6EECCF03F0ED520B
:100A8000EFCF01F003C002F00001F6D101013C51AB
:100A9000240DF3503E6B3D6F020E3D25016E000E9E
:100AA0003E21036E01501B0FE96E000E0320EA6E1B
:100AB000ECCF03F0ED52EFCF01F003C002F00001E4
:100AC000DBD101013C51240DF3503E6B3D6F040E10
:100AD0003D25016E000E3E21036E01501B0FE96E95
:100AE000000E0320EA6EECCF03F0ED52EFCF01F0E1
:100AF00003C002F00001C0D101013C51240DF350AC
:100B00003E6B3D6F060E3D25016E000E3E21036ECD
:100B100001501B0FE96E000E0320EA6EECCF03F0CC
:100B2000ED52EFCF01F003C002F00001A5D10101A9
:100B30003C51240DF3503E6B3D6F080E3D25016E78
:100B4000000E3E21036E01501B0FE96E000E0320C4
:100B5000EA6EECCF03F0ED52EFCF01F003C002F0EC
:100B600000018AD101013C51240DF3503E6B3D6FD1
:100B70000A0E3D25016E000E3E21036E01501B0F33
:100B8000E96E000E0320EA6EECCF03F0ED52EFCFDA
:100B900001F003C002F000016FD101013C51240DAE
:100BA000F3503E6B3D6F0C0E3D25016E000E3E2155
:100BB000036E01501B0FE96E000E0320EA6EECCFAE
:100BC00003F0ED52EFCF01F003C002F0000154D169
:100BD00001013C51240DF3503E6B3D6F0E0E3D253F
:100BE000016E000E3E21036E01501B0FE96E000ED8
:100BF0000320EA6EECCF03F0ED52EFCF01F003C01B
:100C000002F0000139D101013C51240DF3503E6B3B
:100C10003D6F100E3D25016E000E3E21036E01500A
:100C20001B0FE96E000E0320EA6EECCF03F0ED52CD
:100C3000EFCF01F003C002F000011ED101013C51D1
:100C4000240DF3503E6B3D6F120E3D25016E000EDC
:100C50003E21036E01501B0FE96E000E0320EA6E69
:100C6000ECCF03F0ED52EFCF01F003C002F0000132
:100C700003D101013C51240DF3503E6B3D6F140E26
:100C80003D25016E000E3E21036E01501B0FE96EE3
:100C9000000E0320EA6EECCF03F0ED52EFCF01F02F
:100CA00003C002F00001E8D001013C51240DF350D3
:100CB0003E6B3D6F160E3D25016E000E3E21036E0C
:100CC00001501B0FE96E000E0320EA6EECCF03F01B
:100CD000ED52EFCF01F003C002F00001CDD00101D1
:100CE0003C51240DF3503E6B3D6F180E3D25016EB7
:100CF000000E3E21036E01501B0FE96E000E032013
:100D0000EA6EECCF03F0ED52EFCF01F003C002F03A
:100D10000001B2D001013C51240DF3503E6B3D6FF8
:100D20001A0E3D25016E000E3E21036E01501B0F71
:100D3000E96E000E0320EA6EECCF03F0ED52EFCF28
:100D400001F003C002F0000197D001013C51240DD5
:100D5000F3503E6B3D6F140E3D25016E000E3E219B
:100D6000036E01501B0FE96E000E0320EA6EECCFFC
:100D700003F0ED52EFCF01F003C002F000017CD090
:100D800001013C51240DF3503E6B3D6F160E3D2585
:100D9000016E000E3E21036E01501B0FE96E000E26
:100DA0000320EA6EECCF03F0ED52EFCF01F003C069
:100DB00002F0000161D001013C51240DF3503E6B63
:100DC0003D6F180E3D25016E000E3E21036E015051
:100DD0001B0FE96E000E0320EA6EECCF03F0ED521C
:100DE000EFCF01F003C002F0000146D001013C51F9
:100DF000240DF3503E6B3D6F1A0E3D25016E000E23
:100E00003E21036E01501B0FE96E000E0320EA6EB7
:100E1000ECCF03F0ED52EFCF01F003C002F0000180
:100E20002BD0FF0E016E026E27D0440E016E000E15
:100E3000026E22D0320E016E000E026E1DD04C0EDC
:100E4000016E000E026E18D0300E016E000E026EA2
:100E500013D0CBC001F0026A0FD0CCC001F0026AFF
:100E60000BD0CDC001F0026A07D0CAC001F0026AFF
:100E700003D0FF0E016E026E9BEF07F0C9503BC11D
:100E8000C9FFC6889E96C7B0FED7016AC5AC012AC5
:100E90001200C7BA06D00101066BC7A401D0068FA5
:100EA000000106C138F1010106517F0804E0063D4A
:100EB00001D001D0062B3851800831E33851800829
:100EC00003E1C9CF39F106D0C69CC7A0FED7C950EF
:100ED000C688396F382D04D0D89039350A6F1FD0A5
:100EE000385101081CE23851800819E038510208D5
:100EF00003E139C109F113D03851030810E1D8904A
:100F00000A313A6F09C13CF139C13BF13D6F09C16A
:100F10003FF139C13EF100016EEF00F0010138519F
:100F20007F081CE20AB112D0D8900A313A6F3B6FA9
:100F300000010AEF03F002C008F101C007F108C187
:100F40003AF108C13BF19ADF07D0010107C13AF13C
:100F500007C13BF1000192DF01010A2B9E960001BF
:100F600036EF00F02320272573270D0A00002320E9
:100F700020636F6D70696C655F796561723D257581
:100F80000D0A00002320636F6D70696C655F6D6FE3
:100F90006E74683D25750D0A000023202020636FC4
:100FA0006D70696C655F6461793D25750D0A00009F
:100FB000232020202020202076696E206164633D5C
:100FC000256C750D0A002320202020202074656DDB
:100FD00070206164633D256C750D0A002320636FEA
:100FE0006E6669672E63685B25755D0D0A002320B8
:100FF000636F6D6D616E645F6F66665F686F6C6472
:101000005F74696D653D256C750D0A0023202020F5
:10101000206C76645F646973636F6E6E6563745F82
:101020006164633D256C750D0A002320206C766495
:101030005F646973636F6E6E6563745F64656C6132
:10104000793D256C750D0A002320202020206C7628
:10105000645F7265636F6E6E6563745F6164633D48
:10106000256C750D0A00232020206C76645F726564
:10107000636F6E6E6563745F64656C61793D256C4A
:10108000750D0A0023202020206876645F64697350
:10109000636F6E6E6563745F6164633D256C750D8F
:1010A0000A002320206876645F646973636F6E6E44
:1010B0006563745F64656C61793D256C750D0A002C
:1010C0002320202020206876645F7265636F6E6E37
:1010D0006563745F6164633D256C750D0A002320B0
:1010E00020206876645F7265636F6E6E6563745FFF
:1010F00064656C61793D256C750D0A002320202004
:10110000206C74645F646973636F6E6E6563745F93
:101110006164633D256C750D0A002320206C7464A6
:101120005F646973636F6E6E6563745F64656C6141
:10113000793D256C750D0A002320202020206C7439
:10114000645F7265636F6E6E6563745F6164633D57
:10115000256C750D0A00232020206C74645F726575
:10116000636F6E6E6563745F64656C61793D256C59
:10117000750D0A0023202020206874645F64697361
:10118000636F6E6E6563745F6164633D256C750D9E
:101190000A002320206874645F646973636F6E6E55
:1011A0006563745F64656C61793D256C750D0A003B
:1011B0002320202020206874645F7265636F6E6E48
:1011C0006563745F6164633D256C750D0A002320BF
:1011D00020206874645F7265636F6E6E6563745F10
:1011E00064656C61793D256C750D0A002320636888
:1011F000616E6E656C5B25755D0D0A0023202020F5
:1012000020202020202020202020202020202020DE
:10121000202020202073746174653D3078253032A1
:10122000780D0A00232020202020202020202020AC
:10123000636F6D6D616E645F6F6E5F7365636F6E1C
:1012400064733D256C750D0A0000232020202020AA
:1012500020636F6D6D616E645F6F6E5F686F6C644D
:101260005F7365636F6E64733D256C750D0A0000D6
:101270002320202020202020202020636F6D6D61FE
:101280006E645F6F66665F7365636F6E64733D2542
:101290006C750D0A0000232020202020636F6D6DE7
:1012A000616E645F6F66665F686F6C645F736563D1
:1012B0006F6E64733D256C750D0A000023206C76FB
:1012C000645F646973636F6E6E6563745F64656C9D
:1012D00061795F7365636F6E64733D256C750D0A8C
:1012E00000002320206C76645F7265636F6E6E650C
:1012F00063745F64656C61795F7365636F6E64735B
:101300003D256C750D0A000023206876645F6469D2
:1013100073636F6E6E6563745F64656C61795F7330
:1013200065636F6E64733D256C750D0A00002320A4
:10133000206876645F7265636F6E6E6563745F6468
:10134000656C61795F7365636F6E64733D256C7561
:101350000D0A000023206C74645F646973636F6E10
:101360006E6563745F64656C61795F7365636F6EEE
:1013700064733D256C750D0A00002320206C746495
:101380005F7265636F6E6E6563745F64656C6179CF
:101390005F7365636F6E64733D256C750D0A0000A5
:1013A00023206874645F646973636F6E6E65637431
:1013B0005F64656C61795F7365636F6E64733D250F
:1013C0006C750D0A00002320206874645F726563E9
:1013D0006F6E6E6563745F64656C61795F7365637E
:1013E0006F6E64733D256C750D0A000023206463E5
:1013F0007377635F6D6F64756C655F6C6174636850
:10140000696E675F636F6E746163746F72202573BA
:101410000D0A23200000352D4665622D3232000072
:101420005744542054494D454F5554004D434C5258
:101430002046524F4D20534C454550004D434C5291
:101440002046524F4D2052554E004E4F524D414C6A
:1014500020504F5745522055500042524F574E4F43
:10146000555420524553544152540000574454207F
:1014700046524F4D20534C45455000005245534570
:101480005420494E535452554354494F4E00554EE3
:101490004B4E4F574E210000010EEA6E370EE96E9B
:1014A000EF500EE0050E016E006A002EFED7012EF1
:1014B000FBD72E0E006E002EFED700D0EF2EF2D7F7
:1014C0001200240E016EC250C30B0110C26E010E39
:1014D0000101376F0001E0DFC282C2B2FED7C4CF84
:1014E00036F1C3CF35F101013651020808E2FF0A97
:1014F00003E13551BF0803E2000E016E18D03651EA
:10150000010808E2FF0A03E135516A0803E2020E0E
:10151000016E0DD03651000808E2FF0A03E1355193
:10152000BF0803E2010E016E02D0030E016E00013E
:101530004EEF0BF0700ED36E9B9C9B9EC050C00B69
:101540000509C06EC08EC280140E7E6EC190C1921D
:10155000C194C196020E7F6ED1803F0E926E700EC6
:10156000936E810E946E300E776EF19E786ADA6912
:10157000D969F369F269D669D569EF69EE69010E37
:10158000EA6E150EE96E000E5DEC00F00A0009002F
:10159000F550EE6E0009FBE1300E0101155D0A0DFC
:1015A000F3CFCDF00001300E0101165D0001CD2713
:1015B000010118514A0815E11951410805E1010ED0
:1015C0000001CC6F0CD001011A514E0805E1060E46
:1015D0000001CC6F04D00101070E0001CC6F4BD08D
:1015E0000101185141080DE11951500805E1040E9F
:1015F0000001CC6F04D00101080E0001CC6F3BD07C
:10160000010118514D080DE11A51520805E1030E70
:101610000001CC6F04D00101050E0001CC6F2BD06E
:1016200001011851460805E1020E0001CC6F23D0DC
:1016300001011851530805E1090E0001CC6F1BD0C0
:10164000010118514F0805E10A0E0001CC6F13D0BB
:10165000010118514E0805E10B0E0001CC6F0BD0B3
:1016600001011851440805E10C0E0001CC6F03D0B4
:1016700001010001CC69300E01011C5D0A0DF3CFA0
:10168000CBF00001300E01011D5D0001CB27000EE3
:101690000609CA6EF90ECB6E9D8213D7D89001341D
:1016A0003E0F0101C86E00014FEF1BF001011E6BE0
:1016B0001DC120F11C51D8B41D071C071F6F1F53FB
:1016C00002E1205330E01BC103F01A51E96E03C060
:1016D000EAFF1951036E1851182BD8B4192B216F3A
:1016E00003C022F1F2CF23F1F29E21C1A9FFA69CF3
:1016F000A69EA680A85023BFF28EEF6E1BC103F0FA
:101700001A51E96E03C0EAFFEFCF1FF11EC122F1AB
:101710001FC123F122512319016E01C01EF11A2BA2
:10172000D8B41B2BC5D71EC101F00001ACEF0CF0E3
:101730000101206B1FC122F11E51D8B41F071E07E3
:10174000216F215302E122533CE01DC103F01C51E3
:10175000E96E03C0EAFFEFCF21F120C122F121C1E0
:1017600023F122512319016E01C020F11B51036E98
:101770001A511A2BD8B41B2B216F03C022F11D5113
:10178000036E1C511C2BD8B41D2BE96E03C0EAFF5D
:10179000EFCF23F1F250006EF29E21C1A9FF23C1C9
:1017A000A8FFA69CA69EA6840F01550EA76EAA0EA2
:1017B000A76EA682A6B2FED7A6940050F21201012F
:1017C000B9D720C101F00001F4EF0BF001011B0EAD
:1017D000186F1B6B020E1A6F1D6B18C11CF11F6B6B
:1017E000480E1E6F0001A4D701C017F1F250006E21
:1017F000F29EA96A17C1A8FFA69CA69EA6840F0107
:10180000550EA76EAA0EA76EA682A6B2FED7A69404
:101810000050F21200011200010ECE6F960ED06F32
:10182000D16F0101166B16510108D8A084D0165152
:10183000240DF350186B176F040E1725016E000E60
:101840001821036E01501B0FE96E000E0320EA6E93
:10185000010EEC6EED522F0EEF6E1651240DF3506B
:10186000186B176F060E1725016E000E1821036EF8
:1018700001501B0FE96E000E0320EA6EEC6AED5278
:10188000280EEF6E1651240DF350186B176F080ECB
:101890001725016E000E1821036E01501B0FE96E13
:1018A000000E0320EA6E010EEC6EED52340EEF6E68
:1018B0001651240DF350186B176F0C0E1725016E7F
:1018C000000E1821036E01501B0FE96E000E03205D
:1018D000EA6E010EEC6EED529A0EEF6E1651240D6B
:1018E000F350186B176F0E0E1725016E000E18219E
:1018F000036E01501B0FE96E000E0320EA6EEC6AC6
:10190000ED520F0EEF6E1651240DF350186B176F3A
:10191000100E1725016E000E1821036E01501B0FCB
:10192000E96E000E0320EA6E010EEC6EED52810EA0
:10193000EF6E162B78D7000149DF120001011B0E54
:10194000166F196B020E186F1B6B16C11AF11D6B07
:10195000480E1C6F0001AAD601C015F1F2CF16F196
:10196000F29EA96AA69CA69EA680A850010116BF59
:10197000F28E155D03E000014FDF0101000151EF20
:101980001BF00900F6CF1AF1F7CF1BF1F5509EA816
:10199000FED7AD6E1AC1F6FF1BC1F7FF0101192F6B
:1019A00001D002D00001EDD7000112000900F5526C
:1019B0000DE0F6CF16F1F7CF17F1F5509EA8FED740
:1019C000AD6E16C1F6FF17C1F7FFF0D71200C32B9B
:1019D000C3510F0801E2C36B100E016EC250C30B5E
:1019E0000110C26ED890C335036A630FE96E000E12
:1019F0000320EA6EC282C2B2FED7C3CFEFFFC4CFCC
:101A0000ECFF080E016EC250C30B0110C26E010E36
:101A10000101376F000140DDD890C335036A830FA1
:101A2000E96E000E0320EA6EC282C2B2FED7C3CFB7
:101A3000EFFFC4CFECFF240E016EC250C30B0110A8
:101A4000C26E010E0101376F000126DDD890C3354B
:101A5000036AA30FE96E000E0320EA6EC282C2B2CF
:101A6000FED7C3CFEFFFC4CFECFF12000101155129
:101A7000190DF350196B186F010E1825016E000E29
:101A80001921036E0150D40FE96E000E0320EA6E97
:101A9000ECCF03F0ED52EF50FF0803E1033C01D01F
:101AA000CBD01551190DF350196B186F010E182575
:101AB000016E000E1921036E0150D40FE96E000E65
:101AC0000320EA6EECCF19F1ED52EFCF18F1185365
:101AD00002E1195317E01551190DF350196B186FE6
:101AE000010E1825016E000E1921036E0150D40F4E
:101AF000E96E000E0320EA6EFF0EEF2602E2EE52C0
:101B0000ED069AD01551190DF350196B186FD40EBC
:101B10001825E96E000E1921EA6EEFCF1AF11AB3FB
:101B20003AD01551190DF350196B186FD40E1825B2
:101B3000016E000E192101C0E9FFEA6EEF82155116
:101B4000190DF350196B186F030E1825016E000E56
:101B50001921036E0150D40F016E000E032203C041
:101B600019F11551240DF3501B6B1A6F1B0E1A251A
:101B7000E96E000E1B21EA6EECCF03F0ED52EFCFC1
:101B80001CF119C1EAFF01C0E9FF03C0ECFFED52EF
:101B90001CC1EFFF51D01551190DF350196B186F7F
:101BA000030E1825016E000E1921036E0150D40F8B
:101BB000E96E000E0320EA6EECCF03F0ED52EF5019
:101BC00025E1035223E11551190DF350196B186FDC
:101BD000D40E1825016E000E192101C0E9FFEA6E2E
:101BE000EF921551190DF350196B186F010E18254E
:101BF000016E000E1921036E0150D40FE96E000E24
:101C00000320EA6EEC68ED52EF6816D01551190DFD
:101C1000F350196B186F030E1825016E000E192171
:101C2000036E0150D40FE96E000E0320EA6EFF0E22
:101C3000EF2602E2EE52ED061551190DF350196B25
:101C4000186F050E1825016E000E1921036E015044
:101C5000D40FE96E000E0320EA6EECCF03F0ED52D4
:101C6000EF50FF0803E1033C01D0D3D01551190D0B
:101C7000F350196B186F050E1825016E000E19210F
:101C8000036E0150D40FE96E000E0320EA6EECCF14
:101C900019F1ED52EFCF18F1185302E1195317E083
:101CA0001551190DF350196B186F050E1825016E9B
:101CB000000E1921036E0150D40FE96E000E0320AF
:101CC000EA6EFF0EEF2602E2EE52ED06A2D01551AB
:101CD000190DF350196B186FD40E1825E96E000E0C
:101CE0001921EA6EEFCF1AF11AB542D01551190D2C
:101CF000F350196B186FD40E1825016E000E1921C0
:101D000001C0E9FFEA6EEF841551190DF350196B0C
:101D1000186F070E1825016E000E1921036E015071
:101D2000D40F016E000E032201C018F103C019F197
:101D30001551240DF3501B6B1A6F020E1A25016EFC
:101D4000000E1B21036E01501B0FE96E000E0320D5
:101D5000EA6EECCF03F0ED52EFCF1AF119C1EAFFB2
:101D600018C1E9FF03C0ECFFED521AC1EFFF51D0DB
:101D70001551190DF350196B186F070E1825016EC8
:101D8000000E1921036E0150D40FE96E000E0320DE
:101D9000EA6EECCF03F0ED52EF5025E1035223E160
:101DA0001551190DF350196B186FD40E1825016ECB
:101DB000000E192101C0E9FFEA6EEF941551190DCB
:101DC000F350196B186F050E1825016E000E1921BE
:101DD000036E0150D40FE96E000E0320EA6EEC682A
:101DE000ED52EF6816D01551190DF350196B186F9D
:101DF000070E1825016E000E1921036E0150D40F35
:101E0000E96E000E0320EA6EFF0EEF2602E2EE52AC
:101E1000ED061551240DF350196B186F060E182599
:101E2000016E000E1921036E01501B0FE96E000EAA
:101E30000320EA6EECCF03F0ED52EF50FF0803E110
:101E4000033C01D02FD1196AF2BE198EF29E3D6B70
:101E50000001CAEC02F019BEF28E02C017F101C0F7
:101E600016F101011551240DF350196B186F080E6E
:101E70001825016E000E1921036E01501B0FE96E2B
:101E8000000E0320EA6EECCF03F0ED52EFCF01F02D
:101E90000350175D44E303E11651015C40E2155124
:101EA000190DF350196B186F0B0E1825016E000EEB
:101EB0001921036E0150D40FE96E000E0320EA6E63
:101EC000ECCF19F1ED52EFCF18F1185302E119538D
:101ED00017E01551190DF350196B186F0B0E1825DB
:101EE000016E000E1921036E0150D40FE96E000E31
:101EF0000320EA6EFF0EEF2602E2EE52ED060ED050
:101F00001551190DF350196B186FD40E1825016E69
:101F1000000E192101C0E9FFEA6EEF9633D015518A
:101F2000190DF350196B186F0B0E1825016E000E6A
:101F30001921036E0150D40F016E000E032201C05F
:101F400018F103C019F11551240DF3501B6B1A6FD2
:101F50000A0E1A25016E000E1B21036E01501B0F85
:101F6000E96E000E0320EA6EECCF03F0ED52EFCFE6
:101F70001AF119C1EAFF18C1E9FF03C0ECFFED52E5
:101F80001AC1EFFF1551240DF350196B186F040E91
:101F90001825016E000E1921036E01501B0FE96E0A
:101FA000000E0320EA6EECCF03F0ED52EFCF01F00C
:101FB0001751035C44E303E10150165D40E2155103
:101FC000190DF350196B186F090E1825016E000ECC
:101FD0001921036E0150D40FE96E000E0320EA6E42
:101FE000ECCF19F1ED52EFCF18F1185302E119536C
:101FF00017E01551190DF350196B186F090E1825BC
:10200000016E000E1921036E0150D40FE96E000E0F
:102010000320EA6EFF0EEF2602E2EE52ED060ED02E
:102020001551190DF350196B186FD40E1825016E48
:10203000000E192101C0E9FFEA6EEF8633D0155179
:10204000190DF350196B186F090E1825016E000E4B
:102050001921036E0150D40F016E000E032201C03E
:1020600018F103C019F11551240DF3501B6B1A6FB1
:10207000060E1A25016E000E1B21036E01501B0F68
:10208000E96E000E0320EA6EECCF03F0ED52EFCFC5
:102090001AF119C1EAFF18C1E9FF03C0ECFFED52C4
:1020A0001AC1EFFF1551240DF350196B186F0E0E66
:1020B0001825016E000E1921036E01501B0FE96EE9
:1020C000000E0320EA6EECCF03F0ED52EF50FF0854
:1020D00003E1033C01D02FD1196AF2BE198EF29EA2
:1020E0003D6B0001CAEC02F019BEF28E02C017F17E
:1020F00001C016F101011551240DF350196B186F31
:10210000100E1825016E000E1921036E01501B0FD1
:10211000E96E000E0320EA6EECCF03F0ED52EFCF34
:1021200001F01751035C44E303E10150165D40E206
:102130001551190DF350196B186F0F0E1825016EFC
:10214000000E1921036E0150D40FE96E000E03201A
:10215000EA6EECCF19F1ED52EFCF18F1185302E10E
:10216000195317E01551190DF350196B186F0F0E15
:102170001825016E000E1921036E0150D40FE96E6F
:10218000000E0320EA6EFF0EEF2602E2EE52ED068D
:102190000ED01551190DF350196B186FD40E182568
:1021A000016E000E192101C0E9FFEA6EEF9833D0ED
:1021B0001551190DF350196B186F0F0E1825016E7C
:1021C000000E1921036E0150D40F016E000E032280
:1021D00001C018F103C019F11551240DF3501B6B08
:1021E0001A6F120E1A25016E000E1B21036E01508C
:1021F0001B0FE96E000E0320EA6EECCF03F0ED52E8
:10220000EFCF1AF119C1EAFF18C1E9FF03C0ECFFD3
:10221000ED521AC1EFFF1551240DF350196B186FD1
:102220000C0E1825016E000E1921036E01501B0FB4
:10223000E96E000E0320EA6EECCF03F0ED52EFCF13
:1022400001F00350175D44E303E11651015C40E2E5
:102250001551190DF350196B186F0D0E1825016EDD
:10226000000E1921036E0150D40FE96E000E0320F9
:10227000EA6EECCF19F1ED52EFCF18F1185302E1ED
:10228000195317E01551190DF350196B186F0D0EF6
:102290001825016E000E1921036E0150D40FE96E4E
:1022A000000E0320EA6EFF0EEF2602E2EE52ED066C
:1022B0000ED01551190DF350196B186FD40E182547
:1022C000016E000E192101C0E9FFEA6EEF8833D0DC
:1022D0001551190DF350196B186F0D0E1825016E5D
:1022E000000E1921036E0150D40F016E000E03225F
:1022F00001C018F103C019F11551240DF3501B6BE7
:102300001A6F0E0E1A25016E000E1B21036E01506E
:102310001B0FE96E000E0320EA6EECCF03F0ED52C6
:10232000EFCF1AF119C1EAFF18C1E9FF03C0ECFFB2
:10233000ED521AC1EFFF1551240DF350196B186FB0
:10234000160E1825016E000E1921036E01501B0F89
:10235000E96E000E0320EA6EECCF03F0ED52EF5071
:10236000FF0803E1033C01D030D1196AF2BE198E97
:10237000F29E010E3D6F0001CAEC02F019BEF28E12
:1023800002C017F101C016F101011551240DF350DF
:10239000196B186F180E1825016E000E1921036EA7
:1023A00001501B0FE96E000E0320EA6EECCF03F024
:1023B000ED52EFCF01F01751035C44E303E101500C
:1023C000165D40E21551190DF350196B186F130E7D
:1023D0001825016E000E1921036E0150D40FE96E0D
:1023E000000E0320EA6EECCF19F1ED52EFCF18F199
:1023F000185302E1195317E01551190DF350196BD9
:10240000186F130E1825016E000E1921036E01506E
:10241000D40FE96E000E0320EA6EFF0EEF2602E2F3
:10242000EE52ED060ED01551190DF350196B186FC1
:10243000D40E1825016E000E192101C0E9FFEA6EC5
:10244000EF9A33D01551190DF350196B186F130E05
:102450001825016E000E1921036E0150D40F016E74
:10246000000E032201C018F103C019F11551240D0B
:10247000F3501B6B1A6F1A0E1A25016E000E1B21EA
:10248000036E01501B0FE96E000E0320EA6EECCFC5
:1024900003F0ED52EFCF1AF119C1EAFF18C1E9FFBD
:1024A00003C0ECFFED521AC1EFFF1551240DF3509C
:1024B000196B186F140E1825016E000E1921036E8A
:1024C00001501B0FE96E000E0320EA6EECCF03F003
:1024D000ED52EFCF01F00350175D44E303E11651D5
:1024E000015C40E21551190DF350196B186F110E74
:1024F0001825016E000E1921036E0150D40FE96EEC
:10250000000E0320EA6EECCF19F1ED52EFCF18F177
:10251000185302E1195317E01551190DF350196BB7
:10252000186F110E1825016E000E1921036E01504F
:10253000D40FE96E000E0320EA6EFF0EEF2602E2D2
:10254000EE52ED060ED01551190DF350196B186FA0
:10255000D40E1825016E000E192101C0E9FFEA6EA4
:10256000EF8A33D01551190DF350196B186F110EF6
:102570001825016E000E1921036E0150D40F016E53
:10258000000E032201C018F103C019F11551240DEA
:10259000F3501B6B1A6F160E1A25016E000E1B21CD
:1025A000036E01501B0FE96E000E0320EA6EECCFA4
:1025B00003F0ED52EFCF1AF119C1EAFF18C1E9FF9C
:1025C00003C0ECFFED521AC1EFFF00011200010140
:1025D000168116811551190DF350186B176FD40E13
:1025E0001725E96E000E1821EA6EEF50030B02E08A
:1025F00016810FD01551190DF350186B176FD40EAB
:102600001725E96E000E1821EA6EEF507C0B01E0F1
:10261000169100011200CF95D05303E194928B9252
:1026200003D094928B82D007D15303E194948B947E
:1026300003D094948B84D107C83D03D0C93D01D009
:1026400003D0C82BD8B4C92BD25305E194968B96EE
:1026500094988B9801D0D207D35305E1949A8B9A22
:10266000949C8B9C01D0D3070101102BD8B4112B63
:102670001051E80828E11151030825E1116B106B96
:10268000156B000136EC0DF0010E0101156F000114
:1026900036EC0DF00101156B000199DF010E01010F
:1026A000156F000194DF01010D2B0D513C080BE16A
:1026B0000D6B0001C63D03D0C73D01D003D0C62B32
:1026C000D8B4C72B01010001CFA305D0CF930101DE
:1026D0000F6B0E6B000101010E2BD8B40F2B0E51A6
:1026E000140807E10F5305E10F6B0E6B0001CF815A
:1026F00001010001F4EF1BF001011951016A185D9D
:1027000003E218C100F00CD0006A080E1A6F1837E7
:1027100000361951005CD8B0006E01361A2FF7D779
:1027200000011200015016C118F1640E0101196F69
:102730000001E2DF00C016F10150300E08E1010196
:1027400017A30ED017B70CD017B9200E04D0010173
:10275000179717991781012601509EA8FED7AD6ED5
:1027600016C118F10A0E196F0001C6DF00C016F17C
:102770000150300E08E1010117B70BD017A109D0A5
:1027800017B9200E0001012601509EA8FED7AD6E9C
:102790000101300E162716519EA8FED7AD6E00011E
:1027A0001200EACF20F1E9CF1FF101011939F00938
:1027B0001B6F1B27E20F1C6F320F1E6F19510F0B7F
:1027C0001C271C271E27E90F1D6F1D271D271839E1
:1027D0000F0B1D271E271D371E371E1F1E371851B2
:1027E0000F0B1E271B37070E1A6F0A0E1D071E2719
:1027F000FDE31C071D27FDE31B071C27FDE31A074C
:102800001B27FDE3010EEA6E1A0EE96E070E1F1577
:102810001F9DE926000EEA22E9501E0803E1EA2C7A
:1028200001D01F8DEF50006E08E11FBD06D01FB90B
:102830000CD01FB702D0200E03D01F871F99300E77
:10284000002600509EA8FED7AD6EEE501FADE4D717
:102850000001120001011ABF10D00F0E006E1939CD
:1028600000160A0E005C03E2300E002602D01A5158
:10287000002600509EA8FED7AD6E0F0E19170A0E47
:10288000195D02E2300E02D01A9F1A511927195110
:102890009EA8FED7AD6E000186EF18F00400640E0E
:1028A000F66E0F0EF76E030E0101196F0001C1ECF9
:1028B0000CF0CA0EF66E000EF76ED6EC0CF0690E38
:1028C000F66E0F0EF76E030E0101196F0001C1ECD9
:1028D0000CF06E0EF66E0F0EF76E100E0101196FF2
:1028E0000001C1EC0CF0CBC016F11B0E0101176FFB
:1028F000000118DF0D0E9EA8FED7AD6E0A0E9EA831
:10290000FED7AD6E840EF66E0F0EF76E100E01013F
:10291000196F0001C1EC0CF0CCC016F11B0E0101C7
:10292000176F0001FFDE0D0E9EA8FED7AD6E0A0EDA
:102930009EA8FED7AD6E9A0EF66E0F0EF76E100EB5
:102940000101196F0001C1EC0CF0CDC016F11B0E96
:102950000101176F0001E6DE0D0E9EA8FED7AD6ED9
:102960000A0E9EA8FED7AD6E196AF2BE198EF29EAF
:1029700001013D6B0001CAEC02F019BEF28E02C0EB
:1029800017F101C016F1B00EF66E0F0EF76E100EB5
:102990000101196F0001C1EC0CF0100EE96E17C1B6
:1029A00019F116C118F1FDDE0D0E9EA8FED7AD6E11
:1029B0000A0E9EA8FED7AD6E196AF2BE198EF29E5F
:1029C000010E01013D6F0001CAEC02F019BEF28E4A
:1029D00002C017F101C016F1C60EF66E0F0EF76EAB
:1029E000100E0101196F0001C1EC0CF0100EE96E20
:1029F00017C119F116C118F1D4DE0D0E9EA8FED72D
:102A0000AD6E0A0E9EA8FED7AD6E0101156B155175
:102A10000108D8A0D3EF1AF00400DC0EF66E0F0EFA
:102A2000F76E0C0E196F0001C1EC0CF015C116F118
:102A30001B0E0101176F000175DEEA0EF66E0F0E18
:102A4000F76E030E0101196F0001C1EC0CF00101DA
:102A50001551240DF350176B166F020E1625016EDB
:102A6000000E1721036E01501B0FE96E000E0320AC
:102A7000EA6EECCF17F1ED52EFCF16F1EE0EF66ED7
:102A80000F0EF76E180E196F0001C1EC0CF0100E4E
:102A9000E96E17C119F116C118F183DE0D0E9EA85B
:102AA000FED7AD6E0A0E9EA8FED7AD6E0101155180
:102AB000240DF350176B166F040E1625016E000ED1
:102AC0001721036E01501B0FE96E000E0320EA6E02
:102AD000ECCF17F1ED52EFCF16F10C0EF66E100E93
:102AE000F76E180E196F0001C1EC0CF0100EE96EB4
:102AF00017C119F116C118F154DE0D0E9EA8FED7AC
:102B0000AD6E0A0E9EA8FED7AD6E01011551240DC3
:102B1000F350176B166F060E1625016E000E172167
:102B2000036E01501B0FE96E000E0320EA6EECCF1E
:102B300017F1ED52EFCF16F12A0EF66E100EF76E6A
:102B4000180E196F0001C1EC0CF0100EE96E17C1E0
:102B500019F116C118F125DE0D0E9EA8FED7AD6E37
:102B60000A0E9EA8FED7AD6E01011551240DF3503B
:102B7000176B166F080E1625016E000E1721036ED7
:102B800001501B0FE96E000E0320EA6EECCF17F127
:102B9000ED52EFCF16F1480EF66E100EF76E180ECE
:102BA000196F0001C1EC0CF0100EE96E17C119F19C
:102BB00016C118F1F6DD0D0E9EA8FED7AD6E0A0EF9
:102BC0009EA8FED7AD6E01011551240DF350176B71
:102BD000166F0A0E1625016E000E1721036E0150A6
:102BE0001B0FE96E000E0320EA6EECCF17F1ED52D9
:102BF000EFCF16F1660EF66E100EF76E180E196F07
:102C00000001C1EC0CF0100EE96E17C119F116C1EC
:102C100018F1C7DD0D0E9EA8FED7AD6E0A0E9EA858
:102C2000FED7AD6E01011551240DF350176B166FD1
:102C30000C0E1625016E000E1721036E01501B0F9E
:102C4000E96E000E0320EA6EECCF17F1ED52EFCFE4
:102C500016F1840EF66E100EF76E180E196F000145
:102C6000C1EC0CF0100EE96E17C119F116C118F184
:102C700098DD0D0E9EA8FED7AD6E0A0E9EA8FED75B
:102C8000AD6E01011551240DF350176B166F0E0E2A
:102C90001625016E000E1721036E01501B0FE96E01
:102CA000000E0320EA6EECCF17F1ED52EFCF16F1D4
:102CB000A20EF66E100EF76E180E196F0001C1EC21
:102CC0000CF0100EE96E17C119F116C118F169DD8B
:102CD0000D0E9EA8FED7AD6E0A0E9EA8FED7AD6E55
:102CE00001011551240DF350176B166F100E1625A8
:102CF000016E000E1721036E01501B0FE96E000ECE
:102D00000320EA6EECCF17F1ED52EFCF16F1C00EB3
:102D1000F66E100EF76E180E196F0001C1EC0CF074
:102D2000100EE96E17C119F116C118F13ADD0D0E3A
:102D30009EA8FED7AD6E0A0E9EA8FED7AD6E01010D
:102D40001551240DF350176B166F120E1625016ED8
:102D5000000E1721036E01501B0FE96E000E0320B9
:102D6000EA6EECCF17F1ED52EFCF16F1DE0EF66EF4
:102D7000100EF76E180E196F0001C1EC0CF0100E5A
:102D8000E96E17C119F116C118F10BDD0D0E9EA8E1
:102D9000FED7AD6E0A0E9EA8FED7AD6E04000101EF
:102DA0001551240DF350176B166F140E1625016E76
:102DB000000E1721036E01501B0FE96E000E032059
:102DC000EA6EECCF17F1ED52EFCF16F1FC0EF66E76
:102DD000100EF76E180E196F0001C1EC0CF0100EFA
:102DE000E96E17C119F116C118F1DBDC0D0E9EA8B2
:102DF000FED7AD6E0A0E9EA8FED7AD6E010115512D
:102E0000240DF350176B166F160E1625016E000E6B
:102E10001721036E01501B0FE96E000E0320EA6EAE
:102E2000ECCF17F1ED52EFCF16F11A0EF66E110E30
:102E3000F76E180E196F0001C1EC0CF0100EE96E60
:102E400017C119F116C118F1ACDC0D0E9EA8FED702
:102E5000AD6E0A0E9EA8FED7AD6E01011551240D70
:102E6000F350176B166F180E1625016E000E172102
:102E7000036E01501B0FE96E000E0320EA6EECCFCB
:102E800017F1ED52EFCF16F1380EF66E110EF76E08
:102E9000180E196F0001C1EC0CF0100EE96E17C18D
:102EA00019F116C118F17DDC0D0E9EA8FED7AD6E8E
:102EB0000A0E9EA8FED7AD6E01011551240DF350E8
:102EC000176B166F1A0E1625016E000E1721036E72
:102ED00001501B0FE96E000E0320EA6EECCF17F1D4
:102EE000ED52EFCF16F1560EF66E110EF76E180E6C
:102EF000196F0001C1EC0CF0100EE96E17C119F149
:102F000016C118F14EDC0D0E9EA8FED7AD6E0A0E4E
:102F10009EA8FED7AD6E01011551240DF350176B1D
:102F2000166F1C0E1625016E000E1721036E015040
:102F30001B0FE96E000E0320EA6EECCF17F1ED5285
:102F4000EFCF16F1740EF66E110EF76E180E196FA4
:102F50000001C1EC0CF0100EE96E17C119F116C199
:102F600018F11FDC0D0E9EA8FED7AD6E0A0E9EA8AE
:102F7000FED7AD6E01011551240DF350176B166F7E
:102F80001E0E1625016E000E1721036E01501B0F39
:102F9000E96E000E0320EA6EECCF17F1ED52EFCF91
:102FA00016F1920EF66E110EF76E180E196F0001E3
:102FB000C1EC0CF0100EE96E17C119F116C118F131
:102FC000D1EC13F00D0E9EA8FED7AD6E0A0E9EA892
:102FD000FED7AD6E01011551240DF350176B166F1E
:102FE000200E1625016E000E1721036E01501B0FD7
:102FF000E96E000E0320EA6EECCF17F1ED52EFCF31
:1030000016F1B00EF66E110EF76E180E196F000164
:10301000C1EC0CF0100EE96E17C119F116C118F1D0
:10302000D1EC13F00D0E9EA8FED7AD6E0A0E9EA831
:10303000FED7AD6E01011551240DF350176B166FBD
:10304000220E1625016E000E1721036E01501B0F74
:10305000E96E000E0320EA6EECCF17F1ED52EFCFD0
:1030600016F1CE0EF66E110EF76E180E196F0001E6
:10307000C1EC0CF0100EE96E17C119F116C118F170
:10308000D1EC13F00D0E9EA8FED7AD6E0A0E9EA8D1
:10309000FED7AD6E0400EC0EF66E110EF76E0A0E42
:1030A0000101196F0001C1EC0CF015C116F11B0EE6
:1030B0000101176F000192EC13F0F80EF66E110E7D
:1030C000F76E030E0101196F0001C1EC0CF0010154
:1030D0001551190DF350176B166FD40E1625E96EA6
:1030E000000E1721EA6EEFCF18F1FC0EF66E110EEE
:1030F000F76E210E196F0001C1EC0CF018C119F127
:10310000570E01011A6F00012AEF14F00D0E9EA850
:10311000FED7AD6E0A0E9EA8FED7AD6E0101155109
:10312000190DF350176B166F010E1625016E000E68
:103130001721036E0150D40FE96E000E0320EA6ED2
:10314000ECCF17F1ED52EFCF16F1240EF66E120E02
:10315000F76E1F0E196F0001C1EC0CF0100EE96E36
:1031600017C119F116C118F1D1EC13F00D0E9EA87C
:10317000FED7AD6E0A0E9EA8FED7AD6E01011551A9
:10318000190DF350176B166F030E1625016E000E06
:103190001721036E0150D40FE96E000E0320EA6E72
:1031A000ECCF17F1ED52EFCF16F14A0EF66E120E7C
:1031B000F76E1F0E196F0001C1EC0CF0100EE96ED6
:1031C00017C119F116C118F1D1EC13F00D0E9EA81C
:1031D000FED7AD6E0A0E9EA8FED7AD6E0101155149
:1031E000190DF350176B166F050E1625016E000EA4
:1031F0001721036E0150D40FE96E000E0320EA6E12
:10320000ECCF17F1ED52EFCF16F1700EF66E120EF5
:10321000F76E1F0E196F0001C1EC0CF0100EE96E75
:1032200017C119F116C118F1D1EC13F00D0E9EA8BB
:10323000FED7AD6E0A0E9EA8FED7AD6E01011551E8
:10324000190DF350176B166F070E1625016E000E41
:103250001721036E0150D40FE96E000E0320EA6EB1
:10326000ECCF17F1ED52EFCF16F1960EF66E120E6F
:10327000F76E1F0E196F0001C1EC0CF0100EE96E15
:1032800017C119F116C118F1D1EC13F00D0E9EA85B
:10329000FED7AD6E0A0E9EA8FED7AD6E0101155188
:1032A000190DF350176B166F090E1625016E000EDF
:1032B0001721036E0150D40FE96E000E0320EA6E51
:1032C000ECCF17F1ED52EFCF16F1BC0EF66E120EE9
:1032D000F76E1F0E196F0001C1EC0CF0100EE96EB5
:1032E00017C119F116C118F1D1EC13F00D0E9EA8FB
:1032F000FED7AD6E0A0E9EA8FED7AD6E0101155128
:10330000190DF350176B166F0B0E1625016E000E7C
:103310001721036E0150D40FE96E000E0320EA6EF0
:10332000ECCF17F1ED52EFCF16F1E20EF66E120E62
:10333000F76E1F0E196F0001C1EC0CF0100EE96E54
:1033400017C119F116C118F1D1EC13F00D0E9EA89A
:10335000FED7AD6E0A0E9EA8FED7AD6E01011551C7
:10336000190DF350176B166F0D0E1625016E000E1A
:103370001721036E0150D40FE96E000E0320EA6E90
:10338000ECCF17F1ED52EFCF16F1080EF66E130EDB
:10339000F76E1F0E196F0001C1EC0CF0100EE96EF4
:1033A00017C119F116C118F1D1EC13F00D0E9EA83A
:1033B000FED7AD6E0A0E9EA8FED7AD6E0101155167
:1033C000190DF350176B166F0F0E1625016E000EB8
:1033D0001721036E0150D40FE96E000E0320EA6E30
:1033E000ECCF17F1ED52EFCF16F12E0EF66E130E55
:1033F000F76E1F0E196F0001C1EC0CF0100EE96E94
:1034000017C119F116C118F1D1EC13F00D0E9EA8D9
:10341000FED7AD6E0A0E9EA8FED7AD6E0400010168
:103420001551190DF350176B166F110E1625016EFD
:10343000000E1721036E0150D40FE96E000E032019
:10344000EA6EECCF17F1ED52EFCF16F1540EF66E97
:10345000130EF76E1F0E196F0001C1EC0CF0100E69
:10346000E96E17C119F116C118F1D1EC13F00D0E68
:103470009EA8FED7AD6E0A0E9EA8FED7AD6E0101C6
:103480001551190DF350176B166F130E1625016E9B
:10349000000E1721036E0150D40FE96E000E0320B9
:1034A000EA6EECCF17F1ED52EFCF16F17A0EF66E11
:1034B000130EF76E1F0E196F0001C1EC0CF0100E09
:1034C000E96E17C119F116C118F1D1EC13F00D0E08
:1034D0009EA8FED7AD6E0A0E9EA8FED7AD6E010166
:1034E0001551190DF350176B166F150E1625016E39
:1034F000000E1721036E0150D40FE96E000E032059
:10350000EA6EECCF17F1ED52EFCF16F1A00EF66E8A
:10351000130EF76E1F0E196F0001C1EC0CF0100EA8
:10352000E96E17C119F116C118F1D1EC13F00D0EA7
:103530009EA8FED7AD6E0A0E9EA8FED7AD6E010105
:103540001551190DF350176B166F170E1625016ED6
:10355000000E1721036E0150D40FE96E000E0320F8
:10356000EA6EECCF17F1ED52EFCF16F1C60EF66E04
:10357000130EF76E1F0E196F0001C1EC0CF0100E48
:10358000E96E17C119F116C118F1D1EC13F00D0E47
:103590009EA8FED7AD6E0A0E9EA8FED7AD6E0101A5
:1035A000152B07EF15F00001F9EF1BF0CFAD01D09F
:1035B00007D0C80ED26F94968B8694988B98CF8D37
:1035C0000AEF1CF0CFBD01D007D0C80ED26F949681
:1035D0008B9694988B88CF9D0FEF1CF0CFAF01D0C6
:1035E00007D0C80ED36F949A8B8A949C8B9CCF8FF4
:1035F00020EF1CF0CFBF01D007D0C80ED36F949A34
:103600008B9A949C8B8CCF9F25EF1CF0F86AD09EF0
:10361000078E938C9388C86A360EC66EC580C58E99
:103620001A6AB886A00EAF6E010EB06EA60EAC6E12
:10363000900EAB6E01010C6B0B6B000E7E6EC19099
:10364000C192C194C1967F6E6C6A6B6A6D6A05D037
:10365000F0401B0005410D000000000EF86E360E14
:10366000F76E500EF66E0900F550006E000A13E07A
:103670000900F550016EE8BE05D03F0BEA6E090067
:10368000F5CFE9FF01BC090001AC0900F5CFEEFF61
:10369000004EE9D7F9D7F86A00019AEF0AF09EEFD9
:1036A0000CF00101126B1251040813E30400949210
:1036B0008B82C80E376F00014CEC0AF094928B920B
:1036C000C80E0101376F00014CEC0AF00101122B0A
:1036D000EAD7EC0EF66E130EF76E220E196F00018C
:1036E000C1EC0CF0160EF66E140EF76ED6EC0CF064
:1036F000100EF66E140EF76E040E0101196F000124
:10370000C1EC0CF0070E005C12E00B0E005C16E042
:103710000F0E005C1AE00C0E005C1EE00E0E005C4A
:1037200022E0030E005C26E000522BE031D0200E98
:10373000F66E140EF76ED6EC0CF030D02C0EF66E42
:10374000140EF76ED6EC0CF029D03C0EF66E140E6B
:10375000F76ED6EC0CF022D04A0EF66E140EF76E11
:10376000D6EC0CF01BD05A0EF66E140EF76ED6EC9B
:103770000CF014D06C0EF66E140EF76ED6EC0CF046
:103780000DD07C0EF66E140EF76ED6EC0CF006D053
:103790008E0EF66E140EF76ED6EC0CF00D0E9EA883
:1037A000FED7AD6E0A0E9EA8FED7AD6EF40ED06F9A
:1037B000C00EF2120101126B12511D0806E3000146
:1037C000E7EC0CF00101122BF7D7928A136B80AA59
:1037D000132B9288146B80A8142B9D860400000183
:1037E000CFA502D00BEF13F0CFAB03D0CF9B4EEFA2
:1037F00014F0928A000E80BA010E0101135D10E0F0
:10380000928A136B80BA132B135306E0F40E000157
:10381000D06FCCD604D001010001D06BD3D601010A
:103820009288000E80B8010E145D10E09288146B2F
:1038300080B8142B145306E0F40E0001D16FCED6DD
:1038400004D001010001D16BD5D601010001CFA147
:1038500003D0CF91E7EC0CF0CFA703D0CF97E6ECE5
:103860000BF0CFA903D0CF990CEC0CF00101B6D727
:02387000FFD780
:0200000400F00A
:0400000000004000BC
:020000040030CA
:0E0000000028190E0000090003C003E00340B1
:00000001FF
;PIC18F14K22
;CRC=8526  CREATED="05-Feb-22 16:35"
