:0400000097EF06F080
:08000800046ED8CF05F0E0CF33
:1000100006F00001E9CF0CF0EACF07F0E1CF08F0DD
:10002000E2CF09F0D9CF0AF0DACF0BF0F3CF12F01C
:10003000F4CF13F0FACF14F0F5CF15F0F6CF16F099
:10004000F7CF17F000C00EF001C00FF002C010F0A3
:1000500003C011F09DA230EF00F09EB26AEF00F0F5
:100060009DA636EF00F09EB619EF02F00EC000F02C
:100070000FC001F010C002F011C003F00CC0E9FF86
:1000800007C0EAFF078E08C0E1FF09C0E2FF0AC00F
:10009000D9FF0BC0DAFF12C0F3FF13C0F4FF14C086
:1000A000FAFF15C0F5FF16C0F6FF17C0F7FF0450A2
:1000B00006C0E0FF05C0D8FF1000F76ACA0FF66E51
:1000C000000EF7220900F550120031342D4A616EFE
:1000D0002D3232009A859E9236EF00F0E651060AE4
:1000E00019E0010A1AE0090A1BE0270A1EE0030AC8
:1000F00038E0010A3BE0070A3EE01D0A41E0030A3E
:1001000044E0010A47E0070A4AE0010A4DE0030A19
:1001100050E053D0E7C09BF050D0E7C09CF04DD0EA
:10012000E8C09EF0E7C09DF048D0E72D04D0E8532A
:1001300002E19A8715D0E751020804E1E85302E191
:100140009A890ED0E7510A0806E1E851070803E151
:10015000010E946F05D0E73D03D0E83D01D0FF00CC
:100160002CD0E8C01CF0E7C01BF027D0E8C01EF080
:10017000E7C01DF022D0E8C020F0E7C01FF01DD07E
:10018000E8C022F0E7C021F018D0E8C024F0E7C0B2
:1001900023F013D0E8C026F0E7C025F00ED0E8C069
:1001A00028F0E7C027F009D0E8C02AF0E7C029F01E
:1001B00004D0E8C02CF0E7C02BF04FEF02F0E6517E
:1001C000200DF350036A2D0F016E000E032201C0B3
:1001D000EAF003C0EBF0E86BE76BE96BE9510F085D
:1001E00015E3036AE9C002F0D890023603360250E4
:1001F000EA25E96EEB510320EA6EECCF03F0ED52F5
:10020000EF50E7270350E823E92BE8D7080EE7254E
:10021000EC6F000EE821ED6FED31036EEC31026EF4
:100220000332023203320232033202320F0E03165D
:1002300002C001F003C002F01200640E9B6FE55192
:100240004DE0010A5BE0030A5DE0010AD8B46AD020
:100250000B0AD8B46CD0010AD8B473D0030AD8B44E
:1002600075D0070AD8B477D0030AD8B478D0010A79
:10027000D8B47AD02D0AD8B47BD0010AD8B47DD0B6
:10028000070AD8B47FD0010AD8B481D0030AD8B401
:1002900083D0010AD8B484D00F0AD8B485D0010A1B
:1002A000D8B486D0030AD8B487D0010AD8B489D08C
:1002B000070AD8B48BD01D0AD8B48DD0030AD8B49D
:1002C0008FD0010AD8B491D0070AD8B493D0010ACC
:1002D000D8B495D0030AD8B497D09BD0D8908D3598
:1002E000036A2D0FE96E000E0320EA6EECCF03F0D7
:1002F000ED52EFCF01F003C002F08ED0E66B5FDF6E
:1003000002508AD0D8908D35036A4D0FE96E000EE9
:100310000320EA6EECCF03F0ED52EFCF01F003C003
:1003200002F07AD0010EE66F4ADF025075D08FC01E
:1003300003F08E518E2BD8B48F2B016E03C002F0C8
:100340006BD092C001F093C002F066D090C001F073
:1003500091C002F061D099C001F0026A5DD09DC0E9
:1003600001F09EC002F058D098C001F0026A54D04B
:10037000500E016E000E026E4FD05A0E016E000E2E
:10038000026E4AD0500E016E000E026E45D0030E72
:10039000016E000E026E40D095C001F0026A3CD0A2
:1003A00096C001F0026A38D097C001F0026A34D0DA
:1003B00094C001F0026A30D01BC001F01CC002F0F2
:1003C0002BD01DC001F01EC002F026D01FC001F0CE
:1003D00020C002F021D021C001F022C002F01CD0C8
:1003E00023C001F024C002F017D025C001F026C0C0
:1003F00002F012D027C001F028C002F00DD029C0B1
:1004000001F02AC002F008D02BC001F02CC002F08D
:1004100003D0E5C001F0026A59EF02F0C950E5C00F
:10042000C9FFC6889E96C7B0FED7016AC5AC012A2F
:100430001200C7BA03D0B56BC7B4B58FB551B52B91
:10044000E36FE35180082BE3E351800803E1C9CF58
:10045000E2F006D0C69CC7A0FED7C950C688E26F9E
:10046000E32D03D0E2C0B1F01AD0E351010817E246
:10047000E351800814E0E351020803E1E2C0B4F064
:100480000ED0E35103080BE1B4C0E5F0E2C0E4F0A4
:10049000B1C0E6F0B4C0E8F0E2C0E7F01FD6E35127
:1004A0007F0817E2B1B10FD0D890B131E46FE56F9A
:1004B000C4D602C0B3F001C0B2F0B3C0E4F0B3C020
:1004C000E5F0ACDF05D0B2C0E4F0B2C0E5F0A6DFE5
:1004D000B12BA26BA16B9E9636EF00F023206463D4
:1004E0007377635F6D6F64756C655F6C617463686F
:1004F000696E675F636F6E746163746F72202573DA
:100500000D0A000031342D4A616E2D323200232055
:10051000726561645F6469705F737769746368288A
:10052000293D25750D0A0000232020202076696EC4
:10053000206164633D256C750D0A00002320202096
:1005400074656D70206164633D256C750D0A000053
:100550002320646970207377206164633D256C7586
:100560000D0A0000700ED36E9B9C9B9EC050C00B6A
:100570000509C06EC08EC280140E7E6EC190C192FD
:10058000C194C196020E7F6E3F0E926E700E936EF6
:10059000810E946E300E776EF19E786A9E699D6929
:1005A000EA6AC00EE96E000E88DD0A000900F55007
:1005B000EE6E0009FBE1300EC05D0A0DF3CF97F03F
:1005C000300EC15D9727C3514A080FE1C45141085D
:1005D00003E1010E966F08D0C5514E0803E1060EE7
:1005E000966F02D0070E966F37D0C351410809E1CC
:1005F000C451500803E1040E966F02D0080E966FA6
:100600002BD0C3514D0809E1C551520803E1030E37
:10061000966F02D0050E966F1FD0C351460803E1B6
:10062000020E966F19D0C351530803E1090E966F5D
:1006300013D0C3514F0803E10A0E966F0DD0C3517A
:100640004E0803E10B0E966F07D0C351440803E137
:100650000C0E966F01D09669300EC75D0A0DF3CF70
:1006600095F0300EC85D9527000E0609CA6EF90E8A
:10067000CB6E9D82E4EF06F0C96BC8C0CBF0C751CA
:10068000D8B4C807C707CA6FCA5302E1CB5330E0DA
:10069000C6C003F0C551E96E03C0EAFFC451036E42
:1006A000C351C32BD8B4C42BCC6F03C0CDF0F2CF51
:1006B000CEF0F29ECCC0A9FFA69CA69EA680A85014
:1006C000CEBFF28EEF6EC6C003F0C551E96E03C017
:1006D000EAFFEFCFCAF0C9C0CCF0CAC0CDF0CC5110
:1006E000CD19016E01C0C9F0C52BD8B4C62BC5D732
:1006F000C9C001F01AEF04F0CA6BC9C0CCF0C851F0
:10070000D8B4C907C807CB6FCB5302E1CC533CE048
:10071000C7C003F0C651E96E03C0EAFFEFCFCBF0CC
:10072000CAC0CCF0CBC0CDF0CC51CD19016E01C008
:10073000CAF0C551036EC451C42BD8B4C52BCB6FBE
:1007400003C0CCF0C751036EC651C62BD8B4C72B1B
:10075000E96E03C0EAFFEFCFCDF0F250006EF29EDB
:10076000CBC0A9FFCDC0A8FFA69CA69EA6840F0162
:10077000550EA76EAA0EA76EA682A6B2FED7A694A5
:100780000050F2120001B9D7CAC001F0D4EF03F053
:100790001B0EC26FC56B020EC46FC76BC2C0C6F022
:1007A000C96B120EC86FA8D701C0C1F0F250006E1D
:1007B000F29EA96AC1C0A8FFA69CA69EA6840F01AE
:1007C000550EA76EAA0EA76EA682A6B2FED7A69455
:1007D0000050F21200011200010E996F960E9B6FED
:1007E0009C6F1C6A140E1B6E1E6A050E1D6E206A1D
:1007F000020E1F6E226ABE0E216E24682368266ACE
:10080000C80E256E030E286EE80E276E2A6829682A
:10081000030E2C6E840E2B6EBBDF12001B0EC16FFD
:10082000C46B020EC36FC66BC1C0C5F0C86B120E9D
:10083000C76F22D701C0C0F0F2CFC1F0F29EA96A03
:10084000A69CA69EA680A850C1BFF28EC05D01E006
:10085000C3DFE5EF06F0EA6AC20EE96EEF500EE084
:10086000050E016E006A002EFED7012EFBD72E0E5C
:10087000006E002EFED700D0EF2EF2D71200090036
:10088000F6CFC3F0F7CFC4F0F5509EA8FED7AD6EFB
:10089000C3C0F6FFC4C0F7FFC22FF1D71200090092
:1008A000F5520DE0F6CFC0F0F7CFC1F0F5509EA89D
:1008B000FED7AD6EC0C0F6FFC1C0F7FFF0D713EF93
:1008C00007F08D2B8D510F0801E28D6B100E016E1C
:1008D000C250C30B0110C26ED8908D35036A2D0F24
:1008E000E96E000E0320EA6EC282C2B2FED7C3CF09
:1008F000EFFFC4CFECFF080E016EC250C30B011016
:10090000C26E010EC26FA7DFD8908D35036A4D0FFE
:10091000E96E000E0320EA6EC282C2B2FED7C3CFD8
:10092000EFFFC4CFECFF240E016EC250C30B0110C9
:10093000C26E010EC26F8FDFD8908D35036A6D0FC6
:10094000E96E000E0320EA6EC282C2B2FED7C3CFA8
:10095000EFFFC4CFECFF12009A959B5303E19492F2
:100960008B9203D094928B829B079C5303E19494C7
:100970008B9403D094948B849C07923D03D0933D39
:1009800001D003D0922BD8B4932BAF5305E19496AA
:100990008B9694988B9801D0AF07B05305E1949A49
:1009A0008B9A949C8B9C01D0B007B92BD8B4BA2BEE
:1009B000B951E808D8A4A3D0BA510308D8A49FD04D
:1009C000BA6BB96B9D3D03D09E3D01D01DD09D53A8
:1009D00002E19E5305E09D51D8B49E079D0714D0B7
:1009E00098B106D0988120C0A0F01FC09FF00CD015
:1009F0009F5306E1A05304E198919E699D6904D03C
:100A00009F51D8B4A0079F07233C03D0243C01D0BA
:100A100032D0196AF2BE198EF29EE66BDFEC00F05E
:100A200019BEF28E02C0C1F001C0C0F02650C15DF7
:100A30000AE303E1C051255C06E2AB5302E0AB07D9
:100A400001D0989702D0050EAB6FC151225C0FE325
:100A500003E12150C05D0BE2A95302E1AA5305E076
:100A6000A951D8B4AA07A90701D0988704D024C0F7
:100A7000AAF023C0A9F0293C03D02A3C01D032D0EF
:100A8000196AF2BE198EF29EE66BDFEC00F019BE19
:100A9000F28E02C0C1F001C0C0F0C1512C5C0AE36B
:100AA00003E12B50C05D06E2AE5302E0AE0701D079
:100AB000989902D0050EAE6F2850C15D0FE303E197
:100AC000C051275C0BE2AC5302E1AD5305E0AC51E1
:100AD000D8B4AD07AC0701D0988904D02AC0ADF0D6
:100AE00029C0ACF0B62BB6513C0809E1B66B903D7D
:100AF00003D0913D01D003D0902BD8B4912B9AA371
:100B000003D09A93B86BB76BB72BD8B4B82B1B50E4
:100B1000B75D06E11C50B85D03E1B86BB76B9A8115
:100B200033EF07F09EAAFED7ABCF1AF0AECF01F09D
:100B30001AA202D0AB98AB8836EF07F0240E016EF4
:100B4000C250C30B0110C26E010EC26F84DEC2829E
:100B5000C2B2FED7C4CFC1F0C3CFC0F0C0C001F055
:100B600023D0C151020808E2FF0A03E1C051BF08C7
:100B700003E2000E016E18D0C151010808E2FF0A1D
:100B800003E1C0516A0803E2020E016E0DD0C151AB
:100B9000000808E2FF0A03E1C051BF0803E2010EAA
:100BA000016E02D0030E016E37EF07F0C451016AE7
:100BB000C35D03E2C3C000F00CD0006A080EC56F2D
:100BC000C3370036C451005CD8B0006E0136C52F63
:100BD000F7D712000150C1C0C3F0640EC46FE6DF46
:100BE00000C0C1F00150300E07E1C2A30DD0C2B762
:100BF0000BD0C2B9200E03D0C297C299C281012680
:100C000001509EA8FED7AD6EC1C0C3F00A0EC46FDE
:100C1000CDDF00C0C1F00150300E06E1C2B709D0EF
:100C2000C2A107D0C2B9200E012601509EA8FED74E
:100C3000AD6E300EC127C1519EA8FED7AD6E45EFF7
:100C400007F0EACFCAF0E9CFC9F0C339F009C56FA0
:100C5000C527E20FC66F320FC86FC3510F0BC627EF
:100C6000C627C827E90FC76FC727C727C2390F0B89
:100C7000C727C827C737C837C81FC837C2510F0B87
:100C8000C827C537070EC46F0A0EC707C827FDE37C
:100C9000C607C727FDE3C507C627FDE3C407C52769
:100CA000FDE3EA6AC40EE96E070EC915C99DE9267F
:100CB000000EEA22E950C80803E1EA5201E1C98DB9
:100CC000EF50006E08E1C9BD06D0C9B90CD0C9B754
:100CD00002D0200E03D0C987C999300E00260050DB
:100CE0009EA8FED7AD6EEE50C9ADE4D71200C80E77
:100CF000AF6F94968B8694988B98C7EF07F0C80EC9
:100D0000AF6F94968B9694988B88CAEF07F0C80EB5
:100D1000B06F949A8B8A949C8B9CD9EF07F0C80E85
:100D2000B06F949A8B9A949C8B8CDCEF07F0F86AE6
:100D3000D09E078E938C9388340EC86E360EC66E86
:100D4000C580C58E1A6AB886A00EAF6E010EB06E51
:100D5000A60EAC6E900EAB6E030EB56FBC6BBB6B8C
:100D6000000E7E6EC190C192C194C1967F6E6C6A76
:100D70006B6A6D6A08D096401B000300B200000049
:100D80000540B6000000000EF86E0D0EF76E760EF0
:100D9000F66E0900F550006E000A13E00900F550E8
:100DA000016EE8BE05D03F0BEA6E0900F5CFE9FF02
:100DB00001BC090001AC0900F5CFEEFF004EE9D7F8
:100DC000F9D7F86AB2EF02F029D51E5203E11D509F
:100DD000640803E21E6A640E1D6EBD6B1E5203E1C1
:100DE0001D50BD5D0DE2040094928B82C80EC26F4F
:100DF00032DD94928B92C80EC26F2DDDBD2BEED7E3
:100E0000040EC06FFA0EC26F26DDC02FFBD7DC0EBA
:100E1000F66E040EF76E220EC26F31DD040EF66E12
:100E2000050EF76E3CD50D0E9EA8FED7AD6E0A0ED0
:100E30009EA8FED7AD6EF40E9B6FC00EF212BD6B76
:100E4000BD511D0803E33DDDBD2BFAD7928ABE6B71
:100E500080AABE2B9288BF6B80A8BF2B9D86040002
:100E60009AA501D079D59EAA83D05CD667D601C059
:100E7000C0F00E0EF66E050EF76E140EC26FFFDC9C
:100E8000C0C0C1F01B0EC26FA5D60D0E9EA8FED726
:100E9000AD6E0A0E9EA8FED7AD6E196AF2BE198E0F
:100EA000F29EE66BDFEC00F019BEF28E02C0C1F0DC
:100EB00001C0C0F0280EF66E050EF76E0D0EC26F63
:100EC000DEDC100EE96EC1C0C3F0C0C0C2F0B9DEF6
:100ED0000D0E9EA8FED7AD6E0A0E9EA8FED7AD6E73
:100EE000196AF2BE198EF29E010EE66FDFEC00F079
:100EF00019BEF28E02C0C1F001C0C0F03C0EF66E09
:100F0000050EF76E0D0EC26FBADC100EE96EC1C091
:100F1000C3F0C0C0C2F095DE0D0E9EA8FED7AD6E28
:100F20000A0E9EA8FED7AD6E196AF2BE198EF29E09
:100F3000020EE66FDFEC00F019BEF28E02C0C1F0C7
:100F400001C0C0F0500EF66E050EF76E0D0EC26FAA
:100F500096DC100EE96EC1C0C3F0C0C0C2F071DEF5
:100F60000D0E9EA8FED7AD6E0A0E9EA8FED7AD6EE2
:100F7000928A000E80BA010EBE5D0CE0928ABE6BB2
:100F800080BABE2BBE5304E0F40E9B6FB0D602D0E5
:100F90009B6BB5D69288000E80B8010EBF5D0CE049
:100FA0009288BF6B80B8BF2BBF5304E0F40E9C6FD8
:100FB000AED602D09C6BB3D69AA102D09A9181DCB6
:100FC0009AA703D09A97C8EC03F09AA902D09A99ED
:060FD00003DC45D7FFD74A
:0200000400F00A
:0400000000004000BC
:020000040030CA
:0E000000002819180000090003C003E00340A7
:00000001FF
;PIC18F14K22
;CRC=D23A  CREATED="14-Jan-22 10:26"
