:040000000DEF17F0F9
:08000800046ED8CF05F0E0CF33
:1000100006F00001E9CF0CF0EACF07F0E1CF08F0DD
:10002000E2CF09F0D9CF0AF0DACF0BF0F3CF12F01C
:10003000F4CF13F0FACF14F0F5CF15F0F6CF16F099
:10004000F7CF17F000C00EF001C00FF002C010F0A3
:1000500003C011F09DA230EF00F09EB26AEF00F0F5
:100060009DA636EF00F09EB645EF07F00EC000F0FB
:100070000FC001F010C002F011C003F00CC0E9FF86
:1000800007C0EAFF078E08C0E1FF09C0E2FF0AC00F
:10009000D9FF0BC0DAFF12C0F3FF13C0F4FF14C086
:1000A000FAFF15C0F5FF16C0F6FF17C0F7FF0450A2
:1000B00006C0E0FF05C0D8FF1000F76ACA0FF66E51
:1000C000000EF7220900F5501200362D4665622D0C
:1000D00032320000CF859E9236EF00F0010133519D
:1000E000100808E233511E0805E3010E366F0E0EAC
:1000F000335F0CD03351110808E233516B0805E32C
:10010000010E366F0E0E335F01D0366B3351030A8A
:1001100000013BE0070A51E0010A67E0030AD8B496
:100120007CD0440AD8B491D0010AD8B4A6D0070A2A
:10013000D8B4BBD0010AD8B4D0D0030AD8B4E5D023
:10014000010AD8B4FAD00F0AD8B40FD1010AD8B432
:1001500024D1030AD8B439D1010AD8B44ED1070A40
:10016000D8B463D1010AD8B478D1030AD8B48DD1F8
:10017000010AD8B4A2D11F0AD8B4B7D1010AD8B4A1
:10018000CCD1D60AD8B4E1D103D201013651190D30
:10019000F350386B376F010E3725016E000E382192
:1001A000036E0150DA0FE96E000E0320EA6E35C1CE
:1001B000ECFFED5234C1EFFF000101013651190D82
:1001C000F350386B376F030E3725016E000E382160
:1001D000036E0150DA0FE96E000E0320EA6E35C19E
:1001E000ECFFED5234C1EFFF000101013651190D52
:1001F000F350386B376F050E3725016E000E38212E
:10020000036E0150DA0FE96E000E0320EA6E35C16D
:10021000ECFFED5234C1EFFF000101013651190D21
:10022000F350386B376F070E3725016E000E3821FB
:10023000036E0150DA0FE96E000E0320EA6E35C13D
:10024000ECFFED5234C1EFFF000101013651240DE6
:10025000F350386B376F040E3725016E000E3821CE
:10026000036E01501B0FE96E000E0320EA6E35C1CC
:10027000ECFFED5234C1EFFF000101013651240DB6
:10028000F350386B376F060E3725016E000E38219C
:10029000036E01501B0FE96E000E0320EA6E35C19C
:1002A000ECFFED5234C1EFFF000101013651240D86
:1002B000F350386B376F080E3725016E000E38216A
:1002C000036E01501B0FE96E000E0320EA6E35C16C
:1002D000ECFFED5234C1EFFF000101013651240D56
:1002E000F350386B376F0A0E3725016E000E382138
:1002F000036E01501B0FE96E000E0320EA6E35C13C
:10030000ECFFED5234C1EFFF000101013651240D25
:10031000F350386B376F0C0E3725016E000E382105
:10032000036E01501B0FE96E000E0320EA6E35C10B
:10033000ECFFED5234C1EFFF000101013651240DF5
:10034000F350386B376F0E0E3725016E000E3821D3
:10035000036E01501B0FE96E000E0320EA6E35C1DB
:10036000ECFFED5234C1EFFF000101013651240DC5
:10037000F350386B376F100E3725016E000E3821A1
:10038000036E01501B0FE96E000E0320EA6E35C1AB
:10039000ECFFED5234C1EFFF000101013651240D95
:1003A000F350386B376F120E3725016E000E38216F
:1003B000036E01501B0FE96E000E0320EA6E35C17B
:1003C000ECFFED5234C1EFFF000101013651240D65
:1003D000F350386B376F140E3725016E000E38213D
:1003E000036E01501B0FE96E000E0320EA6E35C14B
:1003F000ECFFED5234C1EFFF000101013651240D35
:10040000F350386B376F160E3725016E000E38210A
:10041000036E01501B0FE96E000E0320EA6E35C11A
:10042000ECFFED5234C1EFFF000101013651240D04
:10043000F350386B376F180E3725016E000E3821D8
:10044000036E01501B0FE96E000E0320EA6E35C1EA
:10045000ECFFED5234C1EFFF000101013651240DD4
:10046000F350386B376F1A0E3725016E000E3821A6
:10047000036E01501B0FE96E000E0320EA6E35C1BA
:10048000ECFFED5234C1EFFF000101013651240DA4
:10049000F350386B376F1C0E3725016E000E382174
:1004A000036E01501B0FE96E000E0320EA6E35C18A
:1004B000ECFFED5234C1EFFF000101013651240D74
:1004C000F350386B376F1E0E3725016E000E382142
:1004D000036E01501B0FE96E000E0320EA6E35C15A
:1004E000ECFFED5234C1EFFF000101013651240D44
:1004F000F350386B376F200E3725016E000E382110
:10050000036E01501B0FE96E000E0320EA6E35C129
:10051000ECFFED5234C1EFFF000101013651240D13
:10052000F350386B376F220E3725016E000E3821DD
:10053000036E01501B0FE96E000E0320EA6E35C1F9
:10054000ECFFED5234C1EFFF00010101342D06D064
:10055000355304E10001CF871BD00101345102085B
:1005600006E1355304E10001CF8912D00101345175
:100570000A0808E13551070805E1010E0001CA6FBC
:1005800007D00101343D03D0353D01D0FF0000010B
:100590008AEF07F001013351200DF350036A630F16
:1005A000016E000E032201C037F103C038F1356B34
:1005B000346B366B36510F0815E3036A36C102F00F
:1005C000D8900236033602503725E96E38510320A1
:1005D000EA6EECCF03F0ED52EF5034270350352391
:1005E000362BE8D7080E3425396F000E35213A6FC7
:1005F0003A31036E3931026E033202320332023273
:10060000033202320F0E031602C001F003C002F0E3
:100610000001120001013151100808E231511E0899
:1006200005E3010E326F0E0E315F0CD0315111080F
:1006300008E231516B0805E3010E326F0E0E315F97
:1006400001D0326B3151000A0001D8B497D0010AB1
:10065000D8B49AD0030AD8B49ED0010AD8B4A2D094
:10066000070AD8B4BAD0010AD8B4D2D0030AD8B491
:10067000EAD0010AD8B402D10F0AD8B41AD1010ABB
:10068000D8B432D1030AD8B44AD1010AD8B462D15D
:10069000070AD8B47AD1010AD8B492D1030AD8B4DF
:1006A000AAD1010AD8B4C2D11F0AD8B4BFD10F0A47
:1006B000D8B4C0D13F0AD8B4C2D1010AD8B4C4D189
:1006C000030AD8B4C6D1620AD8B4C7D1010AD8B4D3
:1006D000D9D1030AD8B4F1D1010AD8B409D2070A92
:1006E000D8B421D2010AD8B439D2030AD8B451D22D
:1006F000010AD8B469D20F0AD8B481D2010AD8B499
:1007000099D2030AD8B4B1D2010AD8B4C9D2070A1F
:10071000D8B4E1D2010AD8B4F9D2030AD8B411D3BB
:10072000010AD8B429D31F0AD8B441D3010AD8B4D6
:1007300059D3030AD8B471D3010AD8B46ED3070AC7
:10074000D8B46BD3010AD8B468D3D50AD8B469D366
:10075000010AD8B46BD3030AD8B46DD3010AD8B454
:100760006FD3070AD8B471D3010AD8B472D3030A7D
:10077000D8B473D3010AD8B474D377D30101336BDF
:10078000000108DF025074D3DAC003F0F3C001F0B7
:10079000DAC002F06DD3010E0101336F0001FADE01
:1007A000025066D301013251190DF350346B336F8F
:1007B000010E3325016E000E3421036E0150DA0F55
:1007C000E96E000E0320EA6EECCF03F0ED52EFCF9E
:1007D00001F003C002F000014BD301013251190DA9
:1007E000F350346B336F030E3325016E000E34214A
:1007F000036E0150DA0FE96E000E0320EA6EECCFB3
:1008000003F0ED52EFCF01F003C002F0000130D34E
:1008100001013251190DF350346B336F050E33253E
:10082000016E000E3421036E0150DA0FE96E000EE6
:100830000320EA6EECCF03F0ED52EFCF01F003C0DE
:1008400002F0000115D301013251190DF350346B40
:10085000336F070E3325016E000E3421036E0150F5
:10086000DA0FE96E000E0320EA6EECCF03F0ED52D2
:10087000EFCF01F003C002F00001FAD201013251C2
:10088000190DF350346B336F090E3325016E000ED2
:100890003421036E0150DA0FE96E000E0320EA6E78
:1008A000ECCF03F0ED52EFCF01F003C002F00001F6
:1008B000DFD201013251190DF350346B336F0B0E3F
:1008C0003325016E000E3421036E0150DA0FE96EFC
:1008D000000E0320EA6EECCF03F0ED52EFCF01F0F3
:1008E00003C002F00001C4D201013251190DF350CE
:1008F000346B336F0D0E3325016E000E3421036E01
:100900000150DA0FE96E000E0320EA6EECCF03F01F
:10091000ED52EFCF01F003C002F00001A9D20101B6
:100920003251190DF350346B336F0F0E3325016EB6
:10093000000E3421036E0150DA0FE96E000E032021
:10094000EA6EECCF03F0ED52EFCF01F003C002F0FE
:1009500000018ED201013251190DF350346B336F07
:10096000110E3325016E000E3421036E0150DA0F93
:10097000E96E000E0320EA6EECCF03F0ED52EFCFEC
:1009800001F003C002F0000173D201013251190DD0
:10099000F350346B336F130E3325016E000E342188
:1009A000036E0150DA0FE96E000E0320EA6EECCF01
:1009B00003F0ED52EFCF01F003C002F0000158D276
:1009C00001013251190DF350346B336F150E33257D
:1009D000016E000E3421036E0150DA0FE96E000E35
:1009E0000320EA6EECCF03F0ED52EFCF01F003C02D
:1009F00002F000013DD201013251190DF350346B68
:100A0000336F170E3325016E000E3421036E015033
:100A1000DA0FE96E000E0320EA6EECCF03F0ED5220
:100A2000EFCF01F003C002F0000122D2FF0E016EF1
:100A3000026E1ED2C4C001F0C5C002F019D2C8C0F7
:100A400001F0C9C002F014D2C6C001F0C7C002F064
:100A50000FD2CEC001F0026A0BD201013251240D37
:100A6000F350346B336F1B0E3325E96E000E3421C7
:100A7000EA6EECCF03F0ED52EFCF01F003C002F0CD
:100A80000001F6D101013251240DF350346B336F64
:100A9000020E3325016E000E3421036E01501B0F30
:100AA000E96E000E0320EA6EECCF03F0ED52EFCFBB
:100AB00001F003C002F00001DBD101013251240D2D
:100AC000F350346B336F040E3325016E000E342166
:100AD000036E01501B0FE96E000E0320EA6EECCF8F
:100AE00003F0ED52EFCF01F003C002F00001C0D1DE
:100AF00001013251240DF350346B336F060E332550
:100B0000016E000E3421036E01501B0FE96E000EC2
:100B10000320EA6EECCF03F0ED52EFCF01F003C0FB
:100B200002F00001A5D101013251240DF350346BC4
:100B3000336F080E3325016E000E3421036E015011
:100B40001B0FE96E000E0320EA6EECCF03F0ED52AE
:100B5000EFCF01F003C002F000018AD10101325150
:100B6000240DF350346B336F0A0E3325016E000EE3
:100B70003421036E01501B0FE96E000E0320EA6E54
:100B8000ECCF03F0ED52EFCF01F003C002F0000113
:100B90006FD101013251240DF350346B336F0C0EC1
:100BA0003325016E000E3421036E01501B0FE96ED8
:100BB000000E0320EA6EECCF03F0ED52EFCF01F010
:100BC00003C002F0000154D101013251240DF35051
:100BD000346B336F0E0E3325016E000E3421036E1D
:100BE00001501B0FE96E000E0320EA6EECCF03F0FC
:100BF000ED52EFCF01F003C002F0000139D1010145
:100C00003251240DF350346B336F100E3325016EC7
:100C1000000E3421036E01501B0FE96E000E0320FD
:100C2000EA6EECCF03F0ED52EFCF01F003C002F01B
:100C300000011ED101013251240DF350346B336F8A
:100C4000120E3325016E000E3421036E01501B0F6E
:100C5000E96E000E0320EA6EECCF03F0ED52EFCF09
:100C600001F003C002F0000103D101013251240D53
:100C7000F350346B336F140E3325016E000E3421A4
:100C8000036E01501B0FE96E000E0320EA6EECCFDD
:100C900003F0ED52EFCF01F003C002F00001E8D005
:100CA00001013251240DF350346B336F160E33258E
:100CB000016E000E3421036E01501B0FE96E000E11
:100CC0000320EA6EECCF03F0ED52EFCF01F003C04A
:100CD00002F00001CDD001013251240DF350346BEC
:100CE000336F180E3325016E000E3421036E015050
:100CF0001B0FE96E000E0320EA6EECCF03F0ED52FD
:100D0000EFCF01F003C002F00001B2D00101325177
:100D1000240DF350346B336F1A0E3325016E000E21
:100D20003421036E01501B0FE96E000E0320EA6EA2
:100D3000ECCF03F0ED52EFCF01F003C002F0000161
:100D400097D001013251240DF350346B336F140EE0
:100D50003325016E000E3421036E01501B0FE96E26
:100D6000000E0320EA6EECCF03F0ED52EFCF01F05E
:100D700003C002F000017CD001013251240DF35078
:100D8000346B336F160E3325016E000E3421036E63
:100D900001501B0FE96E000E0320EA6EECCF03F04A
:100DA000ED52EFCF01F003C002F0000161D001016C
:100DB0003251240DF350346B336F180E3325016E0E
:100DC000000E3421036E01501B0FE96E000E03204C
:100DD000EA6EECCF03F0ED52EFCF01F003C002F06A
:100DE000000146D001013251240DF350346B336FB2
:100DF0001A0E3325016E000E3421036E01501B0FB5
:100E0000E96E000E0320EA6EECCF03F0ED52EFCF57
:100E100001F003C002F000012BD0FF0E016E026E44
:100E200027D0440E016E000E026E22D0320E016EEB
:100E3000000E026E1DD04C0E016E000E026E18D018
:100E4000300E016E000E026E13D0CBC001F0026AAC
:100E50000FD0CCC001F0026A0BD0CDC001F0026A05
:100E600007D0CAC001F0026A03D0FF0E016E026E05
:100E700097EF07F0C95031C1C9FFC6889E96C7B029
:100E8000FED7016AC5AC012A1200C7BA06D001011B
:100E90000C6BC7A401D00C8F00010CC12EF1010115
:100EA0000C517F0804E00C3D01D001D00C2B2E51D9
:100EB000800831E32E51800803E1C9CF2FF106D01D
:100EC000C69CC7A0FED7C950C6882F6F2E2D04D050
:100ED000D8902F35106F1FD02E5101081CE22E51D3
:100EE000800819E02E51020803E12FC10FF113D041
:100EF0002E51030810E1D8901031306F0FC132F13C
:100F00002FC131F1336F0FC135F12FC134F1000121
:100F10006EEF00F001012E517F081CE210B112D0DB
:100F2000D8901031306F316F00010AEF03F002C02A
:100F30000EF101C00DF10EC130F10EC131F19ADF99
:100F400007D001010DC130F10DC131F1000192DF77
:100F50000101102B9E96000136EF00F0232027257B
:100F600073270D0A0000232020636F6D70696C6584
:100F70005F796561723D25750D0A00002320636F5E
:100F80006D70696C655F6D6F6E74683D25750D0AD7
:100F9000000023202020636F6D70696C655F6461C1
:100FA000793D25750D0A00002320202020202020D7
:100FB00076696E206164633D256C750D0A002320FF
:100FC000202020202074656D70206164633D256CB5
:100FD000750D0A00232D2D2D2D2D2D2D0D0A000010
:100FE0002320636F6E6669672E63685B25755D0DF0
:100FF0000A002320636F6D6D616E645F6F66665FCC
:10100000686F6C645F74696D653D256C750D0A00D1
:1010100023202020206C76645F646973636F6E6E9A
:101020006563745F6164633D256C750D0A00232060
:10103000206C76645F646973636F6E6E6563745F62
:1010400064656C61793D256C750D0A0023202020B4
:1010500020206C76645F7265636F6E6E6563745F8B
:101060006164633D256C750D0A00232020206C7699
:10107000645F7265636F6E6E6563745F64656C61F7
:10108000793D256C750D0A002320202020687664A8
:101090005F646973636F6E6E6563745F6164633D03
:1010A000256C750D0A002320206876645F646973DF
:1010B000636F6E6E6563745F64656C61793D256C0A
:1010C000750D0A002320202020206876645F726559
:1010D000636F6E6E6563745F6164633D256C750D4F
:1010E0000A00232020206876645F7265636F6E6E4D
:1010F0006563745F64656C61793D256C750D0A00EC
:1011000023202020206C74645F646973636F6E6EAB
:101110006563745F6164633D256C750D0A0023206F
:10112000206C74645F646973636F6E6E6563745F73
:1011300064656C61793D256C750D0A0023202020C3
:1011400020206C74645F7265636F6E6E6563745F9C
:101150006164633D256C750D0A00232020206C74AA
:10116000645F7265636F6E6E6563745F64656C6106
:10117000793D256C750D0A002320202020687464B9
:101180005F646973636F6E6E6563745F6164633D12
:10119000256C750D0A002320206874645F646973F0
:1011A000636F6E6E6563745F64656C61793D256C19
:1011B000750D0A002320202020206874645F72656A
:1011C000636F6E6E6563745F6164633D256C750D5E
:1011D0000A00232020206874645F7265636F6E6E5E
:1011E0006563745F64656C61793D256C750D0A00FB
:1011F000230D0A0023206368616E6E656C5B2575A4
:101200005D0D0A00232020202020202020202020E7
:1012100020202020202020202020202020737461E6
:1012200074653D3078253032780D0A002320202067
:101230002020202020202020636F6D6D616E645F70
:101240006F6E5F7365636F6E64733D256C750D0A19
:10125000000023202020202020636F6D6D616E64CC
:101260005F6F6E5F686F6C645F7365636F6E6473EE
:101270003D256C750D0A0000232020202020202011
:10128000202020636F6D6D616E645F6F66665F73B3
:1012900065636F6E64733D256C750D0A0000232035
:1012A00020202020636F6D6D616E645F6F66665FE6
:1012B000686F6C645F7365636F6E64733D256C75F6
:1012C0000D0A000023206C76645F646973636F6E9F
:1012D0006E6563745F64656C61795F7365636F6E7F
:1012E00064733D256C750D0A00002320206C766424
:1012F0005F7265636F6E6E6563745F64656C617960
:101300005F7365636F6E64733D256C750D0A000035
:1013100023206876645F646973636F6E6E656374BF
:101320005F64656C61795F7365636F6E64733D259F
:101330006C750D0A00002320206876645F72656377
:101340006F6E6E6563745F64656C61795F7365630E
:101350006F6E64733D256C750D0A000023206C745C
:10136000645F646973636F6E6E6563745F64656CFC
:1013700061795F7365636F6E64733D256C750D0AEB
:1013800000002320206C74645F7265636F6E6E656D
:1013900063745F64656C61795F7365636F6E6473BA
:1013A0003D256C750D0A000023206874645F646934
:1013B00073636F6E6E6563745F64656C61795F7390
:1013C00065636F6E64733D256C750D0A0000232004
:1013D000206874645F7265636F6E6E6563745F64CA
:1013E000656C61795F7365636F6E64733D256C75C1
:1013F0000D0A000023204C454420257520413D2541
:1014000030337520283078253032582920423D2548
:101410003033752028307825303258290D0A0000E5
:10142000232064637377635F6D6F64756C655F6CB5
:1014300061746368696E675F636F6E746163746F14
:10144000722025730D0A23200000362D4665622D7B
:10145000323200005744542054494D454F555400F2
:101460004D434C522046524F4D20534C4545500061
:101470004D434C522046524F4D2052554E004E4F38
:10148000524D414C20504F5745522055500042522A
:101490004F574E4F5554205245535441525400001B
:1014A0005744542046524F4D20534C454550000060
:1014B000524553455420494E535452554354494F75
:1014C0004E00554E4B4E4F574E210000010EEA6E16
:1014D0002C0EE96EEF500EE0050E016E006A002E34
:1014E000FED7012EFBD72E0E006E002EFED700D0A9
:1014F000EF2EF2D71200240E016EC250C30B011062
:10150000C26E010E01012C6F0001E0DFC282C2B287
:10151000FED7C4CF2BF1C3CF2AF101012B51020812
:1015200008E2FF0A03E12A51BF0803E2000E016E40
:1015300018D02B51010808E2FF0A03E12A516A087A
:1015400003E2020E016E0DD02B51000808E2FF0AE3
:1015500003E12A51BF0803E2010E016E02D0030E1F
:10156000016E00010DEF0CF0700ED36E9B9C9B9EE4
:10157000C050C00B0509C06EC08EC280140E7E6EB6
:10158000C190C192C194C196020E7F6ED1803F0E70
:10159000926E700E936E810E946E300E776EF19E89
:1015A000786A01011F6B1F5101082AE31F51190DB1
:1015B000F3502B6B2A6F050E2A25016E000E2B218E
:1015C000036E0150DA0FE96E000E0320EA6EEC683C
:1015D000ED52EF681F51190DF3502B6B2A6F010E5E
:1015E0002A25016E000E2B21036E0150DA0FE96EE1
:1015F000000E0320EA6EEC68ED52EF681F2BD3D784
:10160000010EEA6E200EE96E000E00015DEC00F0A6
:101610000A000900F550EE6E0009FBE101011F6BA5
:1016200021512D080FE0036A1F51200FE96E010EB2
:101630000320EA6E300EEF5C0A0DF3CFCDF000010F
:1016400001011F2B036A1F51200FE96E010E0320B9
:10165000EA6E300EEF5C0001CD27020E01011F275C
:10166000036A1F51200FE96E010E0320EA6EEF504E
:101670004A0825E1010E1F25036A200FE96E010EBD
:101680000320EA6EEF50410805E1010E0001CC6F26
:1016900014D00101020E1F25036A200FE96E010E0E
:1016A0000320EA6EEF504E0805E1060E0001CC6FF4
:1016B00004D00101070E0001CC6F8CD00101036A38
:1016C0001F51200FE96E010E0320EA6EEF50410812
:1016D00015E1010E1F25036A200FE96E010E03209C
:1016E000EA6EEF50500805E1040E0001CC6F04D003
:1016F0000101080E0001CC6F6DD00101036A1F517A
:10170000200FE96E010E0320EA6EEF504D0815E13F
:10171000020E1F25036A200FE96E010E0320EA6EF8
:10172000EF50520805E1030E0001CC6F04D0010117
:10173000050E0001CC6F4ED00101036A1F51200F2E
:10174000E96E010E0320EA6EEF50460805E1020E35
:101750000001CC6F3FD00101036A1F51200FE96ED9
:10176000010E0320EA6EEF50530805E1090E000157
:10177000CC6F30D00101036A1F51200FE96E010EBA
:101780000320EA6EEF504F0805E10A0E0001CC6F0E
:1017900021D00101036A1F51200FE96E010E0320C1
:1017A000EA6EEF504E0805E10B0E0001CC6F12D02F
:1017B0000101036A1F51200FE96E010E0320EA6E3A
:1017C000EF50440805E10C0E0001CC6F03D001017D
:1017D0000001CC69040E01011F25036A200FE96E88
:1017E000010E0320EA6E300EEF5C0A0DF3CFCBF052
:1017F0000001050E01011F25036A200FE96E010E8D
:101800000320EA6E300EEF5C0001CB27000E0609C4
:10181000CA6EF90ECB6E9D826ED6D89001343E0F03
:101820000101C86E000157EF17F00101286B27C1B5
:101830002AF12651D8B427072607296F295302E138
:101840002A5330E025C103F02451E96E03C0EAFFBA
:101850002351036E2251222BD8B4232B2B6F03C0AC
:101860002CF1F2CF2DF1F29E2BC1A9FFA69CA69ED2
:10187000A680A8502DBFF28EEF6E25C103F0245133
:10188000E96E03C0EAFFEFCF29F128C12CF129C18D
:101890002DF12C512D19016E01C028F1242BD8B443
:1018A000252BC5D728C101F00001BCEF0DF00101C7
:1018B0002A6B29C12CF12851D8B4290728072B6F8E
:1018C0002B5302E12C533CE027C103F02651E96E73
:1018D00003C0EAFFEFCF2BF12AC12CF12BC12DF170
:1018E0002C512D19016E01C02AF12551036E24518E
:1018F000242BD8B4252B2B6F03C02CF12751036E5A
:101900002651262BD8B4272BE96E03C0EAFFEFCF70
:101910002DF1F250006EF29E2BC1A9FF2DC1A8FF40
:10192000A69CA69EA6840F01550EA76EAA0EA76EB2
:10193000A682A6B2FED7A6940050F2120101B9D732
:101940002AC101F00001B3EF0CF001011B0E226F60
:10195000256B020E246F276B22C126F1296B480EDE
:10196000286F0001A4D701C021F1F250006EF29E51
:10197000A96A21C1A8FFA69CA69EA6840F01550EA8
:10198000A76EAA0EA76EA682A6B2FED7A694005096
:10199000F21200011200010ECE6FD069D16901016F
:1019A000206B20510108D8A0D6D02051240DF3502F
:1019B000226B216F040E2125016E000E2221036E81
:1019C00001501B0FE96E000E0320EA6E020EEC6E52
:1019D000ED525E0EEF6E2051240DF350226B216FFD
:1019E000060E2125016E000E2221036E01501B0FF1
:1019F000E96E000E0320EA6EEC6AED52140EEF6EF3
:101A00002051240DF350226B216F080E2125016E09
:101A1000000E2221036E01501B0FE96E000E032001
:101A2000EA6E020EEC6EED52680EEF6E2051240D40
:101A3000F350226B216F0A0E2125016E000E222128
:101A4000036E01501B0FE96E000E0320EA6EEC6A74
:101A5000ED520A0EEF6E2051240DF350226B216FD0
:101A60000C0E2125016E000E2221036E01501B0F6A
:101A7000E96E000E0320EA6E020EEC6EED52BC0E13
:101A8000EF6E2051240DF350226B216F0E0E212595
:101A9000016E000E2221036E01501B0FE96E000E35
:101AA0000320EA6EEC6AED52010EEF6E2051240D18
:101AB000F350226B216F100E2125016E000E2221A2
:101AC000036E01501B0FE96E000E0320EA6E020E3A
:101AD000EC6EED528A0EEF6E2051240DF350226B06
:101AE000216F120E2125016E000E2221036E01507E
:101AF0001B0FE96E000E0320EA6EEC6AED523C0EFD
:101B0000EF6E2051240DF350226B216F160E21250C
:101B1000016E000E2221036E01501B0FE96E000EB4
:101B20000320EA6EEC68ED52EF682051240DF3506B
:101B3000226B216F1E0E2125016E000E2221036EE5
:101B400001501B0FE96E000E0320EA6EEC68ED52A7
:101B5000EF68202B26D70001F8DE120001011B0ED2
:101B6000206F236B020E226F256B20C124F1276B9F
:101B7000480E266F000159D601C01FF1F2CF20F1A7
:101B8000F29EA96AA69CA69EA680A850010120BF2D
:101B9000F28E1F5D03E00001FEDE0101000159EF3E
:101BA00017F00900F6CF22F1F7CF23F1F5509EA8E8
:101BB000FED7AD6E22C1F6FF23C1F7FF0101212F31
:101BC00001D002D00001EDD7000112000900F5524A
:101BD0000DE0F6CF1FF1F7CF20F1F5509EA8FED70C
:101BE000AD6E1FC1F6FF20C1F7FFF0D71200C32B67
:101BF000C3510F0801E2C36B100E016EC250C30B3C
:101C00000110C26ED890C335036A630FE96E000EEF
:101C10000320EA6EC282C2B2FED7C3CFEFFFC4CFA9
:101C2000ECFF080E016EC250C30B0110C26E010E14
:101C300001012C6F00014ADCD890C335036A830F81
:101C4000E96E000E0320EA6EC282C2B2FED7C3CF95
:101C5000EFFFC4CFECFF240E016EC250C30B011086
:101C6000C26E010E01012C6F000130DCD890C3352B
:101C7000036AA30FE96E000E0320EA6EC282C2B2AD
:101C8000FED7C3CFEFFFC4CFECFF120001012053FA
:101C900003E194928B8202D094948B840001120011
:101CA0000101205303E194928B9202D094948B947F
:101CB000000112000101205303E1928A80AA05D09D
:101CC000202D12D0928880B80FD02051190DF350DA
:101CD000246B236FDA0E2325016E000E242101C030
:101CE000E9FFEA6EEF800ED02051190DF350246BFE
:101CF000236FDA0E2325016E000E242101C0E9FFB7
:101D0000EA6EEF902051190DF350246B236F010EF2
:101D10002325016E000E2421036E0150DA0FE96EB7
:101D2000000E0320EA6EECCF03F0ED52EF50FF08F7
:101D300003E1033C01D0CBD02051190DF350246BAB
:101D4000236F010E2325016E000E2421036E015026
:101D5000DA0FE96E000E0320EA6EECCF24F1ED52AB
:101D6000EFCF23F1235302E1245317E02051190D43
:101D7000F350246B236F010E2325016E000E2421E6
:101D8000036E0150DA0FE96E000E0320EA6EFF0EBB
:101D9000EF2602E2EE52ED069AD02051190DF350D3
:101DA000246B236FDA0E2325E96E000E2421EA6EE0
:101DB000EFCF25F125B33AD02051190DF350246B04
:101DC000236FDA0E2325016E000E242101C0E9FFE6
:101DD000EA6EEF822051190DF350246B236F030E2E
:101DE0002325016E000E2421036E0150DA0F016ECF
:101DF000000E032203C024F12051240DF350266B62
:101E0000256F1B0E2525E96E000E2621EA6EECCF0C
:101E100003F0ED52EFCF27F124C1EAFF01C0E9FF43
:101E200003C0ECFFED5227C1EFFF51D02051190D37
:101E3000F350246B236F030E2325016E000E242123
:101E4000036E0150DA0FE96E000E0320EA6EECCF4C
:101E500003F0ED52EF5025E1035223E12051190D1B
:101E6000F350246B236FDA0E2325016E000E24211C
:101E700001C0E9FFEA6EEF922051190DF350246B77
:101E8000236F010E2325016E000E2421036E0150E5
:101E9000DA0FE96E000E0320EA6EEC68ED52EF688F
:101EA00016D02051190DF350246B236F030E2325F8
:101EB000016E000E2421036E0150DA0FE96E000E50
:101EC0000320EA6EFF0EEF2602E2EE52ED062051ED
:101ED000190DF350246B236F050E2325016E000EA0
:101EE0002421036E0150DA0FE96E000E0320EA6E22
:101EF000ECCF03F0ED52EF50FF0803E1033C01D0BB
:101F0000D3D02051190DF350246B236F050E2325D8
:101F1000016E000E2421036E0150DA0FE96E000EEF
:101F20000320EA6EECCF24F1ED52EFCF23F12353DF
:101F300002E1245317E02051190DF350246B236F55
:101F4000050E2325016E000E2421036E0150DA0FC9
:101F5000E96E000E0320EA6EFF0EEF2602E2EE525B
:101F6000ED06A2D02051190DF350246B236FDA0E29
:101F70002325E96E000E2421EA6EEFCF25F125B569
:101F800042D02051190DF350246B236FDA0E232514
:101F9000016E000E242101C0E9FFEA6EEF8420519A
:101FA000190DF350246B236F070E2325016E000ECD
:101FB0002421036E0150DA0F016E000E032201C0CE
:101FC00023F103C024F12051240DF350266B256F1B
:101FD000020E2525016E000E2621036E01501B0FF7
:101FE000E96E000E0320EA6EECCF03F0ED52EFCF66
:101FF00025F124C1EAFF23C1E9FF03C0ECFFED5244
:1020000025C1EFFF51D02051190DF350246B236FE0
:10201000070E2325016E000E2421036E0150DA0FF6
:10202000E96E000E0320EA6EECCF03F0ED52EF50A4
:1020300025E1035223E12051190DF350246B236F46
:10204000DA0E2325016E000E242101C0E9FFEA6E9D
:10205000EF942051190DF350246B236F050E2325A7
:10206000016E000E2421036E0150DA0FE96E000E9E
:102070000320EA6EEC68ED52EF6816D02051190D7E
:10208000F350246B236F070E2325016E000E2421CD
:10209000036E0150DA0FE96E000E0320EA6EFF0EA8
:1020A000EF2602E2EE52ED062051240DF350246B90
:1020B000236F060E2325016E000E2421036E0150AE
:1020C0001B0FE96E000E0320EA6EECCF03F0ED5219
:1020D000EF50FF0803E1033C01D02FD1196AF2BE93
:1020E000198EF29E336B0001CAEC02F019BEF28E1B
:1020F00002C022F101C021F101012051240DF35051
:10210000246B236F080E2325016E000E2421036E1D
:1021100001501B0FE96E000E0320EA6EECCF03F0B6
:10212000ED52EFCF01F00350225D44E303E1215172
:10213000015C40E22051190DF350246B236F0B0E0C
:102140002325016E000E2421036E0150DA0FE96E83
:10215000000E0320EA6EECCF24F1ED52EFCF23F115
:10216000235302E1245317E02051190DF350246B3F
:10217000236F0B0E2325016E000E2421036E0150E8
:10218000DA0FE96E000E0320EA6EFF0EEF2602E280
:10219000EE52ED060ED02051190DF350246B236F33
:1021A000DA0E2325016E000E242101C0E9FFEA6E3C
:1021B000EF9633D02051190DF350246B236F0B0E83
:1021C0002325016E000E2421036E0150DA0F016EEB
:1021D000000E032201C023F103C024F12051240D7D
:1021E000F350266B256F0A0E2525016E000E262161
:1021F000036E01501B0FE96E000E0320EA6EECCF58
:1022000003F0ED52EFCF25F124C1EAFF23C1E9FF2E
:1022100003C0ECFFED5225C1EFFF2051240DF35018
:10222000246B236F040E2325016E000E2421036E00
:1022300001501B0FE96E000E0320EA6EECCF03F095
:10224000ED52EFCF01F02251035C44E303E1015072
:10225000215D40E22051190DF350246B236F090ECC
:102260002325016E000E2421036E0150DA0FE96E62
:10227000000E0320EA6EECCF24F1ED52EFCF23F1F4
:10228000235302E1245317E02051190DF350246B1E
:10229000236F090E2325016E000E2421036E0150C9
:1022A000DA0FE96E000E0320EA6EFF0EEF2602E25F
:1022B000EE52ED060ED02051190DF350246B236F12
:1022C000DA0E2325016E000E242101C0E9FFEA6E1B
:1022D000EF8633D02051190DF350246B236F090E74
:1022E0002325016E000E2421036E0150DA0F016ECA
:1022F000000E032201C023F103C024F12051240D5C
:10230000F350266B256F060E2525016E000E262143
:10231000036E01501B0FE96E000E0320EA6EECCF36
:1023200003F0ED52EFCF25F124C1EAFF23C1E9FF0D
:1023300003C0ECFFED5225C1EFFF2051240DF350F7
:10234000246B236F0E0E2325016E000E2421036ED5
:1023500001501B0FE96E000E0320EA6EECCF03F074
:10236000ED52EF50FF0803E1033C01D02FD1196A71
:10237000F2BE198EF29E336B0001CAEC02F019BE58
:10238000F28E02C022F101C021F101012051240D81
:10239000F350246B236F100E2325016E000E2421B1
:1023A000036E01501B0FE96E000E0320EA6EECCFA6
:1023B00003F0ED52EFCF01F02251035C44E303E15F
:1023C0000150215D40E22051190DF350246B236F21
:1023D0000F0E2325016E000E2421036E0150DA0F2B
:1023E000E96E000E0320EA6EECCF24F1ED52EFCF40
:1023F00023F1235302E1245317E02051190DF35028
:10240000246B236F0F0E2325016E000E2421036E13
:102410000150DA0FE96E000E0320EA6EFF0EEF2680
:1024200002E2EE52ED060ED02051190DF350246B4E
:10243000236FDA0E2325016E000E242101C0E9FF6F
:10244000EA6EEF9833D02051190DF350246B236FAF
:102450000F0E2325016E000E2421036E0150DA0FAA
:10246000016E000E032201C023F103C024F12051AC
:10247000240DF350266B256F120E2525016E000EDC
:102480002621036E01501B0FE96E000E0320EA6E39
:10249000ECCF03F0ED52EFCF25F124C1EAFF23C1C9
:1024A000E9FF03C0ECFFED5225C1EFFF2051240DE1
:1024B000F350246B236F0C0E2325016E000E242194
:1024C000036E01501B0FE96E000E0320EA6EECCF85
:1024D00003F0ED52EFCF01F00350225D44E303E13E
:1024E0002151015C40E22051190DF350246B236F00
:1024F0000D0E2325016E000E2421036E0150DA0F0C
:10250000E96E000E0320EA6EECCF24F1ED52EFCF1E
:1025100023F1235302E1245317E02051190DF35006
:10252000246B236F0D0E2325016E000E2421036EF4
:102530000150DA0FE96E000E0320EA6EFF0EEF265F
:1025400002E2EE52ED060ED02051190DF350246B2D
:10255000236FDA0E2325016E000E242101C0E9FF4E
:10256000EA6EEF8833D02051190DF350246B236F9E
:102570000D0E2325016E000E2421036E0150DA0F8B
:10258000016E000E032201C023F103C024F120518B
:10259000240DF350266B256F0E0E2525016E000EBF
:1025A0002621036E01501B0FE96E000E0320EA6E18
:1025B000ECCF03F0ED52EFCF25F124C1EAFF23C1A8
:1025C000E9FF03C0ECFFED5225C1EFFF2051240DC0
:1025D000F350246B236F160E2325016E000E242169
:1025E000036E01501B0FE96E000E0320EA6EECCF64
:1025F00003F0ED52EF50FF0803E1033C01D030D16E
:10260000196AF2BE198EF29E010E336F0001CAECF8
:1026100002F019BEF28E02C022F101C021F10101C7
:102620002051240DF350246B236F180E2325016EC7
:10263000000E2421036E01501B0FE96E000E0320D3
:10264000EA6EECCF03F0ED52EFCF01F02251035CC4
:1026500044E303E10150215D40E22051190DF350A4
:10266000246B236F130E2325016E000E2421036EAD
:102670000150DA0FE96E000E0320EA6EECCF24F170
:10268000ED52EFCF23F1235302E1245317E0205101
:10269000190DF350246B236F130E2325016E000ECA
:1026A0002421036E0150DA0FE96E000E0320EA6E5A
:1026B000FF0EEF2602E2EE52ED060ED02051190D6C
:1026C000F350246B236FDA0E2325016E000E2421B4
:1026D00001C0E9FFEA6EEF9A33D02051190DF35093
:1026E000246B236F130E2325016E000E2421036E2D
:1026F0000150DA0F016E000E032201C023F103C066
:1027000024F12051240DF350266B256F1A0E252538
:10271000016E000E2621036E01501B0FE96E000EA4
:102720000320EA6EECCF03F0ED52EFCF25F124C188
:10273000EAFF23C1E9FF03C0ECFFED5225C1EFFF23
:102740002051240DF350246B236F140E2325016EAA
:10275000000E2421036E01501B0FE96E000E0320B2
:10276000EA6EECCF03F0ED52EFCF01F00350225DA3
:1027700044E303E12151015C40E22051190DF35083
:10278000246B236F110E2325016E000E2421036E8E
:102790000150DA0FE96E000E0320EA6EECCF24F14F
:1027A000ED52EFCF23F1235302E1245317E02051E0
:1027B000190DF350246B236F110E2325016E000EAB
:1027C0002421036E0150DA0FE96E000E0320EA6E39
:1027D000FF0EEF2602E2EE52ED060ED02051190D4B
:1027E000F350246B236FDA0E2325016E000E242193
:1027F00001C0E9FFEA6EEF8A33D02051190DF35082
:10280000246B236F110E2325016E000E2421036E0D
:102810000150DA0F016E000E032201C023F103C044
:1028200024F12051240DF350266B256F160E25251B
:10283000016E000E2621036E01501B0FE96E000E83
:102840000320EA6EECCF03F0ED52EFCF25F124C167
:10285000EAFF23C1E9FF03C0ECFFED5225C1EFFF02
:1028600000011200036A01012251D60FE96E000E29
:102870000320EA6EEF5001E11CD0036A2251D80F09
:10288000E96E000E0320EA6EC80EEF6E225305E1DA
:1028900094968B8694988B9804D0949A8B8A949C67
:1028A0008B9C036A2251D60FE96E000E0320EA6E5C
:1028B000EF6A0001B2EF14F0036A01012251D60F52
:1028C000E96E000E0320EA6EEF50010801E11DD011
:1028D000036A2251D80FE96E000E0320EA6EC80E7B
:1028E000EF6E225305E194968B9694988B8804D0D2
:1028F000949A8B9A949C8B8C036A2251D60FE96E22
:10290000000E0320EA6E010EEF6E0001B8EF14F026
:10291000010E0101216F216F2051190DF350236B1E
:10292000226FDA0E2225E96E000E2321EA6EEF50A7
:10293000030B03E0010E216F0FD02051190DF3504E
:10294000236B226FDA0E2225E96E000E2321EA6E38
:10295000EF507C0B01E0216B215306E120C122F1F5
:10296000000180D705D0010120C122F10001A4D7C8
:10297000120001012451016A235D03E223C100F02A
:102980000CD0006A080E256F233700362451005CF6
:10299000D8B0006E0136252FF7D700011200015084
:1029A00021C123F1640E0101246F0001E2DF00C0A8
:1029B00021F10150300E08E1010122A30ED022B70F
:1029C0000CD022B9200E04D0010122972299228135
:1029D000012601509EA8FED7AD6E21C123F10A0E3B
:1029E000246F0001C6DF00C021F10150300E08E164
:1029F000010122B70BD022A109D022B9200E00017B
:102A0000012601509EA8FED7AD6E0101300E212790
:102A100021519EA8FED7AD6E00011200010122BF18
:102A200010D00F0E006E213900160A0E005C03E272
:102A3000300E002602D02251002600509EA8FED75C
:102A4000AD6E0F0E21170A0E215D02E2300E02D08C
:102A5000229F2251212721519EA8FED7AD6E000151
:102A60001200010113A102D01391BFD0206B20519D
:102A7000010855E3145107082AE32051190DF350BA
:102A8000226B216FDA0E2125E96E000E2221EA6EFB
:102A9000EFCF00F01451016E04E0D8900032012E07
:102AA000FCD700A00BD0036A2051D00FE96E000EB6
:102AB0000320EA6E010E1425EF6E08D0036A205140
:102AC000D00FE96E000E0320EA6EEF6A26D0145193
:102AD000080809E1036A2051D00FE96E000E0320B7
:102AE000EA6EEF681AD0036A2051D60FE96E000E25
:102AF0000320EA6EEF5209E0036A2051D00FE96E1D
:102B0000000E0320EA6EEF6808D0036A2051D00F50
:102B1000E96E000E0320EA6EEF6A202BA8D7F40EB0
:102B2000F66E130EF76E060E216F0001D1EC0DF05C
:102B300014C121F11B0E0101226F000130DFFC0ED8
:102B4000F66E130EF76E030E0101216F0001D1EC3A
:102B50000DF0D0C021F1030E0101226F00011FDF33
:102B6000030EF66E140EF76E040E0101216F0001C4
:102B7000D1EC0DF0DAC021F1370E0101226F000116
:102B80004DDF0B0EF66E140EF76E040E0101216F71
:102B90000001D1EC0DF0D1C021F1030E0101226F33
:102BA0000001FDDE130EF66E140EF76E040E010129
:102BB000216F0001D1EC0DF0F3C021F1370E0101BE
:102BC000226F00012BDF1B0EF66E140EF76E030E44
:102BD0000101216F0001D1EC0DF001011451090830
:102BE00002E1146B01D0142B13810001E7EF16F002
:102BF000CF9501011F6B1F510108D8A09ED0036A19
:102C00001F51D00FE96E000E0320EA6EEF50FF084F
:102C100007E11FC120F1000146EC0EF08BD001014D
:102C2000036A1F51D00FE96E000E0320EA6EEF50C9
:102C300007E11FC120F1000150EC0EF07BD0010133
:102C4000036A1F511C0FE96E010E0320EA6EEF505C
:102C5000010841E1036A1F511A0FE96E010E0320BA
:102C6000EA6EEF5029E1036A1F511C0FE96E010E55
:102C70000320EA6EEF6A036A1F511A0FE96E010E14
:102C80000320EA6E320EEF6E1FC120F1000150ECFE
:102C90000EF0036A01011F51D00FE96E000E0320F0
:102CA000EA6EEF5208E0036A1F51D00FE96E000E82
:102CB0000320EA6EEF060ED0036A1F511A0FE96E69
:102CC000010E0320EA6EEF061FC120F1000146EC61
:102CD0000EF0010130D0036A1F511A0FE96E010E88
:102CE0000320EA6EEF5019E1036A1F511C0FE96ED1
:102CF000010E0320EA6E010EEF6E036A1F511A0FD8
:102D0000E96E010E0320EA6EDC0EEF6E1FC120F1AA
:102D1000000146EC0EF00ED00101036A1F511A0F9C
:102D2000E96E010E0320EA6EEF061FC120F10001DB
:102D300050EC0EF001011F2B5ED70001C83D03D0FF
:102D4000C93D01D003D0C82BD8B4C92BD85305E155
:102D500094968B9694988B9801D0D807D95305E117
:102D6000949A8B9A949C8B9C01D0D9070101182BC3
:102D7000D8B4192B1851E8082BE11951030828E1A0
:102D8000196B186B206B00015AEC0EF0010E01015B
:102D9000206F00015AEC0EF00101206B0001B8DD3C
:102DA000010E0101206F0001B3DD0101152B15514A
:102DB0003C080BE1156B0001C63D03D0C73D01D0B7
:102DC00003D0C62BD8B4C72B010100014AD601019C
:102DD0000001CFA305D0CF930101176B166B000143
:102DE0000101162BD8B4172B1651140807E11753FD
:102DF00005E1176B166B0001CF8101010001F1EFB6
:102E000017F09EAAFED7ABCF1AF0AECF01F01AA2F0
:102E100002D0AB98AB88F4EF17F0F86AD09E078E1B
:102E2000938C9388C86A360EC66EC580C58E1A6AA2
:102E3000B886440EAF6E000EB06EA60EAC6E900E4D
:102E4000AB6E0101126B116B000E7E6EC190C192D0
:102E5000C194C1967F6E6C6A6B6A6D6A139105D0DE
:102E6000F6401B000A4114000000000EF86E2E0E02
:102E7000F76E600EF66E0900F550006E000A13E062
:102E80000900F550016EE8BE05D03F0BEA6E09005F
:102E9000F5CFE9FF01BC090001AC0900F5CFEEFF59
:102EA000004EE9D7F9D7F86A0001B4EF0AF0AEEFA7
:102EB0000DF001011E6B1E51040813E304009492EF
:102EC0008B82C80E2C6F000166EC0AF094928B92F4
:102ED000C80E01012C6F000166EC0AF001011E2BE7
:102EE000EAD7200EF66E140EF76E220E216F000147
:102EF000D1EC0DF04A0EF66E140EF76EE6EC0DF006
:102F0000440EF66E140EF76E040E0101216F0001DF
:102F1000D1EC0DF0070E005C12E00B0E005C16E029
:102F20000F0E005C1AE00C0E005C1EE00E0E005C42
:102F300022E0030E005C26E000522BE031D0540E5C
:102F4000F66E140EF76EE6EC0DF030D0600EF66EF5
:102F5000140EF76EE6EC0DF029D0700EF66E140E1E
:102F6000F76EE6EC0DF022D07E0EF66E140EF76EC4
:102F7000E6EC0DF01BD08E0EF66E140EF76EE6EC3E
:102F80000DF014D0A00EF66E140EF76EE6EC0DF0F8
:102F90000DD0B00EF66E140EF76EE6EC0DF006D006
:102FA000C20EF66E140EF76EE6EC0DF00D0E9EA836
:102FB000FED7AD6E0A0E9EA8FED7AD6EC00EF21201
:102FC00001011E6B1E511D0806E30001F7EC0DF018
:102FD00001011E2BF7D79D8604000001CFA501D06B
:102FE00007D69EAA02D00DD7CF8BCFAB01D0CF9BF7
:102FF000CFA103D0CF91F7EC0DF0CFA703D0CF979F
:10300000A5EC0CF0CFA903D0CF99CBEC0CF00101CB
:04301000E3D7FFD72C
:0200000400F00A
:0400000000004000BC
:020000040030CA
:0E0000000028190E0000090003C003E00340B1
:00000001FF
;PIC18F14K22
;CRC=DCC3  CREATED="06-Feb-22 14:26"
