:0400000072EF07F0A4
:08000800046ED8CF05F0E0CF33
:1000100006F00001E9CF0CF0EACF07F0E1CF08F0DD
:10002000E2CF09F0D9CF0AF0DACF0BF0F3CF12F01C
:10003000F4CF13F0FACF14F0F5CF15F0F6CF16F099
:10004000F7CF17F000C00EF001C00FF002C010F0A3
:1000500003C011F09DA230EF00F09EB26AEF00F0F5
:100060009DA636EF00F09EB6A3EF02F00EC000F0A2
:100070000FC001F010C002F011C003F00CC0E9FF86
:1000800007C0EAFF078E08C0E1FF09C0E2FF0AC00F
:10009000D9FF0BC0DAFF12C0F3FF13C0F4FF14C086
:1000A000FAFF15C0F5FF16C0F6FF17C0F7FF0450A2
:1000B00006C0E0FF05C0D8FF1000F76ACA0FF66E51
:1000C000000EF7220900F550120031392D4E6F76DF
:1000D0002D323100A6859E9236EF00F0F251060ACD
:1000E00034E0010A35E00B0A36E0020A37E02E0A56
:1000F0003AE0010A47E0080A4CE0030AD8B465D0A8
:10010000010AD8B467D0070AD8B469D0010AD8B4B4
:100110006BD0030AD8B46DD0010AD8B46FD01F0ACF
:10012000D8B471D0010AD8B473D0030AD8B475D04A
:10013000010AD8B477D0070AD8B479D0010AD8B464
:100140007BD0030AD8B47DD080D0F3C0A7F07DD097
:10015000F3C0A8F07AD0B26BB16B77D0F4C0AAF03C
:10016000F3C0A9F072D09F530CE0F45303E1F351B4
:10017000400807E2F45305E1F3515A0802E3F3C0E3
:100180001BF063D09F5304E0F4C01DF0F3C01CF0DB
:100190005CD0F32D04D0F45302E1A68715D0F351BF
:1001A000020804E1F45302E1A6890ED0F3510A08D3
:1001B00006E1F451070803E1010E9F6F05D0F33DFE
:1001C00003D0F43D01D0FF0040D0F4C01FF0F3C0D5
:1001D0001EF03BD0F4C021F0F3C020F036D0F4C0C4
:1001E00023F0F3C022F031D0F4C025F0F3C024F0A6
:1001F0002CD0F4C027F0F3C026F027D0F4C029F0AB
:10020000F3C028F022D0F4C02BF0F3C02AF01DD0A8
:10021000F4C02DF0F3C02CF018D0F4C02FF0F3C0D0
:100220002EF013D0F4C031F0F3C030F00ED0F4C093
:1002300033F0F3C032F009D0F4C035F0F3C034F03D
:1002400004D0F4C037F0F3C036F0D9EF02F0F25129
:10025000200DF350036A380F016E000E032201C017
:10026000F6F003C0F7F0F46BF36BF56BF5510F0884
:1002700015E3036AF5C002F0D89002360336025047
:10028000F625E96EF7510320EA6EECCF03F0ED524C
:10029000EF50F3270350F423F52BE8D7080EF3258E
:1002A000F86F000EF421F96FF931036EF831026E28
:1002B0000332023203320232033202320F0E0316CD
:1002C00002C001F003C002F01200640EA76FF151EA
:1002D000D8B467D0010AD8B474D0030AD8B475D0A2
:1002E000010AD8B482D00B0AD8B484D0010AD8B499
:1002F0008BD0030AD8B48DD0010AD8B48FD0070AA6
:10030000D8B491D0010AD8B493D0030AD8B494D009
:10031000010AD8B496D02F0AD8B497D0010AD8B41D
:1003200098D0030AD8B49AD0010AD8B49CD0070A4E
:10033000D8B49ED0010AD8B4A0D0030AD8B4A2D0B1
:10034000010AD8B4A3D00F0AD8B4A4D0010AD8B4F3
:10035000A5D0030AD8B4A6D0010AD8B4A8D0070AF9
:10036000D8B4AAD0010AD8B4ACD0030AD8B4AED05D
:10037000010AD8B4B0D01F0AD8B4B2D0010AD8B498
:10038000B4D0030AD8B4B6D0010AD8B4B8D0070A9A
:10039000D8B4BAD0010AD8B4BCD0030AD8B4BED0FD
:1003A000C2D0D8909835036A380FE96E000E03204A
:1003B000EA6EECCF03F0ED52EFCF01F003C002F094
:1003C000B5D0F26B44DF0250B1D0D8909835036AB3
:1003D000580FE96E000E0320EA6EECCF03F0ED52E9
:1003E000EFCF01F003C002F0A1D0010EF26F2FDFBA
:1003F00002509CD09AC003F09951992BD8B49A2BF3
:10040000016E03C002F092D09DC001F09EC002F0C8
:100410008DD09BC001F09CC002F088D0ADC001F02F
:10042000AEC002F083D0B1C001F0B2C002F07ED005
:10043000A5C001F0026A7AD0A9C001F0AAC002F0FA
:1004400075D0A3C001F0026A71D01BC001F0026A2E
:100450006DD01CC001F01DC002F068D0500E016EBE
:10046000000E026E63D05A0E016E000E026E5ED058
:10047000500E016E000E026E59D0030E016E000E7A
:10048000026E54D0A0C001F0026A50D0A1C001F0A9
:10049000026A4CD0A2C001F0026A48D09FC001F0AD
:1004A000026A44D01EC001F01FC002F03FD020C03D
:1004B00001F021C002F03AD022C001F023C002F0C6
:1004C00035D024C001F025C002F030D026C001F0A4
:1004D00027C002F02BD028C001F029C002F026D09E
:1004E0002AC001F02BC002F021D02CC001F02DC099
:1004F00002F01CD02EC001F02FC002F017D030C087
:1005000001F031C002F012D032C001F033C002F06D
:100510000DD034C001F035C002F008D036C001F073
:1005200037C002F003D0F1C001F0026AE3EF02F03D
:10053000C950F1C0C9FFC6889E96C7B0FED7016AF0
:10054000C5AC012A1200C7BA03D0C16BC7B4C18FB2
:10055000C151C12BEF6FEF5180082BE3EF518008A1
:1005600003E1C9CFEEF006D0C69CC7A0FED7C950A4
:10057000C688EE6FEF2D03D0EEC0BDF01AD0EF515C
:10058000010817E2EF51800814E0EF51020803E17F
:10059000EEC0C0F00ED0EF5103080BE1C0C0F1F087
:1005A000EEC0F0F0BDC0F2F0C0C0F4F0EEC0F3F069
:1005B00095D5EF517F0817E2BDB10FD0D890BD316E
:1005C000F06FF16F82D602C0BFF001C0BEF0BFC0B5
:1005D000F0F0BFC0F1F0ACDF05D0BEC0F0F0BEC09F
:1005E000F1F0A6DFBD2BAE6BAD6B9E9636EF00F043
:1005F000232064637377635F6D6F64756C655F6CF4
:1006000061746368696E675F636F6E746163746F52
:10061000720D0A002320726561645F6469705F7304
:10062000776974636828293D25750D0A0000232029
:1006300020202076696E206164633D256C750D0A6B
:1006400000002320202074656D70206164633D25C7
:100650006C750D0A00002320646970207377206197
:1006600064633D256C750D0A0000700ED36E9B9C73
:100670009B9EC050C00B0509C06EC08EC280140E78
:100680007E6EC190C192C194C196020E7F6E3F0EE4
:10069000926E700E936E810E946E300E776EF19E98
:1006A000786AAA69A969EA6ACC0EE96E000E05DDCE
:1006B0000A000900F550EE6E0009FBE1300ECC5D3A
:1006C0000A0DF3CFA2F0300ECD5DA227CF514A081C
:1006D0000FE1D051410803E1010EA16F08D0D151C3
:1006E0004E0803E1060EA16F02D0070EA16F37D0AE
:1006F000CF51410809E1D051500803E1040EA16F28
:1007000002D0080EA16F2BD0CF514D0809E1D15175
:10071000520803E1030EA16F02D0050EA16F1FD096
:10072000CF51460803E1020EA16F19D0CF515308F3
:1007300003E1090EA16F13D0CF514F0803E10A0E58
:10074000A16F0DD0CF514E0803E10B0EA16F07D062
:10075000CF51440803E10C0EA16F01D0A169300E06
:10076000D35D0A0DF3CFA0F0300ED45DA027000EAC
:100770000609CA6EF90ECB6E9D82BFEF07F0D56BEE
:10078000D4C0D7F0D351D8B4D407D307D66FD6533B
:1007900002E1D75330E0D2C003F0D151E96E03C07B
:1007A000EAFFD051036ECF51CF2BD8B4D02BD86FE6
:1007B00003C0D9F0F2CFDAF0F29ED8C0A9FFA69C10
:1007C000A69EA680A850DABFF28EEF6ED2C003F0CC
:1007D000D151E96E03C0EAFFEFCFD6F0D5C0D8F013
:1007E000D6C0D9F0D851D919016E01C0D5F0D12B9E
:1007F000D8B4D22BC5D7D5C001F0ABEF04F0D66B7F
:10080000D5C0D8F0D451D8B4D507D407D76FD753B3
:1008100002E1D8533CE0D3C003F0D251E96E03C0EB
:10082000EAFFEFCFD7F0D6C0D8F0D7C0D9F0D85173
:10083000D919016E01C0D6F0D151036ED051D02B21
:10084000D8B4D12BD76F03C0D8F0D351036ED25197
:10085000D22BD8B4D32BE96E03C0EAFFEFCFD9F087
:10086000F250006EF29ED7C0A9FFD9C0A8FFA69C87
:10087000A69EA6840F01550EA76EAA0EA76EA6828D
:10088000A6B2FED7A6940050F2120001B9D7D6C086
:1008900001F057EF04F01B0ECE6FD16B020ED06F3C
:1008A000D36BCEC0D2F0D56B1D0ED46FA8D701C0CC
:1008B000CDF0F250006EF29EA96ACDC0A8FFA69CB2
:1008C000A69EA6840F01550EA76EAA0EA76EA6823D
:1008D000A6B2FED7A6940050F21200011200010E3B
:1008E000A56F960EA76FA86F500E1B6E260E1D6E7D
:1008F000910E1C6E1F6A140E1E6E216A050E206E6C
:10090000236A020E226E25682468276A266E2968EB
:1009100028682B6A2A6E2D6ABE0E2C6E2F682E68F0
:10092000316AC80E306E030E336EE80E326E3568D3
:100930003468030E376E840E366EADDF12001B0E68
:10094000CD6FD06B020ECF6FD26BCDC0D1F0D46B18
:100950001D0ED36F14D701C0CCF0F2CFCDF0F29EB4
:10096000A96AA69CA69EA680A850CDBFF28ECC5D9B
:1009700001E0B5DFC0EF07F0EA6ACE0EE96EEF5096
:100980000EE0050E016E006A002EFED7012EFBD789
:100990002E0E006E002EFED700D0EF2EF2D71200E2
:1009A0000900F5520DE0F6CFCCF0F7CFCDF0F550C1
:1009B0009EA8FED7AD6ECCC0F6FFCDC0F7FFF0D736
:1009C000E7EF07F0982B98510F0801E2986B100E93
:1009D000016EC250C30B0110C26ED8909835036AE5
:1009E000380FE96E000E0320EA6EC282C2B2FED753
:1009F000C3CFEFFFC4CFECFF080E016EC250C30B94
:100A00000110C26E010ECE6FB7DFD8909835036A21
:100A1000580FE96E000E0320EA6EC282C2B2FED702
:100A2000C3CFEFFFC4CFECFF240E016EC250C30B47
:100A30000110C26E010ECE6F9FDFD8909835036A09
:100A4000780FE96E000E0320EA6EC282C2B2FED7B2
:100A5000C3CFEFFFC4CFECFF1200A695A75303E16D
:100A600094928B9203D094928B82A707A85303E1B0
:100A700094948B9403D094948B84A8079D3D03D0C9
:100A80009E3D01D003D09D2BD8B49E2BBB5305E1D6
:100A900094968B9694988B9801D0BB07BC5305E134
:100AA000949A8B9A949C8B9C01D0BC07C52BD8B48C
:100AB000C62BC551E808D8A4EDD0C6510308D8A468
:100AC000E9D0C66BC56BA93D03D0AA3D01D01DD0AE
:100AD000A95302E1AA5305E0A951D8B4AA07A9076E
:100AE00014D0A3B106D0A38123C0ACF022C0ABF0D8
:100AF0000CD0AB5306E1AC5304E1A391AA69A969F8
:100B000004D0AB51D8B4AC07AB07AD3D03D0AE3D7C
:100B100001D003D0AD2BD8B4AE2BB13D03D0B23D44
:100B200001D003D0B12BD8B4B22B2550AE5D19E360
:100B300003E1AD51245C15E2A3B306D0A38327C023
:100B4000B0F026C0AFF00CD0AF5306E1B05304E1D3
:100B5000A393AE6BAD6B04D0AF51D8B4B007AF0761
:100B600001D0A3932950B25D19E303E1B151285C90
:100B700015E2A3B506D0A3852BC0B4F02AC0B3F00C
:100B80000CD0B35306E1B45304E1A395B26BB16B3F
:100B900004D0B351D8B4B407B30701D0A3952E3C09
:100BA00003D02F3C01D032D0196AF2BE198EF29ECA
:100BB000F26B27EC01F019BEF28E02C0CDF001C03D
:100BC000CCF03150CD5D0AE303E1CC51305C06E25C
:100BD000B75302E0B70701D0A39702D0050EB76F55
:100BE000CD512D5C0FE303E12C50CC5D0BE2B553EE
:100BF00002E1B65305E0B551D8B4B607B50701D048
:100C0000A38704D02FC0B6F02EC0B5F0343C03D07B
:100C1000353C01D032D0196AF2BE198EF29EF26BC9
:100C200027EC01F019BEF28E02C0CDF001C0CCF06D
:100C3000CD51375C0AE303E13650CC5D06E2BA538E
:100C400002E0BA0701D0A39902D0050EBA6F335063
:100C5000CD5D0FE303E1CC51325C0BE2B85302E10E
:100C6000B95305E0B851D8B4B907B80701D0A38982
:100C700004D035C0B9F034C0B8F0C22BC2513C0822
:100C800009E1C26B9B3D03D09C3D01D003D09B2B5F
:100C9000D8B49C2BA6A303D0A693C46BC36BC32B61
:100CA000D8B4C42B1E50C35D06E11F50C45D03E1E0
:100CB000C46BC36BA681FFEF07F09EAAFED7ABCF34
:100CC0001AF0AECF01F01AA202D0AB98AB8802EFB7
:100CD00008F0240E016EC250C30B0110C26E010E4B
:100CE000CE6F4ADEC282C2B2FED7C4CFCDF0C3CF30
:100CF000CCF0CCC001F023D0CD51020808E2FF0AAD
:100D000003E1CC51BF0803E2000E016E18D0CD51B3
:100D1000010808E2FF0A03E1CC516A0803E2020E6F
:100D2000016E0DD0CD51000808E2FF0A03E1CC515D
:100D3000BF0803E2010E016E02D0030E016E03EF45
:100D400008F00900F6CFCFF0F7CFD0F0F5509EA80D
:100D5000FED7AD6ECFC0F6FFD0C0F7FFCE2FF1D7D4
:100D60001200D051016ACF5D03E2CFC000F00CD079
:100D7000006A080ED16FCF370036D051005CD8B072
:100D8000006E0136D12FF7D712000150CDC0CFF041
:100D9000640ED06FE6DF00C0CDF00150300E07E1E9
:100DA000CEA30DD0CEB70BD0CEB9200E03D0CE97A8
:100DB000CE99CE81012601509EA8FED7AD6ECDC042
:100DC000CFF00A0ED06FCDDF00C0CDF00150300E55
:100DD00006E1CEB709D0CEA107D0CEB9200E0126AC
:100DE00001509EA8FED7AD6E300ECD27CD519EA8E6
:100DF000FED7AD6E11EF08F0EACFD6F0E9CFD5F00F
:100E0000CF39F009D16FD127E20FD26F320FD46FF3
:100E1000CF510F0BD227D227D427E90FD36FD32777
:100E2000D327CE390F0BD327D427D337D437D41FAA
:100E3000D437CE510F0BD427D137070ED06F0A0EFF
:100E4000D307D427FDE3D207D327FDE3D107D22769
:100E5000FDE3D007D127FDE3EA6AD00EE96E070E65
:100E6000D515D59DE926000EEA22E950D40803E104
:100E7000EA5201E1D58DEF50006E08E1D5BD06D0F4
:100E8000D5B90CD0D5B702D0200E03D0D587D599CF
:100E9000300E002600509EA8FED7AD6EEE50D5ADA8
:100EA000E4D71200C80EBB6F94968B8694988B98EB
:100EB00093EF08F0C80EBB6F94968B9694988B882E
:100EC00096EF08F0C80EBC6F949A8B8A949C8B9C0A
:100ED000A5EF08F0C80EBC6F949A8B9A949C8B8CEB
:100EE000A8EF08F0F86AD09E078E938C9388340E92
:100EF000C86E360EC66EC580C58E1A6AB886A00E3C
:100F0000AF6E010EB06EA60EAC6E900EAB6E030E01
:100F1000C16FC86BC76B000E7E6EC190C192C19449
:100F2000C1967F6E6C6A6B6A6D6A08D0A2401B0026
:100F30000300BE0000000540C2000000000EF86E75
:100F40000F0EF76E2C0EF66E0900F550006E000ABB
:100F500013E00900F550016EE8BE05D03F0BEA6EC4
:100F60000900F5CFE9FF01BC090001AC0900F5CF8C
:100F7000EEFF004EE9D7F9D7F86A35EF03F0DFD47A
:100F8000215203E12050640803E2216A640E206EBE
:100F9000C96B215203E12050C95D0DE20400949217
:100FA0008B82C80ECE6FE8DC94928B92C80ECE6F07
:100FB000E3DCC92BEED7040ECC6FFA0ECE6FDCDC6F
:100FC000CC2FFBD7F00EF66E050EF76EE9D4F40EBB
:100FD000A76FC00EF212C96BC9511D0803E3F2DC02
:100FE000C92BFAD7928ACA6B80AACA2B9288CB6B7C
:100FF00080A8CB2B9D860400A6A501D02ED59EAA45
:1010000083D05BD666D601C0CCF0140EF66E060E09
:10101000F76E140ECE6F95DECCC0CDF01B0ECE6FEA
:10102000B4D60D0E9EA8FED7AD6E0A0E9EA8FED7B2
:10103000AD6E196AF2BE198EF29EF26B27EC01F0CA
:1010400019BEF28E02C0CDF001C0CCF02E0EF66EAD
:10105000060EF76E0D0ECE6F74DE100EE96ECDC06B
:10106000CFF0CCC0CEF0C8DE0D0E9EA8FED7AD6E80
:101070000A0E9EA8FED7AD6E196AF2BE198EF29EB8
:10108000010EF26F27EC01F019BEF28E02C0CDF016
:1010900001C0CCF0420EF66E060EF76E0D0ECE6F4E
:1010A00050DE100EE96ECDC0CFF0CCC0CEF0A4DE85
:1010B0000D0E9EA8FED7AD6E0A0E9EA8FED7AD6E91
:1010C000196AF2BE198EF29E020EF26F27EC01F041
:1010D00019BEF28E02C0CDF001C0CCF0560EF66EF5
:1010E000060EF76E0D0ECE6F2CDE100EE96ECDC023
:1010F000CFF0CCC0CEF080DE0D0E9EA8FED7AD6E38
:101100000A0E9EA8FED7AD6E928A000E80BA010E1E
:10111000CA5D0CE0928ACA6B80BACA2BCA5304E03B
:10112000F40EA76FBFD602D0A76BC4D69288000E6C
:1011300080B8010ECB5D0CE09288CB6B80B8CB2BD6
:10114000CB5304E0F40EA86FBDD602D0A86BC2D674
:10115000A6A102D0A69136DCA6A703D0A6974BEC99
:1011600004F0A6A903D0A6996FEC04F044D7FFD7EA
:0200000400F00A
:0400000000004000BC
:020000040030CA
:0E000000002819180000090003C003E00340A7
:00000001FF
;PIC18F14K22
;CRC=6135  CREATED="19-Nov-21 06:15"
