:100000007AEF09F0B9EF00F0046ED8CF05F0E0CF39
:1000100006F00001E9CF0CF0EACF07F0E1CF08F0DD
:10002000E2CF09F0D9CF0AF0DACF0BF0F3CF12F01C
:10003000F4CF13F0FACF14F0F5CF15F0F6CF16F099
:10004000F7CF17F000C00EF001C00FF002C010F0A3
:1000500003C011F09DA230EF00F09EB26AEF00F0F5
:100060009DA636EF00F09EB683EF00F00EC000F0C4
:100070000FC001F010C002F011C003F00CC0E9FF86
:1000800007C0EAFF078E08C0E1FF09C0E2FF0AC00F
:10009000D9FF0BC0DAFF12C0F3FF13C0F4FF14C086
:1000A000FAFF15C0F5FF16C0F6FF17C0F7FF0450A2
:1000B00006C0E0FF05C0D8FF1000F76ACA0FF66E51
:1000C000000EF7220900F550120031342D4A616EFE
:1000D0002D323200BF859E9236EF00F0640EC06F65
:1000E0000101175117C101F0026A0001C7EF00F0CA
:1000F000C95017C1C9FFC6889E96C7B0FED7016A0E
:10010000C5AC012A1200C7BA03D0E66BC7B4E68FAC
:10011000E651E62B0101156F155180082BE31551AF
:10012000800803E1C9CF14F106D0C69CC7A0FED752
:10013000C950C688146F152D03D014C1E2F01AD02F
:100140001551010817E21551800814E015510208F5
:1001500003E114C1E5F00ED0155103080BE1E5C031
:100160001AF114C116F1E2C018F114C119F100011D
:1001700049D7010115517F0817E20001E2B10FD004
:10018000D890E2310101166F176F0001A7D702C0A6
:10019000E4F001C0E3F0E4C017F1AADF03D0E3C04C
:1001A00017F1A6DFE22B01019E96000136EF00F069
:1001B000232064637377635F6D6F64756C655F6C38
:1001C00061746368696E675F636F6E746163746F97
:1001D000722025730D0A2320000031342D4A616EF0
:1001E0002D3232005744542054494D454F55540048
:1001F0004D434C522046524F4D20534C45455000E4
:100200004D434C522046524F4D2052554E004E4FBA
:10021000524D414C20504F574552205550004252AC
:100220004F574E4F5554205245535441525400009D
:100230005744542046524F4D20534C4545500000E2
:10024000524553455420494E535452554354494FF7
:100250004E00554E4B4E4F574E21000023207265E5
:1002600061645F6469705F73776974636828293DAE
:1002700025750D0A0000232020202076696E20615C
:1002800064633D256C750D0A0000232020207465F1
:100290006D70206164633D256C750D0A000023209C
:1002A000646970207377206164633D256C750D0A65
:1002B000000023206368616E6E656C5B25755D0DC3
:1002C0000A00232020202020202020202020202061
:1002D000202020202020202020202073746174659D
:1002E0003D3078253032780D0A0023202020202050
:1002F000202020202020636F6D6D616E645F6F6E23
:100300005F7365636F6E64733D256C750D0A000045
:1003100023202020202020636F6D6D616E645F6F4D
:100320006E5F686F6C645F7365636F6E64733D25A9
:100330006C750D0A00002320202020202020202082
:1003400020636F6D6D616E645F6F66665F7365637A
:100350006F6E64733D256C750D0A0000232020200C
:100360002020636F6D6D616E645F6F66665F686F9E
:100370006C645F7365636F6E64733D256C750D0A05
:10038000000023206C76645F646973636F6E6E6532
:1003900063745F64656C61795F7365636F6E6473CA
:1003A0003D256C750D0A00002320206C76645F7279
:1003B00065636F6E6E6563745F64656C61795F73AE
:1003C00065636F6E64733D25750D0A0023206876A2
:1003D000645F646973636F6E6E6563745F64656C9C
:1003E00061795F7365636F6E64733D256C750D0A8B
:1003F00000002320206876645F7265636F6E6E650F
:1004000063745F64656C61795F7365636F6E647359
:100410003D25750D0A00010EEA6E130EE96EEF50D0
:100420000EE0050E016E006A002EFED7012EFBD7EE
:100430002E0E006E002EFED700D0EF2EF2D7120047
:10044000240E016EC250C30B0110C26E010E0101D9
:10045000136F0001E0DFC282C2B2FED7C4CF12F137
:10046000C3CF11F101011251020808E2FF0A03E1B2
:100470001151BF0803E2000E016E18D0125101089D
:1004800008E2FF0A03E111516A0803E2020E016E5D
:100490000DD01251000808E2FF0A03E11151BF0814
:1004A00003E2010E016E02D0030E016E0001120084
:1004B000700ED36E9B9C9B9EC050C00B0509C06EF6
:1004C000C08EC280140E7E6EC190C192C194C1963E
:1004D000020E7F6ED1803F0E926E700E936E810E73
:1004E000946E300E776EF19E786ACA69C969D969CF
:1004F000D869C669C569D569D469EA6AF10EE96E39
:10050000000EDBDD0A000900F550EE6E0009FBE18C
:10051000300EF15D0A0DF3CFBDF0300EF25DBD2758
:10052000F4514A080FE1F551410803E1010EBC6F97
:1005300008D0F6514E0803E1060EBC6F02D0070E3C
:10054000BC6F37D0F451410809E1F551500803E17F
:10055000040EBC6F02D0080EBC6F2BD0F4514D08B6
:1005600009E1F651520803E1030EBC6F02D0050EFB
:10057000BC6F1FD0F451460803E1020EBC6F19D0C6
:10058000F451530803E1090EBC6F13D0F4514F0826
:1005900003E10A0EBC6F0DD0F4514E0803E10B0EBF
:1005A000BC6F07D0F451440803E10C0EBC6F01D0BE
:1005B000BC69300EF85D0A0DF3CFBBF0300EF95D6B
:1005C000BB27000E0609CA6EF90ECB6E9D8238DF7E
:1005D000D89001343E0F0101C86E0001C6EF09F04A
:1005E000FA6BF9C0FCF0F851D8B4F907F807FB6FC3
:1005F000FB5302E1FC5330E0F7C003F0F651E96E23
:1006000003C0EAFFF551036EF451F42BD8B4F52B77
:10061000FD6F03C0FEF0F2CFFFF0F29EFDC0A9FF18
:10062000A69CA69EA680A850FFBFF28EEF6EF7C0D4
:1006300003F0F651E96E03C0EAFFEFCFFBF0FAC01A
:10064000FEF0FBC0FFF0FE51FF19016E01C0FAF091
:10065000F62BD8B4F72BC5D7FAC001F052EF04F04F
:10066000FC6BFBC0FEF0FA51D8B4FB07FA07FD6F34
:10067000FD5302E1FE533CE0F9C003F0F851E96E8E
:1006800003C0EAFFEFCFFDF0FCC0FEF0FDC0FFF0BD
:10069000FE51FF19016E01C0FCF0F751036EF651D7
:1006A000F62BD8B4F72BFD6F03C0FEF0F951036EA3
:1006B000F851F82BD8B4F92BE96E03C0EAFFEFCF5D
:1006C000FFF0F250006EF29EFDC0A9FFFFC0A8FF30
:1006D000A69CA69EA6840F01550EA76EAA0EA76E15
:1006E000A682A6B2FED7A6940050F2120001B9D796
:1006F000FCC001F088EF03F01A0EF46FF76B020EE6
:10070000F66FF96BF4C0F8F0FB6B390EFA6FA8D7EF
:1007100001C0F3F0F250006EF29EA96AF3C0A8FF88
:10072000A69CA69EA6840F01550EA76EAA0EA76EC4
:10073000A682A6B2FED7A6940050F21200011200C3
:10074000010EBE6F960EC06FC16F1B6A140E1A6E3B
:100750001D6A050E1C6E1E6E206A020E1F6EF26B65
:10076000F2510108D8A090D0F251180DF350036A4D
:10077000230FE96E000E0320EA6E010EEC6EED52BF
:100780002F0EEF6EF251180DF350036A090FF36F3D
:10079000000E0320F46F020EF325016E000EF4210B
:1007A000036E01501A0FE96E000E0320EA6EEC6A28
:1007B000ED52280EEF6EF251180DF350036A090F37
:1007C000F36F000E0320F46F040EF325016E000E8C
:1007D000F421036E01501A0FE96E000E0320EA6E39
:1007E000010EEC6EED52340EEF6EF251180DF35017
:1007F000036A090FF36F000E0320F46F060EF32552
:10080000016E000EF421036E01501A0FE96E000E06
:100810000320EA6E010EEC6EED529A0EEF6EF2516D
:10082000180DF350036A090FF36F000E0320F46FE5
:10083000080EF325016E000EF421036E01501A0F0D
:10084000E96E000E0320EA6EEC6AED520F0EEF6EB9
:10085000F251180DF350036A090FF36F000E0320D5
:10086000F46F0A0EF325016E000EF421036E0150A1
:100870001A0FE96E000E0320EA6E010EEC6EED52C7
:10088000810EEF6EF22B6CD737DF12001A0EF26F6B
:10089000F56B020EF46FF76BF2C0F6F0F96B390EE0
:1008A000F86F9ED601C0F1F0F2CFF2F0F29EA96A85
:1008B000A69CA69EA680A850F2BFF28EF15D01E034
:1008C0003FDFC8EF09F00900F6CFF5F0F7CFF6F0FB
:1008D000F5509EA8FED7AD6EF5C0F6FFF6C0F7FF47
:1008E000F42FF1D712000900F5520DE0F6CFF1F028
:1008F000F7CFF2F0F5509EA8FED7AD6EF1C0F6FF2F
:10090000F2C0F7FFF0D71200B32BB3510F0801E28A
:10091000B36B100E016EC250C30B0110C26ED890A3
:10092000B335036A530FE96E000E0320EA6EC282EC
:10093000C2B2FED7C3CFEFFFC4CFECFF080E016EEB
:10094000C250C30B0110C26E010E0101136F0001F2
:1009500062DDD890B335036A730FE96E000E032091
:10096000EA6EC282C2B2FED7C3CFEFFFC4CFECFFA4
:10097000240E016EC250C30B0110C26E010E0101A4
:10098000136F000148DDD890B335036A930FE96E09
:10099000000E0320EA6EC282C2B2FED7C3CFEFFFC1
:1009A000C4CFECFF1200F451200DF350036A530F33
:1009B000016E000E032201C0F8F003C0F9F0F66BDF
:1009C000F56BF76BF7510F0815E3036AF7C002F0F8
:1009D000D890023603360250F825E96EF95103200B
:1009E000EA6EECCF03F0ED52EF50F5270350F623FB
:1009F000F72BE8D7080EF525FA6F000EF621FB6FEE
:100A0000FB31036EFA31026E0332023203320232DC
:100A1000033202320F0E031602C001F003C002F0CF
:100A20001200F1510F0DF350F56BF46F050EF42524
:100A3000016E000EF521036E0150C40FE96E000E29
:100A40000320EA6EECCF03F0ED52EF50FF0803E114
:100A5000033C01D0B6D0F1510F0DF350F56BF46F9C
:100A6000050EF425016E000EF521036E0150C40F32
:100A7000E96E000E0320EA6EECCFF5F0ED52EFCFF9
:100A8000F4F0F45302E1F55317E0F1510F0DF35078
:100A9000F56BF46F050EF425016E000EF521036E63
:100AA0000150C40FE96E000E0320EA6EFF0EEF2620
:100AB00002E2EE52ED0685D0F1510F0DF350F56BC9
:100AC000F46FC40EF425E96E000EF521EA6EEFCF47
:100AD000F6F0F6B525D0F1510F0DF350F56BF46F2C
:100AE000C40EF425016E000EF52101C0E9FFEA6E87
:100AF000EF84F1510F0DF350F56BF46F070EF425F1
:100B0000016E000EF521036E0150C40FE96E000E58
:100B10000320EA6E20C0ECFFED521FC0EFFF51D062
:100B2000F1510F0DF350F56BF46F070EF425016EC4
:100B3000000EF521036E0150C40FE96E000E032074
:100B4000EA6EECCF03F0ED52EF5025E1035223E1C2
:100B5000F1510F0DF350F56BF46FC40EF425016ED7
:100B6000000EF52101C0E9FFEA6EEF94F1510F0D7F
:100B7000F350F56BF46F050EF425016E000EF521B0
:100B8000036E0150C40FE96E000E0320EA6EEC689C
:100B9000ED52EF6816D0F1510F0DF350F56BF46F75
:100BA000070EF425016E000EF521036E0150C40FEF
:100BB000E96E000E0320EA6EFF0EEF2602E2EE520F
:100BC000ED06F151180DF350036A090FF46F000E92
:100BD0000320F56F020EF425016E000EF521036E61
:100BE00001501A0FE96E000E0320EA6EECCF03F0FD
:100BF000ED52EF50FF0803E1033C01D0FBD0F46B52
:100C0000D2DE02C0F3F001C0F2F0F151180DF35042
:100C1000036A090FF46F000E0320F56F040EF4252C
:100C2000016E000EF521036E01501A0FE96E000EE1
:100C30000320EA6EECCF03F0ED52EFCF01F003504A
:100C4000F35D39E303E1F251015C35E2F1510F0D3F
:100C5000F350F56BF46F0B0EF425016E000EF521C9
:100C6000036E0150C40FE96E000E0320EA6EEF52CE
:100C700013E0F1510F0DF350F56BF46F0B0EF425EB
:100C8000016E000EF521036E0150C40FE96E000ED7
:100C90000320EA6EEF060ED0F1510F0DF350F56B05
:100CA000F46FC40EF425016E000EF52101C0E9FFBA
:100CB000EA6EEF9613D0F1510F0DF350F56BF46F10
:100CC0000B0EF425016E000EF521036E0150C40FCA
:100CD000E96E000E0320EA6E1EC0EFFFF151180D01
:100CE000F350036A230FE96E000E0320EA6EECCF87
:100CF00003F0ED52EFCF01F0F351035C44E303E165
:100D00000150F25D40E2F1510F0DF350F56BF46FBD
:100D1000090EF425016E000EF521036E0150C40F7B
:100D2000E96E000E0320EA6EECCFF5F0ED52EFCF46
:100D3000F4F0F45302E1F55317E0F1510F0DF350C5
:100D4000F56BF46F090EF425016E000EF521036EAC
:100D50000150C40FE96E000E0320EA6EFF0EEF266D
:100D600002E2EE52ED060ED0F1510F0DF350F56B8D
:100D7000F46FC40EF425016E000EF52101C0E9FFE9
:100D8000EA6EEF8637D0F1510F0DF350F56BF46F2B
:100D9000090EF425016E000EF521036E0150C40FFB
:100DA000016E000E032201C0F4F003C0F5F0F15112
:100DB000180DF350036A090FF66F000E0320F76F4A
:100DC000020EF625016E000EF721036E01501A0F78
:100DD000E96E000E0320EA6EECCF03F0ED52EFCF88
:100DE000F6F0F5C0EAFFF4C0E9FF03C0ECFFED52F6
:100DF000F6C0EFFFF151180DF350036A090FF46FBD
:100E0000000E0320F56F080EF425016E000EF5218B
:100E1000036E01501A0FE96E000E0320EA6EECCF4C
:100E200003F0ED52EF50FF0803E1033C01D007D17E
:100E3000F46BB9DD02C0F3F001C0F2F0F151180D0E
:100E4000F350036A090FF46F000E0320F56F0A0ECA
:100E5000F425016E000EF521036E01501A0FE96EA4
:100E6000000E0320EA6EECCF03F0ED52EFCF01F05D
:100E7000F351035C39E303E10150F25D35E2F151D6
:100E80000F0DF350F56BF46F0E0EF425016E000E8E
:100E9000F521036E0150C40FE96E000E0320EA6EC7
:100EA000EF5213E0F1510F0DF350F56BF46F0E0E8E
:100EB000F425016E000EF521036E0150C40FE96E9A
:100EC000000E0320EA6EEF060ED0F1510F0DF35025
:100ED000F56BF46FC40EF425016E000EF52101C010
:100EE000E9FFEA6EEF9813D0F1510F0DF350F56B57
:100EF000F46F0E0EF425016E000EF521036E015005
:100F0000C40FE96E000E0320EA6E1EC0EFFFF15120
:100F1000180DF350036A090FF46F000E0320F56FEC
:100F2000060EF425016E000EF521036E01501A0F16
:100F3000E96E000E0320EA6EECCF03F0ED52EFCF26
:100F400001F00350F35D44E303E1F251015C40E240
:100F5000F1510F0DF350F56BF46F0C0EF425016E8B
:100F6000000EF521036E0150C40FE96E000E032040
:100F7000EA6EECCFF5F0ED52EFCFF4F0F45302E16E
:100F8000F55317E0F1510F0DF350F56BF46F0C0EA4
:100F9000F425016E000EF521036E0150C40FE96EB9
:100FA000000E0320EA6EFF0EEF2602E2EE52ED067F
:100FB0000ED0F1510F0DF350F56BF46FC40EF42504
:100FC000016E000EF52101C0E9FFEA6EEF8837D00F
:100FD000F1510F0DF350F56BF46F0C0EF425016E0B
:100FE000000EF521036E0150C40F016E000E0322A6
:100FF00001C0F4F003C0F5F0F151180DF350036A8D
:10100000090FF66F000E0320F76F080EF625016E2C
:10101000000EF721036E01501A0FE96E000E032037
:10102000EA6EECCF03F0ED52EFCFF6F0F5C0EAFF39
:10103000F4C0E9FF03C0ECFFED52F6C0EFFF120071
:101040005CEF08F0BF95C05303E194928B9203D0FC
:1010500094928B82C007C15303E194948B9403D084
:1010600094948B84C107B83D03D0B93D01D003D01F
:10107000B82BD8B4B92BC25305E194968B969498AB
:101080008B9801D0C207C35305E1949A8B9A949C24
:101090008B9C01D0C307EA2BD8B4EB2BEA51E808AC
:1010A00018E1EB51030815E1EB6BEA6BF16BB9DC6E
:1010B000010EF16FB6DCC4D7E72BE7513C0809E11C
:1010C000E76BB63D03D0B73D01D003D0B62BD8B403
:1010D000B72BBFA303D0BF93E96BE86BE82BD8B461
:1010E000E92B1A50E85D06E11B50E95D03E1E96B6D
:1010F000E86BBF816CEF0AF09EAAFED7ABCF19F068
:10110000AECF01F019A202D0AB98AB886FEF0AF016
:10111000F551016AF45D03E2F4C000F00CD0006AFE
:10112000080EF66FF4370036F551005CD8B0006E4B
:101130000136F62FF7D712000150F2C0F4F0640E1A
:10114000F56FE6DF00C0F2F00150300E07E1F3A3C7
:101150000DD0F3B70BD0F3B9200E03D0F397F3996A
:10116000F381012601509EA8FED7AD6EF2C0F4F0C7
:101170000A0EF56FCDDF00C0F2F00150300E06E12F
:10118000F3B709D0F3A107D0F3B9200E012601501F
:101190009EA8FED7AD6E300EF227F2519EA8FED764
:1011A000AD6E1200EACFFBF0E9CFFAF0F439F009A6
:1011B000F66FF627E20FF76F320FF96FF4510F0B4E
:1011C000F727F727F927E90FF86FF827F827F339FA
:1011D0000F0BF827F927F837F937F91FF937F351CB
:1011E0000F0BF927F637070EF56F0A0EF807F927E8
:1011F000FDE3F707F827FDE3F607F727FDE3F5071B
:10120000F627FDE3EA6AF50EE96E070EFA15FA9D78
:10121000E926000EEA22E950F90803E1EA5201E169
:10122000FA8DEF50006E08E1FABD06D0FAB90CD085
:10123000FAB702D0200E03D0FA87FA99300E0026B2
:1012400000509EA8FED7AD6EEE50FAADE4D7120066
:10125000F5BF10D00F0E006EF43900160A0E005CB8
:1012600003E2300E002602D0F551002600509EA861
:10127000FED7AD6E0F0EF4170A0EF45D02E2300ECB
:1012800002D0F59FF551F427F4519EA8FED7AD6E1C
:1012900019EF0BF0BFAB01D007D0C80EC26F949608
:1012A0008B8694988B98BF8B90EF0CF0BFBB01D0CE
:1012B00007D0C80EC26F94968B9694988B88BF9B6C
:1012C00093EF0CF0BFAD01D007D0C80EC36F949A56
:1012D0008B8A949C8B9CBF8DA2EF0CF0BFBD01D07C
:1012E00007D0C80EC36F949A8B9A949C8B8CBF9D29
:1012F000A5EF0CF0F86AD09E078E938C9388C86A8D
:10130000360EC66EC580C58E196AB886A00EAF6E41
:10131000010EB06EA60EAC6E900EAB6E030EE66FB5
:10132000ED6BEC6B000E7E6EC190C192C194C196C4
:101330007F6E6C6A6B6A6D6A08D0C8401A00030041
:10134000E30000000540E7000000000EF86E130EF9
:10135000F76E3A0EF66E0900F550006E000A13E0C3
:101360000900F550016EE8BE05D03F0BEA6E09009A
:10137000F5CFE9FF01BC090001AC0900F5CFEEFF94
:10138000004EE9D7F9D7F86A58EF02F046EF04F0BB
:101390001D5203E11C50640803E21D6A640E1C6EBA
:1013A000EE6B1D5203E11C50EE5D13E204009492BB
:1013B0008B82C80E0101136F00010BEC02F09492B6
:1013C0008B92C80E0101136F00010BEC02F0EE2BA3
:1013D000E8D7B00EF66E010EF76E220EF46F63ECD6
:1013E00004F0DA0EF66E010EF76E73EC04F0D40E14
:1013F000F66E010EF76E040EF46F63EC04F0070E48
:10140000005C12E00B0E005C16E00F0E005C1AE0B0
:101410000C0E005C1EE00E0E005C22E0030E005C71
:1014200026E000522BE031D0E40EF66E010EF76E8E
:1014300073EC04F030D0F00EF66E010EF76E73EC24
:1014400004F029D0000EF66E020EF76E73EC04F075
:1014500022D00E0EF66E020EF76E73EC04F01BD067
:101460001E0EF66E020EF76E73EC04F014D0300E02
:10147000F66E020EF76E73EC04F00DD0400EF66EB1
:10148000020EF76E73EC04F006D0520EF66E020EEA
:10149000F76E73EC04F00D0E9EA8FED7AD6E0A0E2B
:1014A0009EA8FED7AD6EF40EC06FC00EF212EE6BAA
:1014B000EE511D0804E384EC04F0EE2BF9D7928A78
:1014C000EF6B80AAEF2B9288F06B80A8F02B9D86A3
:1014D0000400BFA501D0B6D59EAA13D20DD620EC2C
:1014E00002F001C0F1F05C0EF66E020EF76E140E03
:1014F000F46F63EC04F0F1C0F2F01B0EF36F1CDE2E
:101500000D0E9EA8FED7AD6E0A0E9EA8FED7AD6E3C
:10151000F46BD3EC04F002C0F2F001C0F1F0760EEF
:10152000F66E020EF76E0D0EF46F63EC04F0100E03
:10153000E96EF2C0F4F0F1C0F3F034DE0D0E9EA8B7
:10154000FED7AD6E0A0E9EA8FED7AD6E010EF46FEB
:10155000D3EC04F002C0F2F001C0F1F08A0EF66E96
:10156000020EF76E0D0EF46F63EC04F0100EE96ED0
:10157000F2C0F4F0F1C0F3F015DE0D0E9EA8FED718
:10158000AD6E0A0E9EA8FED7AD6E020EF46FD3ECC0
:1015900004F002C0F2F001C0F1F09E0EF66E020EF1
:1015A000F76E0D0EF46F63EC04F0100EE96EF2C0EE
:1015B000F4F0F1C0F3F0F6DD0D0E9EA8FED7AD6E8F
:1015C0000A0E9EA8FED7AD6EEE6BEE510108D8A0B4
:1015D00098D10400B20EF66E020EF76E0A0EF46F8A
:1015E00063EC04F0EEC0F2F01B0EF36FA5DDBE0E4F
:1015F000F66E020EF76E030EF46F63EC04F0EE511C
:101600000F0DF350F26BF16FC40EF125E96E000E71
:10161000F221EA6EEFCFF3F0C20EF66E020EF76E15
:10162000210EF46F63EC04F0F3C0F4F0570EF56F85
:101630000FD60D0E9EA8FED7AD6E0A0E9EA8FED741
:10164000AD6EEE510F0DF350F26BF16F010EF125FF
:10165000016E000EF221036E0150C40FE96E000E00
:101660000320EA6EECCFF2F0ED52EFCFF1F0EA0E8C
:10167000F66E020EF76E1F0EF46F63EC04F0100EA0
:10168000E96EF2C0F4F0F1C0F3F08CDD0D0E9EA80F
:10169000FED7AD6E0A0E9EA8FED7AD6EEE510F0DB1
:1016A000F350F26BF16F030EF125016E000EF22183
:1016B000036E0150C40FE96E000E0320EA6EECCFFA
:1016C000F2F0ED52EFCFF1F0100EF66E030EF76E62
:1016D0001F0EF46F63EC04F0100EE96EF2C0F4F02C
:1016E000F1C0F3F05FDD0D0E9EA8FED7AD6E0A0EC1
:1016F0009EA8FED7AD6EEE510F0DF350F26BF16F59
:10170000050EF125016E000EF221036E0150C40F8B
:10171000E96E000E0320EA6EECCFF2F0ED52EFCF4F
:10172000F1F0360EF66E030EF76E1F0EF46F63ECDB
:1017300004F0100EE96EF2C0F4F0F1C0F3F032DD07
:101740000D0E9EA8FED7AD6E0A0E9EA8FED7AD6EFA
:10175000EE510F0DF350F26BF16F070EF125016E94
:10176000000EF221036E0150C40FE96E000E03203B
:10177000EA6EECCFF2F0ED52EFCFF1F05C0EF66EC8
:10178000030EF76E1F0EF46F63EC04F0100EE96E9B
:10179000F2C0F4F0F1C0F3F005DD0D0E9EA8FED707
:1017A000AD6E0A0E9EA8FED7AD6EEE510F0DF35032
:1017B000F26BF16F090EF125016E000EF221036E3E
:1017C0000150C40FE96E000E0320EA6EECCFF2F078
:1017D000ED52EFCFF1F0820EF66E030EF76E1F0E94
:1017E000F46F63EC04F0100EE96EF2C0F4F0F1C097
:1017F000F3F0D8DC0D0E9EA8FED7AD6E0A0E9EA8A3
:10180000FED7AD6EEE510F0DF350F26BF16F0B0E74
:10181000F125016E000EF221036E0150C40FE96E36
:10182000000E0320EA6EEFCFF1F0A80EF66E030E65
:10183000F76E1F0EF46F63EC04F0F1C0F2F01B0EB4
:10184000F36F7ADC0D0E9EA8FED7AD6E0A0E9EA831
:10185000FED7AD6EEE510F0DF350F26BF16F0C0E23
:10186000F125016E000EF221036E0150C40FE96EE6
:10187000000E0320EA6EECCFF2F0ED52EFCFF1F064
:10188000CC0EF66E030EF76E1F0EF46F63EC04F0D1
:10189000100EE96EF2C0F4F0F1C0F3F083DC0D0E2F
:1018A0009EA8FED7AD6E0A0E9EA8FED7AD6EEE5175
:1018B0000F0DF350F26BF16F0E0EF125016E000E5D
:1018C000F221036E0150C40FE96E000E0320EA6E90
:1018D000EFCFF1F0F20EF66E030EF76E1F0EF46FFF
:1018E00063EC04F0F1C0F2F01B0EF36F25DC0D0E7B
:1018F0009EA8FED7AD6E0A0E9EA8FED7AD6EEE2B4B
:1019000064D6928A000E80BA010EEF5D0CE0928AD6
:10191000EF6B80BAEF2BEF5304E0F40EC06FBAD434
:1019200002D0C06BC3D49288000E80B8010EF05D67
:101930000CE09288F06B80B8F02BF05304E0F40ECA
:10194000C16FC0D402D0C16BC9D4BFA103D0BF91B5
:1019500084EC04F0BFA703D0BF977CEC03F0BFA9D1
:0C19600003D0BF99A0EC03F0B3D5FFD773
:0200000400F00A
:0400000000004000BC
:020000040030CA
:0E0000000028190E0000090003C003E00340B1
:00000001FF
;PIC18F14K22
;CRC=14B0  CREATED="14-Jan-22 16:42"
