:1000000054EF09F0B7EF00F0046ED8CF05F0E0CF61
:1000100006F00001E9CF0CF0EACF07F0E1CF08F0DD
:10002000E2CF09F0D9CF0AF0DACF0BF0F3CF12F01C
:10003000F4CF13F0FACF14F0F5CF15F0F6CF16F099
:10004000F7CF17F000C00EF001C00FF002C010F0A3
:1000500003C011F09DA230EF00F09EB26AEF00F0F5
:100060009DA636EF00F09EB681EF00F00EC000F0C6
:100070000FC001F010C002F011C003F00CC0E9FF86
:1000800007C0EAFF078E08C0E1FF09C0E2FF0AC00F
:10009000D9FF0BC0DAFF12C0F3FF13C0F4FF14C086
:1000A000FAFF15C0F5FF16C0F6FF17C0F7FF0450A2
:1000B00006C0E0FF05C0D8FF1000F76ACA0FF66E51
:1000C000000EF7220900F550120031342D4A616EFE
:1000D0002D323200A7859E9236EF00F0640EA86F95
:1000E000FF51FFC001F0026AC1EF00F0C950FFC02C
:1000F000C9FFC6889E96C7B0FED7016AC5AC012A63
:100100001200C7BA03D0CE6BC7B4CE8FCE51CE2B60
:10011000FD6FFD5180082BE3FD51800803E1C9CF3D
:10012000FCF006D0C69CC7A0FED7C950C688FC6F9D
:10013000FD2D03D0FCC0CAF01AD0FD51010817E212
:10014000FD51800814E0FD51020803E1FCC0CDF030
:100150000ED0FD5103080BE1CDC0FFF0FCC0FEF056
:10016000CAC000F1CDC002F1FCC001F14BD7FD5176
:100170007F0817E2CAB10FD0D890CA31FE6FFF6F67
:10018000ADD702C0CCF001C0CBF0CCC0FEF0CCC0EB
:10019000FFF0ACDF05D0CBC0FEF0CBC0FFF0A6DF98
:1001A000CA2B9E9636EF00F0232064637377635F5B
:1001B0006D6F64756C655F6C61746368696E675FB1
:1001C000636F6E746163746F722025730D0A232050
:1001D000000031342D4A616E2D32320057445420D4
:1001E00054494D454F5554004D434C522046524FB3
:1001F0004D20534C454550004D434C522046524FE4
:100200004D2052554E004E4F524D414C20504F57AD
:1002100045522055500042524F574E4F5554205290
:1002200045535441525400005744542046524F4DB8
:1002300020534C4545500000524553455420494EEB
:10024000535452554354494F4E00554E4B4E4F5701
:100250004E2100002320726561645F6469705F73E2
:10026000776974636828293D25750D0A00002320ED
:1002700020202076696E206164633D256C750D0A2F
:1002800000002320202074656D70206164633D258B
:100290006C750D0A0000232064697020737720615B
:1002A00064633D256C750D0A000023206368616E50
:1002B0006E656C5B25755D0D0A00232020202020D3
:1002C000202020202020202020202020202020202E
:1002D00020202073746174653D3078253032780DAC
:1002E0000A00232020202020202020202020636FAF
:1002F0006D6D616E645F6F6E5F7365636F6E647367
:100300003D256C750D0A000023202020202020634D
:100310006F6D6D616E645F6F6E5F686F6C645F734D
:1003200065636F6E64733D256C750D0A00002320B4
:10033000202020202020202020636F6D6D616E64BE
:100340005F6F66665F7365636F6E64733D256C7582
:100350000D0A0000232020202020636F6D6D616E48
:10036000645F6F66665F686F6C645F7365636F6E12
:1003700064733D256C750D0A000023206C76645F64
:10038000646973636F6E6E6563745F64656C6179D5
:100390005F7365636F6E64733D256C750D0A0000B5
:1003A0002320206C76645F7265636F6E6E65637484
:1003B0005F64656C61795F7365636F6E64733D251F
:1003C000750D0A0023206876645F646973636F6E3D
:1003D0006E6563745F64656C61795F7365636F6E8E
:1003E00064733D256C750D0A000023202068766437
:1003F0005F7265636F6E6E6563745F64656C61796F
:100400005F7365636F6E64733D25750D0A00EA6A5C
:10041000FB0EE96EEF500EE0050E016E006A002E35
:10042000FED7012EFBD72E0E006E002EFED700D079
:10043000EF2EF2D71200240E016EC250C30B011032
:10044000C26E010EFB6FE3DFC282C2B2FED7C4CF21
:10045000FAF0C3CFF9F0FA51020808E2FF0A03E10B
:10046000F951BF0803E2000E016E18D0FA510108DD
:1004700008E2FF0A03E1F9516A0803E2020E016E85
:100480000DD0FA51000808E2FF0A03E1F951BF0854
:1004900003E2010E016E02D0030E016E1200700E17
:1004A000D36E9B9C9B9EC050C00B0509C06EC08E36
:1004B000C280140E7E6EC190C192C194C196020E8C
:1004C0007F6ED1803F0E926E700E936E810E946E91
:1004D000300E776EF19E786AB269B169C169C06900
:1004E000AE69AD69BD69BC69EA6AD90EE96E000EF4
:1004F000E4DD0A000900F550EE6E0009FBE1300E64
:10050000D95D0A0DF3CFA5F0300EDA5DA527DC51D9
:100510004A080FE1DD51410803E1010EA46F08D044
:10052000DE514E0803E1060EA46F02D0070EA46F41
:1005300037D0DC51410809E1DD51500803E1040ED8
:10054000A46F02D0080EA46F2BD0DC514D0809E136
:10055000DE51520803E1030EA46F02D0050EA46F12
:100560001FD0DC51460803E1020EA46F19D0DC5104
:10057000530803E1090EA46F13D0DC514F0803E1C7
:100580000A0EA46F0DD0DC514E0803E10B0EA46FD0
:1005900007D0DC51440803E10C0EA46F01D0A4691C
:1005A000300EE05D0A0DF3CFA3F0300EE15DA3271E
:1005B000000E0609CA6EF90ECB6E9D823CDFD89004
:1005C00001343E0FC86EA0EF09F0E26BE1C0E4F029
:1005D000E051D8B4E107E007E36FE35302E1E453ED
:1005E00030E0DFC003F0DE51E96E03C0EAFFDD5109
:1005F000036EDC51DC2BD8B4DD2BE56F03C0E6F0D5
:10060000F2CFE7F0F29EE5C0A9FFA69CA69EA680C9
:10061000A850E7BFF28EEF6EDFC003F0DE51E96E47
:1006200003C0EAFFEFCFE3F0E2C0E6F0E3C0E7F09B
:10063000E651E719016E01C0E2F0DE2BD8B4DF2BE2
:10064000C5D7E2C001F043EF04F0E46BE3C0E6F08D
:10065000E251D8B4E307E207E56FE55302E1E65360
:100660003CE0E1C003F0E051E96E03C0EAFFEFCFE8
:10067000E5F0E4C0E6F0E5C0E7F0E651E719016E09
:1006800001C0E4F0DF51036EDE51DE2BD8B4DF2B66
:10069000E56F03C0E6F0E151036EE051E02BD8B402
:1006A000E12BE96E03C0EAFFEFCFE7F0F250006EF6
:1006B000F29EE5C0A9FFE7C0A8FFA69CA69EA6845F
:1006C0000F01550EA76EAA0EA76EA682A6B2FED780
:1006D000A6940050F2120001B9D7E4C001F07DEFFA
:1006E00003F01A0EDC6FDF6B020EDE6FE16BDCC015
:1006F000E0F0E36B210EE26FA8D701C0DBF0F2500F
:10070000006EF29EA96ADBC0A8FFA69CA69EA684E6
:100710000F01550EA76EAA0EA76EA682A6B2FED72F
:10072000A6940050F21200011200010EA66F960E60
:10073000A86FA96F1B6A140E1A6E1D6A050E1C6E37
:100740001E6E206A020E1F6EDA6BDA510108D8A005
:100750008CD0DA510C0DF350036A230FE96E000EB2
:100760000320EA6EEC6AED52BE0EEF6EDA510C0D0C
:10077000F350036A090FDB6F000E0320DC6F020EDB
:10078000DB25016E000EDC21036E01501A0FE96EAD
:10079000000E0320EA6EEC68ED52EF68DA510C0DA2
:1007A000F350036A090FDB6F000E0320DC6F040EA9
:1007B000DB25016E000EDC21036E01501A0FE96E7D
:1007C000000E0320EA6EEC6AED52C80EEF6EDA51AD
:1007D0000C0DF350036A090FDB6F000E0320DC6F72
:1007E000060EDB25016E000EDC21036E01501A0F90
:1007F000E96E000E0320EA6E030EEC6EED52E80E79
:10080000EF6EDA510C0DF350036A090FDB6F000E27
:100810000320DC6F080EDB25016E000EDC21036E69
:1008200001501A0FE96E000E0320EA6EEC68ED52DB
:10083000EF68DA510C0DF350036A090FDB6F000EFD
:100840000320DC6F0A0EDB25016E000EDC21036E37
:1008500001501A0FE96E000E0320EA6E030EEC6ED3
:10086000ED52840EEF6EDA2B70D73BDF12001A0EBA
:10087000DA6FDD6B020EDC6FDF6BDAC0DEF0E16B8E
:10088000210EE06FA2D601C0D9F0F2CFDAF0F29ECD
:10089000A96AA69CA69EA680A850DABFF28ED95D52
:1008A00001E043DFA2EF09F00900F6CFDDF0F7CF5A
:1008B000DEF0F5509EA8FED7AD6EDDC0F6FFDEC0BF
:1008C000F7FFDC2FF1D712000900F5520DE0F6CF4B
:1008D000D9F0F7CFDAF0F5509EA8FED7AD6ED9C0AB
:1008E000F6FFDAC0F7FFF0D712009B2B9B510F08E1
:1008F00001E29B6B100E016EC250C30B0110C26E61
:10090000D8909B35036A3B0FE96E000E0320EA6E18
:10091000C282C2B2FED7C3CFEFFFC4CFECFF080E36
:10092000016EC250C30B0110C26E010EFB6F6FDD72
:10093000D8909B35036A5B0FE96E000E0320EA6EC8
:10094000C282C2B2FED7C3CFEFFFC4CFECFF240EEA
:10095000016EC250C30B0110C26E010EFB6F57DD5A
:10096000D8909B35036A7B0FE96E000E0320EA6E78
:10097000C282C2B2FED7C3CFEFFFC4CFECFF1200DA
:10098000DC51200DF350036A3B0F016E000E032271
:1009900001C0E0F003C0E1F0DE6BDD6BDF6BDF5127
:1009A0000F0815E3036ADFC002F0D8900236033661
:1009B0000250E025E96EE1510320EA6EECCF03F02E
:1009C000ED52EF50DD270350DE23DF2BE8D7080E72
:1009D000DD25E26F000EDE21E36FE331036EE231CD
:1009E000026E0332023203320232033202320F0E3F
:1009F000031602C001F003C002F01200D9510F0D1E
:100A0000F350DD6BDC6F050EDC25016E000EDD2181
:100A1000036E0150AC0FE96E000E0320EA6EECCFBE
:100A200003F0ED52EF50FF0803E1033C01D0B6D0D4
:100A3000D9510F0DF350DD6BDC6F050EDC25016E17
:100A4000000EDD21036E0150AC0FE96E000E032095
:100A5000EA6EECCFDDF0ED52EFCFDCF0DC5302E1DB
:100A6000DD5317E0D9510F0DF350DD6BDC6F050E30
:100A7000DC25016E000EDD21036E0150AC0FE96E26
:100A8000000E0320EA6EFF0EEF2602E2EE52ED06A4
:100A900085D0D9510F0DF350DD6BDC6FAC0EDC252A
:100AA000E96E000EDD21EA6EEFCFDEF0DEB525D077
:100AB000D9510F0DF350DD6BDC6FAC0EDC25016EF0
:100AC000000EDD2101C0E9FFEA6EEF84D9510F0D60
:100AD000F350DD6BDC6F070EDC25016E000EDD21AF
:100AE000036E0150AC0FE96E000E0320EA6E20C0C9
:100AF000ECFFED521FC0EFFF51D0D9510F0DF35055
:100B0000DD6BDC6F070EDC25016E000EDD21036E50
:100B10000150AC0FE96E000E0320EA6EECCF03F03B
:100B2000ED52EF5025E1035223E1D9510F0DF3505F
:100B3000DD6BDC6FAC0EDC25016E000EDD2101C02B
:100B4000E9FFEA6EEF94D9510F0DF350DD6BDC6FC6
:100B5000050EDC25016E000EDD21036E0150AC0F89
:100B6000E96E000E0320EA6EEC68ED52EF6816D0D5
:100B7000D9510F0DF350DD6BDC6F070EDC25016ED4
:100B8000000EDD21036E0150AC0FE96E000E032054
:100B9000EA6EFF0EEF2602E2EE52ED06D9510C0D81
:100BA000F350036A090FDC6F000E0320DD6F020EA5
:100BB000DC25016E000EDD21036E01501A0FE96E77
:100BC000000E0320EA6EECCF03F0ED52EF50FF0869
:100BD00003E1033C01D0FBD0DC6BD2DE02C0DBF0D2
:100BE00001C0DAF0D9510C0DF350036A090FDC6F24
:100BF000000E0320DD6F040EDC25016E000EDD21EA
:100C0000036E01501A0FE96E000E0320EA6EECCF5E
:100C100003F0ED52EFCF01F00350DB5D39E303E168
:100C2000DA51015C35E2D9510F0DF350DD6BDC6F09
:100C30000B0EDC25016E000EDD21036E0150AC0FA2
:100C4000E96E000E0320EA6EEF5213E0D9510F0D4A
:100C5000F350DD6BDC6F0B0EDC25016E000EDD2129
:100C6000036E0150AC0FE96E000E0320EA6EEF0632
:100C70000ED0D9510F0DF350DD6BDC6FAC0EDC25BF
:100C8000016E000EDD2101C0E9FFEA6EEF9613D080
:100C9000D9510F0DF350DD6BDC6F0B0EDC25016EAF
:100CA000000EDD21036E0150AC0FE96E000E032033
:100CB000EA6E1EC0EFFFD9510C0DF350036A230FEB
:100CC000E96E000E0320EA6EECCF03F0ED52EFCF99
:100CD00001F0DB51035C44E303E10150DA5D40E2E3
:100CE000D9510F0DF350DD6BDC6F090EDC25016E61
:100CF000000EDD21036E0150AC0FE96E000E0320E3
:100D0000EA6EECCFDDF0ED52EFCFDCF0DC5302E128
:100D1000DD5317E0D9510F0DF350DD6BDC6F090E79
:100D2000DC25016E000EDD21036E0150AC0FE96E73
:100D3000000E0320EA6EFF0EEF2602E2EE52ED06F1
:100D40000ED0D9510F0DF350DD6BDC6FAC0EDC25EE
:100D5000016E000EDD2101C0E9FFEA6EEF8637D09B
:100D6000D9510F0DF350DD6BDC6F090EDC25016EE0
:100D7000000EDD21036E0150AC0F016E000E032248
:100D800001C0DCF003C0DDF0D9510C0DF350036A53
:100D9000090FDE6F000E0320DF6F020EDE25016EED
:100DA000000EDF21036E01501A0FE96E000E0320C2
:100DB000EA6EECCF03F0ED52EFCFDEF0DDC0EAFFDC
:100DC000DCC0E9FF03C0ECFFED52DEC0EFFFD951FC
:100DD0000C0DF350036A090FDC6F000E0320DD6F6A
:100DE000080EDC25016E000EDD21036E01501A0F86
:100DF000E96E000E0320EA6EECCF03F0ED52EF50E7
:100E0000FF0803E1033C01D007D1DC6BB9DD02C070
:100E1000DBF001C0DAF0D9510C0DF350036A090F71
:100E2000DC6F000E0320DD6F0A0EDC25016E000E64
:100E3000DD21036E01501A0FE96E000E0320EA6EE9
:100E4000ECCF03F0ED52EFCF01F0DB51035C39E35F
:100E500003E10150DA5D35E2D9510F0DF350DD6B3E
:100E6000DC6F0E0EDC25016E000EDD21036E0150DD
:100E7000AC0FE96E000E0320EA6EEF5213E0D95179
:100E80000F0DF350DD6BDC6F0E0EDC25016E000ED6
:100E9000DD21036E0150AC0FE96E000E0320EA6EF7
:100EA000EF060ED0D9510F0DF350DD6BDC6FAC0E99
:100EB000DC25016E000EDD2101C0E9FFEA6EEF982E
:100EC00013D0D9510F0DF350DD6BDC6F0E0EDC2506
:100ED000016E000EDD21036E0150AC0FE96E000EB5
:100EE0000320EA6E1EC0EFFFD9510C0DF350036AC8
:100EF000090FDC6F000E0320DD6F060EDC25016E8E
:100F0000000EDD21036E01501A0FE96E000E032062
:100F1000EA6EECCF03F0ED52EFCF01F00350DB5D52
:100F200044E303E1DA51015C40E2D9510F0DF35083
:100F3000DD6BDC6F0C0EDC25016E000EDD21036E17
:100F40000150AC0FE96E000E0320EA6EECCFDDF02D
:100F5000ED52EFCFDCF0DC5302E1DD5317E0D95165
:100F60000F0DF350DD6BDC6F0C0EDC25016E000EF7
:100F7000DD21036E0150AC0FE96E000E0320EA6E16
:100F8000FF0EEF2602E2EE52ED060ED0D9510F0D04
:100F9000F350DD6BDC6FAC0EDC25016E000EDD2145
:100FA00001C0E9FFEA6EEF8837D0D9510F0DF35039
:100FB000DD6BDC6F0C0EDC25016E000EDD21036E97
:100FC0000150AC0F016E000E032201C0DCF003C023
:100FD000DDF0D9510C0DF350036A090FDE6F000EDE
:100FE0000320DF6F080EDE25016E000EDF21036E89
:100FF00001501A0FE96E000E0320EA6EECCF03F0E9
:10100000ED52EFCFDEF0DDC0EAFFDCC0E9FF03C048
:10101000ECFFED52DEC0EFFF1200A795A85303E1ED
:1010200094928B9203D094928B82A807A95303E1E8
:1010300094948B9403D094948B84A907A03D03D0FF
:10104000A13D01D003D0A02BD8B4A12BAA5305E118
:1010500094968B9694988B9801D0AA07AB5305E190
:10106000949A8B9A949C8B9C01D0AB07D22BD8B4CA
:10107000D32BD251E80817E1D351030814E1D36B05
:10108000D26BD96BBBDC010ED96FB8DCCF2BCF5143
:101090003C0809E1CF6B9E3D03D09F3D01D003D0BA
:1010A0009E2BD8B49F2BA7A303D0A793D16BD06B53
:1010B000D02BD8B4D12B1A50D05D06E11B50D15D96
:1010C00003E1D16BD06BA78142EF0AF09EAAFED755
:1010D000ABCF19F0AECF01F019A202D0AB98AB881C
:1010E00045EF0AF0DD51016ADC5D03E2DCC000F08F
:1010F0000CD0006A080EDE6FDC370036DD51005C74
:10110000D8B0006E0136DE2FF7D712000150DAC0DA
:10111000DCF0640EDD6FE6DF00C0DAF00150300E67
:1011200007E1DBA30DD0DBB70BD0DBB9200E03D07A
:10113000DB97DB99DB81012601509EA8FED7AD6EBF
:10114000DAC0DCF00A0EDD6FCDDF00C0DAF001504E
:10115000300E06E1DBB709D0DBA107D0DBB9200EEA
:10116000012601509EA8FED7AD6E300EDA27DA5167
:101170009EA8FED7AD6E1200EACFE3F0E9CFE2F011
:10118000DC39F009DE6FDE27E20FDF6F320FE16F2F
:10119000DC510F0BDF27DF27E127E90FE06FE027A6
:1011A000E027DB390F0BE027E127E037E137E11FCC
:1011B000E137DB510F0BE127DE37070EDD6F0A0E3B
:1011C000E007E127FDE3DF07E027FDE3DE07DF2798
:1011D000FDE3DD07DE27FDE3EA6ADD0EE96E070EBB
:1011E000E215E29DE926000EEA22E950E10803E15A
:1011F000EA5201E1E28DEF50006E08E1E2BD06D057
:10120000E2B90CD0E2B702D0200E03D0E287E29917
:10121000300E002600509EA8FED7AD6EEE50E2AD17
:10122000E4D71200DDBF10D00F0E006EDC390016BF
:101230000A0E005C03E2300E002602D0DD510026CB
:1012400000509EA8FED7AD6E0F0EDC170A0EDC5DB7
:1012500002E2300E02D0DD9FDD51DC27DC519EA87A
:10126000FED7AD6EEFEF0AF0C80EAA6F94968B868C
:1012700094988B9866EF0CF0C80EAA6F94968B9694
:1012800094988B8869EF0CF0C80EAB6F949A8B8A98
:10129000949C8B9C78EF0CF0C80EAB6F949A8B9A51
:1012A000949C8B8C7BEF0CF0F86AD09E078E938C0D
:1012B0009388C86A360EC66EC580C58E196AB88610
:1012C000A00EAF6E010EB06EA60EAC6E900EAB6EA1
:1012D000030ECE6FD56BD46B000E7E6EC190C192A3
:1012E000C194C1967F6E6C6A6B6A6D6A08D0B0401B
:1012F0001A000300CB0000000540CF000000000EE4
:10130000F86E120EF76EEE0EF66E0900F550006ED6
:10131000000A13E00900F550016EE8BE05D03F0B4E
:10132000EA6E0900F5CFE9FF01BC090001AC090034
:10133000F5CFEEFF004EE9D7F9D7F86A4FEF02F08C
:1013400037EF04F01D5203E11C50640803E21D6AEC
:10135000640E1C6ED66B1D5203E11C50D65D0FE26D
:10136000040094928B82C80EFB6F07EC02F09492FB
:101370008B92C80EFB6F07EC02F0D62BECD7A80EB1
:10138000F66E010EF76E220EDC6F54EC04F0D20EF6
:10139000F66E010EF76E64EC04F0CC0EF66E010EE4
:1013A000F76E040EDC6F54EC04F0070E005C12E0E4
:1013B0000B0E005C16E00F0E005C1AE00C0E005CD9
:1013C0001EE00E0E005C22E0030E005C26E00052E0
:1013D0002BE031D0DC0EF66E010EF76E64EC04F0FB
:1013E00030D0E80EF66E010EF76E64EC04F029D0F2
:1013F000F80EF66E010EF76E64EC04F022D0060EC5
:10140000F66E020EF76E64EC04F01BD0160EF66E4C
:10141000020EF76E64EC04F014D0280EF66E020E85
:10142000F76E64EC04F00DD0380EF66E020EF76E17
:1014300064EC04F006D04A0EF66E020EF76E64EC11
:1014400004F00D0E9EA8FED7AD6E0A0E9EA8FED724
:10145000AD6EF40EA86FC00EF212D66BD6511D08F9
:1014600004E375EC04F0D62BF9D7928AD76B80AAE7
:10147000D72B9288D86B80A8D82B9D860400A7A56F
:1014800001D0CBD59EAA13D221D61BEC02F001C00D
:10149000D9F0540EF66E020EF76E140EDC6F54EC9B
:1014A00004F0D9C0DAF01B0EDB6F30DE0D0E9EA803
:1014B000FED7AD6E0A0E9EA8FED7AD6EDC6BC0ECFB
:1014C00004F002C0DAF001C0D9F06E0EF66E020E22
:1014D000F76E0D0EDC6F54EC04F0100EE96EDAC0FE
:1014E000DCF0D9C0DBF048DE0D0E9EA8FED7AD6E55
:1014F0000A0E9EA8FED7AD6E010EDC6FC0EC04F0A4
:1015000002C0DAF001C0D9F0820EF66E020EF76E5C
:101510000D0EDC6F54EC04F0100EE96EDAC0DCF056
:10152000D9C0DBF029DE0D0E9EA8FED7AD6E0A0EE7
:101530009EA8FED7AD6E020EDC6FC0EC04F002C0B8
:10154000DAF001C0D9F0960EF66E020EF76E0D0EAF
:10155000DC6F54EC04F0100EE96EDAC0DCF0D9C098
:10156000DBF00ADE0D0E9EA8FED7AD6E0A0E9EA819
:10157000FED7AD6ED66BD6510108D8A098D1040025
:10158000AA0EF66E020EF76E0A0EDC6F54EC04F033
:10159000D6C0DAF01B0EDB6FB9DDB60EF66E020EAA
:1015A000F76E030EDC6F54EC04F0D6510F0DF350C0
:1015B000DA6BD96FAC0ED925E96E000EDA21EA6E2E
:1015C000EFCFDBF0BA0EF66E020EF76E210EDC6F77
:1015D00054EC04F0DBC0DCF0570EDD6F23D60D0EAB
:1015E0009EA8FED7AD6E0A0E9EA8FED7AD6ED65150
:1015F0000F0DF350DA6BD96F010ED925016E000E75
:10160000DA21036E0150AC0FE96E000E0320EA6E82
:10161000ECCFDAF0ED52EFCFD9F0E20EF66E020E1B
:10162000F76E1F0EDC6F54EC04F0100EE96EDAC09A
:10163000DCF0D9C0DBF0A0DD0D0E9EA8FED7AD6EAC
:101640000A0E9EA8FED7AD6ED6510F0DF350DA6B81
:10165000D96F030ED925016E000EDA21036E0150F9
:10166000AC0FE96E000E0320EA6EECCFDAF0ED521B
:10167000EFCFD9F0080EF66E030EF76E1F0EDC6F7B
:1016800054EC04F0100EE96EDAC0DCF0D9C0DBF0E7
:1016900073DD0D0E9EA8FED7AD6E0A0E9EA8FED776
:1016A000AD6ED6510F0DF350DA6BD96F050ED925FB
:1016B000016E000EDA21036E0150AC0FE96E000ED0
:1016C0000320EA6EECCFDAF0ED52EFCFD9F02E0E18
:1016D000F66E030EF76E1F0EDC6F54EC04F0100E66
:1016E000E96EDAC0DCF0D9C0DBF046DD0D0E9EA855
:1016F000FED7AD6E0A0E9EA8FED7AD6ED6510F0D69
:10170000F350DA6BD96F070ED925016E000EDA217E
:10171000036E0150AC0FE96E000E0320EA6EECCFB1
:10172000DAF0ED52EFCFD9F0540EF66E030EF76EED
:101730001F0EDC6F54EC04F0100EE96EDAC0DCF022
:10174000D9C0DBF019DD0D0E9EA8FED7AD6E0A0ED6
:101750009EA8FED7AD6ED6510F0DF350DA6BD96F40
:10176000090ED925016E000EDA21036E0150AC0F6F
:10177000E96E000E0320EA6EECCFDAF0ED52EFCF07
:10178000D9F07A0EF66E030EF76E1F0EDC6F54EC76
:1017900004F0100EE96EDAC0DCF0D9C0DBF0ECDC4E
:1017A0000D0E9EA8FED7AD6E0A0E9EA8FED7AD6E9A
:1017B000D6510F0DF350DA6BD96F0B0ED925016E90
:1017C000000EDA21036E0150AC0FE96E000E03200B
:1017D000EA6EEFCFD9F0A00EF66E030EF76E1F0E75
:1017E000DC6F54EC04F0D9C0DAF01B0EDB6F8EDC3A
:1017F0000D0E9EA8FED7AD6E0A0E9EA8FED7AD6E4A
:10180000D6510F0DF350DA6BD96F0C0ED925016E3E
:10181000000EDA21036E0150AC0FE96E000E0320BA
:10182000EA6EECCFDAF0ED52EFCFD9F0C40EF66EDF
:10183000030EF76E1F0EDC6F54EC04F0100EE96E11
:10184000DAC0DCF0D9C0DBF097DC0D0E9EA8FED725
:10185000AD6E0A0E9EA8FED7AD6ED6510F0DF35099
:10186000DA6BD96F0E0ED925016E000EDA21036EE8
:101870000150AC0FE96E000E0320EA6EEFCFD9F0F5
:10188000EA0EF66E030EF76E1F0EDC6F54EC04F0DA
:10189000D9C0DAF01B0EDB6F39DC0D0E9EA8FED727
:1018A000AD6E0A0E9EA8FED7AD6ED62B64D6928A78
:1018B000000E80BA010ED75D0CE0928AD76B80BA19
:1018C000D72BD75304E0F40EA86FCED402D0A86B68
:1018D000D3D49288000E80B8010ED85D0CE09288B7
:1018E000D86B80B8D82BD85304E0F40EA96FCCD4B1
:1018F00002D0A96BD1D4A7A103D0A79175EC04F0B5
:10190000A7A703D0A79771EC03F0A7A903D0A799C5
:0819100095EC03F0B3D5FFD7FD
:0200000400F00A
:0400000000004000BC
:020000040030CA
:0E0000000028190E0000090003C003E00340B1
:00000001FF
;PIC18F14K22
;CRC=2433  CREATED="14-Jan-22 15:57"
