:0400000078EF1CF089
:08000800046ED8CF05F0E0CF33
:1000100006F00001E9CF0CF0EACF07F0E1CF08F0DD
:10002000E2CF09F0D9CF0AF0DACF0BF0F3CF12F01C
:10003000F4CF13F0FACF14F0F5CF15F0F6CF16F099
:10004000F7CF17F000C00EF001C00FF002C010F0A3
:1000500003C011F09DA230EF00F09EB26AEF00F0F5
:100060009DA636EF00F09EB649EF07F00EC000F0F7
:100070000FC001F010C002F011C003F00CC0E9FF86
:1000800007C0EAFF078E08C0E1FF09C0E2FF0AC00F
:10009000D9FF0BC0DAFF12C0F3FF13C0F4FF14C086
:1000A000FAFF15C0F5FF16C0F6FF17C0F7FF0450A2
:1000B00006C0E0FF05C0D8FF1000F76ACA0FF66E51
:1000C000000EF7220900F5501200352D4665622D0D
:1000D00032320000CF859E9236EF00F001012B51A5
:1000E000100808E22B511E0805E3010E2E6F0E0EBC
:1000F0002B5F0CD02B51110808E22B516B0805E344
:10010000010E2E6F0E0E2B5F01D02E6B2B51030AAA
:1001100000013BE0070A51E0010A67E0030AD8B496
:100120007CD0440AD8B491D0010AD8B4A6D0070A2A
:10013000D8B4BBD0010AD8B4D0D0030AD8B4E5D023
:10014000010AD8B4FAD00F0AD8B40FD1010AD8B432
:1001500024D1030AD8B439D1010AD8B44ED1070A40
:10016000D8B463D1010AD8B478D1030AD8B48DD1F8
:10017000010AD8B4A2D11F0AD8B4B7D1010AD8B4A1
:10018000CCD1D60AD8B4E1D103D201012E51190D38
:10019000F350306B2F6F010E2F25016E000E3021B2
:1001A000036E0150D60FE96E000E0320EA6E2DC1DA
:1001B000ECFFED522CC1EFFF000101012E51190D92
:1001C000F350306B2F6F030E2F25016E000E302180
:1001D000036E0150D60FE96E000E0320EA6E2DC1AA
:1001E000ECFFED522CC1EFFF000101012E51190D62
:1001F000F350306B2F6F050E2F25016E000E30214E
:10020000036E0150D60FE96E000E0320EA6E2DC179
:10021000ECFFED522CC1EFFF000101012E51190D31
:10022000F350306B2F6F070E2F25016E000E30211B
:10023000036E0150D60FE96E000E0320EA6E2DC149
:10024000ECFFED522CC1EFFF000101012E51240DF6
:10025000F350306B2F6F040E2F25016E000E3021EE
:10026000036E01501B0FE96E000E0320EA6E2DC1D4
:10027000ECFFED522CC1EFFF000101012E51240DC6
:10028000F350306B2F6F060E2F25016E000E3021BC
:10029000036E01501B0FE96E000E0320EA6E2DC1A4
:1002A000ECFFED522CC1EFFF000101012E51240D96
:1002B000F350306B2F6F080E2F25016E000E30218A
:1002C000036E01501B0FE96E000E0320EA6E2DC174
:1002D000ECFFED522CC1EFFF000101012E51240D66
:1002E000F350306B2F6F0A0E2F25016E000E302158
:1002F000036E01501B0FE96E000E0320EA6E2DC144
:10030000ECFFED522CC1EFFF000101012E51240D35
:10031000F350306B2F6F0C0E2F25016E000E302125
:10032000036E01501B0FE96E000E0320EA6E2DC113
:10033000ECFFED522CC1EFFF000101012E51240D05
:10034000F350306B2F6F0E0E2F25016E000E3021F3
:10035000036E01501B0FE96E000E0320EA6E2DC1E3
:10036000ECFFED522CC1EFFF000101012E51240DD5
:10037000F350306B2F6F100E2F25016E000E3021C1
:10038000036E01501B0FE96E000E0320EA6E2DC1B3
:10039000ECFFED522CC1EFFF000101012E51240DA5
:1003A000F350306B2F6F120E2F25016E000E30218F
:1003B000036E01501B0FE96E000E0320EA6E2DC183
:1003C000ECFFED522CC1EFFF000101012E51240D75
:1003D000F350306B2F6F140E2F25016E000E30215D
:1003E000036E01501B0FE96E000E0320EA6E2DC153
:1003F000ECFFED522CC1EFFF000101012E51240D45
:10040000F350306B2F6F160E2F25016E000E30212A
:10041000036E01501B0FE96E000E0320EA6E2DC122
:10042000ECFFED522CC1EFFF000101012E51240D14
:10043000F350306B2F6F180E2F25016E000E3021F8
:10044000036E01501B0FE96E000E0320EA6E2DC1F2
:10045000ECFFED522CC1EFFF000101012E51240DE4
:10046000F350306B2F6F1A0E2F25016E000E3021C6
:10047000036E01501B0FE96E000E0320EA6E2DC1C2
:10048000ECFFED522CC1EFFF000101012E51240DB4
:10049000F350306B2F6F1C0E2F25016E000E302194
:1004A000036E01501B0FE96E000E0320EA6E2DC192
:1004B000ECFFED522CC1EFFF000101012E51240D84
:1004C000F350306B2F6F1E0E2F25016E000E302162
:1004D000036E01501B0FE96E000E0320EA6E2DC162
:1004E000ECFFED522CC1EFFF000101012E51240D54
:1004F000F350306B2F6F200E2F25016E000E302130
:10050000036E01501B0FE96E000E0320EA6E2DC131
:10051000ECFFED522CC1EFFF000101012E51240D23
:10052000F350306B2F6F220E2F25016E000E3021FD
:10053000036E01501B0FE96E000E0320EA6E2DC101
:10054000ECFFED522CC1EFFF000101012C2D06D074
:100550002D5304E10001CF871BD001012C5102086B
:1005600006E12D5304E10001CF8912D001012C5185
:100570000A0808E12D51070805E1010E0001CA6FC4
:1005800007D001012C3D03D02D3D01D0FF0000011B
:100590008EEF07F001012B51200DF350036A630F1A
:1005A000016E000E032201C02FF103C030F12D6B4C
:1005B0002C6B2E6B2E510F0815E3036A2EC102F02F
:1005C000D8900236033602502F25E96E30510320B1
:1005D000EA6EECCF03F0ED52EF502C2703502D23A1
:1005E0002E2BE8D7080E2C25316F000E2D21326FEF
:1005F0003231036E3131026E033202320332023283
:10060000033202320F0E031602C001F003C002F0E3
:100610000001120001012951100808E229511E08A9
:1006200005E3010E2A6F0E0E295F0CD02951110827
:1006300008E229516B0805E3010E2A6F0E0E295FAF
:1006400001D02A6B640E0001D06F01012951000A0C
:100650000001D8B497D0010AD8B49AD0030AD8B40C
:100660009ED0010AD8B4A2D0070AD8B4BAD0010AE1
:10067000D8B4D2D0030AD8B4EAD0010AD8B402D18F
:100680000F0AD8B41AD1010AD8B432D1030AD8B4A7
:100690004AD1010AD8B462D1070AD8B47AD1010A82
:1006A000D8B492D1030AD8B4AAD1010AD8B4C2D11D
:1006B0001F0AD8B4BFD10F0AD8B4C0D13F0AD8B4EA
:1006C000C2D1010AD8B4C4D1030AD8B4C6D1620ACF
:1006D000D8B4C7D1010AD8B4D9D1030AD8B4F1D15A
:1006E000010AD8B409D2070AD8B421D2010AD8B471
:1006F00039D2030AD8B451D2010AD8B469D20F0A48
:10070000D8B481D2010AD8B499D2030AD8B4B1D2EC
:10071000010AD8B4C9D2070AD8B4E1D2010AD8B4C0
:10072000F9D2030AD8B411D3010AD8B429D31F0AC5
:10073000D8B441D3010AD8B459D3030AD8B471D379
:10074000010AD8B46ED3070AD8B46BD3010AD8B45F
:1007500068D3D50AD8B469D3010AD8B46BD3030AD5
:10076000D8B46DD3010AD8B46FD3070AD8B471D303
:10077000010AD8B472D3030AD8B473D3010AD8B427
:1007800074D377D301012B6B000104DF025074D3C3
:10079000D6C003F0EFC001F0D6C002F06DD3010E59
:1007A00001012B6F0001F6DE025066D301012A51D0
:1007B000190DF3502C6B2B6F010E2B25016E000EC3
:1007C0002C21036E0150D60FE96E000E0320EA6E55
:1007D000ECCF03F0ED52EFCF01F003C002F00001C7
:1007E0004BD301012A51190DF3502C6B2B6F030EC3
:1007F0002B25016E000E2C21036E0150D60FE96EE1
:10080000000E0320EA6EECCF03F0ED52EFCF01F0C3
:1008100003C002F0000130D301012A51190DF35039
:100820002C6B2B6F050E2B25016E000E2C21036EF9
:100830000150D60FE96E000E0320EA6EECCF03F0F4
:10084000ED52EFCF01F003C002F0000115D301011A
:100850002A51190DF3502C6B2B6F070E2B25016EAF
:10086000000E2C21036E0150D60FE96E000E0320FE
:10087000EA6EECCF03F0ED52EFCF01F003C002F0CF
:100880000001FAD201012A51190DF3502C6B2B6F84
:10089000090E2B25016E000E2C21036E0150D60F80
:1008A000E96E000E0320EA6EECCF03F0ED52EFCFBD
:1008B00001F003C002F00001DFD201012A51190D3D
:1008C000F3502C6B2B6F0B0E2B25016E000E2C2181
:1008D000036E0150D60FE96E000E0320EA6EECCFD6
:1008E00003F0ED52EFCF01F003C002F00001C4D2DB
:1008F00001012A51190DF3502C6B2B6F0D0E2B2576
:10090000016E000E2C21036E0150D60FE96E000E11
:100910000320EA6EECCF03F0ED52EFCF01F003C0FD
:1009200002F00001A9D201012A51190DF3502C6BDC
:100930002B6F0F0E2B25016E000E2C21036E015024
:10094000D60FE96E000E0320EA6EECCF03F0ED52F5
:10095000EFCF01F003C002F000018ED201012A5155
:10096000190DF3502C6B2B6F110E2B25016E000E01
:100970002C21036E0150D60FE96E000E0320EA6EA3
:10098000ECCF03F0ED52EFCF01F003C002F0000115
:1009900073D201012A51190DF3502C6B2B6F130EDA
:1009A0002B25016E000E2C21036E0150D60FE96E2F
:1009B000000E0320EA6EECCF03F0ED52EFCF01F012
:1009C00003C002F0000158D201012A51190DF35061
:1009D0002C6B2B6F150E2B25016E000E2C21036E38
:1009E0000150D60FE96E000E0320EA6EECCF03F043
:1009F000ED52EFCF01F003C002F000013DD2010142
:100A00002A51190DF3502C6B2B6F170E2B25016EED
:100A1000000E2C21036E0150D60FE96E000E03204C
:100A2000EA6EECCF03F0ED52EFCF01F003C002F01D
:100A3000000122D2FF0E016E026E1ED2C4C001F070
:100A4000C5C002F019D2C8C001F0C9C002F014D26A
:100A5000C6C001F0C7C002F00FD2CEC001F0026ADA
:100A60000BD201012A51240DF3502C6B2B6F1B0E5E
:100A70002B25E96E000E2C21EA6EECCF03F0ED522F
:100A8000EFCF01F003C002F00001F6D101012A51BD
:100A9000240DF3502C6B2B6F020E2B25016E000ED4
:100AA0002C21036E01501B0FE96E000E0320EA6E2D
:100AB000ECCF03F0ED52EFCF01F003C002F00001E4
:100AC000DBD101012A51240DF3502C6B2B6F040E46
:100AD0002B25016E000E2C21036E01501B0FE96EB9
:100AE000000E0320EA6EECCF03F0ED52EFCF01F0E1
:100AF00003C002F00001C0D101012A51240DF350BE
:100B00002C6B2B6F060E2B25016E000E2C21036E15
:100B100001501B0FE96E000E0320EA6EECCF03F0CC
:100B2000ED52EFCF01F003C002F00001A5D10101A9
:100B30002A51240DF3502C6B2B6F080E2B25016EC0
:100B4000000E2C21036E01501B0FE96E000E0320D6
:100B5000EA6EECCF03F0ED52EFCF01F003C002F0EC
:100B600000018AD101012A51240DF3502C6B2B6F07
:100B70000A0E2B25016E000E2C21036E01501B0F57
:100B8000E96E000E0320EA6EECCF03F0ED52EFCFDA
:100B900001F003C002F000016FD101012A51240DC0
:100BA000F3502C6B2B6F0C0E2B25016E000E2C219D
:100BB000036E01501B0FE96E000E0320EA6EECCFAE
:100BC00003F0ED52EFCF01F003C002F0000154D169
:100BD00001012A51240DF3502C6B2B6F0E0E2B2587
:100BE000016E000E2C21036E01501B0FE96E000EEA
:100BF0000320EA6EECCF03F0ED52EFCF01F003C01B
:100C000002F0000139D101012A51240DF3502C6B5F
:100C10002B6F100E2B25016E000E2C21036E015040
:100C20001B0FE96E000E0320EA6EECCF03F0ED52CD
:100C3000EFCF01F003C002F000011ED101012A51E3
:100C4000240DF3502C6B2B6F120E2B25016E000E12
:100C50002C21036E01501B0FE96E000E0320EA6E7B
:100C6000ECCF03F0ED52EFCF01F003C002F0000132
:100C700003D101012A51240DF3502C6B2B6F140E5C
:100C80002B25016E000E2C21036E01501B0FE96E07
:100C9000000E0320EA6EECCF03F0ED52EFCF01F02F
:100CA00003C002F00001E8D001012A51240DF350E5
:100CB0002C6B2B6F160E2B25016E000E2C21036E54
:100CC00001501B0FE96E000E0320EA6EECCF03F01B
:100CD000ED52EFCF01F003C002F00001CDD00101D1
:100CE0002A51240DF3502C6B2B6F180E2B25016EFF
:100CF000000E2C21036E01501B0FE96E000E032025
:100D0000EA6EECCF03F0ED52EFCF01F003C002F03A
:100D10000001B2D001012A51240DF3502C6B2B6F2E
:100D20001A0E2B25016E000E2C21036E01501B0F95
:100D3000E96E000E0320EA6EECCF03F0ED52EFCF28
:100D400001F003C002F0000197D001012A51240DE7
:100D5000F3502C6B2B6F140E2B25016E000E2C21E3
:100D6000036E01501B0FE96E000E0320EA6EECCFFC
:100D700003F0ED52EFCF01F003C002F000017CD090
:100D800001012A51240DF3502C6B2B6F160E2B25CD
:100D9000016E000E2C21036E01501B0FE96E000E38
:100DA0000320EA6EECCF03F0ED52EFCF01F003C069
:100DB00002F0000161D001012A51240DF3502C6B87
:100DC0002B6F180E2B25016E000E2C21036E015087
:100DD0001B0FE96E000E0320EA6EECCF03F0ED521C
:100DE000EFCF01F003C002F0000146D001012A510B
:100DF000240DF3502C6B2B6F1A0E2B25016E000E59
:100E00002C21036E01501B0FE96E000E0320EA6EC9
:100E1000ECCF03F0ED52EFCF01F003C002F0000180
:100E20002BD0FF0E016E026E27D0440E016E000E15
:100E3000026E22D0320E016E000E026E1DD04C0EDC
:100E4000016E000E026E18D0300E016E000E026EA2
:100E500013D0CBC001F0026A0FD0CCC001F0026AFF
:100E60000BD0CDC001F0026A07D0CAC001F0026AFF
:100E700003D0FF0E016E026E9BEF07F0C95029C12F
:100E8000C9FFC6889E96C7B0FED7016AC5AC012AC5
:100E90001200C7BA06D00101086BC7A401D0088FA1
:100EA000000108C126F1010108517F0804E0083D56
:100EB00001D001D0082B2651800831E3265180084B
:100EC00003E1C9CF27F106D0C69CC7A0FED7C95001
:100ED000C688276F262D04D0D89027350C6F1FD0D9
:100EE000265101081CE22651800819E0265102080B
:100EF00003E127C10BF113D02651030810E1D8906C
:100F00000C31286F0BC12AF127C129F12B6F0BC1BE
:100F10002DF127C12CF100016EEF00F001012651E7
:100F20007F081CE20CB112D0D8900C31286F296FC9
:100F300000010AEF03F002C00AF101C009F10AC181
:100F400028F10AC129F19ADF07D0010109C128F16E
:100F500009C129F1000192DF01010C2B9E960001CD
:100F600036EF00F02320272573270D0A00002320E9
:100F700020636F6D70696C655F796561723D257581
:100F80000D0A00002320636F6D70696C655F6D6FE3
:100F90006E74683D25750D0A000023202020636FC4
:100FA0006D70696C655F6461793D25750D0A00009F
:100FB000232020202020202076696E206164633D5C
:100FC000256C750D0A002320202020202074656DDB
:100FD00070206164633D256C750D0A00232D2D2D55
:100FE0002D2D2D2D0D0A00002320636F6E6669677D
:100FF0002E63685B25755D0D0A002320636F6D6DA0
:10100000616E645F6F66665F686F6C645F74696D64
:10101000653D256C750D0A0023202020206C766428
:101020005F646973636F6E6E6563745F6164633D73
:10103000256C750D0A002320206C76645F6469734B
:10104000636F6E6E6563745F64656C61793D256C7A
:10105000750D0A002320202020206C76645F7265C5
:10106000636F6E6E6563745F6164633D256C750DBF
:101070000A00232020206C76645F7265636F6E6EB9
:101080006563745F64656C61793D256C750D0A005C
:1010900023202020206876645F646973636F6E6E1E
:1010A0006563745F6164633D256C750D0A002320E0
:1010B000206876645F646973636F6E6E6563745FE6
:1010C00064656C61793D256C750D0A002320202034
:1010D00020206876645F7265636F6E6E6563745F0F
:1010E0006164633D256C750D0A002320202068761D
:1010F000645F7265636F6E6E6563745F64656C6177
:10110000793D256C750D0A0023202020206C746425
:101110005F646973636F6E6E6563745F6164633D82
:10112000256C750D0A002320206C74645F6469735C
:10113000636F6E6E6563745F64656C61793D256C89
:10114000750D0A002320202020206C74645F7265D6
:10115000636F6E6E6563745F6164633D256C750DCE
:101160000A00232020206C74645F7265636F6E6ECA
:101170006563745F64656C61793D256C750D0A006B
:1011800023202020206874645F646973636F6E6E2F
:101190006563745F6164633D256C750D0A002320EF
:1011A000206874645F646973636F6E6E6563745FF7
:1011B00064656C61793D256C750D0A002320202043
:1011C00020206874645F7265636F6E6E6563745F20
:1011D0006164633D256C750D0A002320202068742E
:1011E000645F7265636F6E6E6563745F64656C6186
:1011F000793D256C750D0A00230D0A0023206368D4
:10120000616E6E656C5B25755D0D0A0023202020E4
:1012100020202020202020202020202020202020CE
:10122000202020202073746174653D307825303291
:10123000780D0A002320202020202020202020209C
:10124000636F6D6D616E645F6F6E5F7365636F6E0C
:1012500064733D256C750D0A00002320202020209A
:1012600020636F6D6D616E645F6F6E5F686F6C643D
:101270005F7365636F6E64733D256C750D0A0000C6
:101280002320202020202020202020636F6D6D61EE
:101290006E645F6F66665F7365636F6E64733D2532
:1012A0006C750D0A0000232020202020636F6D6DD7
:1012B000616E645F6F66665F686F6C645F736563C1
:1012C0006F6E64733D256C750D0A000023206C76EB
:1012D000645F646973636F6E6E6563745F64656C8D
:1012E00061795F7365636F6E64733D256C750D0A7C
:1012F00000002320206C76645F7265636F6E6E65FC
:1013000063745F64656C61795F7365636F6E64734A
:101310003D256C750D0A000023206876645F6469C2
:1013200073636F6E6E6563745F64656C61795F7320
:1013300065636F6E64733D256C750D0A0000232094
:10134000206876645F7265636F6E6E6563745F6458
:10135000656C61795F7365636F6E64733D256C7551
:101360000D0A000023206C74645F646973636F6E00
:101370006E6563745F64656C61795F7365636F6EDE
:1013800064733D256C750D0A00002320206C746485
:101390005F7265636F6E6E6563745F64656C6179BF
:1013A0005F7365636F6E64733D256C750D0A000095
:1013B00023206874645F646973636F6E6E65637421
:1013C0005F64656C61795F7365636F6E64733D25FF
:1013D0006C750D0A00002320206874645F726563D9
:1013E0006F6E6E6563745F64656C61795F7365636E
:1013F0006F6E64733D256C750D0A000023206463D5
:101400007377635F6D6F64756C655F6C617463683F
:10141000696E675F636F6E746163746F72202573AA
:101420000D0A23200000352D4665622D3232000062
:101430005744542054494D454F5554004D434C5248
:101440002046524F4D20534C454550004D434C5281
:101450002046524F4D2052554E004E4F524D414C5A
:1014600020504F5745522055500042524F574E4F33
:10147000555420524553544152540000574454206F
:1014800046524F4D20534C45455000005245534560
:101490005420494E535452554354494F4E00554ED3
:1014A0004B4E4F574E210000010EEA6E240EE96E9E
:1014B000EF500EE0050E016E006A002EFED7012EE1
:1014C000FBD72E0E006E002EFED700D0EF2EF2D7E7
:1014D0001200240E016EC250C30B0110C26E010E29
:1014E0000101246F0001E0DFC282C2B2FED7C4CF87
:1014F00023F1C3CF22F101012351020808E2FF0AC0
:1015000003E12251BF0803E2000E016E18D02351FF
:10151000010808E2FF0A03E122516A0803E2020E11
:10152000016E0DD02351000808E2FF0A03E12251A9
:10153000BF0803E2010E016E02D0030E016E00012E
:10154000FBEF0BF0700ED36E9B9C9B9EC050C00BAC
:101550000509C06EC08EC280140E7E6EC190C1920D
:10156000C194C196020E7F6ED1803F0E926E700EB6
:10157000936E810E946E300E776EF19E786A010143
:10158000176B175101082AE31751190DF350236BFC
:10159000226F050E2225016E000E2321036E0150DD
:1015A000D60FE96E000E0320EA6EEC68ED52EF688C
:1015B0001751190DF350236B226F010E2225016E76
:1015C000000E2321036E0150D60FE96E000E03209A
:1015D000EA6EEC68ED52EF68172BD3D7010EEA6E76
:1015E000180EE96E000E00015DEC00F00A00090023
:1015F000F550EE6E0009FBE10101176B19512D0842
:101600000FE0036A1751180FE96E010E0320EA6E0E
:10161000300EEF5C0A0DF3CFCDF000010101172B66
:10162000036A1751180FE96E010E0320EA6E300E9F
:10163000EF5C0001CD27020E01011727036A175145
:10164000180FE96E010E0320EA6EEF504A0825E1FB
:10165000010E1725036A180FE96E010E0320EA6ECA
:10166000EF50410805E1010E0001CC6F14D00101DB
:10167000020E1725036A180FE96E010E0320EA6EA9
:10168000EF504E0805E1060E0001CC6F04D00101B9
:10169000070E0001CC6F8CD00101036A1751180F9F
:1016A000E96E010E0320EA6EEF50410815E1010ECC
:1016B0001725036A180FE96E010E0320EA6EEF503A
:1016C000500805E1040E0001CC6F04D00101080EA2
:1016D0000001CC6F6DD00101036A1751180FE96E3C
:1016E000010E0320EA6EEF504D0815E1020E17259A
:1016F000036A180FE96E010E0320EA6EEF505208DC
:1017000005E1030E0001CC6F04D00101050E0001BC
:10171000CC6F4ED00101036A1751180FE96E010E0C
:101720000320EA6EEF50460805E1020E0001CC6F7F
:101730003FD00101036A1751180FE96E010E032013
:10174000EA6EEF50530805E1090E0001CC6F30D06E
:101750000101036A1751180FE96E010E0320EA6EAA
:10176000EF504F0805E10A0E0001CC6F21D00101B6
:10177000036A1751180FE96E010E0320EA6EEF504D
:101780004E0805E10B0E0001CC6F12D00101036A77
:101790001751180FE96E010E0320EA6EEF5044084E
:1017A00005E10C0E0001CC6F03D001010001CC69F2
:1017B000040E01011725036A180FE96E010E0320BC
:1017C000EA6E300EEF5C0A0DF3CFCBF00001050E90
:1017D00001011725036A180FE96E010E0320EA6E56
:1017E000300EEF5C0001CB27000E0609CA6EF90E21
:1017F000CB6E9D826ED6D89001343E0F0101C86E2B
:101800000001C1EF1CF00101206B1FC122F11E512C
:10181000D8B41F071E07216F215302E1225330E085
:101820001DC103F01C51E96E03C0EAFF1B51036E9A
:101830001A511A2BD8B41B2B236F03C024F1F2CFFB
:1018400025F1F29E23C1A9FFA69CA69EA680A850C2
:1018500025BFF28EEF6E1DC103F01C51E96E03C06F
:10186000EAFFEFCF21F120C124F121C125F124515C
:101870002519016E01C020F11C2BD8B41D2BC5D732
:1018800020C101F00001AAEF0DF00101226B21C17E
:1018900024F12051D8B421072007236F235302E1FC
:1018A00024533CE01FC103F01E51E96E03C0EAFF60
:1018B000EFCF23F122C124F123C125F124512519B1
:1018C000016E01C022F11D51036E1C511C2BD8B4B6
:1018D0001D2B236F03C024F11F51036E1E511E2BBD
:1018E000D8B41F2BE96E03C0EAFFEFCF25F1F25009
:1018F000006EF29E23C1A9FF25C1A8FFA69CA69E4B
:10190000A6840F01550EA76EAA0EA76EA682A6B2D8
:10191000FED7A6940050F2120101B9D722C101F0FE
:101920000001A1EF0CF001011B0E1A6F1D6B020EDE
:101930001C6F1F6B1AC11EF1216B480E206F000136
:10194000A4D701C019F1F250006EF29EA96A19C124
:10195000A8FFA69CA69EA6840F01550EA76EAA0EF0
:10196000A76EA682A6B2FED7A6940050F21200017E
:101970001200010ECE6F960ED06FD16F0101186B61
:1019800018510108D8A0D5D01851240DF3501A6B66
:10199000196F040E1925016E000E1A21036E0150F5
:1019A0001B0FE96E000E0320EA6E010EEC6EED5285
:1019B0002F0EEF6E1851240DF3501A6B196F060E8F
:1019C0001925016E000E1A21036E01501B0FE96EDE
:1019D000000E0320EA6EEC6AED52280EEF6E1851ED
:1019E000240DF3501A6B196F080E1925016E000EA5
:1019F0001A21036E01501B0FE96E000E0320EA6EE0
:101A0000010EEC6EED52340EEF6E1851240DF350B2
:101A10001A6B196F0A0E1925016E000E1A21036E3A
:101A200001501B0FE96E000E0320EA6EEC6AED52C6
:101A30000A0EEF6E1851240DF3501A6B196F0C0E2D
:101A40001925016E000E1A21036E01501B0FE96E5D
:101A5000000E0320EA6E010EEC6EED529A0EEF6E50
:101A60001851240DF3501A6B196F0E0E1925016EC3
:101A7000000E1A21036E01501B0FE96E000E0320A9
:101A8000EA6EEC68ED52EF681851240DF3501A6BB2
:101A9000196F100E1925016E000E1A21036E0150E8
:101AA0001B0FE96E000E0320EA6E010EEC6EED5284
:101AB000810EEF6E1851240DF3501A6B196F120E30
:101AC0001925016E000E1A21036E01501B0FE96EDD
:101AD000000E0320EA6EEC6AED523C0EEF6E1851D8
:101AE000240DF3501A6B196F160E1925016E000E96
:101AF0001A21036E01501B0FE96E000E0320EA6EDF
:101B0000EC68ED52EF681851240DF3501A6B196F01
:101B10001E0E1925016E000E1A21036E01501B0FB7
:101B2000E96E000E0320EA6EEC68ED52EF68182BA8
:101B300027D70001F8DE120001011B0E186F1B6B86
:101B4000020E1A6F1D6B18C11CF11F6B480E1E6F21
:101B5000000159D601C017F1F2CF18F1F29EA96A1F
:101B6000A69CA69EA680A850010118BFF28E175D04
:101B700003E00001FEDE01010001C3EF1CF00900DB
:101B8000F6CF1CF1F7CF1DF1F5509EA8FED7AD6E34
:101B90001CC1F6FF1DC1F7FF01011B2F01D002D0B0
:101BA0000001EDD7000112000900F5520DE0F6CF5B
:101BB00018F1F7CF19F1F5509EA8FED7AD6E18C1F8
:101BC000F6FF19C1F7FFF0D71200C32BC3510F085E
:101BD00001E2C36B100E016EC250C30B0110C26E46
:101BE000D890C335036A630FE96E000E0320EA6ED6
:101BF000C282C2B2FED7C3CFEFFFC4CFECFF080E44
:101C0000016EC250C30B0110C26E010E0101246FA0
:101C100000014ADCD890C335036A830FE96E000ED9
:101C20000320EA6EC282C2B2FED7C3CFEFFFC4CF99
:101C3000ECFF240E016EC250C30B0110C26E010EE8
:101C40000101246F000130DCD890C335036AA30F73
:101C5000E96E000E0320EA6EC282C2B2FED7C3CF85
:101C6000EFFFC4CFECFF12000101175303E1928A8A
:101C700080AA05D0172D12D0928880B80FD01751A6
:101C8000190DF3501B6B1A6FD60E1A25016E000E3C
:101C90001B2101C0E9FFEA6EEF800ED01751190D2C
:101CA000F3501B6B1A6FD60E1A25016E000E1B2106
:101CB00001C0E9FFEA6EEF901751190DF3501B6B4D
:101CC0001A6F010E1A25016E000E1B21036E0150C2
:101CD000D60FE96E000E0320EA6EECCF03F0ED5252
:101CE000EF50FF0803E1033C01D0CBD01751190D91
:101CF000F3501B6B1A6F010E1A25016E000E1B218B
:101D0000036E0150D60FE96E000E0320EA6EECCF91
:101D10001BF1ED52EFCF1AF11A5302E11B5317E0FA
:101D20001751190DF3501B6B1A6F010E1A25016E16
:101D3000000E1B21036E0150D60FE96E000E03202A
:101D4000EA6EFF0EEF2602E2EE52ED069AD0175130
:101D5000190DF3501B6B1A6FD60E1A25E96E000E83
:101D60001B21EA6EEFCF1CF11CB33AD01751190DAD
:101D7000F3501B6B1A6FD60E1A25016E000E1B2135
:101D800001C0E9FFEA6EEF821751190DF3501B6B8A
:101D90001A6F030E1A25016E000E1B21036E0150EF
:101DA000D60F016E000E032203C01BF11751240D44
:101DB000F3501D6B1C6F1B0E1C25E96E000E1D21C0
:101DC000EA6EECCF03F0ED52EFCF1EF11BC1EAFF3C
:101DD00001C0E9FF03C0ECFFED521EC1EFFF51D07F
:101DE0001751190DF3501B6B1A6F030E1A25016E54
:101DF000000E1B21036E0150D60FE96E000E03206A
:101E0000EA6EECCF03F0ED52EF5025E1035223E1EF
:101E10001751190DF3501B6B1A6FD60E1A25016E50
:101E2000000E1B2101C0E9FFEA6EEF921751190D58
:101E3000F3501B6B1A6F010E1A25016E000E1B2149
:101E4000036E0150D60FE96E000E0320EA6EEC68B7
:101E5000ED52EF6816D01751190DF3501B6B1A6F26
:101E6000030E1A25016E000E1B21036E0150D60FC2
:101E7000E96E000E0320EA6EFF0EEF2602E2EE523C
:101E8000ED061751190DF3501B6B1A6F050E1A252D
:101E9000016E000E1B21036E0150D60FE96E000E7D
:101EA0000320EA6EECCF03F0ED52EF50FF0803E1A0
:101EB000033C01D0D3D01751190DF3501B6B1A6F8F
:101EC000050E1A25016E000E1B21036E0150D60F60
:101ED000E96E000E0320EA6EECCF1BF1ED52EFCF5E
:101EE0001AF11A5302E11B5317E01751190DF35061
:101EF0001B6B1A6F050E1A25016E000E1B21036E57
:101F00000150D60FE96E000E0320EA6EFF0EEF2699
:101F100002E2EE52ED06A2D01751190DF3501B6BE1
:101F20001A6FD60E1A25E96E000E1B21EA6EEFCF4E
:101F30001CF11CB542D01751190DF3501B6B1A6FD1
:101F4000D60E1A25016E000E1B2101C0E9FFEA6EB4
:101F5000EF841751190DF3501B6B1A6F070E1A25DA
:101F6000016E000E1B21036E0150D60F016E000E94
:101F7000032201C01AF103C01BF11751240DF350C5
:101F80001D6B1C6F020E1C25016E000E1D21036EC1
:101F900001501B0FE96E000E0320EA6EECCF03F038
:101FA000ED52EFCF1CF11BC1EAFF1AC1E9FF03C0DC
:101FB000ECFFED521CC1EFFF51D01751190DF3503A
:101FC0001B6B1A6F070E1A25016E000E1B21036E84
:101FD0000150D60FE96E000E0320EA6EECCF03F03D
:101FE000ED52EF5025E1035223E11751190DF35043
:101FF0001B6B1A6FD60E1A25016E000E1B2101C035
:10200000E9FFEA6EEF941751190DF3501B6B1A6F2D
:10201000050E1A25016E000E1B21036E0150D60F0E
:10202000E96E000E0320EA6EEC68ED52EF6816D000
:102030001751190DF3501B6B1A6F070E1A25016EFD
:10204000000E1B21036E0150D60FE96E000E032017
:10205000EA6EFF0EEF2602E2EE52ED061751240D56
:10206000F3501B6B1A6F060E1A25016E000E1B2112
:10207000036E01501B0FE96E000E0320EA6EECCFD9
:1020800003F0ED52EF50FF0803E1033C01D02FD1E4
:10209000196AF2BE198EF29E2B6B0001CAEC02F097
:1020A00019BEF28E02C019F101C018F101011751D9
:1020B000240DF3501B6B1A6F080E1A25016E000ECB
:1020C0001B21036E01501B0FE96E000E0320EA6E08
:1020D000ECCF03F0ED52EFCF01F00350195D44E374
:1020E00003E11851015C40E21751190DF3501B6BCD
:1020F0001A6F0B0E1A25016E000E1B21036E015084
:10210000D60FE96E000E0320EA6EECCF1BF1ED5204
:10211000EFCF1AF11A5302E11B5317E01751190DB3
:10212000F3501B6B1A6F0B0E1A25016E000E1B214C
:10213000036E0150D60FE96E000E0320EA6EFF0E0B
:10214000EF2602E2EE52ED060ED01751190DF350B4
:102150001B6B1A6FD60E1A25016E000E1B2101C0D3
:10216000E9FFEA6EEF9633D01751190DF3501B6B50
:102170001A6F0B0E1A25016E000E1B21036E015003
:10218000D60F016E000E032201C01AF103C01BF12D
:102190001751240DF3501D6B1C6F0A0E1C25016E88
:1021A000000E1D21036E01501B0FE96E000E03206F
:1021B000EA6EECCF03F0ED52EFCF1CF11BC1EAFF4A
:1021C0001AC1E9FF03C0ECFFED521CC1EFFF17512C
:1021D000240DF3501B6B1A6F040E1A25016E000EAE
:1021E0001B21036E01501B0FE96E000E0320EA6EE7
:1021F000ECCF03F0ED52EFCF01F01951035C44E353
:1022000003E10150185D40E21751190DF3501B6BAB
:102210001A6F090E1A25016E000E1B21036E015064
:10222000D60FE96E000E0320EA6EECCF1BF1ED52E3
:10223000EFCF1AF11A5302E11B5317E01751190D92
:10224000F3501B6B1A6F090E1A25016E000E1B212D
:10225000036E0150D60FE96E000E0320EA6EFF0EEA
:10226000EF2602E2EE52ED060ED01751190DF35093
:102270001B6B1A6FD60E1A25016E000E1B2101C0B2
:10228000E9FFEA6EEF8633D01751190DF3501B6B3F
:102290001A6F090E1A25016E000E1B21036E0150E4
:1022A000D60F016E000E032201C01AF103C01BF10C
:1022B0001751240DF3501D6B1C6F060E1C25016E6B
:1022C000000E1D21036E01501B0FE96E000E03204E
:1022D000EA6EECCF03F0ED52EFCF1CF11BC1EAFF29
:1022E0001AC1E9FF03C0ECFFED521CC1EFFF17510B
:1022F000240DF3501B6B1A6F0E0E1A25016E000E83
:102300001B21036E01501B0FE96E000E0320EA6EC5
:10231000ECCF03F0ED52EF50FF0803E1033C01D096
:102320002FD1196AF2BE198EF29E2B6B0001CAECF6
:1023300002F019BEF28E02C019F101C018F10101BC
:102340001751240DF3501B6B1A6F100E1A25016ED6
:10235000000E1B21036E01501B0FE96E000E0320BF
:10236000EA6EECCF03F0ED52EFCF01F01951035CB0
:1023700044E303E10150185D40E21751190DF35099
:102380001B6B1A6F0F0E1A25016E000E1B21036EB8
:102390000150D60FE96E000E0320EA6EECCF1BF160
:1023A000ED52EFCF1AF11A5302E11B5317E0175108
:1023B000190DF3501B6B1A6F0F0E1A25016E000ECC
:1023C0001B21036E0150D60FE96E000E0320EA6E4A
:1023D000FF0EEF2602E2EE52ED060ED01751190D58
:1023E000F3501B6B1A6FD60E1A25016E000E1B21BF
:1023F00001C0E9FFEA6EEF9833D01751190DF35081
:102400001B6B1A6F0F0E1A25016E000E1B21036E37
:102410000150D60F016E000E032201C01AF103C055
:102420001BF11751240DF3501D6B1C6F120E1C2550
:10243000016E000E1D21036E01501B0FE96E000E90
:102440000320EA6EECCF03F0ED52EFCF1CF11BC17D
:10245000EAFF1AC1E9FF03C0ECFFED521CC1EFFF18
:102460001751240DF3501B6B1A6F0C0E1A25016EB9
:10247000000E1B21036E01501B0FE96E000E03209E
:10248000EA6EECCF03F0ED52EFCF01F00350195D8F
:1024900044E303E11851015C40E21751190DF35078
:1024A0001B6B1A6F0D0E1A25016E000E1B21036E99
:1024B0000150D60FE96E000E0320EA6EECCF1BF13F
:1024C000ED52EFCF1AF11A5302E11B5317E01751E7
:1024D000190DF3501B6B1A6F0D0E1A25016E000EAD
:1024E0001B21036E0150D60FE96E000E0320EA6E29
:1024F000FF0EEF2602E2EE52ED060ED01751190D37
:10250000F3501B6B1A6FD60E1A25016E000E1B219D
:1025100001C0E9FFEA6EEF8833D01751190DF3506F
:102520001B6B1A6F0D0E1A25016E000E1B21036E18
:102530000150D60F016E000E032201C01AF103C034
:102540001BF11751240DF3501D6B1C6F0E0E1C2533
:10255000016E000E1D21036E01501B0FE96E000E6F
:102560000320EA6EECCF03F0ED52EFCF1CF11BC15C
:10257000EAFF1AC1E9FF03C0ECFFED521CC1EFFFF7
:102580001751240DF3501B6B1A6F160E1A25016E8E
:10259000000E1B21036E01501B0FE96E000E03207D
:1025A000EA6EECCF03F0ED52EF50FF0803E1033C7D
:1025B00001D030D1196AF2BE198EF29E010E2B6F36
:1025C0000001CAEC02F019BEF28E02C019F101C07E
:1025D00018F101011751240DF3501B6B1A6F180EDF
:1025E0001A25016E000E1B21036E01501B0FE96EB0
:1025F000000E0320EA6EECCF03F0ED52EFCF01F0B6
:102600001951035C44E303E10150185D40E21751A6
:10261000190DF3501B6B1A6F130E1A25016E000E65
:102620001B21036E0150D60FE96E000E0320EA6EE7
:10263000ECCF1BF1ED52EFCF1AF11A5302E11B530D
:1026400017E01751190DF3501B6B1A6F130E1A2553
:10265000016E000E1B21036E0150D60FE96E000EB5
:102660000320EA6EFF0EEF2602E2EE52ED060ED0D8
:102670001751190DF3501B6B1A6FD60E1A25016EE8
:10268000000E1B2101C0E9FFEA6EEF9A33D017510B
:10269000190DF3501B6B1A6F130E1A25016E000EE5
:1026A0001B21036E0150D60F016E000E032201C0E4
:1026B0001AF103C01BF11751240DF3501D6B1C6F51
:1026C0001A0E1C25016E000E1D21036E01501B0FFA
:1026D000E96E000E0320EA6EECCF03F0ED52EFCF6F
:1026E0001CF11BC1EAFF1AC1E9FF03C0ECFFED5268
:1026F0001CC1EFFF1751240DF3501B6B1A6F140E02
:102700001A25016E000E1B21036E01501B0FE96E8E
:10271000000E0320EA6EECCF03F0ED52EFCF01F094
:102720000350195D44E303E11851015C40E2175185
:10273000190DF3501B6B1A6F110E1A25016E000E46
:102740001B21036E0150D60FE96E000E0320EA6EC6
:10275000ECCF1BF1ED52EFCF1AF11A5302E11B53EC
:1027600017E01751190DF3501B6B1A6F110E1A2534
:10277000016E000E1B21036E0150D60FE96E000E94
:102780000320EA6EFF0EEF2602E2EE52ED060ED0B7
:102790001751190DF3501B6B1A6FD60E1A25016EC7
:1027A000000E1B2101C0E9FFEA6EEF8A33D01751FA
:1027B000190DF3501B6B1A6F110E1A25016E000EC6
:1027C0001B21036E0150D60F016E000E032201C0C3
:1027D0001AF103C01BF11751240DF3501D6B1C6F30
:1027E000160E1C25016E000E1D21036E01501B0FDD
:1027F000E96E000E0320EA6EECCF03F0ED52EFCF4E
:102800001CF11BC1EAFF1AC1E9FF03C0ECFFED5246
:102810001CC1EFFF00011200036A01011951D20F20
:10282000E96E000E0320EA6EEF5001E11CD0036A4E
:102830001951D40FE96E000E0320EA6EC80EEF6E38
:10284000195305E194968B8694988B9804D0949AAA
:102850008B8A949C8B9C036A1951D20FE96E000EEF
:102860000320EA6EEF6A00018CEF14F0036A0101A5
:102870001951D20FE96E000E0320EA6EEF500108E5
:1028800001E11DD0036A1951D40FE96E000E032037
:10289000EA6EC80EEF6E195305E194968B969498E4
:1028A0008B8804D0949A8B9A949C8B8C036A1951D0
:1028B000D20FE96E000E0320EA6E010EEF6E0001EA
:1028C00092EF14F0010E0101186F186F1751190DD6
:1028D000F3501A6B196FD60E1925E96E000E1A21E6
:1028E000EA6EEF50030B03E0010E186F0FD0175183
:1028F000190DF3501A6B196FD60E1925E96E000EDB
:102900001A21EA6EEF507C0B01E0186B185306E1B8
:1029100017C119F1000180D705D0010117C119F1C4
:102920000001A4D71200CF95D05303E194928B926B
:1029300003D094928B82D007D15303E194948B946B
:1029400003D094948B84D107C83D03D0C93D01D0F6
:1029500003D0C82BD8B4C92BD45305E194968B96D9
:1029600094988B9801D0D407D55305E1949A8B9A0B
:10297000949C8B9C01D0D5070101122BD8B4132B4A
:102980001251E80828E11351030825E1136B126B7B
:10299000176B000134EC0EF0010E0101176F0001FE
:1029A00034EC0EF00101176B00018CDF010E010108
:1029B000176F000187DF01010F2B0F513C080BE15E
:1029C0000F6B0001C63D03D0C73D01D003D0C62B1D
:1029D000D8B4C72B01010001CFA305D0CF930101CB
:1029E000116B106B00010101102BD8B4112B105189
:1029F000140807E1115305E1116B106B0001CF8141
:102A00000101000166EF1DF09EAAFED7ABCF1AF0C0
:102A1000AECF01F01AA202D0AB98AB886AEF1DF0DE
:102A200001011B51016A1A5D03E21AC100F00CD0CA
:102A3000006A080E1C6F1A3700361B51005CD8B0B4
:102A4000006E01361C2FF7D700011200015018C18B
:102A50001AF1640E01011B6F0001E2DF00C018F1E2
:102A60000150300E08E1010119A30ED019B70CD0A6
:102A700019B9200E04D0010119971999198101265D
:102A800001509EA8FED7AD6E18C11AF10A0E1B6F39
:102A90000001C6DF00C018F10150300E08E101014D
:102AA00019B70BD019A109D019B9200E00010126C0
:102AB00001509EA8FED7AD6E0101300E18271851A7
:102AC0009EA8FED7AD6E00011200EACF22F1E9CF39
:102AD00021F101011B39F0091D6F1D27E20F1E6F47
:102AE000320F206F1B510F0B1E271E272027E90FC7
:102AF0001F6F1F271F271A390F0B1F2720271F376C
:102B00002037201F20371A510F0B20271D37070EA3
:102B10001C6F0A0E1F072027FDE31E071F27FDE37A
:102B20001D071E27FDE31C071D27FDE3010EEA6EAE
:102B30001C0EE96E070E2115219DE926000EEA22E2
:102B4000E950200803E1EA2C01D0218DEF50006EFE
:102B500008E121BD06D021B90CD021B702D0200E4A
:102B600003D021872199300E002600509EA8FED761
:102B7000AD6EEE5021ADE4D70001120001011CBF83
:102B800010D00F0E006E1B3900160A0E005C03E217
:102B9000300E002602D01C51002600509EA8FED701
:102BA000AD6E0F0E1B170A0E1B5D02E2300E02D037
:102BB0001C9F1C511B271B519EA8FED7AD6E000108
:102BC00028EF1AF00400640EF66E0F0EF76E030E77
:102BD00001011B6F0001BFEC0DF0CA0EF66E000E76
:102BE000F76ED4EC0DF0690EF66E0F0EF76E030E55
:102BF00001011B6F0001BFEC0DF06E0EF66E0F0EA3
:102C0000F76E100E01011B6F0001BFEC0DF0CBC081
:102C100018F11B0E0101196F000118DF0D0E9EA89F
:102C2000FED7AD6E0A0E9EA8FED7AD6E840EF66E70
:102C30000F0EF76E100E01011B6F0001BFEC0DF0BF
:102C4000CCC018F11B0E0101196F0001FFDE0D0E43
:102C50009EA8FED7AD6E0A0E9EA8FED7AD6E9A0E48
:102C6000F66E0F0EF76E100E01011B6F0001BFEC28
:102C70000DF0CDC018F11B0E0101196F0001E6DE49
:102C80000D0E9EA8FED7AD6E0A0E9EA8FED7AD6EA5
:102C9000196AF2BE198EF29E01012B6B0001CAEC7B
:102CA00002F019BEF28E02C019F101C018F1B00E87
:102CB000F66E0F0EF76E100E01011B6F0001BFECD8
:102CC0000DF0100EE96E19C11BF118C11AF1FDDEED
:102CD0000D0E9EA8FED7AD6E0A0E9EA8FED7AD6E55
:102CE000196AF2BE198EF29E010E01012B6F0001CE
:102CF000CAEC02F019BEF28E02C019F101C018F13F
:102D0000C60EF66E0F0EF76E100E01011B6F00015E
:102D1000BFEC0DF0100EE96E19C11BF118C11AF1CC
:102D2000D4DE0D0E9EA8FED7AD6E0A0E9EA8FED76D
:102D3000AD6E0101176B17510108D8A075EF1CF09B
:102D40000400DC0EF66E0F0EF76E0001D4EC0DF0F1
:102D5000E80EF66E0F0EF76E0C0E01011B6F0001F0
:102D6000BFEC0DF017C118F11B0E0101196F000126
:102D70006DDEF60EF66E0F0EF76E030E01011B6F81
:102D80000001BFEC0DF001011751240DF350196B38
:102D9000186F020E1825016E000E1921036E0150E6
:102DA0001B0FE96E000E0320EA6EECCF19F1ED5215
:102DB000EFCF18F1FA0EF66E0F0EF76E180E1B6FAE
:102DC0000001BFEC0DF0100EE96E19C11BF118C126
:102DD0001AF17BDE0D0E9EA8FED7AD6E0A0E9EA8E0
:102DE000FED7AD6E01011751240DF350196B186F0A
:102DF000040E1825016E000E1921036E01501B0FE1
:102E0000E96E000E0320EA6EECCF19F1ED52EFCF20
:102E100018F1180EF66E100EF76E180E1B6F0001EB
:102E2000BFEC0DF0100EE96E19C11BF118C11AF1BB
:102E30004CDE0D0E9EA8FED7AD6E0A0E9EA8FED7E4
:102E4000AD6E01011751240DF350196B186F060E6A
:102E50001825016E000E1921036E01501B0FE96E3B
:102E6000000E0320EA6EECCF19F1ED52EFCF18F10E
:102E7000360EF66E100EF76E180E1B6F0001BFECCB
:102E80000DF0100EE96E19C11BF118C11AF11DDE0B
:102E90000D0E9EA8FED7AD6E0A0E9EA8FED7AD6E93
:102EA00001011751240DF350196B186F080E1825E6
:102EB000016E000E1921036E01501B0FE96E000E0A
:102EC0000320EA6EECCF19F1ED52EFCF18F1540E5A
:102ED000F66E100EF76E180E1B6F0001BFEC0DF0B2
:102EE000100EE96E19C11BF118C11AF1EEDD0D0EBD
:102EF0009EA8FED7AD6E0A0E9EA8FED7AD6E01014C
:102F00001751240DF350196B186F0A0E1825016E16
:102F1000000E1921036E01501B0FE96E000E0320F5
:102F2000EA6EECCF19F1ED52EFCF18F1720EF66E9A
:102F3000100EF76E180E1B6F0001BFEC0DF0100E97
:102F4000E96E19C11BF118C11AF1BFDD0D0E9EA863
:102F5000FED7AD6E0A0E9EA8FED7AD6E01011751C9
:102F6000240DF350196B186F0C0E1825016E000E0E
:102F70001921036E01501B0FE96E000E0320EA6E4B
:102F8000ECCF19F1ED52EFCF18F1900EF66E100E56
:102F9000F76E180E1B6F0001BFEC0DF0100EE96EFE
:102FA00019C11BF118C11AF190DD0D0E9EA8FED7B4
:102FB000AD6E0A0E9EA8FED7AD6E01011751240D0D
:102FC000F350196B186F0E0E1825016E000E1921A3
:102FD000036E01501B0FE96E000E0320EA6EECCF6A
:102FE00019F1ED52EFCF18F1AE0EF66E100EF76E2E
:102FF000180E1B6F0001BFEC0DF0100EE96E19C129
:103000001BF118C11AF161DD0D0E9EA8FED7AD6E41
:103010000A0E9EA8FED7AD6E01011751240DF35084
:10302000196B186F100E1825016E000E1921036E12
:1030300001501B0FE96E000E0320EA6EECCF19F170
:10304000ED52EFCF18F1CC0EF66E100EF76E180E93
:103050001B6F0001BFEC0DF0100EE96E19C11BF1E2
:1030600018C11AF132DD0D0E9EA8FED7AD6E0A0E04
:103070009EA8FED7AD6E01011751240DF350196BB8
:10308000186F120E1825016E000E1921036E0150E3
:103090001B0FE96E000E0320EA6EECCF19F1ED5222
:1030A000EFCF18F1EA0EF66E100EF76E180E1B6FCA
:1030B0000001BFEC0DF0100EE96E19C11BF118C133
:1030C0001AF103DD0D0E9EA8FED7AD6E0A0E9EA866
:1030D000FED7AD6E040001011751240DF350196B9A
:1030E000186F140E1825016E000E1921036E015081
:1030F0001B0FE96E000E0320EA6EECCF19F1ED52C2
:10310000EFCF18F1080EF66E110EF76E180E1B6F4A
:103110000001BFEC0DF0100EE96E19C11BF118C1D2
:103120001AF1D3DC0D0E9EA8FED7AD6E0A0E9EA836
:10313000FED7AD6E01011751240DF350196B186FB6
:10314000160E1825016E000E1921036E01501B0F7B
:10315000E96E000E0320EA6EECCF19F1ED52EFCFCD
:1031600018F1260EF66E110EF76E180E1B6F000189
:10317000BFEC0DF0100EE96E19C11BF118C11AF168
:10318000A4DC0D0E9EA8FED7AD6E0A0E9EA8FED73B
:10319000AD6E01011751240DF350196B186F180E05
:1031A0001825016E000E1921036E01501B0FE96EE8
:1031B000000E0320EA6EECCF19F1ED52EFCF18F1BB
:1031C000440EF66E110EF76E180E1B6F0001BFEC69
:1031D0000DF0100EE96E19C11BF118C11AF175DC62
:1031E0000D0E9EA8FED7AD6E0A0E9EA8FED7AD6E40
:1031F00001011751240DF350196B186F1A0E182581
:10320000016E000E1921036E01501B0FE96E000EB6
:103210000320EA6EECCF19F1ED52EFCF18F1620EF8
:10322000F66E110EF76E180E1B6F0001BFEC0DF05D
:10323000100EE96E19C11BF118C11AF146DC0D0E12
:103240009EA8FED7AD6E0A0E9EA8FED7AD6E0101F8
:103250001751240DF350196B186F1C0E1825016EB1
:10326000000E1921036E01501B0FE96E000E0320A2
:10327000EA6EECCF19F1ED52EFCF18F1800EF66E39
:10328000110EF76E180E1B6F0001BFEC0DF0100E43
:10329000E96E19C11BF118C11AF117DC0D0E9EA8B9
:1032A000FED7AD6E0A0E9EA8FED7AD6E0101175176
:1032B000240DF350196B186F1E0E1825016E000EA9
:1032C0001921036E01501B0FE96E000E0320EA6EF8
:1032D000ECCF19F1ED52EFCF18F19E0EF66E110EF4
:1032E000F76E180E1B6F0001BFEC0DF0100EE96EAB
:1032F00019C11BF118C11AF165EC15F00D0E9EA84D
:10330000FED7AD6E0A0E9EA8FED7AD6E0101175115
:10331000240DF350196B186F200E1825016E000E46
:103320001921036E01501B0FE96E000E0320EA6E97
:10333000ECCF19F1ED52EFCF18F1BC0EF66E110E75
:10334000F76E180E1B6F0001BFEC0DF0100EE96E4A
:1033500019C11BF118C11AF165EC15F00D0E9EA8EC
:10336000FED7AD6E0A0E9EA8FED7AD6E01011751B5
:10337000240DF350196B186F220E1825016E000EE4
:103380001921036E01501B0FE96E000E0320EA6E37
:10339000ECCF19F1ED52EFCF18F1DA0EF66E110EF7
:1033A000F76E180E1B6F0001BFEC0DF0100EE96EEA
:1033B00019C11BF118C11AF165EC15F00D0E9EA88C
:1033C000FED7AD6E0A0E9EA8FED7AD6E0400F80EB5
:1033D000F66E110EF76ED4EC0DF0FC0EF66E110EBB
:1033E000F76E0A0E01011B6F0001BFEC0DF017C153
:1033F00018F11B0E0101196F000126EC15F0080EE3
:10340000F66E120EF76E030E01011B6F0001BFEC8A
:103410000DF001011751190DF350196B186FD60EED
:103420001825E96E000E1921EA6EEFCF1AF10C0E85
:10343000F66E120EF76E210E1B6F0001BFEC0DF041
:103440001AC11BF1570E01011C6F0001BEEF15F0F0
:103450000D0E9EA8FED7AD6E0A0E9EA8FED7AD6ECD
:1034600001011751190DF350196B186F010E182532
:10347000016E000E1921036E0150D60FE96E000E89
:103480000320EA6EECCF19F1ED52EFCF18F1340EB4
:10349000F66E120EF76E1F0E1B6F0001BFEC0DF0E3
:1034A000100EE96E19C11BF118C11AF165EC15F087
:1034B0000D0E9EA8FED7AD6E0A0E9EA8FED7AD6E6D
:1034C00001011751190DF350196B186F030E1825D0
:1034D000016E000E1921036E0150D60FE96E000E29
:1034E0000320EA6EECCF19F1ED52EFCF18F15A0E2E
:1034F000F66E120EF76E1F0E1B6F0001BFEC0DF083
:10350000100EE96E19C11BF118C11AF165EC15F026
:103510000D0E9EA8FED7AD6E0A0E9EA8FED7AD6E0C
:1035200001011751190DF350196B186F050E18256D
:10353000016E000E1921036E0150D60FE96E000EC8
:103540000320EA6EECCF19F1ED52EFCF18F1800EA7
:10355000F66E120EF76E1F0E1B6F0001BFEC0DF022
:10356000100EE96E19C11BF118C11AF165EC15F0C6
:103570000D0E9EA8FED7AD6E0A0E9EA8FED7AD6EAC
:1035800001011751190DF350196B186F070E18250B
:10359000016E000E1921036E0150D60FE96E000E68
:1035A0000320EA6EECCF19F1ED52EFCF18F1A60E21
:1035B000F66E120EF76E1F0E1B6F0001BFEC0DF0C2
:1035C000100EE96E19C11BF118C11AF165EC15F066
:1035D0000D0E9EA8FED7AD6E0A0E9EA8FED7AD6E4C
:1035E00001011751190DF350196B186F090E1825A9
:1035F000016E000E1921036E0150D60FE96E000E08
:103600000320EA6EECCF19F1ED52EFCF18F1CC0E9A
:10361000F66E120EF76E1F0E1B6F0001BFEC0DF061
:10362000100EE96E19C11BF118C11AF165EC15F005
:103630000D0E9EA8FED7AD6E0A0E9EA8FED7AD6EEB
:1036400001011751190DF350196B186F0B0E182546
:10365000016E000E1921036E0150D60FE96E000EA7
:103660000320EA6EECCF19F1ED52EFCF18F1F20E14
:10367000F66E120EF76E1F0E1B6F0001BFEC0DF001
:10368000100EE96E19C11BF118C11AF165EC15F0A5
:103690000D0E9EA8FED7AD6E0A0E9EA8FED7AD6E8B
:1036A00001011751190DF350196B186F0D0E1825E4
:1036B000016E000E1921036E0150D60FE96E000E47
:1036C0000320EA6EECCF19F1ED52EFCF18F1180E8E
:1036D000F66E130EF76E1F0E1B6F0001BFEC0DF0A0
:1036E000100EE96E19C11BF118C11AF165EC15F045
:1036F0000D0E9EA8FED7AD6E0A0E9EA8FED7AD6E2B
:1037000001011751190DF350196B186F0F0E182581
:10371000016E000E1921036E0150D60FE96E000EE6
:103720000320EA6EECCF19F1ED52EFCF18F13E0E07
:10373000F66E130EF76E1F0E1B6F0001BFEC0DF03F
:10374000100EE96E19C11BF118C11AF165EC15F0E4
:103750000D0E9EA8FED7AD6E0A0E9EA8FED7AD6ECA
:10376000040001011751190DF350196B186F110E58
:103770001825016E000E1921036E0150D60FE96E57
:10378000000E0320EA6EECCF19F1ED52EFCF18F1E5
:10379000640EF66E130EF76E1F0E1B6F0001BFEC6A
:1037A0000DF0100EE96E19C11BF118C11AF165EC8C
:1037B00015F00D0E9EA8FED7AD6E0A0E9EA8FED780
:1037C000AD6E01011751190DF350196B186F130EDF
:1037D0001825016E000E1921036E0150D60FE96EF7
:1037E000000E0320EA6EECCF19F1ED52EFCF18F185
:1037F0008A0EF66E130EF76E1F0E1B6F0001BFECE4
:103800000DF0100EE96E19C11BF118C11AF165EC2B
:1038100015F00D0E9EA8FED7AD6E0A0E9EA8FED71F
:10382000AD6E01011751190DF350196B186F150E7C
:103830001825016E000E1921036E0150D60FE96E96
:10384000000E0320EA6EECCF19F1ED52EFCF18F124
:10385000B00EF66E130EF76E1F0E1B6F0001BFEC5D
:103860000DF0100EE96E19C11BF118C11AF165ECCB
:1038700015F00D0E9EA8FED7AD6E0A0E9EA8FED7BF
:10388000AD6E01011751190DF350196B186F170E1A
:103890001825016E000E1921036E0150D60FE96E36
:1038A000000E0320EA6EECCF19F1ED52EFCF18F1C4
:1038B000D60EF66E130EF76E1F0E1B6F0001BFECD7
:1038C0000DF0100EE96E19C11BF118C11AF165EC6B
:1038D00015F00D0E9EA8FED7AD6E0A0E9EA8FED75F
:1038E000AD6E0101172B9BEF16F0000170EF1DF07C
:1038F000F86AD09E078E938C9388C86A360EC66E7F
:10390000C580C58E1A6AB886A00EAF6E010EB06E65
:10391000A60EAC6E900EAB6E01010E6B0D6B000E21
:103920007E6EC190C192C194C1967F6E6C6A6B6AC3
:103930006D6A05D0F2401B0005410F000000000E2B
:10394000F86E390EF76E340EF66E0900F550006E03
:10395000000A13E00900F550016EE8BE05D03F0BE8
:10396000EA6E0900F5CFE9FF01BC090001AC0900CE
:10397000F5CFEEFF004EE9D7F9D7F86A0001A2EFC4
:103980000AF09CEF0DF00101146B1451040813E3CD
:10399000040094928B82C80E246F000154EC0AF04C
:1039A00094928B92C80E0101246F000154EC0AF02E
:1039B0000101142BEAD7FC0EF66E130EF76E220EE1
:1039C0001B6F0001BFEC0DF0260EF66E140EF76EA5
:1039D000D4EC0DF0200EF66E140EF76E040E0101FD
:1039E0001B6F0001BFEC0DF0070E005C12E00B0E28
:1039F000005C16E00F0E005C1AE00C0E005C1EE08E
:103A00000E0E005C22E0030E005C26E000522BE06C
:103A100031D0300EF66E140EF76ED4EC0DF030D0BF
:103A20003C0EF66E140EF76ED4EC0DF029D04C0E51
:103A3000F66E140EF76ED4EC0DF022D05A0EF66E20
:103A4000140EF76ED4EC0DF01BD06A0EF66E140E49
:103A5000F76ED4EC0DF014D07C0EF66E140EF76EEB
:103A6000D4EC0DF00DD08C0EF66E140EF76ED4EC77
:103A70000DF006D09E0EF66E140EF76ED4EC0DF01F
:103A80000D0E9EA8FED7AD6E0A0E9EA8FED7AD6E97
:103A9000F40ED06FC00EF2120101146B14511D0808
:103AA00006E30001E5EC0DF00101142BF7D7928A33
:103AB000156B80AA152B9288166B80A8162B9D86F5
:103AC00004000001CFA502D093EF14F09EAA03D00A
:103AD00004EF15F0CF8BCFAB03D0CF9BE2EF15F007
:103AE000CFA103D0CF91E5EC0DF0CFA703D0CF97B6
:103AF00093EC0CF0CFA903D0CF99B9EC0CF00101F5
:043B0000DFD7FFD735
:0200000400F00A
:0400000000004000BC
:020000040030CA
:0E0000000028190E0000090003C003E00340B1
:00000001FF
;PIC18F14K22
;CRC=A5F0  CREATED="05-Feb-22 19:14"
